:020000041000EA
:1000000000B5324B212058609868022188439860DF
:10001000D860186158612E4B002199600221596106
:100020000121F02299502B49196001219960352056
:1000300000F044F80222904214D00621196600F024
:1000400034F8196E01211966002018661A6600F04E
:100050002CF8196E196E196E052000F02FF8012189
:100060000842F9D1002199601B49196000215960AB
:100070001A491B48016001219960EB211966A021F2
:10008000196600F012F800219960164914480160C1
:100090000121996001BC002800D000471248134993
:1000A000086003C880F30888084703B5996A0420EC
:1000B0000142FBD001200142F8D103BD02B5186610
:1000C0001866FFF7F2FF186E186E02BD00000240BE
:1000D000000000180000070000035F00212200005C
:1000E000F4000018222000A00001001008ED00E03C
:1000F00000000000000000000000000074B24E7A12
:1001000000200420F7010010CB010010CD010010E9
:10011000C9010010C9010010C9010010C901001077
:10012000C9010010C9010010C9010010CF01001061
:10013000C9010010C9010010D1010010D301001045
:10014000C1010010C1010010C1010010C101001067
:10015000C1010010C1010010C1010010C101001057
:10016000C1010010C1010010C1010010C101001047
:10017000C1010010C1010010C1010010C101001037
:10018000C1010010C1010010C1010010C101001027
:10019000C1010010C1010010C1010010C101001017
:1001A000C1010010C1010010C1010010C101001007
:1001B000C1010010C1010010C1010010C1010010F7
:1001C000EFF30580103800BE00BE00BE00BE00BECA
:1001D00000BE00BEF2EB8871DCEE071000EF0710E6
:1001E0003802001090A31AE71E481F49086006C88D
:1001F00081F3088810471D480068002801D019487D
:10020000F3E70DA40ECC002902D000F012F8F9E7B4
:100210001749184A002000E001C19142FCD116495B
:100220008847164988471649884700BEFDE701C937
:1002300001C29A42FBD3704700EF0710C0000020B4
:100240002036002060240810000004200000042054
:10025000602408100010042000100420000000009A
:10026000704700000000000008ED00E0000000D032
:1002700020360020986200202D340110F505001072
:10028000ED330110F8B5C04606480749091A8B102E
:10029000C90FC91810B5491003D0044B002B00D06A
:1002A000984710BD203600202036002000000000B6
:1002B000054B10B5002B03D00449054800E000BFF2
:1002C000FFF7E2FF10BDC046000000007C5F002089
:1002D000609B06107047C0467047C04600B58DB0A1
:1002E000029011201C220021684411F031FB0123EF
:1002F0006A460D20137302A90422684411F02EFBF4
:1003000003A902480FF0CEFF0DB000BD043D002050
:1003100010B5034B010018000FF0C4FF10BDC0461C
:10032000643F0020F0B5DE4657464E464546E0B5F0
:100330008E4CA54413F038FF0321062010F098F8E6
:100340000321072010F094F800220121062010F06C
:10035000A9F800220121072010F0A4F8844985485B
:1003600013F032FD844923A801F052FB834932A8DF
:1003700007F07CFF8249C4A801F07EFE0CA80CF0B7
:100380008FF880220021520043A811F0E1FA2A22BE
:10039000002118A811F0DCFA0FAE0822002108A8ED
:1003A00011F0D6FA21220021300011F0D1FA0023F9
:1003B000744807A9079310F01FF80799C4A801F023
:1003C000D1FE082200210AA811F0C2FA6E4B6F4D2F
:1003D0009B466F4B6F4F9A466F4B01936F4B059344
:1003E00083AB99466E4B02936E4B04936E4B039313
:1003F0006E4B984618A923A801F08EF8002128001A
:100400000FF088FF28001FA90FF0BEFF18A958465B
:100410000FF080FF50460AA90FF07CFF00287CD126
:10042000310001980FF076FF002809D03378052BB2
:1004300006D8059A9B00D3589F46C4A801F09EFE9B
:10044000029808A90FF066FF00283AD1079B002BFD
:100450003ED0574A9C58631E022B39D8012C61D0DC
:10046000022C6AD03B78002B72D0039843A90FF07E
:1004700051FF00280CD0484643AA0CA90CF04CF8B8
:10048000002140460FF046FF494640460FF00AFF64
:1004900018A932A807F018FF18A9C4A801F04EFE49
:1004A00032A807F027FFC4A806F054FEA2E771782F
:1004B000C4A801F049FE029808A90FF02BFF0028FC
:1004C000C4D008A9C4A801F047FE079B002BC0D1E7
:1004D0003B78002BC9D00023049A3B701370C4E70B
:1004E000C4A801F047FEABE7717832A807F0E8FE38
:1004F000A6E77378002B33D0012BA1D14A4673882D
:1005000049461380337932A8937007F0E3FE97E7EA
:10051000717832A807F0D6FE92E70AA9C4A801F0C4
:1005200023FE7DE7049B1B78002B9BD1C4A801F020
:1005300029FE049B3C701C7097E7049B1B78002BE2
:1005400090D0C4A801F022FE0023049A13708CE717
:10055000C4A801F017FE0123049A3B70137084E7CE
:10056000B178C4A801F0F4FD6AE7C0463CF9FFFF8A
:1005700040420F006825002020C906100CC9061053
:1005800004C90610743F0020643D0020843F002011
:10059000DC3D00208C620020043D0020609B0610A2
:1005A000EC3D00208D620020643F0020943F00203D
:1005B0006C04000010B50400064B08000C3499428E
:1005C00005D035F0D3FF431E98414042044020003F
:1005D00010BDC04668C90610882110B50400490046
:1005E00011F0D2F9200010BD882110B5490011F09A
:1005F000CBF910BDF0B5DE4657464E464546E0B550
:10060000F94C0127A5440FF039F9F84A03002121DC
:100610001000049201220FF033FE0FF02FF9F44A7C
:10062000030008211000119201220FF029FE0FF0A3
:1006300025F9F04A03001C211000079201220FF057
:100640001FFE0FF01BF9EC4A03000E211000089268
:1006500001220FF015FE0FF011F98021E74C030085
:100660000122200049000FF00BFE0FF007F9802156
:10067000E34A030049001000099201220FF000FE36
:100680000FF0FCF8DF4E03000122042130000FF0D0
:10069000F7FD0FF0F3F8DC4A030008211000129276
:1006A00001220FF0EDFD13F055F8C8AB1800D74943
:1006B0009A4606F0CBFE00239846FC24424614AB33
:1006C0001B191A8008239946FE3214AB9B184A4620
:1006D0001A70F73214AB7C3C9B181C7054AB1C7026
:1006E00014AB0233FF331C7014AB0333FF33002110
:1006F000CF3A55A81C8011F02BF9852255AB1F70FD
:10070000520014AB9B180C221C70FF3214AB9B18C8
:100710001C70013214AB9B180E221C70FF3214ABFC
:100720009B181C7025237C340C3A14A90919FF3A34
:10073000CA5414A909190133ED32CA5414A909196C
:100740000133DD3ACA549421B14B490014AA52181E
:1007500013802E23772214A90919CA5414A9091940
:100760000233373ACA542E2114AAFF31313B5218B2
:100770001370013114AA521830211770FF3114AAD6
:1007800052181370013114AA521832211770FF3118
:1007900014AA52181370992214AB52009B181F70A0
:1007A0003C2014AB9C46FF300021F83A604411F025
:1007B000CFF89C21974B4900619314AA964B52188D
:1007C000138049463E2314AA1219D1541B2214A99E
:1007D00009191933CA540133CF54762014AB9C46FF
:1007E000FF3020220021604411F0B2F814AB9620B3
:1007F0009C46FF3014220021604411F0A9F89A238E
:10080000864A14A90919CA52AA2014AB9C46FF3083
:1008100060440822002111F09BF8B82314A909199B
:1008200083AACA500A00414600250433D15014AAB5
:1008300012190433D55414AA1033121932ACD554FA
:1008400020002A2211F084F88820400011F08CF852
:10085000734B476003600C239C4684446346876067
:100860001F00050018000D930BF0ACFE38000BF0D4
:10087000E9FF6B68814601336B6088A93DA88995C3
:10088000889709F001FE899D002D05D06B68013B1A
:100890006B60002B00D128E380220021520088A841
:1008A00011F056F85F480378002B00D02CE3534634
:1008B00016A9300016930FF067FD5B4813F048FC53
:1008C000484629AD08F0B2FD584808F063FE2122E1
:1008D0000021280011F03CF84B46049F2900380005
:1008E0006B700FF051FD14A88446552363442022F9
:1008F0000021180011F02CF802230D9E2B703000FF
:100900000BF0DCFF2900687038000FF03DFD14A8E3
:1009100084465523634420220021180011F018F862
:10092000032330002B700BF0CBFF290068703800D8
:100930000FF02AFD30000BF0D3FF0100504607F006
:100940000FFA310028000BF0A7FF2900504607F0EE
:1009500009FA4B46033BDBB20B934B460D2B00D100
:10096000E0E200239B4605930C930A9339AB029374
:1009700020AB10932E4B14AA06932E4B9446139340
:1009800019AB03932C4B0F932C4B0E932C4B1493BE
:1009900031236344159317AB98464A4621005046CD
:1009A00007F0B0FA029908980FF0B4FC3DA80AF0DD
:1009B0006DFC002800D001E15346022700260021EB
:1009C000204A9B585A1E97424E41F6B2012B00D145
:1009D0008DE0002006990870022A00D8A1E05A464E
:1009E000002A35D030E0C0463CF8FFFF043D00202F
:1009F000EC3D0020643D0020843F0020643F002047
:100A0000943F0020743F0020DC3D00203CC90610CC
:100A100012F8FFFF020180808080FFFF14080000B1
:100A2000F0C80610A021002025030010DD020010F0
:100A3000886200203C4A00208F620020584A002033
:100A4000906200206C0400000422934300D199E1DD
:100A5000059B002B11D00FF0C5FB002900D1D4E07D
:100A6000FA220023920010F06DFA01220C9B0592ED
:100A7000C01AC24B984200D9D3E02200039B83CA1C
:100A800083C383CA83C312681A600B9B012B00D8EF
:100A9000E8E000230A933DA80AF0F8FB07003DA810
:100AA0000AF0F4FB002800D196E03DA80AF0EEFB26
:100AB000002860D1002F5AD122004B46404653A94E
:100AC00009F0E8F9434603CB08F032FD08F022FDB7
:100AD000039907980FF0E6FB099888A90FF01AFC14
:100AE000002802D088A808F01DF9B34655E7069BF8
:100AF0001B78002B00D19DE10FF074FB002900D181
:100B0000CDE0FA220023920010F01CFA2123E35CCE
:100B1000002B06D0139B1B68C01A96235B009842DB
:100B200019D22223E35C002B92D0504607F046FBFB
:100B300014A884465523634420220021180010F095
:100B400007FF052329002B7004980FF01DFC0023DC
:100B50000C93059391E7504607F036F90023069A67
:100B600013702223E35C002B00D171E7DDE73DA881
:100B70000AF08CFBA0E73DA802990AF09FF83DA877
:100B80000AF09EFB002800D063E13DA80AF07EFB3E
:100B9000002800D188E028003DA90AF07BFB29004D
:100BA00011980FF0F1FB1C220021200010F0D0FE64
:100BB0000E220021029810F0CBFE7BE728000D9951
:100BC0000BF06AFE129E002130000FF0A3FB2900FB
:100BD00030000FF067FBEFE62723E35C9B460FF046
:100BE00001FB002900D1C3E0FA220023920010F09B
:100BF000A9F95B46002B00D0A8E05A460F9B1A705B
:100C00000E9B1A60149B1A704FE7FA21890010F0AE
:100C10005BF901220C9B0592C01A584B984200D8F0
:100C20002BE73DA809F010FD3DA809F0A7FD14A889
:100C300084465523634420220021180010F088FECA
:100C4000042329002B7004980FF09EFB109F3DA9F0
:100C500038000AF01FFB390011980FF095FB0023B4
:100C600005930AE73DA80AF011FB002800D010E721
:100C70000FF0B8FA002900D131E1FA2200239200E6
:100C800010F060F907000A9B002B06D03C4AFB1AC3
:100C9000934200D8FFE607F04DFE0A97FBE6FA21E3
:100CA000890010F011F931E70D9B18009B460BF0FD
:100CB0001DFE20220021159810F04AFE0523109AEF
:100CC0000498137011000FF05FFB2122002128000F
:100CD00010F03EFE4B46290004986B700FF054FB59
:100CE00014A884465523634420220021180010F0E4
:100CF0002FFE022358462B700BF0E0FD2900687090
:100D000004980FF041FB14A8844655236344202225
:100D10000021180010F01CFE032358462B700BF026
:100D2000CFFD2900687004980FF02EFB58460BF099
:100D3000D7FD0100504607F013F8594628000BF084
:100D4000ABFD2900504607F00DF82CE70F9A1378F9
:100D50000133DBB213700E9A1268022B00D88BE0BD
:100D6000002A00D08BE00E9B1860149B1A709CE642
:100D7000FA21890010F0A8F83BE7C046B70B000045
:100D80009F680600504607F045FA0D9B51469B466A
:100D900018000BF059FD58460BF0A8FD2122002148
:100DA000280010F0D5FD4B46290004986B700FF019
:100DB000EBFA14A88446552363442022002118002E
:100DC00010F0C6FD2F705F4638000BF077FD049BD6
:100DD0002900687018009B460FF0D6FA14A88446C4
:100DE0005523634420220021180010F0B1FD032395
:100DF00038002B700BF064FD2900687058460FF026
:100E0000C3FA38000BF06CFD0100504606F0A8FF55
:100E1000390028000BF040FD2900504606F0A2FFE3
:100E20000FF0E0F900294ED1FA21890010F04CF8BA
:100E30000C9010E60FF0D6F900294BD0FA220023CF
:100E4000920010F07FF8139B069A1860012313702C
:100E500052E6504606F08CFF14A88446552363449E
:100E600020220021180010F073FD052329000498AA
:100E70002B700FF089FA88E6002A00D115E6149944
:100E80000B78002B00D010E6821AFA2080008242F4
:100E900000D20AE601220A700F9A3DA813700E9A3A
:100EA000136009F0D1FB14A8844655236344202223
:100EB0000021180010F04CFD0423290004982B7029
:100EC0000FF062FAF1E5FA220023920010F03AF8EE
:100ED0000C90C0E5FA2189000FF0F6FFB3E7FA2184
:100EE00089000FF0F1FF0700CDE62B6828009B6812
:100EF0009847AB68013BAB60434500D0CCE42B681E
:100F00002800DB689847C7E48C21C04D4900415850
:100F100000958A256D00BE4BBE4A4059013107F04D
:100F20009FFCC4E400239B469946059339AB02938A
:100F300020AB1093B84B14A90693B84B8C4613936F
:100F4000B74B19AA0F93B74B0E93B74B149331239A
:100F50006344159317AB9846B44B0A93B44B0B9369
:100F6000B44B0C935B46934603930D2221005046ED
:100F700006F0C8FF029908980FF0CCF93DA80AF0D6
:100F800085F9002800D000E1534602270026002101
:100F9000A94A9B585A1E97424E41F6B2012B59D08E
:100FA000002006990870022A74D94A46002A03D004
:100FB0000422934300D1A2E1039B002B11D00FF038
:100FC00011F9002900D1EEE0FA22002392000FF07F
:100FD000B9FF0122059B0392C01A984B984200D991
:100FE000EDE05B46220083CA83C383CA83C31268D1
:100FF0003DA81A600AF04AF907003DA80AF046F930
:10100000002800D19FE03DA80AF040F9002877D1E0
:10101000002F59D100200CF0C5FE00285CD1220021
:101020000D23404653A908F035FF434603CB08F093
:101030007FFA08F06FFA594607980FF033F90998CC
:1010400088A90FF067F9002802D088A807F06AFE87
:10105000B1468AE7069B1B78002B00D1A8E10FF070
:10106000C1F8002900D1CBE0FA22002392000FF052
:1010700069FF2123E35C002B0CD0139B1B68C01A73
:1010800096235B00984205D3504606F09DFE002350
:10109000069A13702223E35C002B8DD0504607F094
:1010A0008DF814A88446552363442022002118009B
:1010B00010F04EFC052329002B7004980FF064F902
:1010C0000023059303938CE73DA80AF0DFF8002086
:1010D0000CF068FE0028A2D0109F012239000020E9
:1010E0000CF06AFE0A9B39781B78002B00D0B3E124
:1010F000AA2994D10A9A013313700B9B19708EE7B9
:101100003DA8029909F0DAFD3DA80AF0D9F80028B7
:1011100000D05CE13DA80AF0B9F8002800D18FE0CA
:1011200028003DA90AF0B6F8290011980FF02CF913
:101130001C220021200010F00BFC0E22002102983E
:1011400010F006FC64E72723E35C99460FF04AF8A9
:10115000002900D1CEE0FA22002392000FF0F2FE27
:101160004B46002B00D1BDE00F9A0E991378013346
:10117000DBB213700A68022B00D83BE1002A00D0D2
:101180003BE1149B08601A703DE728000D990BF0B5
:1011900083FB129E002130000FF0BCF829003000C4
:1011A0000FF080F8F0E6FA2189000FF08DFE0122A1
:1011B000059B0392C01A214B984200D811E73DA825
:1011C00009F042FA3DA809F0D9FA14A8844655233B
:1011D000634420220021180010F0BAFB04232900E8
:1011E0002B7004980FF0D0F8109F3DA938000AF03A
:1011F00051F8390011980FF0C7F800230393F0E677
:10120000FA2189000FF060FE33E7C0461103001099
:10121000B1210020A1210020886200203C4A00204A
:101220008F620020584A00209062002089620020CE
:10123000404A0020789B06106C040000B70B0000A9
:101240000D9B180099460BF051FB202200211598A8
:1012500010F07EFB0523109A0498137011000FF014
:1012600093F821220021280010F072FB0D232900A1
:1012700004986B700FF088F814A8844655236344D3
:1012800020220021180010F063FB022348462B7037
:101290000BF014FB2900687004980FF075F814A87F
:1012A00084465523634420220021180010F050FB8F
:1012B000032348462B700BF003FB29006870049849
:1012C0000FF062F848460BF00BFB0100504606F0A9
:1012D00047FD494628000BF0DFFA2900504606F08A
:1012E00041FD25E74A460F9B1A700E9B1A60149B1E
:1012F0001A7088E6FA2189000FF0E6FD30E75046C3
:1013000006F088FF0D9B5146994618000BF09CFA99
:1013100048460BF0EBFA21220021280010F018FBC0
:101320000D23290004986B700FF02EF814A8844642
:101330005523634420220021180010F009FB2F7070
:101340004F4638000BF0BAFA049B29006870180069
:1013500099460FF019F814A88446552363442022B7
:101360000021180010F0F4FA032338002B700BF062
:10137000A7FA2900687048460FF006F838000BF00D
:10138000AFFA0100504606F0EBFC390028000BF0E4
:1013900083FA2900504606F0E5FC0EF023FF0029F1
:1013A0004FD0FA22002392000FF0CCFD059006E604
:1013B0000EF018FF00294AD0FA22002392000FF005
:1013C000C1FD139B069A18600123137047E650462F
:1013D00006F0CEFC14A88446552363442022002145
:1013E000180010F0B5FA0523290004982B700EF0B0
:1013F000CBFF8FE6002A00D105E614990B78002B6D
:1014000000D000E6801AFA229200904200D2FAE55B
:1014100001220A700F9A3DA813700E9A136009F00A
:1014200013F914A884465523634420220021180090
:1014300010F08EFA0423290004982B700EF0A4FFFC
:10144000E1E5FA2189000FF03FFD0590B7E5FA21AB
:1014500089000FF039FDB4E70A980B9F5A1CD2B2ED
:101460000270F9540A2A00D0D9E500270B9B0770B7
:101470005B7A552B00D0D2E50B9950468B784A7891
:101480001B0213435BBA2B800B79CA781B021343F0
:101490005BBAAB808B794A791B0213435BBA6B80D2
:1014A0000B7ACA791B0213435BBA2900EB8006F062
:1014B00059FC0D9B2900994618000BF0C5F94846C8
:1014C0000BF014FA032238000C990CF0F3FC3800EE
:1014D0000CF0B6FCA3E5C046D0231B065868C043F9
:1014E0007047C0467047C0467047C04610B50430CC
:1014F0001AF000FF10BDC04610B504000C2110F01A
:1015000043FA200010BDC04610B50400042110F0BD
:101510003BFA200010BDC046F8B54E464546DE46B3
:101520005746E0B50700806B3D0003680E009B68DE
:1015300098472023FC6A243581469846AC4213D153
:1015400028E0FA22002392000FF0FCFCE3695B44E0
:10155000834203D843465246E254E06120001BF028
:1015600039FB0400A84215D04A46A36913405A1E0D
:101570009341DAB292464246A25C9A42EED0BB7BDD
:101580009B460EF02FFE0029DBD1FA2189000FF0D7
:101590009BFCDBE7BB6A1A1E00D16BE1110092686D
:1015A000002AFBD18D4200D164E10A7C002A00D0E0
:1015B00060E120328A5C2800914632771A0003E00D
:1015C00010009268002A05D0117C0029F8D1D26859
:1015D000002AF9D1854200D14CE1027C012A00D9D0
:1015E00048E12022815C2C001A00717703E014008E
:1015F0009268002A05D0107C0128F8D8D268002A09
:10160000F9D1A54200D135E1227C022A00D931E18D
:101610002022A25C28009046B2771A0003E0100056
:101620009268002A05D0147C022CF8D8D268002ACF
:10163000F9D1854200D11DE1027C032A00D919E1CC
:101640002022825C28009446F2771A0003E0100002
:101650009268002A05D0147C032CF8D8D268002A9E
:10166000F9D1854200D105E1027C042A00D901E1CB
:101670002022805CB05428001A0003E01000926819
:10168000002A05D0147C042CF8D8D268002AF9D19D
:10169000854200D1EEE0027C052A00D9EAE0202252
:1016A000805C0132B05428001A0003E010009268F8
:1016B000002A05D0147C052CF8D8D268002AF9D16C
:1016C000854200D1D6E0027C062A00D9D2E0202251
:1016D000805C0232B05428001A0003E010009268C7
:1016E000002A05D0147C062CF8D8D268002AF9D13B
:1016F000854200D1BEE0027C072A00D9BAE0202250
:10170000805C0332B05428001A0003E01000926895
:10171000002A05D0147C072CF8D8D268002AF9D109
:10172000854200D1A6E0027C082A00D9A2E020224E
:10173000805C0432B05428001A0003E01000926864
:10174000002A05D0147C082CF8D8D268002AF9D1D8
:10175000854200D18EE0027C092A00D98AE020224D
:10176000805C0532B05428001A0003E01000926833
:10177000002A05D0147C092CF8D8D268002AF9D1A7
:10178000854200D176E0027C0A2A00D972E020224C
:10179000805C0632B05428001A0003E01000926802
:1017A000002A05D0147C0A2CF8D8D268002AF9D176
:1017B00085425FD0027C0B2A5CD82022805C0732F5
:1017C000B05428001A0003E010009268002A05D0E7
:1017D000147C0B2CF8D8D268002AF9D1854249D064
:1017E000027C0C2A46D82022805C0832B0542800A3
:1017F00003E018009B68002B05D01A7C0C2AF8D84F
:10180000DB68002BF9D1854234D0027C0D2A31D817
:101810002022855C0932B5544A46002A17D101239B
:101820003B774346002B07D103237B77F0BCBB46B5
:10183000B246A946A046F8BD6346002B12D07B7F76
:10184000032B12D0022BF1D10023B377EEE700294E
:1018500006D03A7F012A0BD0002AE2D13377E0E7A5
:101860003977DEE702237B77E0E70023F377DDE7D4
:101870007377D6E7014828F0F3F8C0467C9B061042
:10188000F0B5D6464F464646C0B51E000700242098
:1018900015008A4610F068F8012332782D789340BD
:1018A00002758361202200230574C36183543B1DAC
:1018B000040056469946534547D0337C9D4228D272
:1018C000FB689A46B34268D030001BF0B3F9037C42
:1018D000AB425FD3BB689846002B05D18DE09B6877
:1018E0000121002B08D0984643461A7C9542F6D336
:1018F000DB680021002BF6D14646002900D075E0B8
:10190000954217D9B14548D0337C9D42AD416842DC
:1019100044E09D420FD93B695345F3D030001BF0A2
:1019200059F9037CAB4248D9F368002BECD0060090
:10193000012033E046462421200010F025F8300035
:10194000E0BCBA46B146A846F0BD7B69002B2FD15A
:10195000BB689846002B05D14DE09B680121002B08
:1019600008D0984643461A7C9542F6D3DB6800219E
:10197000002BF6D146460029C2D0FB6846464345B7
:10198000C0D040461BF056F9027C46468046954240
:10199000B8D8CFE7C368002B2BD001204B463200CC
:1019A00021001BF063F97B69260001337B61C6E7E8
:1019B0003E69337CAB42A5D3CAE7BB689846002B8F
:1019C00005D120E001219B68002B07D098464346B3
:1019D0001A7C9542F6D30021DB68F5E746460029DC
:1019E00000D18DE7FB689E42CBD18BE7C245C8D1C1
:1019F00088E7060086E7D046BFE7C846D145C0D194
:101A00004E460120CAE7FB68C8469945B9D1F7E7B9
:101A1000F0B5CE46474603000C0080B5060083B003
:101A20000F0007CC07C32200A14613CA13C31268D4
:101A300035001A609C4B2422B3830023B3546A46BA
:101A4000B362D3717363B363203398462435B044D3
:101A50003B00290007324046F5623563FFF710FF6F
:101A60006A460123D371B26A2900002A11D01300FB
:101A700003E019009B68002B05D0187C0028F8D1E2
:101A8000DB68002BF9D18D4203D00B7C012B00D8F1
:101A900052E16A467B1C07324046FFF7F1FE022303
:101AA0006946B26ACB71002A00D1E4E11400290032
:101AB00003E011009268002A05D0137C012BF8D8AE
:101AC000D268002AF9D18D4200D1D5E10B7C022BDE
:101AD00000D9D1E16A460323D3712200290003E033
:101AE0002100A468002C05D0237C022BF8D8E468E0
:101AF000002CF9D18D4200D1AFE10B7C032B00D932
:101B0000ABE104236946CB711300290003E0110007
:101B10009268002A05D0107C0328F8D8D268002AE1
:101B2000F9D18D4200D189E10A7C042A00D985E1EE
:101B300005226946CA711A00290003E019009B6852
:101B4000002B05D0187C0428F8D8DB68002BF9D1CD
:101B50008D4200D163E10B7C052B00D95FE10623A8
:101B60006946CB711300290003E011009268002A36
:101B700005D0107C0528F8D8D268002AF9D18D420A
:101B800000D13DE10A7C062A00D939E107226946E5
:101B9000CA711A00290003E019009B68002B05D0C8
:101BA000187C0628F8D8DB68002BF9D18D4200D1CB
:101BB00017E10B7C072B00D913E108236946CB7191
:101BC0001300290003E011009268002A05D0107C60
:101BD0000728F8D8D268002AF9D18D4200D1F0E068
:101BE0000A7C082A00D9ECE009226946CA711A0069
:101BF000290003E019009B68002B05D0187C0828F9
:101C0000F8D8DB68002BF9D18D4200D1C9E00B7CFC
:101C1000092B00D9C5E00A236946CB7113002900BE
:101C200003E011009268002A05D0107C0928F8D83A
:101C3000D268002AF9D18D4200D1A2E00A7C0A2A9A
:101C400000D99EE00B226946CA711A00290003E000
:101C500019009B68002B05D0187C0A28F8D8DB688F
:101C6000002BF9D18D4200D17BE00B7C0B2B00D9EE
:101C700077E00C236946CB711300290003E01100C3
:101C80009268002A05D0107C0B28F8D8D268002A68
:101C9000F9D18D4256D00A7C0C2A53D80D226946C0
:101CA000CA71290006E0C0460103000019009B68C4
:101CB000002B05D01A7C0C2AF8D8DB68002BF9D150
:101CC0008D4202D00B7C0D2B06D93B006A46404664
:101CD0000D330732FFF7D4FD337E002B00D0D9E05F
:101CE00004200FF041FE7A4BF46A81460360A5425E
:101CF00014D00123D02798463F06207D0EF0FAFB32
:101D00004346207D002283400121BB620EF0CAFBC6
:101D100020001AF077FF04008542EED14B46B06BED
:101D2000B363002802D003685B689847300003B0B3
:101D3000C0BCB946B046F0BD022369461400CB7161
:101D4000B5E629006A464B4607324046FFF798FD44
:101D50000D226946B36ACA71002BA2D12900B4E7EB
:101D600029003B006A460B3307324046FFF788FDE7
:101D70000C236946B26ACB71002AE2D013007CE7DB
:101D800029003B006A460A3307324046FFF778FDD8
:101D90000B226946B36ACA71002BE1D01A0055E7DD
:101DA00029003B006A46093307324046FFF768FDC9
:101DB0000A236946B26ACB71002AE1D013002EE7EC
:101DC00029003B006A46083307324046FFF758FDBA
:101DD00009226946B36ACA71002BE1D01A0007E7ED
:101DE00029006A46FB1D07324046FFF749FD0823DC
:101DF0006946B26ACB71002AE2D01300E1E62900FD
:101E00006A46BB1D07324046FFF73AFD0722694686
:101E1000B36ACA71002BE3D01A00BBE629006A46F8
:101E20007B1D07324046FFF72BFD06236946B26A49
:101E3000CB71002AE3D0130095E629006A463B1DCA
:101E400007324046FFF71CFD05226946B36ACA7196
:101E5000002BE3D01A006FE629006A46FB1C07320C
:101E60004046FFF70DFD04236946B26ACB71002A94
:101E7000E3D0130049E629006A46BB1C07324046FE
:101E8000FFF7FEFC03236A46B46AD371002CE3D04B
:101E9000220023E60C200FF067FD040005000D4B27
:101EA000326908C4317D20001AF0DEF920000A49A9
:101EB0001AF0ECF9200008491AF0F8F92000064958
:101EC0001AF006FAB06BB563002800D02BE72DE7B7
:101ED00078C906108CC90610FFFF0000F0B5D64681
:101EE0004F464646C0B50E0015000F1D39000400D0
:101EF0001AF0A0F8F31C98466B1C99461A0041464C
:101F000020001AF097F839004A4620001AF092F89B
:101F1000B31C9A46AB1C99461A00514620001AF091
:101F200089F841464A4620001AF084F839004A46AA
:101F300020001AF07FF8EB1C99461A002000711C53
:101F40001AF078F84A46514620001AF073F84A46CB
:101F5000414620002E1D1AF06DF84A463900200037
:101F60001AF068F85146320020001AF063F8414632
:101F7000320020001AF05EF83900320020006E1D99
:101F80001AF058F83200414620001AF053F8320097
:101F9000390020001AF04EF83900AA1D20001AF06E
:101FA00049F8E0BCBA46B146A846F0BDF8B5CE4601
:101FB0004746160080B504000D001AF03BF8731C6C
:101FC00098466F1C1A00290020001AF033F83900D7
:101FD000424620001AF02EF8B31C98461A00290039
:101FE00020001AF027F83900424620001AF022F8A3
:101FF000AB1C42461900200099461AF01BF8F31C4E
:1020000098461A00290020001AF014F839004246B8
:1020100020001AF00FF84946424620001AF00AF84C
:10202000E91C424620001AF005F8331D98461A00B4
:102030002900200019F0FEFF39004246200019F067
:10204000F9FF49464246200019F0F4FF731D9846F7
:102050001A002900200019F0EDFF42463900200047
:1020600019F0E8FF2900B21D200019F0E3FFC0BC01
:10207000B946B046F8BDC04670B50300040082B052
:10208000002505C905C320001C22002125720A3045
:102090000FF05EFC20000E22002126300FF058FCCD
:1020A00026000D23200008220021A386363040366A
:1020B0000FF04EFC1C22002130000FF049FCE565BA
:1020C0000EF090F8002932D0FA22002392000EF090
:1020D00039FF002520662000082200216566A566DC
:1020E000E56670300FF034FC48232268A567E56789
:1020F000E5542379802100923000402219F0F0FE4F
:10210000300019F08FFF8023E5500433E55004338D
:10211000094AE5500433E5502300A1180022A133F9
:102120001A7014338B42FBD1200002B070BDFA212B
:1021300089000EF0C9FECCE7C103000010B52A22C9
:102140000A300FF00BFC10BD3423C1547047C04659
:102150003523C1547047C04610B5072236300FF002
:10216000FDFB10BDC166704710B5082270300FF03E
:10217000F5FB10BD012303727047C04602230372B2
:102180007047C046032303727047C046042303729E
:102190007047C046F0B5C64600B582B004000EF0E8
:1021A00021F8002933D0FA22002392000EF0CAFE53
:1021B000236EC01A624B984209D8FA210EF084FEB1
:1021C000C00700D4A7E002B080BCB846F0BD5D4BAC
:1021D000984221D95C4B9842F5D85C4B40342000A2
:1021E00000930C220123252119F0A2FF584B200057
:1021F00000931A220223042119F09AFF554B302232
:1022000000932B210123200019F092FFDBE7FA2134
:1022100089000EF059FECBE74F4B40349C4660449A
:102220000FF08FFA4D490FF028FA011C051C0FF032
:1022300021FA011C4A480FF01AFA291C061C281C16
:102240000FF02FFA011C301C0FF02BFA45490FF04C
:1022500028FA0FF09DFA80263C4B311A009320009B
:1022600001230C2219F064FF3F49281C0FF058FA93
:1022700000285BD03C49281C0FF0F9F93B490FF0CE
:10228000FCF9011C071C0FF0F5F9011C34480FF094
:10229000EEF9391C8046381C0FF003FA011C404649
:1022A0000FF0FFF932490FF0FCF90FF071FA284BEB
:1022B000311A0093200002231A2219F039FF2D4908
:1022C000281C0FF02DFA002838D02A49281C0FF0BE
:1022D000CEF929490FF0D1F9011C051C0FF0CAF9FC
:1022E000011C1F480FF0C3F9291C071C281C0FF004
:1022F000D8F9011C381C0FF0D4F920490FF0D1F99E
:102300000FF046FA311A134B3022009320000123BC
:1023100019F00EFF57E720000221194B1C220093F1
:1023200040300223494219F003FF4CE7084B1A22C0
:10233000009380210223200019F0FAFE8021E2E7B9
:10234000B70B000093110000571B0000909B061074
:102350009C9B0610A89B061048F4FFFF0080BB441E
:10236000000040400000B642CDCC4C3ECDCC4C3FAE
:102370000000F842CDCCCC3E9A99193F0000AA4209
:10238000849B0610F0B5DE4657464E46454636233A
:10239000E0B5A7B00C00362200214030009349334D
:1023A000039019F05BFE08AB9B460AAB0893D44B35
:1023B0005A460A93042353600023137310AA0E9203
:1023C000D04A06A90A8502220F920A002A21521831
:1023D00013702378062B01D900F057FCCA4A9B00E2
:1023E000D3589F4616AB0293149301230493002302
:1023F000089A14AD1AAC2B72069223721CAA6B6059
:1024000002330426100098461A9205920222BF4910
:102410000FF0A4FA1A9B994643464A466360414628
:1024200000235354636898464246B94B9B1AB34203
:1024300001D200F044FC1A98059B9719984200D1EC
:1024400073E3A3689F4200D956E24044012E01D1B4
:1024500000F0F6FB320006990FF080FA1A9B9946BD
:102460004A4600236760D3551A9B9A46636899468B
:102470006B6898464246A64B9B1A994501D900F0D5
:102480001EFC4E46149F029B46449F4200D159E3D6
:10249000AB689E4200D9FBE24B46002B09D03800C6
:1024A0004044012B00D1D2E34A4651460FF056FA80
:1024B000149F00236E60BB551A98059B984203D069
:1024C000A16801310FF060FA6C68914B9C4201D118
:1024D00000F0F5FB149B029A661C934200D18AE33C
:1024E000AA68964200D900E320221A55149F0023BF
:1024F0006E60BB5519E0874B10AA934200D3D3E11D
:10250000854B10AA109304230F93002313715B468D
:102510005E680123049316AB02931493002314AD59
:102520002B726B60002E00D01AE20E9B0F9E05935B
:1025300022AB2093002320AC23726360B31C9A4625
:102540000F2B00D8BEE0002B00DAA5E31D2B00D82E
:10255000C4E1F01C00D54FE10FF006FA209B67683C
:10256000814698467A1C002F00D14DE2002A00D007
:10257000ACE1A168404601310FF006FA4B462093CA
:1025800053466768A360624BDB1B012B00D896E3C0
:10259000BB1C9846534500D9C4E038004844022289
:1025A0005E490FF0DBF9209B994643464A4663603B
:1025B000414600235354636899464A46544B9B1A3C
:1025C0009E4200D97BE3B046209F22ABC8449F4285
:1025D00000D1FEE1A368984500D9CDE0002E09D0D6
:1025E00038004844012E00D17CE1320005990FF0FB
:1025F000B5F9209F4346424663600023BB54209BAD
:102600009A46636898466B6899464A46404B9B1ABF
:10261000984500D953E34746149E029B4F449E427F
:1026200000D1E4E1AB689F4200D9DBE04346002BD8
:1026300009D030004844012B00D158E142465146B0
:102640000FF08CF9149E00236F60F355209822AB95
:10265000984203D0A16801310FF096F96A685300DF
:102660009B18049A5B00002A30D16E240021E41AE2
:102670006410149B123403980093382201236118CC
:1026800019F056FD1498029B984203D0A9680131B5
:102690000FF07AF90E9810AB984203D010990131DF
:1026A0000FF072F908980AAB984204D05B4699681B
:1026B00001310FF069F927B0F0BCBB46B246A9461C
:1026C000A046F0BD022322A8984668E75024039E46
:1026D000E41A6410210038223000FFF7FFFBE11DEF
:1026E00038223000FFF762FC21000D4B0F310093C0
:1026F00038220123300019F01BFD0C341221B8E7F9
:102700004261636B4F4B000098C90610F09B0610A6
:10271000FFFFFF7FB09B061053617665F49B0610A8
:10272000F89B06104346002B00DAB5E253465B00E7
:102730000693984500D311E2002B5DDB581C0FF087
:1027400013F9209B81469A463A00514648460FF0BD
:1027500005F938000222C94948440FF0FFF822ABBE
:102760009A4504D0A168504601310FF00DF94B464F
:102770002093069BA36018E74246002A00DA8BE20A
:102780005B000693984500D201E24346581C33D4BF
:1027900006930FF0E9F8209B07009A464B46002B62
:1027A00006D0012B00D143E24A4651460FF0D6F83D
:1027B000059B002B0AD0002E08D04B46F818012E9E
:1027C00000D149E2320005990FF0C8F822AB9A45D2
:1027D00004D0A168504601310FF0D6F8069B20972F
:1027E000A36007E7002F00DA56E25B0006939F42E2
:1027F00004D2581C002B04DA27F0D2F8781CFBD442
:1028000006970FF0B1F8149B060005934B46002B7A
:1028100006D0012B00D10FE24A4605990FF09EF831
:102820005346002B0CD04346002B09D04B46F018E2
:102830004346012B00D113E2424651460FF08EF879
:102840000598029B984203D0A96801310FF09CF8CB
:10285000069B1496AB60F6E6894B10AA934206D30A
:1028600006A92A228C466244934200D817E21A68CD
:102870002E2110929B8806AA938506230F9300238E
:10288000521813705B465A680AA97E4B994203D8C6
:102890008818834200D815E200235A4653600B7013
:1028A00000235668049336E606A92A228C46624421
:1028B000934200D924E6002201920432009210A92A
:1028C000023A0EA834F06CFE0E9A1CE619000FF0C6
:1028D00045F822AB984500D04BE69CE01E231F2014
:1028E0009A4639E6059B1B780370209F82E6534683
:1028F0001B780370149EA6E6002F00DACCE15B0083
:1029000007939F4200D264E1781C00D574E70797D3
:102910000FF02AF81A9B81469A464346002B06D0B0
:10292000012B00D1A0E1424651460FF017F8069B5B
:10293000002B08D040464844012E00D158E1190030
:1029400032000FF00BF8059B9A4504D0A168504661
:1029500001310FF019F84B461A93079BA3607FE5EE
:10296000089A1AAC069223721CAA6360B31C9A469A
:1029700005921A920F2B00D882E1002B00DA8BE12E
:102980001D2B00D808E1F01C00D535E70EF0ECFF58
:102990001A9B6768814698467A1C002F00D13BE15C
:1029A000002A00D0E5E0A168404601310EF0ECFFBE
:1029B0004B461A9353466768A360334BDB1B012BCE
:1029C00000D87CE1BB1C98469A452BD3380048447C
:1029D0001CE543460F2B00D800E6002B00DA5BE134
:1029E0001D2B00D9D1E61E231F200693D1E60F2F01
:1029F00000D81BE6002F00DA4EE11D2F00D9FDE6BE
:102A00001E231F200693FCE61B78037022AB98451B
:102A100000D0AEE500274B4620935346A360BB1C75
:102A20009846BAE54346002B00DA35E153465B0091
:102A30000793984500D2C2E0F81C00D5DCE60EF002
:102A400093FF1A9B81469A46434607933A005146A4
:102A500048460EF083FF380002220C4948440EF02D
:102A60007DFF059B9A4504D0A168504601310EF0C8
:102A70008BFF4B461A93079BA360CDE4F49B061093
:102A8000B89B0610FCA70610FFFFFF7FF09B061007
:102A9000002E00DA00E15B0007939E4200D29DE029
:102AA000701C00D5A8E607960EF05EFF149B070089
:102AB00006934346002B06D0012B00D1D8E04246B6
:102AC00006990EF04BFF5346002B02D04B46002BCD
:102AD00066D10698029B984203D0A96801310EF096
:102AE00053FF079B1497AB60E3E4002E00DAD3E0BA
:102AF000530098469E4276D3A01C00D57CE6B04693
:102B00000EF032FF149B07009946002C52D120236F
:102B10003B55029B994504D0A968484601310EF007
:102B200033FF43461497AB60E1E40F2F00D88CE4E9
:102B3000002F00DAB0E01D2F00D9E5E61E231F208C
:102B40000793E5E60F2E00D8A6E4002E00DAA3E0F6
:102B50001D2EA5D81E231F200793A5E7F81C00D51E
:102B60004AE60EF001FF209B81469A4643460693B3
:102B7000EAE519000EF0F2FE059B984500D012E739
:102B80004B461A935346A360BB1C98461EE7581C3D
:102B9000002B00DA30E6FCE51E231F209A46F5E6FE
:102BA0004346F8184B46012B66D04A4651460EF074
:102BB000D5FE8EE7012C29D11B780370A7E7002BE7
:102BC00000DA19E6581C0EF0CFFE1A9B81469A4691
:102BD0003CE7581C002B00DA0EE699E6581C002B47
:102BE00000DA09E660E7581C002B00DA04E687E704
:102BF0001B780370A7E6102E00D075E41F200EF09E
:102C0000B3FE149B070099461E23984622004946AE
:102C100038000EF0A3FE7AE71B780370059B9845F9
:102C200000D0C0E65346A36002231A909846CDE632
:102C300053461B780370BBE5059B1B780370EFE5DB
:102C4000069B1B7803701A9B9946FFF709FC5346B5
:102C50001B780370149F2CE4059B1B780370B5E56B
:102C600053461B780370EBE553461B7803705EE612
:102C7000069B1B78037026E753461B78037028E7F2
:102C8000022305989846FFF7C1FB16AB02931493F5
:102C900000230493FFF7ABFB0E4826F0C9FE002487
:102CA0000625022210A9019400950EA834F078FCA4
:102CB0000E9B0F959C715B4608995A68E5E506489E
:102CC00026F0B6FE002001900090584634F068FCD3
:102CD0000899E1E5C09B0610D89B0610F0B5DE46CA
:102CE00057464E464546E0B595B004000DF07AFAD9
:102CF000002900D1A4E0FA22002392000EF022F96C
:102D0000636EC01A3623E35C142B00D1A3E0E04BC2
:102D10003027984200D842E1DE4B4034082200932D
:102D200007210123200019F003FA0023012208AE35
:102D30000AAD089598467372D74B37727260AB42F2
:102D400000D334E12A00B77403CB03C21B8813807D
:102D50000023F37410AB9A460E930EAB99460C22E7
:102D6000290050460EF0FAFD0B234A46536000231B
:102D70000895736033721E231F209B460EF0F4FDEE
:102D800007000E9B0B22190098460EF0E7FD380055
:102D90000822C2490B300EF0E1FDD04505D04B466C
:102DA0009968404601310EF0EFFD4B465A460E97AA
:102DB0009A6013234A4653600023FB740E9A04ABB7
:102DC000984602AF0293524500D150E14B469B68B2
:102DD0000292BB60132308987B60A84200D144E1B3
:102DE000B16801310EF0D0FD7968029A4B005B1892
:102DF00080215B00C91A2000012349080092182293
:102E000019F096F9A64B28220421200000930123F3
:102E100019F08EF9A34B20000093342201230121E5
:102E200019F086F90298404503D0B96801310EF0D7
:102E3000ABFD15B0F0BCBB46B246A946A046F0BDFE
:102E4000FA2189000EF040F8636EC01A3623E35C65
:102E5000142B00D05BE78E4B3027984206D8FA211E
:102E600089000EF031F835273F1AFFB28E4B4034FF
:102E70000422009307210123200019F059F90023AF
:102E8000012208AE0AAD089598467372874B3772D7
:102E90007260AB4200D3B9E02A00377583CB83C29E
:102EA0000023737510AB9A460E930EAB99460E2213
:102EB000290050460EF052FD0D234A465360002370
:102EC0000895736033721E231F209B460EF04CFD45
:102ED00007000E9B0D22190098460EF03FFD3800AA
:102EE000032273490D300EF039FDD04505D04B4615
:102EF0009968404601310EF047FD4B465A460E9701
:102F00009A6010234A46536000233B740E9A04AB28
:102F1000984602AF0293524500D1B1E04B469B6800
:102F20000292BB60102308987B60A84200D1A5E004
:102F3000B16801310EF028FD7968029A4B005B18E8
:102F400080215B00C91A2000012349080092102249
:102F500019F0EEF81A231A220A21200000935B339D
:102F600019F07CF8534B2022072120000093012305
:102F700019F0DEF8504B2A220A2120000093012389
:102F800019F0D6F84D4B200000933422012307217D
:102F900019F0CEF80298404500D046E749E7FA21FB
:102FA00089000DF091FF35273F1AFFB2B4E62921C1
:102FB00069448B4200D9C5E6019209323000009283
:102FC0002900424634F0ECFA43460B22089872601E
:102FD000C3720EAB994610AB9A460E93A84200D12D
:102FE000BDE649460E904A604246B36808958B603C
:102FF00072603272504500D1BDE6122B6AD90822A8
:1030000026490B300EF0AAFC0E9FD2E62921694416
:103010008B4200D940E701920B3230000092290028
:10302000424634F0BDFA43460D220898726043735D
:103030000EAB994610AB9A460E93A84200D136E7E4
:1030400049460E904A604246B36808958B607260AC
:103050003272504500D136E70F2B31D90322144983
:103060000D300EF07BFC0E9F4BE71321BEE61422C1
:10307000514618000EF072FC4246ABE610215DE7A7
:103080001122514618000EF069FC42464AE7C0463C
:10309000871300005C9C0610709C06107C9C061038
:1030A000889C0610A09C0610FC9B0610109C061025
:1030B0006C9C0610209C0610349C0610489C061040
:1030C0005B009B46581C102B00D9FFE610231120F3
:1030D0009B46FBE65B009B46581C132B00D94DE634
:1030E000132314209B4649E610B5224B82B0403092
:1030F0000093022201231621040019F019F80C2371
:10310000200000930C220021733318F0A7FF1A4B04
:103110002000009310220123102119F009F8174B09
:1031200020000093182201230D2119F001F8144BFF
:1031300020000093202201230A2118F0F9FF114BEF
:1031400020000093282201231C2118F0F1FF0E4BD0
:103150002000009330220123162118F0E9FF0B4BC9
:103160003822009313210123200018F0E1FF02B060
:1031700010BDC046B89C0610C89C0610DC9C06100A
:10318000F09C06101C9E0610049D0610149D06104F
:10319000F0B5DE4657464E464546E0B5C46EBFB074
:1031A000002C58D0774BE358032B00D1C3E04023C9
:1031B0009946754B814404220A2148460093022314
:1031C00018F0B6FF162316220021484600936933F3
:1031D00018F044FF0DF006F8002943D0FA2200232E
:1031E00092000DF0AFFE674BE358022B42D0032B49
:1031F00000D1B1E007AB039305930123029305AB24
:1032000000249B463034E4B25B46002202991C72D3
:103210005960059B48465A545B4680215A685300C2
:103220009B189B00C91A059B1C2249080093022386
:1032300018F07EFF554B4846009330220123192198
:1032400018F076FF0598039B984204D05B46996876
:1032500001310EF099FB3FB0F0BCBB46B246A94627
:10326000A046F0BDFA2189000DF02EFE454BE35833
:10327000022BBCD1434B464A9C4664446368C11A46
:103280009142B7D8434A9446FA216344181A8900F8
:103290000DF01AFE040009286BD90123632852D9C6
:1032A000FA239B00984262D33B4B98424ED93B4B4A
:1032B00098424ED93A4B984244D90523023302939F
:1032C00005AB9B4600235A46536013720BAB07AD08
:1032D000C922180033499846039505950EF03EFB28
:1032E000632C1FD9029BAC469E1E2B4B66449A460C
:1032F000200064210DF0E8FD20004D0064210DF058
:10330000E3FD43465B195B782700737043465B5DC2
:1033100004003370023E5745EAD8FA239B009F42CF
:1033200000D26FE743465A4664001B195B7853721C
:1033300043461C5D68E7037A052B00D18BE7052324
:10334000037288E7052301330293B9E7042302934C
:10335000B6E705230293B3E70A4B134A9C4664443D
:10336000A368C11A914200D944E7104A8BE70123B0
:10337000A4E707AB039305930123029305AB9B4698
:1033800040E7C0466C040000249D0610309D0610E6
:10339000B70B00009F0F00000F2700009F86010061
:1033A0003F420F00409D0610871300006F1700007A
:1033B000F0B54546DE4657464E46E0B5C46E0500BC
:1033C000BFB0002C00D1C7E0D54BE358042B00D18F
:1033D00099E1052B00D139E140239946D14B814435
:1033E0000022042148460093022318F0A1FECE4B90
:1033F0001422102148460093012318F099FECB4B6C
:103400001C220D2148460093012318F091FEC84B61
:103410002422162148460093012318F089FE0CF05F
:10342000E1FE002900D19EE0FA22002392000DF077
:1034300089FDBB4B0E25E358032B1BD1B84BE3187A
:103440009B68C01ABB4B984200D9FDE043011B1A90
:103450009B001818B849C0000DF036FD0EF071F948
:10346000B6490EF01EF9B6490EF01BF90EF0BEF982
:1034700085B20E35302330220E21484600932B00B2
:1034800018F0ECFD312331220E21484600932B0029
:1034900018F0E4FD322332220E21484600932B001F
:1034A00018F0DCFD0CF09EFE002961D0FA2200230A
:1034B00092000DF047FD9A4BE358022B60D0032B8E
:1034C00000D103E107AB029305930123039305ABFE
:1034D00000249A463034E4B25346002203991C7209
:1034E0005960059B5A5453465C68964B9C4200D1E8
:1034F00058E1059B029A651C934200D1F1E05246C7
:103500009768BD4200D9AFE073221A55059E534615
:103510005D600023524673550BAB98465568059B7A
:10352000029A0DAC0B94934200D1E5E0524641461D
:1035300092680B938A604246484655607421009316
:103540003022012318F0F4FD0B98A04204D043462A
:10355000996801310EF018FA3FB0F0BCBB46B24694
:10356000A946A046F0BDFA2189000DF0ADFC60E748
:10357000FA2189000DF0A8FC694BE358022B9ED17B
:10358000674B714A9C4664446368C11A914299D85A
:103590006E4A9446FA216344181A89000DF094FC8F
:1035A0000400092800D8F2E00123632800D884E051
:1035B000FA239B00984200D2E7E0654B98427FD9FE
:1035C000644B98427FD9644B984275D905230233E6
:1035D000039305AB9A4600235246536013720BAB1C
:1035E00007AD1800C9225D499846029505950EF071
:1035F000B5F9AC46039B9E1E6644632C1BD9544B05
:103600009B46200064210DF05FFC20004D006421EA
:103610000DF05AFC43465B195B78270073704346F4
:103620005B5D04003370023E5F45EAD8FA239B00DD
:103630009F4200D24EE74346524664001B195B7816
:10364000537243461C5D47E7722513E70CF0CAFD31
:10365000002900D186E0FA22002392000DF072FCCE
:103660000723E8672B7277E7002D00DA97E07F00E9
:10367000BD4200D280E0A01C00D581E02F000EF0FA
:1036800073F9059B06009846002C06D0012C79D0D2
:103690002200414630000EF061F973233355029B3E
:1036A000984505D053469968404601310EF06CF9B3
:1036B000534605969F602AE705230133039388E765
:1036C0000423039385E70523039382E7144B194AE8
:1036D0009C466444A368C11A914200D9F2E6204A8C
:1036E00057E7102D00D00FE71F200EF03DF9059B86
:1036F000060098461E27CBE7110020006A1C0EF03A
:103700002DF9230017E70CF06DFD00292FD0FA22C8
:10371000002392000DF016FC0623A8672B721BE70E
:103720006C0400000C9E0610189E06102C9E0610BD
:10373000409E061087130000881300006F12833A22
:103740000000C842FFFFFF7FB70B00009F0F000083
:103750000F2700009F8601003F420F00409D06108A
:103760006F170000FA2189000DF0AEFB78E7FA210F
:1037700089000DF0A9FBCFE7781C002F00DB7EE766
:1037800026F00EF91B78037087E701231FE707ABCC
:10379000029305930123039305AB9A469AE60348E7
:1037A00026F046F9024826F043F9C046C09B0610B1
:1037B000D89B0610F0B5DE4657464E464546E0B566
:1037C000C36EF7B004000393002B0FD00CF00AFD7A
:1037D000002915D0FA22002392000DF0B3FBA36F4D
:1037E000C01A064B984214D90223237277B0F0BC5A
:1037F000BB46B246A946A046F0BDC04687130000AE
:10380000FA2189000DF060FBA36FC01ABC4B9842EF
:10381000EAD8BC4B403404220A2120000093022342
:10382000069418F085FC16231622009300216933B4
:10383000200018F013FCB44B039AD55A092D00D878
:10384000CCE3632D01D800F056FFA43B9D4201D28A
:1038500000F06BFCAD4B9D4201D800F071FC15AB44
:103860000493139300231493053304279B4613AE4C
:103870002D2343AC2000C922A54933720EF06EF807
:10388000A24BB8469A462300B0444446B1469846F7
:10389000280064210DF018FB28004F0064210DF072
:1038A00013FB4346DB195B782E0023724346DB5D36
:1038B0000500E371023C5645EAD84B46B1461E006E
:1038C000FA2344469B00994500D28DE36D006319AD
:1038D0005B78655D73725B46002259467360139B8B
:1038E00035725A5474688B4B1B1B022B01D800F0A5
:1038F00010FF139F049BE51C9F4201D100F0BCFC0C
:10390000B3689D4200D9C5E3834B98469F4204D8D3
:103910003B19984501D800F00DFF002C08D0012C70
:1039200001D100F012FE22003900F81C57F078FC9B
:103930004146032238000EF011F8139B9846434687
:10394000002775605F5519AB9A461BAB1993139806
:10395000049B7468984201D100F0A4FC5346B268FD
:103960005C609A60049B199013936A4B776037727E
:103970001B1B032B01D800F0FFFD1BAB251D98423C
:1039800001D100F0A1FC954200D9A6E304226349CD
:1039900000190DF0E3FF199F53465D600023524666
:1039A0007B551FAB9B4621AB1F93199B54681BAAE9
:1039B000934201D100F095FC1F9353465A469B68F1
:1039C00093605B465C601BAB0022199353465A60C0
:1039D0001A7292230399DB00CD5A092D01D800F009
:1039E00053FE632D00D802E3A83B9D4200D2C6E3FC
:1039F000464B9D4200D8CEE325AB994627AB0793B3
:103A000025934B465A600523042705932D234A46E8
:103A100043ACA04613722000C9223D490DF09EFF21
:103A20004F440896280064210DF04EFA28004E00FD
:103A300064210DF049FA43469B195B782C003B72D8
:103A400043469B5D0500FB71304B023F9C42E9D829
:103A50004346A0461C00FA23089E9B00984500D3CD
:103A6000D2E23035EDB24B46002205991D72596005
:103A7000259B5A545B465B681F9C98464B465D6885
:103A800043465F1921AB9C4200D1C4E25B46259AB4
:103A90009B6805929F4200D8C2E207998A4201D1F1
:103AA00000F061FD4A469268974201D800F020FC80
:103AB0004146184A521A954201D900F05DFD21AAEB
:103AC000944201D100F0B8FD002F01DA00F024FE8D
:103AD0005B0009939F4201D200F0A5FC781C00D541
:103AE000B8E309970DF040FF1F9B0400089343467D
:103AF000002B01D000F04FFC059B002B1AD00FE0EB
:103B000087130000509E06108C0400000F27000051
:103B1000409D0610FFFFFF7F789E06107C9E0610DA
:103B20004346E018012D01D100F0B7FD2A000599A8
:103B30000DF014FF089821AB984204D05B469968B9
:103B400001310DF021FF5B46099A1F949A605B4694
:103B50005F6000235A46E3550DAB05930FAB099305
:103B60000D931F9B546821AA934201D100F0E5FCFC
:103B70000D935B46059A9B68936013005C6021ABD4
:103B80005A461F930023259853601372079B98424F
:103B900004D04B46996801310DF0F6FE1F9821AB19
:103BA000984204D05B46996801310DF0EDFE1998FA
:103BB0001BAB984204D05346996801310DF0E4FEE6
:103BC0001398049B984203D0B16801310DF0DCFEDC
:103BD0008021059B06985A6853009B185B00C91A00
:103BE0000D9B1A2200934908012318F0A1FAE64B15
:103BF000039AD55A092D01D800F054FD632D00D841
:103C000022E2A63B9D4200D212E3E04B9D4200D847
:103C100018E32DAB04932B9300232C930533042737
:103C20009B462BAE2D2343AC2000C922D8493372CA
:103C30000DF094FED54BB8469A462300B044444656
:103C4000B1469846280064210DF03EF928004F0047
:103C500064210DF039F94346DB195B782E0023729D
:103C60004346DB5D0500E371023C5645EAD84B460E
:103C7000B1461E00FA2344469B00994500D3EFE16C
:103C80003035EDB25B460022594673602B9B35728E
:103C90005A547468BF4B1B1B022B01D800F039FD2E
:103CA0002B9F049BE51C9F4200D1CFE3B3689D424C
:103CB00000D974E2B84B98469F4204D83B19984506
:103CC00001D800F044FD002C08D0012C01D100F0F7
:103CD00046FC22003900F81C57F0A2FA41460322A4
:103CE00038000DF03BFE2B9B98464346002775603D
:103CF0005F5531AB9B4633AB31932B98049B746873
:103D0000984200D1B7E35B46B2685C609A60049B5E
:103D100031902B939F4B776037721B1B032B01D87D
:103D200000F02AFC33AB251D984200D1B4E3954244
:103D300000D956E20422994900190DF00FFE319F77
:103D40005B465D6000235A467B5537AB994639ABDD
:103D50003793319B546833AA934200D1A8E3379339
:103D60005B464A469B6893604B465C6033AB0022DF
:103D700031935B4603995A601A72894BCD5A092DCB
:103D800001D800F09DFC632D00D86FE1AA3B9D4255
:103D900000D261E27D4B9D4200D869E23DAB9A467C
:103DA0003FAB07933D9353465A600523042708937E
:103DB0002D23524643ACA04613722000C9227449F9
:103DC0000DF0CCFD57440A96280064210DF07CF8D4
:103DD00028004E0064210DF077F843469B195B786C
:103DE0002C003B7243469B5D0500FB71674B023F15
:103DF0009C42E9D84346A0461C00FA230A9E9B0039
:103E0000984500D33FE13035EDB253460022089982
:103E10001D7259603D9B5A544B465F6853465D681E
:103E2000379C7B19984639AB9C4200D170E34B46D6
:103E30003D9A9B680892984500D885E107998A4287
:103E400000D1A9E352469268904500D836E3514A22
:103E5000D21B954200D98FE339AA944200D1F4E3F2
:103E60004246002A01DA00F057FC5B000A939845AD
:103E700000D2E5E24346581C00D5EBE10A930DF071
:103E800073FD379B04000B93002F00D177E3012FC4
:103E900000D1EFE319003A000DF060FD089B002B04
:103EA00002D0002D00D06EE30B9839AB984204D0BD
:103EB0004B46996801310DF067FD4B460A9A3794DD
:103EC0009A6042464B465A600023A3544A46379BA9
:103ED000576845AD39AA43AC4395934200D138E3C6
:103EE00043934B469B68A36039AB4A463793002304
:103EF0003D9853601372079B6760984204D0534605
:103F0000996801310DF040FD379839AB984204D0E3
:103F10004B46996801310DF037FD319833AB98422B
:103F200004D05B46996801310DF02EFD2B98049B5F
:103F3000984203D0B16801310DF026FD80216268FE
:103F4000069E53009B185B00C91A439B24220093D2
:103F500030000123490818F0EBF89322D200944670
:103F6000039B63441B78002B00D1FFE00D4B2E22F6
:103F7000132130000093012318F0DAF80A4B36229F
:103F800000930A2112E0C0468E0400000F270000B3
:103F9000409D0610FFFFFF7F849E0610889E06103E
:103FA00092040000909E0610A09E0610012330008F
:103FB00018F0BEF84398A84203D0A16801310DF073
:103FC000E3FC0D98099B984201D1FFF70FFC059B7C
:103FD000996801310DF0D8FCFFF708FC15AB04938C
:103FE000139301239B4613AE3035EDB273E443AC1B
:103FF00027ABC9222000D749079325930DF0AEFCCB
:104000000223059325AB99464A466D0063195B78F8
:10401000655D537227E5259A05920F2F00D9A7E118
:104020004246CD4B9B1A9D4200D9A5E2002D00D1FE
:104030008DE520004044012D00D1D4E12A000599EE
:104040000DF08CFC1F9C82E543AC2DABC9222000F7
:10405000C04904932B930DF081FC02239B462BAEA9
:104060006D0063195B78655D73720BE643AC3FAB23
:10407000C9222000B74907933D930DF06FFC02233E
:1040800008933DAB9A4652466D0063195B78655DB7
:104090005372BAE6002D00DA3EE35F00BD4200D263
:1040A000ACE1201D00D5D5E02F000DF05DFC032212
:1040B000AA4980460DF052FC139B9946002C00D073
:1040C0007BE1049B994504D0B168484601310DF06D
:1040D0005BFC4346B760139331E4002D00DA1BE329
:1040E000530098469D4200D2B0E0601D00D5B1E07B
:1040F000A8460DF039FC199B07009946002C00D00A
:104100001EE104250422964938190DF027FC1BAB4B
:10411000994505D053469968484601310DF034FC65
:104120005346424619979A6036E4032302279B467A
:1041300015AB04931393002313AE1493FFF798FB6E
:10414000042303279B46F3E7834BDB1B9D4200D9E7
:1041500012E2002D00D1B4E6E019012D00D148E1B2
:104160002A0008990DF0FAFB379CAAE67D4B322213
:10417000009307210123069817F0DAFF1AE70323BB
:104180000227059325AB994627AB4A46079325930B
:10419000002353603AE4042303270593F2E7002D3C
:1041A00000DAB9E25F00BD4200D23FE1201D51D4E8
:1041B0002F000DF0D9FB03226B4980460DF0CEFB9A
:1041C0002B9B9946002C00D007E1049B994504D015
:1041D000B168484601310DF0D7FB4346B7602B93D9
:1041E00083E5002D00DA97E2530098469D4200D205
:1041F00021E1601D2ED4A8460DF0B6FB319B0700CF
:104200009946002C00D0DFE00425042257493819D4
:104210000DF0A4FB33AB994505D05B469968484641
:1042200001310DF0B1FB5B46424631979A6087E55C
:10423000032302279B462DAB04932B9300232BAE25
:104240002C93EFE4042303279B46F4E7581C002B30
:1042500000DB4EE725F0A4FB0323022708933DABC8
:104260009A463FAB524607933D93002353609FE528
:10427000042303270893F2E70F2D01D8FFF744FB2F
:104280001F200DF071FB0322344980460DF066FBC0
:10429000139B1E279946434622004946D81C0DF021
:1042A0005DFB0EE71900621C1BA81D000DF056FBFC
:1042B00053465C60284B1395776037721B1B251D96
:1042C0001BA8032B00D857E10F2D01D8FFF75EFB89
:1042D0001F200DF049FB199B070099461E239846A5
:1042E00031E0621C1BA921A80DF038FBFFF769FB28
:1042F000194B5B1B984500D90BE2059BA34200D8E4
:1043000081E0002D00D05DE1002F00D067E14B4639
:104310005F600023059AD3554A460DAB05930FAB5A
:10432000546809930D93079A259B934200D194E119
:104330000D934B46059A9B68936013005C602DE4D7
:10434000012C00D17DE12200494638000DF006FB2A
:10435000D8E6C046409D0610FFFFFF7F789E0610FE
:104360007C9E0610B49E0610849E0610889E061041
:1043700007990F238A4201D0FFF794FB002F00DA40
:10438000CAE11D2F01D9FFF7A9FB1E230993099B41
:10439000581CFFF7A7FB012B00D167E142460899A3
:1043A0000DF0DCFA059B002B01D1FFF7C3FB002DBC
:1043B00001D1FFF7BFFBFFF7B3FB012C00D06AE789
:1043C00042461B78D3707CE6012C00D141E12200EB
:1043D000494638000DF0C2FA17E7012C44D1424695
:1043E0001B78D370F1E6059B1B7803701F9CFFF7C9
:1043F000AEFB089B1B780370379C62E5002F00DA48
:1044000028E7781C51E65B199C4200D979E74346BE
:1044100000220093484623000599019533F0C0F827
:10442000259B059373E7002BB1DA13E7781C002F67
:1044300000DA0FE7BDE6581C002B00DA0AE7DBE6DE
:10444000002B00DA06E70A9B581C18E50F2D00D850
:1044500030E41F200DF088FA0322C34980460DF096
:104460007DFA2B9B1E279946434622004946D81CBD
:104470000DF074FAA9E61900621C33A81D000DF0B6
:104480006DFA5B465C60B94B2B95776037721B1BEE
:10449000251D33A8032B6FD90F2D00D84AE41F2008
:1044A0000DF062FA319B070099461E2398468EE76D
:1044B000621C33A939A80DF051FA55E4AB4B5B1BD4
:1044C0009F4200D925E1089BA34203D85B199C4277
:1044D00000D824E1002D00D099E04346002B00D005
:1044E000A0E05346424641465A600023089A45AD33
:1044F000535452463D9B5768079A43AC43959342A9
:1045000000D1BAE0439353469B686760A360FBE425
:1045100043463D9A08920F2B00D815E607990F23C2
:104520008A4200D08EE44346002B00DAF4E01D2BD3
:1045300000D99FE41E230A9385E70998621C21A9EC
:104540000DF00CFA059BFFF719FB3B78FB70FFF7AA
:10455000EFF928007A1C39A90DF000FAC4E43B7881
:10456000FB70FFF7BBFB0F2F1FD941467F4A521A42
:10457000954201D8FFF7A8FA7D4825F059FA089B23
:10458000002B00D190E4E019012D00D1A1E02A0018
:1045900008990DF0E3F987E442460F2A2AD9734AB5
:1045A000D21B954200D85BE4E6E7704B5B1B984555
:1045B00000D9AEE08C4203D34B199C4200D826E7C9
:1045C000002D0CD04346002B00D1A0E605984044B6
:1045D000012D00D188E02A00059956F021FE4346BE
:1045E000012B67D04246210005980DF0B7F9259BB5
:1045F00005938CE65D4B5B1B9F4200D989E0A1428D
:1046000003D84B199C4200D889E0002D0AD0002F16
:1046100000D166E7089BD819012D69D019002A003E
:1046200056F0FEFD012F59D03A00210008980DF0F8
:1046300095F93D9B089354E79F4200D8F6E4FFF7B5
:1046400043FA1B78052503705CE5984500D880E5A2
:1046500006E41B7805250370D7E511000998621C54
:104660000DF07CF9059B5C60FFF798FA089B1B78BE
:10467000037097E61B78037010E4110028007A1C81
:104680000DF06CF967603FE427AB07932593012396
:10469000059325AB9946FFF7E4F9059B1B7803705A
:1046A000FFF748FA2DAB04932B9301232BAE9B46C7
:1046B000FFF7E6FA2378059A1370259B059326E603
:1046C0003FAB07933D93012308933DAB9A46FFF719
:1046D0009AFB089B1B780370FFF7E6FB2378089A88
:1046E00013703D9B0893FCE6059B1B78037076E7EF
:1046F0001B78037096E743AC15ABC92220001D4917
:10470000049313930DF02AF9022313AE9B46FFF78F
:10471000DDF8194825F08CF9184825F089F92300AF
:104720000022504608990195009732F039FF3D9BD1
:104730000893D6E603230022009339004346300055
:10474000019432F02DFF139B9846FFF7F8F80323EE
:1047500000220093390043463000019432F020FFDC
:104760002B9B9846FFF7C1FA849E0610FFFFFF7F40
:10477000D89B0610409D06105C9E0610C09B06103C
:10478000F0B54546DE4657464E46E0B5C56E0400D8
:1047900097B0002D0FD00BF025FD002912D0FA2282
:1047A000002392000CF0CEFBE36FC01A934B9842AB
:1047B00011D90223237217B0F0BCBB46B246A946FA
:1047C000A046F0BDFA2189000CF07EFBE36FC01A11
:1047D0008A4B9842EDD88A4B403408222000894900
:1047E0000093022317F0A4FC1A231A22009300213D
:1047F0006533200017F032FC834B06AF9C466544BE
:104800002B6B04AE98460497002B00D1EBE0180008
:1048100059F07CFF05000F2800D992E0012800D153
:104820008BE0002800D0D6E000233A007560535595
:10483000049B059D9B46002D00D195E02A000A218E
:10484000180059F025FF002800D18DE05B46C31AFF
:104850009946013300D187E00CAB9A460A934D4547
:1048600000D94D460F2D00D98CE0012D00D199E0E3
:104870000AAB9846002D00D0AFE0524643465D603B
:10488000002353554A4675680132AA4200D9ADE06B
:1048900010AB994612AB9B461093049BAD1A9B1824
:1048A00003930F2D00D983E0012D00D18FE0002D5F
:1048B00000D094E05A464B465D6000235355434672
:1048C00080255B6820225900C91849000A9B691A93
:1048D000200049080093012317F02AFC4B465A6830
:1048E000200053009B185B00E91A109B2A220093BA
:1048F0004908012317F01CFC1098584504D04B467A
:10490000996801310DF040F80A98504504D04346AB
:10491000996801310DF038F83C4B200000933622A5
:104920000123252117F004FC0498B84200D142E786
:10493000B16801310DF028F83DE743461B7833722A
:1049400072E701300DF010F8B56004902A0041467E
:104950000DF004F80023049A75605355049B059DDF
:104960009B46002D00D069E780216B005B195B003E
:10497000C91A5B462422009320000123490817F03E
:10498000D7FBC9E7002D36DB681C2AD40CF0ECFFFE
:104990000AAB98460A900C952A0059460CF0DEFFA7
:1049A0000A9A6BE75B461B780AAA9046137264E783
:1049B000002D20DB681C14D40CF0D6FF4B46109061
:1049C0009D602A0003990CF0C9FF109A73E74A46CC
:1049D0001B7813726EE73800B8E75046DCE758469C
:1049E000EFE724F0DDFF0A4825F00AF82B0009491B
:1049F000094825F04DF8094825F01AF887130000FA
:104A0000C89E0610FEFFFF7F6C040000589F061032
:104A1000D49E0610089F0610209F0610C09B06100B
:104A2000F0B5DE4657464E464546E0B50C0087B029
:104A3000002B51D01D0040239C4600268444634631
:104A4000B0460027160005930490BB199A462B190F
:104A500099467F2B09D853463F2B06D8049B5246D4
:104A600040334946180017F0E5FAAB199B46621B24
:104A70003B19E11B0293019200917F2B33D85B46D7
:104A8000002B6CDB3F2B00DCA2E07F294AD97F2A78
:104A900000D8CAE0731B3F2B06D8059B1800039370
:104AA0000299721B17F0C6FA4B467F2B09D8F31BED
:104AB0003F2B06D8059B039349460398F21B17F03A
:104AC000B9FA4346002B1FDD4246013D6B0001331E
:104AD000D31A9846AF42B8DD07B0F0BCBB46B24629
:104AE000A946A046F0BD7F2916D97F2ADCD85346B7
:104AF000002B00DA88E03F2B00DCD8E0F31B00D469
:104B00009BE04346002BDFDC01377B0001339844F8
:104B10004346002BD8DCDDE75B46002B00DACFE014
:104B20003F2B2CDD7F2A35D85346002B00DAA7E037
:104B30003F2B00DCBBE0F31B00D4EEE0731BC0D4C2
:104B40003F2BBEDC049B009940331800721B03937B
:104B500017F070FA029B7F2BA6D80398A0E77F2A54
:104B600020DD7F2996D8731B3F2B9DDC049B721B95
:104B700040331800039317F05DFA039890E7049B05
:104B8000403303935A460099039817F053FA019B58
:104B90007F2B64D9731B00D586E7731B3F2B00DD89
:104BA00082E7CFE75346002B64DB3F2B00DC7EE03F
:104BB000F31B73D4F31B3F2B41DD009B7F2B71D87C
:104BC000731B00D57DE7731B3F2B00DD79E7B9E749
:104BD000049B5A46403318000299039317F02AFAAF
:104BE000009B7F2BCED9019B7F2B00D952E75346E8
:104BF000002B00DA9AE03F2B5CDDF31B00D549E780
:104C00003F2B4FDC03981EE0F31B3F2B00DD58E7E2
:104C1000049B019940331800F21B039317F00AFA22
:104C20004B467F2B00D94CE746E75346002B5EDB13
:104C30003F2B3CDDF31B00D52CE73F2B32DC049BE4
:104C40004033180003930199F21B17F0F3F9009B0E
:104C50007F2B9FD9029B7F2B00D81BE7E0E75346B1
:104C6000002B50DB3F2B25DDF31B00D566E73F2BE8
:104C7000A6DCC7E7F31B3F2BE1DD7F298DD909E7D0
:104C8000F31B3F2B9CDC049B019940331800F21B63
:104C9000039317F0CFF9731BC2D47EE7009B7F2BE1
:104CA00000D84BE7029B7F2B00D8F3E609E7049B73
:104CB0004033039352460199039817F0BBF977E705
:104CC0007F2A08DC5346002B2BDB3F2BEFDDF31B49
:104CD00000D533E76EE7731B3F2B00DDE4E6049B52
:104CE000009940331800721B17F0A4F9DCE6F31B9F
:104CF0003F2B00DDCEE6049B019940331800F21BE8
:104D000017F098F9C6E6F31B3F2B00DD58E7019931
:104D10000398F21B17F08EF93CE73F2B00DD4FE7BD
:104D20008DE7F31B3F2B00DD4DE788E7F31B3F2B9F
:104D300000DDAFE601990398F21B17F07BF9A9E6B5
:104D4000F0B5DE4657464E4645463423E0B5C35CD3
:104D500004008DB00D2B01D900F033FCD34A9B0029
:104D6000D3589F4608AB99460693D14B0926089322
:104D70000023042006AF3B730522CE4948440CF0C3
:104D8000EDFD069D00237E60AB552500069B40355A
:104D90000022002128000093012317F0C9F90A23FB
:104DA0000A22002128000093763317F057F90BF000
:104DB00019FA002900D1A2E2FA22002392000CF095
:104DC000C1F882460023207C9846002804D068332E
:104DD000E25C673B5A4090460022A37A029203931A
:104DE000002B04D06932A65C683A56400296A17D39
:104DF000227F002900D049E2002A00D13AE36B2249
:104E0000A25C4346002A00D164E3002B01D000F0ED
:104E1000E9FB029B002B01D000F0EBFB039B090494
:104E20001B02034312060B431343A366A24B0497D2
:104E30009846082343449B46534602934B464746B5
:104E4000039405933E787C78731E9946631E9A46B8
:104E50001A004946280017F0EDF8524631002800A4
:104E600017F0E8F8731C984619005246280017F00E
:104E7000E1F822004946280017F0DCF82200310052
:104E8000280017F0D7F8220041460134280017F017
:104E9000D1F822004946280017F0CCF82200310052
:104EA000280017F0C7F8023722004146280017F003
:104EB000C1F85F45C6D1029B039C9A46059B049F9F
:104EC00099468123E25C002A06D08021625C0D2A8B
:104ED00000D9E7E2013262548323E25C002A06D063
:104EE0008221625C0D2A00D9DFE2013262548523FF
:104EF000E25C002A06D08421625C0D2A00D9D7E248
:104F0000013262548723E25C002A06D08621625C6B
:104F10000D2A00D9CFE2013262548923E25C002AD3
:104F200006D08821625C0D2A00D9C7E201326254A2
:104F30008B23E25C002A06D08A21625C0D2A00D90C
:104F4000BFE2013262548D23E25C002A06D08C213C
:104F5000625C0D2A00D84FE20022E2548F23E25C0B
:104F6000002A06D08E21625C0D2A00D847E200227A
:104F7000E2548123E35C002B00D029E28323E35C2D
:104F8000002B00D01CE28523E35C002B00D00FE255
:104F90008723E35C002B00D002E28923E35C002B33
:104FA00000D0F5E18B23E35C002B00D0E8E18D23FA
:104FB000E35C002B00D0DBE18F23E35C002B00D00F
:104FC000CEE13123E25C013BE35C002A00D19CE1AD
:104FD0003A4E3178002900D102E239490968884601
:104FE000002B00D103E2374884460078002802D124
:104FF00051463548016001204146307060460370DB
:10500000002905D05046411A96204000814267D8B9
:105010002D480168002905D05046411A96204000CD
:1050200081425DD82621615C002900D0F5E127315D
:10503000615C00294CD12831615C002900D098E2E4
:105040002931615C002900D0C5E22A31615C002968
:1050500000D0F8E22C31615C002900D009E32B314B
:10506000615C002900D011E32D31615C002900D082
:1050700038E32E31615C002900D05BE32F31615CA5
:10508000002900D059E3002B00D059E3002A00D0BA
:105090005CE33233E35C002B00D054E33333E35C56
:1050A000002B1DD0094B313114E0C046B4C90610A5
:1050B0004D49444958A0061010CA06108B620020C2
:1050C000504A00208A6200204C4A0020BC9F0610F3
:1050D0003421D34B009310220123280017F028F825
:1050E000362336220021280000934A3316F0B6FFFB
:1050F000CC4B2800009338220123002117F018F828
:105100000698484503D0B96801310CF03DFC0DB05C
:10511000F0BCBB46B246A946A046F0BD08AB9946D6
:105120000693C14B06AF1A680A2608924A461B79B5
:105130000520137100237B731EE608AB9946069386
:10514000BA4B4A4603CB03C2198806AF11809B783D
:10515000102693700B237B600023FB740B3398465F
:105160001F200CF001FC069B424619009A460500E0
:105170000CF0F4FB43460522AD49E8180CF0EEFBB9
:10518000CA4504D0B968504601310CF0FDFB1E231E
:105190000695BB60F6E508AB99460693A54BD0E7AC
:1051A00008AB99460693A44BCBE708AB99464A4611
:1051B0000693A24B06AF03CB03C200230D260820A3
:1051C0003B74D9E508AB9946494606939C4B06AF1C
:1051D0001A680C2608929A8807208A809B798B711E
:1051E0000023FB73C8E508AB994649460693954BE7
:1051F00006AF1A8808260A809B7803208B7000234C
:10520000FB72B9E508AB99464A4606938E4B03CB31
:1052100003C21B781370002306AF0E2609207B748F
:10522000AAE508AB99464A460693884B03CB03C2CE
:105230001B781370EFE708AB99464A460693844BF8
:1052400006AF23CB23C21B88132613800E237B605B
:105250000023BB750E33984682E708AB99464A4651
:1052600006937C4B06AF03CB03C21B880F2613802B
:1052700000230A20BB747FE508AB99460693764B62
:105280005FE708AB99460693744B5AE76A26A65D1A
:10529000B4460126B34666465B465E4004964346E6
:1052A000002A43D06B22A25C002A3FD1002B00D001
:1052B0009DE1029B002B00D0ADE1002E0CD0892295
:1052C000A25C002A00D110E28B22A25C002A03D14A
:1052D00080268A327600A65201228D26A65D002EF7
:1052E00000D1C1E18F26A65D002E00D096E50126F3
:1052F00080237600A6198C365B0033808EE5FA2178
:1053000089000BF0E1FD82465CE555490A60002BFF
:1053100078D054490878002800D0D5E05646524845
:105320000660524E327001260E7072E6002B00D0DD
:10533000F7E0029B002B00D01EE1049B002B00D164
:105340006CE58926A65D002E00D195E18B26A65D31
:10535000002E00D062E580238A365B00A3535DE512
:105360008E2326226D212000E35CFFF759FB28E6FF
:105370008C2326226D212000E35CFFF751FB1BE606
:105380008A2326224E212000E35CFFF749FB0EE62C
:10539000882326224E212000E35CFFF741FB01E633
:1053A000862326222F212000E35CFFF739FBF4E55A
:1053B000842326222F212000E35CFFF731FBE7E561
:1053C0008223262210212000E35CFFF729FBDAE587
:1053D0008023262210212000E35CFFF721FBCDE58E
:1053E00050461F49D0460860002B00D0FBE51E4800
:1053F00003601C488446FEE501326254AEE501328A
:105400006254B6E518490B6018490B7015490B70CA
:105410002621615C002900D109E63A21144B59E6A6
:10542000649F061060A0061050A00610FC9F061096
:1054300058A0061008A0061014A0061020A0061000
:105440002CA0061034A0061038A0061044A00610A8
:10545000C89F0610D89F0610E49F0610F09F061004
:10546000504A00208A6200204C4A00208B620020B3
:10547000C49F06104346002B00D09EE0029B002BE9
:1054800001D10022CAE48522A25C002A00D123E1D6
:105490008722A25C002AF4D1802686327600A652AA
:1054A0000022BBE40022E25416E50022E2541EE58D
:1054B0000022E25426E50022E2542EE50022E254C6
:1054C00036E50022E2543EE5A6480270012008704D
:1054D000A5489EE5002B00D080E0029B002B00D168
:1054E000FAE68522A25C002A00D117E18722A35C9C
:1054F0000493002B00D0EFE680268622049B7600E2
:10550000A652002B00D1E7E6049A90468926A65DB4
:10551000002E00D1B6E08B26A65D002E13D10136F9
:1055200044E0002398468123E35C002B00D18DE00A
:105530008323E35C002B00D198E0029B002B07D172
:10554000049B002BE2D14346002B00D166E4C4E665
:105550008526A65D002E00D196E08726A65D002E4A
:10556000EED1013680237600A61984365B003380A5
:10557000E6E734217D4BADE58526A65D002E00D102
:1055800091E08726A35D9846002B00D181E0049B23
:10559000002B00D142E48926A65D002E6CD08B261C
:1055A000A35D8A3E9846002B00D037E48023760026
:1055B000A61988365B003380C5E70023984604931C
:1055C000B1E708AB994606933F2306AF06260120B4
:1055D0003B81FFF7D1FB3121654B7BE50023424640
:1055E0000493A0E700234246049398469BE7424673
:1055F00099E78522A35C002B00D194E00232A25CE3
:10560000002A01D0FFF70AFC802686327600A652D7
:105610001A00FFF703FC8522A25C002A6AD08722C9
:10562000A25C002A00D167E7002E00D154E689224F
:10563000A25C002A59D08B26A65D002E00D04BE636
:1056400090460136B2E731214A4B43E500239B46A1
:105650005B465B009B4680239C46A3448026E34434
:105660005B4676001E8068E7002641E601339B46D4
:10567000EEE73121404B2DE5802388265B00A353C4
:10568000FFF7CCFB002691E700266BE734213B4B6C
:1056900020E50133FF33013EA353049B002B01D1CE
:1056A000FFF7BCFB32E7802384265B009846A353B8
:1056B000049B002B01D1FFF7B1FB0536A65D002E40
:1056C00047D08B26A65D002E01D0FFF7A7FB4346EF
:1056D0008A36A353FFF7A2FB802384265B00A353E3
:1056E000FFF79CFB3421264BF4E4802688227600C9
:1056F000A652F1E53300802684227600A652002BC4
:1057000000D1E9E50532A25C002A27D08B22A25CF9
:10571000002A00D0E0E58A32A652DDE58026842208
:105720007600A652D8E5802384225B00A352029A19
:10573000FFF774FB3D21134BCCE43D21124BC9E430
:105740003121124BC6E43421114BC3E42E21114BFD
:10575000C0E488264346A353FFF760FB8822A65285
:10576000BAE5C0468B6200204C4A00206C9F0610B0
:10577000749F06107C9F0610849F06108C9F061055
:10578000949F06109C9F0610A09F0610A49F0610D1
:10579000B49F0610AC9F0610F0B5DE4657464E4645
:1057A0004546E0B5CB4BE3B09C680290002C15D089
:1057B000362204331900825C03E02100A468002C27
:1057C00005D0237C9342F8D2E468002CF9D1C24B77
:1057D0008A46994202D00B7C934206D963B0F0BC52
:1057E000BB46B246A946A046F0BD0B7D062B5FD155
:1057F000029B403303930A257F230A22002103984A
:10580000009516F02BFC53461B7D062B00D169E159
:10581000022B00D190E117AA100016000792002277
:1058200019A90591179142600272042B00D12BE354
:1058300000D987E0012B00D826E33623029AD35CF7
:10584000128F991F012900D83BE10D2B00D138E1BF
:10585000002A01D001F000FAA04B059A03CB03C245
:10586000082373600023059C08220A21200033745A
:1058700058F00EFF002801D101F0A6FA041B631CAA
:1058800001D101F059FB2BABA04604932993082CBE
:1058900001D908239846059F4346012B01D101F009
:1058A00084F829AD002B01D000F075FE049AB1E018
:1058B000534602989B694030009300220123002147
:1058C000039016F035FC53461B7D032B13D00FD9E4
:1058D000052B90D10AF086FC00292ED0FA22002355
:1058E00092000BF02FFB0823029A5066137275E7A3
:1058F000022B00D17FE753465D6B1B6BED1A1C2D0D
:1059000000D878E7029B1A8F002A01D001F00FF827
:10591000AD10EB005B1999015B18DB005B19D90333
:105920005B18DB005B19DB439A4200D363E702227A
:1059300079210398FCF73AFB5DE7FA2189000BF027
:10594000C3FAD0E7052B01D000F0EBFF029B198FC3
:1059500053461D6B586B401B8010C3001B189A01E7
:105960009B18DB001B18DA039A18D2001218524257
:10597000914201D301F0CDFBCB005B1A9B00ED18E7
:10598000079B9D4201D100F0CCFF6F680F2F01D91A
:1059900000F0D6FF002F01D000F0BEFC059A0023D6
:1059A0007760D3555346189A1B7D9146179F042B59
:1059B00001D100F00DFE002A01D100F0B3FF0A2151
:1059C000380058F065FE002801D101F019F8C41B19
:1059D000631C01D101F014F82BABC8460493299342
:1059E000A14500D9A04643460F2B00D854E7002B11
:1059F00001DA01F082FB581C01D500F096FF0BF094
:105A0000B3FF434629AD2990AB60424639000BF005
:105A1000A5FF299A434641466B600023535473689F
:105A200001349C4201D901F077FB179F2FAA31AEB8
:105A30003F1993462F961C1B0F2C01D900F0BFFF76
:105A4000012C01D100F0B7FF002C01D000F0A6FD21
:105A500032005B465C60002313555B466A685F68F2
:105A60005100299B89180A2A03D80A2F01D801F06E
:105A700048F88024039849008046611A1822490892
:105A80000093012316F054FB7B00DB195B00E11A45
:105A90002F9B2022009340460123490816F048FB23
:105AA0002F98B04204D05B46996801310BF06CFF2F
:105AB0002998049B98422AD0A96801310BF064FF11
:105AC00025E0002A01D000F02CFD054B059A03CB00
:105AD00003C2C5E61C3C0020203C002028A1061083
