:020000041000EA
:1000000000B5324B212058609868022188439860DF
:10001000D860186158612E4B002199600221596106
:100020000121F02299502B49196001219960352056
:1000300000F044F80222904214D00621196600F024
:1000400034F8196E01211966002018661A6600F04E
:100050002CF8196E196E196E052000F02FF8012189
:100060000842F9D1002199601B49196000215960AB
:100070001A491B48016001219960EB211966A021F2
:10008000196600F012F800219960164914480160C1
:100090000121996001BC002800D000471248134993
:1000A000086003C880F30888084703B5996A0420EC
:1000B0000142FBD001200142F8D103BD02B5186610
:1000C0001866FFF7F2FF186E186E02BD00000240BE
:1000D000000000180000070000035F00212200005C
:1000E000F4000018222000A00001001008ED00E03C
:1000F00000000000000000000000000074B24E7A12
:1001000000200420F7010010CB010010CD010010E9
:10011000C9010010C9010010C9010010C901001077
:10012000C9010010C9010010C9010010CF01001061
:10013000C9010010C9010010D1010010D301001045
:10014000C1010010C1010010C1010010C101001067
:10015000C1010010C1010010C1010010C101001057
:10016000C1010010C1010010C1010010C101001047
:10017000C1010010C1010010C1010010C101001037
:10018000C1010010C1010010C1010010C101001027
:10019000C1010010C1010010C1010010C101001017
:1001A000C1010010C1010010C1010010C101001007
:1001B000C1010010C1010010C1010010C1010010F7
:1001C000EFF30580103800BE00BE00BE00BE00BECA
:1001D00000BE00BEF2EB8871CCF10710F0F1071001
:1001E0003802001090A31AE71E481F49086006C88D
:1001F00081F3088810471D480068002801D019487D
:10020000F3E70DA40ECC002902D000F012F8F9E7B4
:100210001749184A002000E001C19142FCD116495B
:100220008847164988471649884700BEFDE701C937
:1002300001C29A42FBD37047F0F10710C0000020C2
:100240002036002050270810000004200000042061
:1002500050270810001004200010042000000000A7
:10026000704700000000000008ED00E0000000D032
:1002700020360020A0620020C5360110F5050010D0
:1002800085360110F8B5C04606480749091A8B1093
:10029000C90FC91810B5491003D0044B002B00D06A
:1002A000984710BD203600202036002000000000B6
:1002B000054B10B5002B03D00449054800E000BFF2
:1002C000FFF7E2FF10BDC04600000000805F002085
:1002D000F89D06107047C0467047C04600B58DB007
:1002E000029011201C220021684411F07DFC0123A2
:1002F0006A460D20137302A90422684411F07AFCA7
:1003000003A9024810F01AF90DB000BD043D002009
:1003100010B5034B0100180010F010F910BDC046D5
:10032000643F0020F0B5DE4657464E464546E0B5F0
:100330008E4CA54414F084F80321062010F0E4F953
:100340000321072010F0E0F900220121062010F01F
:10035000F5F900220121072010F0F0F984498548C1
:1003600013F07EFE844923A801F048FC834932A89B
:1003700008F06EF88249C4A801F074FF0CA80CF0D4
:10038000DBF980220021520043A811F02DFC2A2223
:10039000002118A811F028FC0FAE0822002108A89F
:1003A00011F022FC21220021300011F01DFC00235D
:1003B000744807A9079310F06BF90799C4A801F0D6
:1003C000C7FF082200210AA811F00EFC6E4B6F4DEA
:1003D0009B466F4B6F4F9A466F4B01936F4B059344
:1003E00083AB99466E4B02936E4B04936E4B039313
:1003F0006E4B984618A923A801F084F90021280023
:1004000010F0D4F828001FA910F00AF918A95846CE
:1004100010F0CCF850460AA910F0C8F800287CD19A
:100420003100019810F0C2F8002809D03378052B6C
:1004300006D8059A9B00D3589F46C4A801F094FFA4
:10044000029808A910F0B2F800283AD1079B002BB7
:100450003ED0574A9C58631E022B39D8012C61D0DC
:10046000022C6AD03B78002B72D0039843A910F07D
:100470009DF800280CD0484643AA0CA90CF098F926
:100480000021404610F092F84946404610F056F8D8
:1004900018A932A808F00AF818A9C4A801F044FF66
:1004A00032A808F019F8C4A806F04AFFA2E771784C
:1004B000C4A801F03FFF029808A910F077F80028BF
:1004C000C4D008A9C4A801F03DFF079B002BC0D1F0
:1004D0003B78002BC9D00023049A3B701370C4E70B
:1004E000C4A801F03DFFABE7717832A807F0DAFF4E
:1004F000A6E77378002B33D0012BA1D14A4673882D
:1005000049461380337932A8937007F0D5FF97E7F7
:10051000717832A807F0C8FF92E70AA9C4A801F0D1
:1005200019FF7DE7049B1B78002B9BD1C4A801F029
:100530001FFF049B3C701C7097E7049B1B78002BEB
:1005400090D0C4A801F018FF0023049A13708CE720
:10055000C4A801F00DFF0123049A3B70137084E7D7
:10056000B178C4A801F0EAFE6AE7C0463CF9FFFF93
:1005700040420F0068250020E0CB0610CCCB0610CF
:10058000C4CB0610743F0020643D0020843F00204F
:10059000DC3D002090620020043D0020F89D061004
:1005A000EC3D002091620020643F0020943F002039
:1005B0006C04000010B50400064B08000C3499428E
:1005C00005D036F01FF9431E9841404204402000F8
:1005D00010BDC04628CC0610882110B50400490083
:1005E00011F01EFB200010BD882110B5490011F04C
:1005F00017FB10BDF0B5DE464E4645465746E0B502
:10060000F84C0127A5440FF085FAF74A0300212191
:100610001000069201220FF07FFF0FF07BFAF34AE1
:10062000030008211000169201220FF075FF0FF051
:1006300071FAEF4A03001C2110000C9201220FF006
:100640006BFF0FF067FAEB4A03000E2110000D92CA
:1006500001220FF061FF0FF05DFA8021E64C0300EC
:100660000122200049000FF057FF0FF053FA8021BC
:10067000E24A0300490010000E9201220FF04CFFE5
:100680000FF048FADE4E03000122042130000FF083
:1006900043FF0FF03FFADB4A0300082110001792D6
:1006A00001220FF039FF13F0A1F9CEAB1800D649A3
:1006B0009B4606F0C1FF00239846424659AB1A807C
:1006C000082399464A4618AB0733FF331A700822AD
:1006D0008024FF3218AB9B181C70013218AB9B189A
:1006E0000A221C70FF3218AB9B181C70013218AB29
:1006F0009B180021DA3A5BA81C8011F075FA86225B
:1007000018AB52009B181F70063218AB9B181422AE
:100710001C70FF3218AB9B181C70013218AB9B1871
:1007200016221C70FF3218AB9B181C702523143A3C
:10073000FF3A59A9CA540133ED3259A9CA540133B9
:10074000DD3A59A9CA549821B04B490018AA521849
:1007500013802E23772259A9CA540233373A59A954
:10076000CA54362118AAFF31313B52181370013197
:1007700018AA521838211770FF3118AA521813708E
:10078000013118AA52183A211770FF3118AA5218CD
:1007900013709D2218AB52009B181F70442018AB99
:1007A0009C46013AFF300021FF3A604411F01CFAE8
:1007B000A021974B4900679318AA964B52181380B3
:1007C00049463E2359AAD1541B2259A91933CA5468
:1007D0000133CF547E2018AB9C46FF3020220021ED
:1007E000604411F001FA18AB9E209C46FF301422A1
:1007F0000021604411F0F8F99A23874A59A9CA5296
:10080000B22018AB9C46FF3060440822002111F052
:10081000EBF9B82359A989AACA500A004146002514
:100820000433D150043359AAD55438AC103359AAE3
:10083000D55420002A2211F0D7F98820400011F069
:10084000DFF9764B476003600C239C468444634683
:1008500087601F000500180012930BF0FFFF38009F
:100860000CF03CF96B68059001336B608EA943A8CE
:100870008F958E9709F0FAFE8F9D002D05D06B683D
:10088000013B6B60002B00D195E3802200215200D8
:100890008EA811F0A9F962480378002B00D099E3E3
:1008A0005B461CA930001C930FF0BAFE5D4813F0A4
:1008B0009BFD059E2FAD300008F0AAFE5A4808F0B7
:1008C0005BFF21220021280011F08EF9069B2900F0
:1008D00018006E7098460FF0A3FE18A884465D239A
:1008E000634420220021180011F07EF90223129F98
:1008F0002B7038000CF02EF92900687040460FF07C
:100900008FFE18A884465D2363442022002118002E
:1009100011F06AF9032338002B700CF01DF929003F
:10092000687040460FF07CFE38000CF025F901009D
:10093000584607F007FB390028000CF0F9F82900A9
:10094000584607F001FBF31EDBB2109300230D2E77
:1009500000D14DE39946099311930F933FAB079351
:1009600026AB1593314B18AA0A93314B9446189332
:100970001FAB04932F4B08932F4B9A462F4B0B938F
:100980002F4B14932F4B13932F4B199339236344FD
:100990001A931DAB984621005846059A07F0A4FB10
:1009A00007990D980FF002FE43A80AF09FFD00285A
:1009B00000D057E15B46022700260021234A9B58BE
:1009C0005A1E97424E41F6B2012B00D109E1002098
:1009D0000A990870022A00D81DE14A46002A3BD035
:1009E00036E0C04624F8FFFF043D0020EC3D002027
:1009F000643D0020843F0020643F0020943F00209D
:100A0000743F0020DC3D0020FCCB061012F8FFFFF5
:100A1000020180808080FFFF14080000B0CB061028
:100A2000A021002025030010DD0200108C620020B0
:100A30003C4A0020956200205C4A0020966200201B
:100A400093620020584A0020946200206C04000049
:100A50000422934300D1F8E1099B002B11D00FF041
:100A60000DFD002900D10BE1FA220023920010F0C5
:100A7000B5FB0122119B0992C01ABC4B984200D9C8
:100A80000AE12200049B83CA83C383CA83C312681A
:100A90001A60109B012B00D81FE100230F9343A87D
:100AA0000AF024FD2823E35C070099460FF0E6FCDA
:100AB000002900D08FE0FA21890010F051FB4B464D
:100AC000002B2DD14A46089B1A7053461A600B9B87
:100AD0001A7043A80AF00AFD002837D043A80AF08C
:100AE00005FD00284FD1002F71D122004046059B03
:100AF00059A909F0C1FA434603CB08F00BFE08F0F0
:100B0000FBFD04990C980FF019FD0E988EA90FF0BB
:100B10004DFD002802D08EA808F0F6F9B1463AE75C
:100B2000089A13780133DBB2137052461268022B15
:100B300000D8EFE0002A00D0EFE0534618600B9B8E
:100B400043A81A700AF0D2FC0028C7D12723E35C1F
:100B500099460FF093FC002900D171E1FA2200239D
:100B6000920010F03BFB4B46002B00D056E14A466A
:100B7000149B43A81A70139B1A60199B1A700AF0F1
:100B8000B5FC0028AFD043A807990AF0AFF943A8F5
:100B90000AF0C6FC002800D0BEE143A80AF0A6FC7B
:100BA000002800D1E8E0280043A90AF0A3FC2900AE
:100BB00016980FF035FD1C220021200011F014F8CA
:100BC0000E220021079811F00FF8002F8DD043A8B6
:100BD0000AF08CFC89E7FA220023920010F0FEFA5A
:100BE0006DE70A9B1B78002B00D186E10FF046FCD5
:100BF000002900D1B5E0FA220023920010F0EEFAAD
:100C00002123E35C002B06D0189B1B68C01AFA2333
:100C10005B0098421AD22223E35C002B00D11BE731
:100C2000584607F0BDFB18A884465D236344202284
:100C30000021180010F0D8FF052329002B7006981A
:100C40000FF0EEFC0023119309931AE7584607F0C2
:100C5000ADF900230A9A13702223E35C002B00D124
:100C6000FAE6DDE7280012990BF062FF179E0021DB
:100C700030000FF09BFC290030000FF05FFC99E67C
:100C8000FA21890010F06CFA0122119B0992C01A16
:100C9000364B984200D8F4E643A809F0C7FD43A8B4
:100CA00009F062FE18A884465D23634420220021D7
:100CB000180010F099FF042329002B7006980FF0FC
:100CC000AFFC159F43A938000AF014FC39001698B0
:100CD0000FF0A6FC00230993D3E643A80AF006FC14
:100CE000002800D0D9E60FF0C9FB002900D15CE153
:100CF000FA220023920010F071FA07000F9B002BDC
:100D000006D01B4AFB1A934200D8C8E607F004FF3E
:100D10000F97C4E6002A00D1DBE60B9B1B78002B63
:100D200000D0D6E61349821A8A4200D8D1E60122C1
:100D30000B9943A80A70089A13705246136009F081
:100D400051FF18A884465D23634420220021180027
:100D500010F04AFF0423290006982B700FF060FC66
:100D6000B7E6FA21890010F0FBF949E7B70B00005C
:100D70009F68060087130000129B180099460BF02D
:100D800001FF202200211A9810F02EFF0523159A4A
:100D90000698137011000FF043FC21220021280057
:100DA00010F022FF059B290006986B700FF038FCAD
:100DB00018A884465D23634420220021180010F007
:100DC00013FF022348462B700BF0C4FE2900687005
:100DD00006980FF025FC18A884465D236344202262
:100DE0000021180010F000FF032348462B700BF081
:100DF000B3FE2900687006980FF012FC48460BF00D
:100E0000BBFE0100584607F09DF8494628000BF04C
:100E10008FFE2900584607F097F8CCE6149A13780D
:100E20000133DBB21370139A1268022B00D889E0E9
:100E3000002A00D089E0139B1860199B1A704DE6B8
:100E4000FA21890010F08CF98DE6584607F0D4FAA3
:100E5000129B5946994618000BF042FE48460BF08B
:100E600091FE21220021280010F0BEFE059B2900E2
:100E700006986B700FF0D4FB18A884465D2363447A
:100E800020220021180010F0AFFE2F704F463800CE
:100E90000BF060FE069B29006870180099460FF061
:100EA000BFFB18A884465D2363442022002118005C
:100EB00010F09AFE032338002B700BF04DFE290032
:100EC000687048460FF0ACFB38000BF055FE01008F
:100ED000584607F037F8390028000BF029FE2900A2
:100EE000584607F031F80FF0C9FA002951D1FA211C
:100EF000890010F035F91190B1E50FF0BFFA002923
:100F00004ED0FA220023920010F068F9189B0A9A3A
:100F100018600123137069E6584607F01BF843A8D0
:100F200009F09CFC18A884465D236344202200211C
:100F3000180010F059FE0523290006982B700FF0B9
:100F40006FFB2AE6002A00D1C8E519990B78002B1F
:100F500000D0C3E5821AFA208000824200D2BDE5AB
:100F600001220A70149A43A81370139A136009F0AF
:100F70005DFC18A884465D236344202200211800EC
:100F800010F032FE0423290006982B700FF048FB66
:100F9000A4E5FA220023920010F020F911905EE5FA
:100FA000FA21890010F0DCF8B0E7FA21890010F08E
:100FB000D7F80700A2E62B6828009B689847AB6823
:100FC000013BAB60434500D05FE42B682800DB6841
:100FD00098475AE48C21DE4D4900415800958A25F6
:100FE0006D00DC4BDC4A4059013107F02BFD57E422
:100FF0009946059309933FAB079326AB1593D74BBF
:1010000018AA0A93D64B944618931FAB0493D54B5A
:101010000893D54B9A46D54B0B93D54B1493D54B90
:101020001393D54B1993392363441A931DAB9846F8
:10103000D24B0F93D24B1193D24B1093D24B1B93A5
:101040000D222100584607F04FF807990D980FF030
:10105000ADFA43A80AF04AFA002800D03DE15B4609
:10106000022700260021C94A9B585A1E97424E412A
:10107000F6B2012B00D1F5E000200A990870022A8F
:1010800000D80FE14A46002A03D00422934300D13E
:101090000AE2059B002B11D00FF0F0F9002900D1D6
:1010A00029E1FA220023920010F098F80122099B0E
:1010B0000592C01AB64B984200D928E12200049B41
:1010C00083CA83C383CA83C3126843A81A600AF021
:1010D0000DFA2823E35C070099460FF0CFF90029A9
:1010E00000D1BAE0FA220023920010F077F84B46C4
:1010F000002B3CD0089A13780133DBB213705246B0
:101100001268022B00D845E1002A00D045E1534681
:1011100018600B9B1A7043A80AF0E8F9002832D037
:1011200043A80AF0E3F9002853D1002F75D100201D
:101130000CF084FF002878D122000D23404659A9E5
:1011400008F09AFF434603CB08F0E4FA08F0D4FA1B
:1011500004990C980FF0F2F90E988EA90FF026FA68
:10116000002802D08EA807F0CFFEB14668E74A46B5
:10117000089B43A81A7053461A600B9B1A700AF01A
:10118000B5F90028CCD12723E35C99460FF076F916
:10119000002900D183E1FA220023920010F01EF80A
:1011A0004B46002B00D172E1149A13991378013346
:1011B000DBB213700A68022B00D8F3E1002A00D0DA
:1011C000F3E1199B086043A81A700AF08FF9002810
:1011D000ABD043A8079909F089FE43A80AF0A0F90B
:1011E000002800D0C8E143A80AF080F9002800D107
:1011F000FBE0280043A90AF07DF9290016980FF0BA
:101200000FFA1C220021200010F0EEFC0E2200211B
:10121000079810F0E9FC002F89D043A80AF066F97E
:1012200000200CF00BFF002886D0159F012239000A
:1012300000200CF00DFF3B780F9A1778BB2B00D1E4
:10124000E2E1002F00D0E1E1AA2B00D074E70122F7
:101250000F990A70109A13706EE7FA2189000FF047
:101260007FFF44E70A9B1B78002B00D175E10FF04C
:1012700005F9002900D1B3E0FA22002392000FF013
:10128000ADFF2123E35C002B0CD0189B1B68C01A18
:10129000FA235B00984205D3584606F087FE0023E8
:1012A0000A9A13702223E35C002B00D1F1E6584622
:1012B00007F076F818A884465D23634420220021B5
:1012C000180010F091FC052329002B7006980FF0F0
:1012D000A7F9002309930593F0E6280012990BF073
:1012E00027FC179E002130000FF060F92900300024
:1012F0000FF024F9B3E6FA2189000FF031FF012243
:10130000099B0592C01A224B984200D8D6E643A802
:1013100009F08CFA43A809F027FB18A884465D233E
:10132000634420220021180010F05EFC04232900F1
:101330002B7006980FF074F9159F43A938000AF036
:10134000D9F8390016980FF06BF900230593B5E62C
:1013500011030010B1210020A12100208C62002087
:101360003C4A0020956200205C4A002096620020E2
:1013700093620020584A0020946200208D62002071
:10138000109E0610404A0020249E06106C040000A7
:10139000B70B0000002A00D1BDE60B990B78002B9B
:1013A00000D0B8E6801AC64A904200D8B3E60122BF
:1013B0000A70089A43A813705246136009F012FC91
:1013C00018A884465D23634420220021180010F0F1
:1013D0000BFC0423290006982B700FF021F99AE6E4
:1013E000FA2189000FF0BCFE4BE7129B18009946CA
:1013F0000BF0C8FB202200211A9810F0F5FB052302
:10140000159A0698137011000FF00AF92122002195
:10141000280010F0E9FB0D23290006986B700FF0EF
:10142000FFF818A884465D23634420220021180099
:1014300010F0DAFB022348462B700BF08BFB2900DF
:10144000687006980FF0ECF818A884465D23634492
:1014500020220021180010F0C7FB032348462B7000
:101460000BF07AFB2900687006980FF0D9F848460F
:101470000BF082FB0100584606F064FD4946280047
:101480000BF056FB2900584606F05EFDB9E64A46C9
:10149000149B1A70139B1A60199B1A7040E6FA216C
:1014A00089000FF05DFE7BE6584606F0A5FF129B13
:1014B0005946994618000BF013FB48460BF062FBA7
:1014C00021220021280010F08FFB0D23290006980F
:1014D0006B700FF0A5F818A884465D2363442022A2
:1014E0000021180010F080FB2F704F4638000BF0E1
:1014F00031FB069B29006870180099460FF090F8A0
:1015000018A884465D23634420220021180010F0AF
:101510006BFB032338002B700BF01EFB2900687057
:1015200048460FF07DF838000BF026FB01005846C6
:1015300006F008FD390028000BF0FAFA2900584699
:1015400006F002FD0EF09AFF002952D0FA22002385
:1015500092000FF043FE09909EE50EF08FFF0029E8
:101560004DD0FA22002392000FF038FE189B0A9A01
:101570001860012313707AE6584606F0EBFC43A886
:1015800009F06CF918A884465D23634420220021E9
:10159000180010F029FB0523290006982B700FF086
:1015A0003FF820E6002A00D1BAE519990B78002B04
:1015B00000D0B5E5801AFA229200904200D2AFE541
:1015C00001220A70149A43A81370139A136009F049
:1015D0002DF918A884465D236344202200211800B9
:1015E00010F002FB0423290006982B700FF018F866
:1015F00096E5FA2189000FF0B3FD09904CE5FA2138
:1016000089000FF0ADFDB1E7002F3CD00F99109885
:101610007A1CD2B20A70C3550A2A00D08CE5002782
:101620000F70437A552B00D086E5837842781B02F1
:1016300013435BBA2B800379C2781B0213435BBA56
:10164000AB80837942791B0213435BBA6B80037AC8
:10165000C2791B0213435BBA29005846EB8006F09F
:1016600073FC129B2900994618000BF039FA484682
:101670000BF088FA032238001B990CF067FD380044
:101680000CF02AFD58E55A465B46D2881B88029228
:101690005A465288202101925A4692882800009288
:1016A000119A11F02BFF28005DF07CF9290002004F
:1016B00038000CF04BFD38000CF00EFD3CE5C04648
:1016C00087130000D0231B065868C0437047C046EC
:1016D0007047C0467047C04610B504301AF056FF38
:1016E00010BDC04610B504000C2110F099FA20007E
:1016F00010BDC04610B50400042110F091FA20007E
:1017000010BDC046F8B54E464546DE465746E0B5E4
:101710000700806B3D0003680E009B6898472023FC
:10172000FC6A243581469846AC4213D128E0FA225F
:10173000002392000FF052FDE3695B44834203D81B
:1017400043465246E254E06120001BF08FFB040048
:10175000A84215D04A46A36913405A1E9341DAB2F3
:1017600092464246A25C9A42EED0BB7B9B460EF06C
:1017700085FE0029DBD1FA2189000FF0F1FCDBE7BF
:10178000BB6A1A1E00D16BE111009268002AFBD1DE
:101790008D4200D164E10A7C002A00D060E1203251
:1017A0008A5C2800914632771A0003E010009268A4
:1017B000002A05D0117C0029F8D1D268002AF9D17D
:1017C000854200D14CE1027C012A00D948E1202267
:1017D000815C2C001A00717703E014009268002AE3
:1017E00005D0107C0128F8D8D268002AF9D1A5428A
:1017F00000D135E1227C022A00D931E12022A25C0D
:1018000028009046B2771A0003E010009268002A80
:1018100005D0147C022CF8D8D268002AF9D1854270
:1018200000D11DE1027C032A00D919E12022825C4B
:1018300028009446F2771A0003E010009268002A0C
:1018400005D0147C032CF8D8D268002AF9D185423F
:1018500000D105E1027C042A00D901E12022805C4C
:10186000B05428001A0003E010009268002A05D046
:10187000147C042CF8D8D268002AF9D1854200D112
:10188000EEE0027C052A00D9EAE02022805C0132E9
:10189000B05428001A0003E010009268002A05D016
:1018A000147C052CF8D8D268002AF9D1854200D1E1
:1018B000D6E0027C062A00D9D2E02022805C0232E7
:1018C000B05428001A0003E010009268002A05D0E6
:1018D000147C062CF8D8D268002AF9D1854200D1B0
:1018E000BEE0027C072A00D9BAE02022805C0332E5
:1018F000B05428001A0003E010009268002A05D0B6
:10190000147C072CF8D8D268002AF9D1854200D17E
:10191000A6E0027C082A00D9A2E02022805C0432E2
:10192000B05428001A0003E010009268002A05D085
:10193000147C082CF8D8D268002AF9D1854200D14D
:101940008EE0027C092A00D98AE02022805C0532E0
:10195000B05428001A0003E010009268002A05D055
:10196000147C092CF8D8D268002AF9D1854200D11C
:1019700076E0027C0A2A00D972E02022805C0632DE
:10198000B05428001A0003E010009268002A05D025
:10199000147C0A2CF8D8D268002AF9D185425FD08D
:1019A000027C0B2A5CD82022805C0732B0542800CD
:1019B0001A0003E010009268002A05D0147C0B2C5A
:1019C000F8D8D268002AF9D1854249D0027C0C2A85
:1019D00046D82022805C0832B054280003E018006A
:1019E0009B68002B05D01A7C0C2AF8D8DB68002BEA
:1019F000F9D1854234D0027C0D2A31D82022855C71
:101A00000932B5544A46002A17D101233B77434691
:101A1000002B07D103237B77F0BCBB46B246A94617
:101A2000A046F8BD6346002B12D07B7F032B12D05B
:101A3000022BF1D10023B377EEE7002906D03A7FDD
:101A4000012A0BD0002AE2D13377E0E73977DEE7CD
:101A500002237B77E0E70023F377DDE77377D6E7B0
:101A6000014828F049F9C046289E0610F0B5D64630
:101A70004F464646C0B51E000700242015008A4682
:101A800010F0BEF8012332782D78934002758361FF
:101A9000202200230574C36183543B1D0400564675
:101AA0009946534547D0337C9D4228D2FB689A46DD
:101AB000B34268D030001BF009FA037CAB425FD31D
:101AC000BB689846002B05D18DE09B680121002B57
:101AD00008D0984643461A7C9542F6D3DB6800212D
:101AE000002BF6D14646002900D075E0954217D963
:101AF000B14548D0337C9D42AD41684244E09D42AF
:101B00000FD93B695345F3D030001BF0AFF9037C8C
:101B1000AB4248D9F368002BECD00600012033E03B
:101B200046462421200010F07BF83000E0BCBA4685
:101B3000B146A846F0BD7B69002B2FD1BB68984603
:101B4000002B05D14DE09B680121002B08D0984661
:101B500043461A7C9542F6D3DB680021002BF6D170
:101B600046460029C2D0FB6846464345C0D04046A1
:101B70001BF0ACF9027C464680469542B8D8CFE7C8
:101B8000C368002B2BD001204B46320021001BF0F4
:101B9000B9F97B69260001337B61C6E73E69337C76
:101BA000AB42A5D3CAE7BB689846002B05D120E01D
:101BB00001219B68002B07D0984643461A7C95422A
:101BC000F6D30021DB68F5E74646002900D18DE712
:101BD000FB689E42CBD18BE7C245C8D188E706009F
:101BE00086E7D046BFE7C846D145C0D14E46012062
:101BF000CAE7FB68C8469945B9D1F7E7F0B5CE46C4
:101C0000474603000C0080B5060083B00F0007CCE8
:101C100007C32200A14613CA13C3126835001A6015
:101C20009C4B2422B3830023B3546A46B362D3711E
:101C30007363B363203398462435B0443B002900D6
:101C400007324046F5623563FFF710FF6A4601230D
:101C5000D371B26A2900002A11D0130003E01900E1
:101C60009B68002B05D0187C0028F8D1DB68002B7E
:101C7000F9D18D4203D00B7C012B00D852E16A468A
:101C80007B1C07324046FFF7F1FE02236946B26A29
:101C9000CB71002A00D1E4E11400290003E0110017
:101CA0009268002A05D0137C012BF8D8D268002A4C
:101CB000F9D18D4200D1D5E10B7C022B00D9D1E1C5
:101CC0006A460323D3712200290003E02100A4689F
:101CD000002C05D0237C022BF8D8E468002CF9D125
:101CE0008D4200D1AFE10B7C032B00D9ABE1042383
:101CF0006946CB711300290003E011009268002AA5
:101D000005D0107C0328F8D8D268002AF9D18D427A
:101D100000D189E10A7C042A00D985E105226946BF
:101D2000CA711A00290003E019009B68002B05D036
:101D3000187C0428F8D8DB68002BF9D18D4200D13B
:101D400063E10B7C052B00D95FE106236946CB716B
:101D50001300290003E011009268002A05D0107CCE
:101D60000528F8D8D268002AF9D18D4200D13DE18A
:101D70000A7C062A00D939E107226946CA711A008D
:101D8000290003E019009B68002B05D0187C062869
:101D9000F8D8DB68002BF9D18D4200D117E10B7C1C
:101DA000072B00D913E108236946CB7113002900E2
:101DB00003E011009268002A05D0107C0728F8D8AB
:101DC000D268002AF9D18D4200D1F0E00A7C082ABD
:101DD00000D9ECE009226946CA711A00290003E023
:101DE00019009B68002B05D0187C0828F8D8DB6800
:101DF000002BF9D18D4200D1C9E00B7C092B00D911
:101E0000C5E00A236946CB711300290003E01100E5
:101E10009268002A05D0107C0928F8D8D268002AD8
:101E2000F9D18D4200D1A2E00A7C0A2A00D99EE0B5
:101E30000B226946CA711A00290003E019009B6849
:101E4000002B05D0187C0A28F8D8DB68002BF9D1C4
:101E50008D4200D17BE00B7C0B2B00D977E00C236B
:101E60006946CB711300290003E011009268002A33
:101E700005D0107C0B28F8D8D268002AF9D18D4201
:101E800056D00A7C0C2A53D80D226946CA71290003
:101E900006E0C0460103000019009B68002B05D036
:101EA0001A7C0C2AF8D8DB68002BF9D18D4202D0BD
:101EB0000B7C0D2B06D93B006A4640460D3307329A
:101EC000FFF7D4FD337E002B00D0D9E004200FF0C3
:101ED00097FE7A4BF46A81460360A54214D0012331
:101EE000D02798463F06207D0EF050FC4346207DCB
:101EF000002283400121BB620EF020FC20001AF07A
:101F0000CDFF04008542EED14B46B06BB363002891
:101F100002D003685B689847300003B0C0BCB94684
:101F2000B046F0BD022369461400CB71B5E6290026
:101F30006A464B4607324046FFF798FD0D22694638
:101F4000B36ACA71002BA2D12900B4E729003B0073
:101F50006A460B3307324046FFF788FD0C2369467B
:101F6000B26ACB71002AE2D013007CE729003B0063
:101F70006A460A3307324046FFF778FD0B2269466E
:101F8000B36ACA71002BE1D01A0055E729003B0063
:101F90006A46093307324046FFF768FD0A2369465F
:101FA000B26ACB71002AE1D013002EE729003B0072
:101FB0006A46083307324046FFF758FD0922694652
:101FC000B36ACA71002BE1D01A0007E729006A46FC
:101FD000FB1D07324046FFF749FD08236946B26AF8
:101FE000CB71002AE2D01300E1E629006A46BB1D4E
:101FF00007324046FFF73AFD07226946B36ACA71C5
:10200000002BE3D01A00BBE629006A467B1D07328D
:102010004046FFF72BFD06236946B26ACB71002AC2
:10202000E3D0130095E629006A463B1D073240467F
:10203000FFF71CFD05226946B36ACA71002BE3D085
:102040001A006FE629006A46FB1C07324046FFF77C
:102050000DFD04236946B26ACB71002AE3D0130058
:1020600049E629006A46BB1C07324046FFF7FEFCE2
:1020700003236A46B46AD371002CE3D0220023E61E
:102080000C200FF0BDFD040005000D4B326908C4A3
:10209000317D20001AF034FA20000A491AF042FA81
:1020A000200008491AF04EFA200006491AF05CFA9E
:1020B000B06BB563002800D02BE72DE738CC0610B5
:1020C0004CCC0610FFFF0000F0B5D6464F46464602
:1020D000C0B50E0015000F1D390004001AF0F6F807
:1020E000F31C98466B1C99461A00414620001AF0D2
:1020F000EDF839004A4620001AF0E8F8B31C9A4679
:10210000AB1C99461A00514620001AF0DFF84146F0
:102110004A4620001AF0DAF839004A4620001AF040
:10212000D5F8EB1C99461A002000711C1AF0CEF865
:102130004A46514620001AF0C9F84A464146200056
:102140002E1D1AF0C3F84A46390020001AF0BEF8D6
:102150005146320020001AF0B9F841463200200002
:102160001AF0B4F83900320020006E1D1AF0AEF8F3
:102170003200414620001AF0A9F832003900200050
:102180001AF0A4F83900AA1D20001AF09FF8E0BC4C
:10219000BA46B146A846F0BDF8B5CE464746160049
:1021A00080B504000D001AF091F8731C98466F1C5E
:1021B0001A00290020001AF089F839004246200050
:1021C0001AF084F8B31C98461A00290020001AF06F
:1021D0007DF83900424620001AF078F8AB1C4246E0
:1021E0001900200099461AF071F8F31C98461A005D
:1021F000290020001AF06AF83900424620001AF03F
:1022000065F84946424620001AF060F8E91C42464B
:1022100020001AF05BF8331D98461A0029002000B0
:102220001AF054F83900424620001AF04FF8494697
:10223000424620001AF04AF8731D98461A002900F9
:1022400020001AF043F84246390020001AF03EF808
:102250002900B21D20001AF039F8C0BCB946B046BA
:10226000F8BDC04670B50300040082B0002505C962
:1022700005C320001C22002125720A300FF0B4FC97
:1022800020000E22002126300FF0AEFC26000D2388
:10229000200008220021A386363040360FF0A4FC2F
:1022A0001C22002130000FF09FFCE5650EF0E6F8DF
:1022B000002932D0FA22002392000EF08FFF002571
:1022C00020662000082200216566A566E56670305C
:1022D0000FF08AFC48232268A567E567E554237957
:1022E000802100923000402219F046FF300019F0A2
:1022F000E5FF8023E5500433E5500433094AE550F7
:102300000433E5502300A1180022A1331A701433BE
:102310008B42FBD1200002B070BDFA2189000EF083
:102320001FFFCCE7C103000010B52A220A300FF0CE
:1023300061FC10BD3423C1547047C0463523C154DD
:102340007047C04610B5072236300FF053FC10BD61
:10235000C166704710B5082270300FF04BFC10BDFD
:10236000012303727047C046022303727047C046C0
:10237000032303727047C046042303727047C046AC
:10238000F0B5C64600B582B004000EF077F800291B
:1023900033D0FA22002392000EF020FF236EC01AE1
:1023A000624B984209D8FA210EF0DAFEC00700D439
:1023B000A7E002B080BCB846F0BD5D4B984221D981
:1023C0005C4B9842F5D85C4B4034200000930C22C3
:1023D0000123252119F0F8FF584B200000931A2201
:1023E0000223042119F0F0FF554B302200932B21DA
:1023F0000123200019F0E8FFDBE7FA2189000EF045
:10240000AFFECBE74F4B40349C4660440FF0E5FAFB
:102410004D490FF07EFA011C051C0FF077FA011CE4
:102420004A480FF070FA291C061C281C0FF085FA88
:10243000011C301C0FF081FA45490FF07EFA0FF0B5
:10244000F3FA80263C4B311A0093200001230C2222
:1024500019F0BAFF3F49281C0FF0AEFA00285BD0F4
:102460003C49281C0FF04FFA3B490FF052FA011C6F
:10247000071C0FF04BFA011C34480FF044FA391CCA
:102480008046381C0FF059FA011C40460FF055FAEF
:1024900032490FF052FA0FF0C7FA284B311A009365
:1024A000200002231A2219F08FFF2D49281C0FF05B
:1024B00083FA002838D02A49281C0FF024FA294929
:1024C0000FF027FA011C051C0FF020FA011C1F4811
:1024D0000FF019FA291C071C281C0FF02EFA011CFA
:1024E000381C0FF02AFA20490FF027FA0FF09CFA57
:1024F000311A134B302200932000012319F064FF9E
:1025000057E720000221194B1C2200934030022380
:10251000494219F059FF4CE7084B1A2200938021D9
:102520000223200019F050FF8021E2E7B70B0000E2
:1025300093110000571B00003C9E0610489E061099
:10254000549E061048F4FFFF0080BB44000040404A
:102550000000B642CDCC4C3ECDCC4C3F0000F84202
:10256000CDCCCC3E9A99193F0000AA42309E06106D
:10257000F0B5DE4657464E4645463623E0B5A7B091
:102580000C0036220021403000934933039019F0AB
:10259000B1FE08AB9B460AAB0893D44B5A460A934C
:1025A000042353600023137310AA0E92D04A06A985
:1025B0000A8502220F920A002A21521813702378EA
:1025C000062B01D900F057FCCA4A9B00D3589F46FE
:1025D00016AB02931493012304930023089A14ADBD
:1025E0001AAC2B72069223721CAA6B60023304266B
:1025F000100098461A9205920222BF490FF0FAFA8B
:102600001A9B994643464A46636041460023535409
:10261000636898464246B94B9B1AB34201D200F018
:1026200044FC1A98059B9719984200D173E3A3685C
:102630009F4200D956E24044012E01D100F0F6FB42
:10264000320006990FF0D6FA1A9B99464A460023A3
:102650006760D3551A9B9A46636899466B6898469B
:102660004246A64B9B1A994501D900F01EFC4E46E6
:10267000149F029B46449F4200D159E3AB689E429F
:1026800000D9FBE24B46002B09D038004044012B17
:1026900000D1D2E34A4651460FF0ACFA149F002312
:1026A0006E60BB551A98059B984203D0A168013112
:1026B0000FF0B6FA6C68914B9C4201D100F0F5FB2B
:1026C000149B029A661C934200D18AE3AA68964240
:1026D00000D900E320221A55149F00236E60BB55D9
:1026E00019E0874B10AA934200D3D3E1854B10AA7F
:1026F000109304230F93002313715B465E6801233C
:10270000049316AB02931493002314AD2B726B60E9
:10271000002E00D01AE20E9B0F9E059322AB209351
:10272000002320AC23726360B31C9A460F2B00D8A1
:10273000BEE0002B00DAA5E31D2B00D8C4E1F01C9D
:1027400000D54FE10FF05CFA209B67688146984600
:102750007A1C002F00D14DE2002A00D0ACE1A16824
:10276000404601310FF05CFA4B46209353466768B0
:10277000A360624BDB1B012B00D896E3BB1C984681
:10278000534500D9C4E03800484402225E490FF0A6
:1027900031FA209B994643464A46636041460023EE
:1027A0005354636899464A46544B9B1A9E4200D93B
:1027B0007BE3B046209F22ABC8449F4200D1FEE19C
:1027C000A368984500D9CDE0002E09D038004844D0
:1027D000012E00D17CE1320005990FF00BFA209F09
:1027E0004346424663600023BB54209B9A4663687D
:1027F00098466B6899464A46404B9B1A984500D9C3
:1028000053E34746149E029B4F449E4200D1E4E1AD
:10281000AB689F4200D9DBE04346002B09D0300073
:102820004844012B00D158E1424651460FF0E2F9ED
:10283000149E00236F60F355209822AB984203D07A
:10284000A16801310FF0ECF96A6853009B18049AF3
:102850005B00002A30D16E240021E41A6410149B1E
:1028600012340398009338220123611819F0ACFD4B
:102870001498029B984203D0A96801310FF0D0F957
:102880000E9810AB984203D0109901310FF0C8F99F
:1028900008980AAB984204D05B46996801310FF062
:1028A000BFF927B0F0BCBB46B246A946A046F0BD72
:1028B000022322A8984668E75024039EE41A641075
:1028C000210038223000FFF7FFFBE11D38223000E5
:1028D000FFF762FC21000D4B0F31009338220123DA
:1028E000300019F071FD0C341221B8E74261636BBE
:1028F0004F4B000058CC06109C9E0610FFFFFF7F38
:102900005C9E061053617665A09E0610A49E06107C
:102910004346002B00DAB5E253465B000693984528
:1029200000D311E2002B5DDB581C0FF069F9209BEE
:1029300081469A463A00514648460FF05BF9380006
:102940000222C94948440FF055F922AB9A4504D0F8
:10295000A168504601310FF063F94B462093069B66
:10296000A36018E74246002A00DA8BE25B00069378
:10297000984500D201E24346581C33D406930FF029
:102980003FF9209B07009A464B46002B06D0012BAF
:1029900000D143E24A4651460FF02CF9059B002B2B
:1029A0000AD0002E08D04B46F818012E00D149E27B
:1029B000320005990FF01EF922AB9A4504D0A168A8
:1029C000504601310FF02CF9069B2097A36007E7D2
:1029D000002F00DA56E25B0006939F4204D2581C97
:1029E000002B04DA27F028F9781CFBD406970FF0A7
:1029F00007F9149B060005934B46002B06D0012BCC
:102A000000D10FE24A4605990FF0F4F85346002B27
:102A10000CD04346002B09D04B46F0184346012BFF
:102A200000D113E2424651460FF0E4F80598029BAC
:102A3000984203D0A96801310FF0F2F8069B149672
:102A4000AB60F6E6894B10AA934206D306A92A2268
:102A50008C466244934200D817E21A682E211092E5
:102A60009B8806AA938506230F93002352181370A0
:102A70005B465A680AA97E4B994203D8881883425C
:102A800000D815E200235A4653600B7000235668A5
:102A9000049336E606A92A228C466244934200D962
:102AA00024E6002201920432009210A9023A0EA8F4
:102AB00034F0C2FE0E9A1CE619000FF09BF822AB10
:102AC000984500D04BE69CE01E231F209A4639E62D
:102AD000059B1B780370209F82E653461B7803708A
:102AE000149EA6E6002F00DACCE15B0007939F421C
:102AF00000D264E1781C00D574E707970FF080F8E6
:102B00001A9B81469A464346002B06D0012B00D1E2
:102B1000A0E1424651460FF06DF8069B002B08D00D
:102B200040464844012E00D158E1190032000FF010
:102B300061F8059B9A4504D0A168504601310FF019
:102B40006FF84B461A93079BA3607FE5089A1AAC6F
:102B5000069223721CAA6360B31C9A4605921A92CD
:102B60000F2B00D882E1002B00DA8BE11D2B00D85F
:102B700008E1F01C00D535E70FF042F81A9B6768B2
:102B8000814698467A1C002F00D13BE1002A00D0F4
:102B9000E5E0A168404601310FF042F84B461A9338
:102BA00053466768A360334BDB1B012B00D87CE1E5
:102BB000BB1C98469A452BD3380048441CE5434635
:102BC0000F2B00D800E6002B00DA5BE11D2B00D9AB
:102BD000D1E61E231F200693D1E60F2F00D81BE657
:102BE000002F00DA4EE11D2F00D9FDE61E231F2025
:102BF0000693FCE61B78037022AB984500D0AEE547
:102C000000274B4620935346A360BB1C9846BAE569
:102C10004346002B00DA35E153465B0007939845A5
:102C200000D2C2E0F81C00D5DCE60EF0E9FF1A9BEA
:102C300081469A46434607933A00514648460EF06D
:102C4000D9FF380002220C4948440EF0D3FF059BFF
:102C50009A4504D0A168504601310EF0E1FF4B4681
:102C60001A93079BA360CDE4A09E0610649E0610F5
:102C7000BCAA0610FFFFFF7F9C9E0610002E00DA04
:102C800000E15B0007939E4200D29DE0701C00D5DE
:102C9000A8E607960EF0B4FF149B07000693434680
:102CA000002B06D0012B00D1D8E0424606990EF049
:102CB000A1FF5346002B02D04B46002B66D106984D
:102CC000029B984203D0A96801310EF0A9FF079B2F
:102CD0001497AB60E3E4002E00DAD3E0530098468B
:102CE0009E4276D3A01C00D57CE6B0460EF088FF4D
:102CF000149B07009946002C52D120233B55029B80
:102D0000994504D0A968484601310EF089FF434631
:102D10001497AB60E1E40F2F00D88CE4002F00DAA9
:102D2000B0E01D2F00D9E5E61E231F200793E5E63E
:102D30000F2E00D8A6E4002E00DAA3E01D2EA5D8A1
:102D40001E231F200793A5E7F81C00D54AE60EF0C6
:102D500057FF209B81469A4643460693EAE51900B1
:102D60000EF048FF059B984500D012E74B461A939A
:102D70005346A360BB1C98461EE7581C002B00DA84
:102D800030E6FCE51E231F209A46F5E64346F81878
:102D90004B46012B66D04A4651460EF02BFF8EE77C
:102DA000012C29D11B780370A7E7002B00DA19E664
:102DB000581C0EF025FF1A9B81469A463CE7581C8A
:102DC000002B00DA0EE699E6581C002B00DA09E623
:102DD00060E7581C002B00DA04E687E71B780370D5
:102DE000A7E6102E00D075E41F200EF009FF149BFB
:102DF000070099461E2398462200494638000EF0E7
:102E0000F9FE7AE71B780370059B984500D0C0E671
:102E10005346A36002231A909846CDE653461B788A
:102E20000370BBE5059B1B780370EFE5069B1B78E1
:102E300003701A9B9946FFF709FC53461B780370F1
:102E4000149F2CE4059B1B780370B5E553461B7853
:102E50000370EBE553461B7803705EE6069B1B7818
:102E6000037026E753461B78037028E70223059872
:102E70009846FFF7C1FB16AB02931493002304930B
:102E8000FFF7ABFB0E4826F01FFF002406250222A9
:102E900010A9019400950EA834F0CEFC0E9B0F955E
:102EA0009C715B4608995A68E5E5064826F00CFFD8
:102EB000002001900090584634F0BEFC0899E1E5EE
:102EC0006C9E0610849E0610F0B5DE4657464E46B0
:102ED0004546E0B595B004000DF0D0FA002900D1C8
:102EE000A4E0FA22002392000EF078F9636EC01A73
:102EF0003623E35C142B00D1A3E0E04B302798424B
:102F000000D842E1DE4B4034082200930721012320
:102F1000200019F059FA0023012208AE0AAD0895E5
:102F200098467372D74B37727260AB4200D334E16C
:102F30002A00B77403CB03C21B8813800023F374E9
:102F400010AB9A460E930EAB99460C2229005046C0
:102F50000EF050FE0B234A46536000230895736021
:102F600033721E231F209B460EF04AFE07000E9B65
:102F70000B22190098460EF03DFE38000822C24987
:102F80000B300EF037FED04505D04B4699684046D1
:102F900001310EF045FE4B465A460E979A601323B8
:102FA0004A4653600023FB740E9A04AB984602AF66
:102FB0000293524500D150E14B469B680292BB60A0
:102FC000132308987B60A84200D144E1B168013125
:102FD0000EF026FE7968029A4B005B1880215B0098
:102FE000C91A2000012349080092182219F0ECF9AF
:102FF000A64B2822042120000093012319F0E4F9B4
:10300000A34B2000009334220123012119F0DCF9A5
:103010000298404503D0B96801310EF001FE15B0A9
:10302000F0BCBB46B246A946A046F0BDFA218900D5
:103030000EF096F8636EC01A3623E35C142B00D0B2
:103040005BE78E4B3027984206D8FA2189000EF0B4
:1030500087F835273F1AFFB28E4B40340422009385
:1030600007210123200019F0AFF90023012208AE47
:103070000AAD089598467372874B37727260AB42FF
:1030800000D3B9E02A00377583CB83C20023737560
:1030900010AB9A460E930EAB99460E22290050466D
:1030A0000EF0A8FD0D234A46536000230895736077
:1030B00033721E231F209B460EF0A2FD07000E9BBD
:1030C0000D22190098460EF095FD38000322734931
:1030D0000D300EF08FFDD04505D04B469968404627
:1030E00001310EF09DFD4B465A460E979A60102313
:1030F0004A46536000233B740E9A04AB984602AFD5
:103100000293524500D1B1E04B469B680292BB60EE
:10311000102308987B60A84200D1A5E0B168013176
:103120000EF07EFD7968029A4B005B1880215B00EF
:10313000C91A2000012349080092102219F044F90D
:103140001A231A220A21200000935B3319F0D2F8C7
:10315000534B2022072120000093012319F034F95A
:10316000504B2A220A2120000093012319F02CF948
:103170004D4B2000009334220123072119F024F93C
:103180000298404500D046E749E7FA2189000DF052
:10319000E7FF35273F1AFFB2B4E6292169448B4285
:1031A00000D9C5E60192093230000092290042465A
:1031B00034F042FB43460B2208987260C3720EAB98
:1031C000994610AB9A460E93A84200D1BDE64946F7
:1031D0000E904A604246B36808958B607260327206
:1031E000504500D1BDE6122B6AD9082226490B3082
:1031F0000EF000FD0E9FD2E6292169448B4200D9D2
:1032000040E701920B32300000922900424634F030
:1032100013FB43460D220898726043730EAB994628
:1032200010AB9A460E93A84200D136E749460E905D
:103230004A604246B36808958B60726032725045AE
:1032400000D136E70F2B31D9032214490D300EF08F
:10325000D1FC0E9F4BE71321BEE614225146180005
:103260000EF0C8FC4246ABE610215DE71122514644
:1032700018000EF0BFFC42464AE7C0468713000024
:10328000089F06101C9F0610289F0610349F0610EA
:103290004C9F0610A89E0610BC9E0610189F061094
:1032A000CC9E0610E09E0610F49E06105B009B4626
:1032B000581C102B00D9FFE6102311209B46FBE67B
:1032C0005B009B46581C132B00D94DE6132314209A
:1032D0009B4649E610B5224B82B040300093022253
:1032E00001231621040019F06FF80C23200000932D
:1032F0000C220021733318F0FDFF1A4B20000093BD
:1033000010220123102119F05FF8174B20000093C1
:10331000182201230D2119F057F8144B20000093B7
:10332000202201230A2119F04FF8114B20000093AD
:10333000282201231C2119F047F80E4B200000938E
:1033400030220123162119F03FF80B4B382200934D
:1033500013210123200019F037F802B010BDC04638
:10336000649F0610749F0610889F06109C9F06108D
:10337000C8A00610B09F0610C09F0610F0B5DE462C
:1033800057464E464546E0B5C46EBFB0002C58D0F7
:10339000774BE358032B00D1C3E040239946754B8C
:1033A000814404220A2148460093022319F00CF8B4
:1033B00016231622002148460093693318F09AFF1D
:1033C0000DF05CF8002943D0FA22002392000DF0A2
:1033D00005FF674BE358022B42D0032B00D1B1E02D
:1033E00007AB039305930123029305AB00249B468F
:1033F0003034E4B25B46002202991C725960059B8E
:1034000048465A545B4680215A6853009B189B00DB
:10341000C91A059B1C2249080093022318F0D4FF07
:10342000554B4846009330220123192118F0CCFF58
:103430000598039B984204D05B46996801310EF0D1
:10344000EFFB3FB0F0BCBB46B246A946A046F0BD7C
:10345000FA2189000DF084FE454BE358022BBCD1C4
:10346000434B464A9C4664446368C11A9142B7D8AC
:10347000434A9446FA216344181A89000DF070FEFD
:10348000040009286BD90123632852D9FA239B0031
:10349000984262D33B4B98424ED93B4B98424ED90F
:1034A0003A4B984244D905230233029305AB9B461D
:1034B00000235A46536013720BAB07ADC9221800A4
:1034C00033499846039505950EF094FB632C1FD95C
:1034D000029BAC469E1E2B4B66449A4620006421FC
:1034E0000DF03EFE20004D0064210DF039FE4346F4
:1034F0005B195B782700737043465B5D0400337093
:10350000023E5745EAD8FA239B009F4200D26FE75C
:1035100043465A4664001B195B78537243461C5D50
:1035200068E7037A052B00D18BE70523037288E750
:10353000052301330293B9E704230293B6E7052379
:103540000293B3E70A4B134A9C466444A368C11A2A
:10355000914200D944E7104A8BE70123A4E707AB67
:10356000039305930123029305AB9B4640E7C046B6
:103570006C040000D09F0610DC9F0610B70B000003
:103580009F0F00000F2700009F8601003F420F00A1
:10359000EC9F0610871300006F170000F0B545463A
:1035A000DE4657464E46E0B5C46E0500BFB0002C5F
:1035B00000D1C7E0D54BE358042B00D199E1052B8E
:1035C00000D139E140239946D14B814400220421A6
:1035D00048460093022318F0F7FECE4B1422102128
:1035E00048460093012318F0EFFECB4B1C220D211F
:1035F00048460093012318F0E7FEC84B2422162109
:1036000048460093012318F0DFFE0CF037FF002935
:1036100000D19EE0FA22002392000DF0DFFDBB4BAB
:103620000E25E358032B1BD1B84BE3189B68C01A37
:10363000BB4B984200D9FDE043011B1A9B001818B0
:10364000B849C0000DF08CFD0EF0C7F9B6490EF078
:1036500074F9B6490EF071F90EF014FA85B20E3510
:10366000302330220E21484600932B0018F042FEF2
:10367000312331220E21484600932B0018F03AFEE8
:10368000322332220E21484600932B0018F032FEDE
:103690000CF0F4FE002961D0FA22002392000DF014
:1036A0009DFD9A4BE358022B60D0032B00D103E120
:1036B00007AB029305930123039305AB00249A46BD
:1036C0003034E4B25346002203991C725960059BC2
:1036D0005A5453465C68964B9C4200D158E1059B76
:1036E000029A651C934200D1F1E052469768BD42B0
:1036F00000D9AFE073221A55059E53465D60002342
:10370000524673550BAB98465568059B029A0DAC13
:103710000B94934200D1E5E05246414692680B93E8
:103720008A60424648465560742100933022012346
:1037300018F04AFE0B98A04204D043469968013124
:103740000EF06EFA3FB0F0BCBB46B246A946A046AA
:10375000F0BDFA2189000DF003FD60E7FA21890030
:103760000DF0FEFC694BE358022B9ED1674B714A6A
:103770009C4664446368C11A914299D86E4A944643
:10378000FA216344181A89000DF0EAFC04000928A4
:1037900000D8F2E00123632800D884E0FA239B00DC
:1037A000984200D2E7E0654B98427FD9644B98423B
:1037B0007FD9644B984275D905230233039305AB37
:1037C0009A4600235246536013720BAB07AD1800A4
:1037D000C9225D499846029505950EF00BFAAC4654
:1037E000039B9E1E6644632C1BD9544B9B462000B2
:1037F00064210DF0B5FC20004D0064210DF0B0FCFB
:1038000043465B195B782700737043465B5D040099
:103810003370023E5F45EAD8FA239B009F4200D2F4
:103820004EE74346524664001B195B785372434689
:103830001C5D47E7722513E70CF020FE002900D13C
:1038400086E0FA22002392000DF0C8FC0723E86707
:103850002B7277E7002D00DA97E07F00BD4200D29F
:1038600080E0A01C00D581E02F000EF0C9F9059B77
:1038700006009846002C06D0012C79D02200414643
:1038800030000EF0B7F973233355029B984505D0ED
:1038900053469968404601310EF0C2F953460596E9
:1038A0009F602AE705230133039388E704230393EA
:1038B00085E70523039382E7144B194A9C46644429
:1038C000A368C11A914200D9F2E6204A57E7102DA9
:1038D00000D00FE71F200EF093F9059B06009846D5
:1038E0001E27CBE7110020006A1C0EF083F923008D
:1038F00017E70CF0C3FD00292FD0FA220023920015
:103900000DF06CFC0623A8672B721BE76C0400000B
:10391000B8A00610C4A00610D8A00610ECA006108F
:1039200087130000881300006F12833A0000C8421A
:10393000FFFFFF7FB70B00009F0F00000F27000065
:103940009F8601003F420F00EC9F06106F1700009A
:10395000FA2189000DF004FC78E7FA2189000DF0C6
:10396000FFFBCFE7781C002F00DB7EE726F064F931
:103970001B78037087E701231FE707AB02930593CA
:103980000123039305AB9A469AE6034826F09CF977
:10399000024826F099F9C0466C9E0610849E0610D7
:1039A000F0B5DE4657464E464546E0B5C36EF7B025
:1039B00004000393002B0FD00CF060FD002915D0FC
:1039C000FA22002392000DF009FCA36FC01A064BE7
:1039D000984214D90223237277B0F0BCBB46B2469A
:1039E000A946A046F0BDC04687130000FA21890011
:1039F0000DF0B6FBA36FC01ABC4B9842EAD8BC4B83
:103A0000403404220A21200000930223069418F077
:103A1000DBFC16231622009300216933200018F0E6
:103A200069FCB44B039AD55A092D00D8CCE3632D19
:103A300001D800F056FFA43B9D4201D200F06BFC80
:103A4000AD4B9D4201D800F071FC15AB049313936C
:103A500000231493053304279B4613AE2D2343AC58
:103A60002000C922A54933720EF0C4F8A24BB84613
:103A70009A462300B0444446B14698462800642143
:103A80000DF06EFB28004F0064210DF069FB4346EA
:103A9000DB195B782E0023724346DB5D0500E37182
:103AA000023C5645EAD84B46B1461E00FA2344462E
:103AB0009B00994500D28DE36D0063195B78655DCD
:103AC00073725B46002259467360139B35725A54D9
:103AD00074688B4B1B1B022B01D800F010FF139F47
:103AE000049BE51C9F4201D100F0BCFCB3689D42E1
:103AF00000D9C5E3834B98469F4204D83B199845AB
:103B000001D800F00DFF002C08D0012C01D100F0ED
:103B100012FE22003900F81C57F0CEFC4146032269
:103B200038000EF067F8139B9846434600277560EF
:103B30005F5519AB9A461BAB19931398049B746895
:103B4000984201D100F0A4FC5346B2685C609A60D0
:103B5000049B199013936A4B776037721B1B032BDE
:103B600001D800F0FFFD1BAB251D984201D100F0EC
:103B7000A1FC954200D9A6E30422634900190EF086
:103B800039F8199F53465D60002352467B551FABA1
:103B90009B4621AB1F93199B54681BAA934201D1EA
:103BA00000F095FC1F9353465A469B6893605B4612
:103BB0005C601BAB0022199353465A601A72922321
:103BC0000399DB00CD5A092D01D800F053FE632D77
:103BD00000D802E3A83B9D4200D2C6E3464B9D427B
:103BE00000D8CEE325AB994627AB079325934B46E8
:103BF0005A600523042705932D234A4643ACA0466B
:103C000013722000C9223D490DF0F4FF4F4408967D
:103C1000280064210DF0A4FA28004E0064210DF064
:103C20009FFA43469B195B782C003B7243469B5D91
:103C30000500FB71304B023F9C42E9D84346A04649
:103C40001C00FA23089E9B00984500D3D2E2303531
:103C5000EDB24B46002205991D725960259B5A54BE
:103C60005B465B681F9C98464B465D6843465F1900
:103C700021AB9C4200D1C4E25B46259A9B68059229
:103C80009F4200D8C2E207998A4201D100F061FD4B
:103C90004A469268974201D800F020FC4146184AF3
:103CA000521A954201D900F05DFD21AA944201D13A
:103CB00000F0B8FD002F01DA00F024FE5B0009934C
:103CC0009F4201D200F0A5FC781C00D5B8E309970B
:103CD0000DF096FF1F9B040008934346002B01D074
:103CE00000F04FFC059B002B1AD00FE0871300005B
:103CF000FCA006108C0400000F270000EC9F0610AB
:103D0000FFFFFF7F24A1061028A106104346E018FC
:103D1000012D01D100F0B7FD2A0005990DF06AFFD1
:103D2000089821AB984204D05B46996801310DF0A8
:103D300077FF5B46099A1F949A605B465F60002399
:103D40005A46E3550DAB05930FAB09930D931F9B9B
:103D5000546821AA934201D100F0E5FC0D935B4623
:103D6000059A9B68936013005C6021AB5A461F93D1
:103D70000023259853601372079B984204D04B464A
:103D8000996801310DF04CFF1F9821AB984204D087
:103D90005B46996801310DF043FF19981BAB9842BF
:103DA00004D05346996801310DF03AFF1398049BF3
:103DB000984203D0B16801310DF032FF8021059B9C
:103DC00006985A6853009B185B00C91A0D9B1A226B
:103DD00000934908012318F0F7FAE64B039AD55AE5
:103DE000092D01D800F054FD632D00D822E2A63B36
:103DF0009D4200D212E3E04B9D4200D818E32DAB68
:103E000004932B9300232C93053304279B462BAE5E
:103E10002D2343AC2000C922D84933720DF0EAFEAD
:103E2000D54BB8469A462300B0444446B14698461E
:103E3000280064210DF094F928004F0064210DF052
:103E40008FF94346DB195B782E0023724346DB5D16
:103E50000500E371023C5645EAD84B46B1461E00C8
:103E6000FA2344469B00994500D3EFE13035EDB28B
:103E70005B460022594673602B9B35725A54746816
:103E8000BF4B1B1B022B01D800F039FD2B9F049B5D
:103E9000E51C9F4200D1CFE3B3689D4200D974E294
:103EA000B84B98469F4204D83B19984501D800F07A
:103EB00044FD002C08D0012C01D100F046FC22006A
:103EC0003900F81C57F0F8FA4146032238000DF08B
:103ED00091FE2B9B98464346002775605F5531AB9A
:103EE0009B4633AB31932B98049B7468984200D166
:103EF000B7E35B46B2685C609A60049B31902B9399
:103F00009F4B776037721B1B032B01D800F02AFCF4
:103F100033AB251D984200D1B4E3954200D956E257
:103F20000422994900190DF065FE319F5B465D60E2
:103F300000235A467B5537AB994639AB3793319BB3
:103F4000546833AA934200D1A8E337935B464A46AC
:103F50009B6893604B465C6033AB002231935B46B9
:103F600003995A601A72894BCD5A092D01D800F075
:103F70009DFC632D00D86FE1AA3B9D4200D261E217
:103F80007D4B9D4200D869E23DAB9A463FAB07931B
:103F90003D9353465A600523042708932D23524628
:103FA00043ACA04613722000C92274490DF022FED2
:103FB00057440A96280064210DF0D2F828004E00DC
:103FC00064210DF0CDF843469B195B782C003B72C1
:103FD00043469B5D0500FB71674B023F9C42E9D85D
:103FE0004346A0461C00FA230A9E9B00984500D336
:103FF0003FE13035EDB25346002208991D725960F9
:104000003D9B5A544B465F6853465D68379C7B190D
:10401000984639AB9C4200D170E34B463D9A9B6871
:104020000892984500D885E107998A4200D1A9E312
:1040300052469268904500D836E3514AD21B9542C9
:1040400000D98FE339AA944200D1F4E34246002A12
:1040500001DA00F057FC5B000A93984500D2E5E2D4
:104060004346581C00D5EBE10A930DF0C9FD379B80
:1040700004000B93002F00D177E3012F00D1EFE371
:1040800019003A000DF0B6FD089B002B02D0002D60
:1040900000D06EE30B9839AB984204D04B46996838
:1040A00001310DF0BDFD4B460A9A37949A604246A5
:1040B0004B465A600023A3544A46379B576845AD88
:1040C00039AA43AC4395934200D138E343934B461E
:1040D0009B68A36039AB4A46379300233D985360F1
:1040E0001372079B6760984204D053469968013168
:1040F0000DF096FD379839AB984204D04B4699683D
:1041000001310DF08DFD319833AB984204D05B4600
:10411000996801310DF084FD2B98049B984203D0DF
:10412000B16801310DF07CFD80216268069E53006C
:104130009B185B00C91A439B242200933000012383
:10414000490818F041F99322D2009446039B634436
:104150001B78002B00D1FFE00D4B2E2213213000E5
:104160000093012318F030F90A4B362200930A21FC
:1041700012E0C0468E0400000F270000EC9F0610DE
:10418000FFFFFF7F30A1061034A10610920400004B
:104190003CA106104CA106100123300018F014F9C0
:1041A0004398A84203D0A16801310DF039FD0D9864
:1041B000099B984201D1FFF70FFC059B99680131DB
:1041C0000DF02EFDFFF708FC15AB049313930123AC
:1041D0009B4613AE3035EDB273E443AC27ABC92236
:1041E0002000D749079325930DF004FD0223059382
:1041F00025AB99464A466D0063195B78655D53723D
:1042000027E5259A05920F2F00D9A7E14246CD4B0D
:104210009B1A9D4200D9A5E2002D00D18DE520001A
:104220004044012D00D1D4E12A0005990DF0E2FCB3
:104230001F9C82E543AC2DABC9222000C0490493EA
:104240002B930DF0D7FC02239B462BAE6D00631918
:104250005B78655D73720BE643AC3FABC92220000F
:10426000B74907933D930DF0C5FC022308933DAB7E
:104270009A4652466D0063195B78655D5372BAE6E3
:10428000002D00DA3EE35F00BD4200D2ACE1201D0C
:1042900000D5D5E02F000DF0B3FC0322AA498046DB
:1042A0000DF0A8FC139B9946002C00D07BE1049BE9
:1042B000994504D0B168484601310DF0B1FC434640
:1042C000B760139331E4002D00DA1BE353009846E6
:1042D0009D4200D2B0E0601D00D5B1E0A8460DF0CF
:1042E0008FFC199B07009946002C00D01EE1042585
:1042F0000422964938190DF07DFC1BAB994505D079
:1043000053469968484601310DF08AFC53464246AF
:1043100019979A6036E4032302279B4615AB049352
:104320001393002313AE1493FFF798FB0423032782
:104330009B46F3E7834BDB1B9D4200D912E2002D25
:1043400000D1B4E6E019012D00D148E12A00089916
:104350000DF050FC379CAAE67D4B322200930721DA
:104360000123069818F030F81AE703230227059373
:1043700025AB994627AB4A46079325930023536004
:104380003AE4042303270593F2E7002D00DAB9E2AB
:104390005F00BD4200D23FE1201D51D42F000DF03F
:1043A0002FFC03226B4980460DF024FC2B9B994681
:1043B000002C00D007E1049B994504D0B168484621
:1043C00001310DF02DFC4346B7602B9383E5002DA2
:1043D00000DA97E2530098469D4200D221E1601D29
:1043E0002ED4A8460DF00CFC319B07009946002CFA
:1043F00000D0DFE004250422574938190DF0FAFBFC
:1044000033AB994505D05B469968484601310DF0BC
:1044100007FC5B46424631979A6087E503230227F3
:104420009B462DAB04932B9300232BAE2C93EFE4F0
:10443000042303279B46F4E7581C002B00DB4EE7C0
:1044400025F0FAFB0323022708933DAB9A463FABC6
:10445000524607933D93002353609FE504230327AF
:104460000893F2E70F2D01D8FFF744FB1F200DF052
:10447000C7FB0322344980460DF0BCFB139B1E276B
:104480009946434622004946D81C0DF0B3FB0EE77F
:104490001900621C1BA81D000DF0ACFB53465C60AC
:1044A000284B1395776037721B1B251D1BA8032B08
:1044B00000D857E10F2D01D8FFF75EFB1F200DF04C
:1044C0009FFB199B070099461E23984631E0621C0A
:1044D0001BA921A80DF08EFBFFF769FB194B5B1B95
:1044E000984500D90BE2059BA34200D881E0002D3E
:1044F00000D05DE1002F00D067E14B465F600023F4
:10450000059AD3554A460DAB05930FAB54680993F2
:104510000D93079A259B934200D194E10D934B464E
:10452000059A9B68936013005C602DE4012C00D118
:104530007DE12200494638000DF05CFBD8E6C0461C
:10454000EC9F0610FFFFFF7F24A1061028A1061094
:1045500060A1061030A1061034A1061007990F23A0
:104560008A4201D0FFF794FB002F00DACAE11D2F29
:1045700001D9FFF7A9FB1E230993099B581CFFF7DC
:10458000A7FB012B00D167E1424608990DF032FBF1
:10459000059B002B01D1FFF7C3FB002D01D1FFF7D5
:1045A000BFFBFFF7B3FB012C00D06AE742461B7844
:1045B000D3707CE6012C00D141E12200494638004D
:1045C0000DF018FB17E7012C44D142461B78D3703D
:1045D000F1E6059B1B7803701F9CFFF7AEFB089B61
:1045E0001B780370379C62E5002F00DA28E7781CFF
:1045F00051E65B199C4200D979E7434600220093BB
:10460000484623000599019533F016F9259B05933B
:1046100073E7002BB1DA13E7781C002F00DA0FE7FD
:10462000BDE6581C002B00DA0AE7DBE6002B00DAB7
:1046300006E70A9B581C18E50F2D00D830E41F2010
:104640000DF0DEFA0322C34980460DF0D3FA2B9B0E
:104650001E279946434622004946D81C0DF0CAFA47
:10466000A9E61900621C33A81D000DF0C3FA5B46D1
:104670005C60B94B2B95776037721B1B251D33A8E7
:10468000032B6FD90F2D00D84AE41F200DF0B8FA84
:10469000319B070099461E2398468EE7621C33A97A
:1046A00039A80DF0A7FA55E4AB4B5B1B9F4200D92C
:1046B00025E1089BA34203D85B199C4200D824E162
:1046C000002D00D099E04346002B00D0A0E05346D7
:1046D000424641465A600023089A45AD535452461B
:1046E0003D9B5768079A43AC4395934200D1BAE08B
:1046F000439353469B686760A360FBE443463D9A3F
:1047000008920F2B00D815E607990F238A4200D094
:104710008EE44346002B00DAF4E01D2B00D99FE421
:104720001E230A9385E70998621C21A90DF062FAFD
:10473000059BFFF719FB3B78FB70FFF7EFF92800AB
:104740007A1C39A90DF056FAC4E43B78FB70FFF7E8
:10475000BBFB0F2F1FD941467F4A521A954201D801
:10476000FFF7A8FA7D4825F0AFFA089B002B00D18F
:1047700090E4E019012D00D1A1E02A0008990DF084
:1047800039FA87E442460F2A2AD9734AD21B954246
:1047900000D85BE4E6E7704B5B1B984500D9AEE0C0
:1047A0008C4203D34B199C4200D826E7002D0CD035
:1047B0004346002B00D1A0E605984044012D00D1CE
:1047C00088E02A00059956F077FE4346012B67D012
:1047D0004246210005980DF00DFA259B05938CE6C5
:1047E0005D4B5B1B9F4200D989E0A14203D84B1966
:1047F0009C4200D889E0002D0AD0002F00D166E746
:10480000089BD819012D69D019002A0056F054FED2
:10481000012F59D03A00210008980DF0EBF93D9B8B
:10482000089354E79F4200D8F6E4FFF743FA1B7859
:10483000052503705CE5984500D880E506E41B7803
:1048400005250370D7E511000998621C0DF0D2F917
:10485000059B5C60FFF798FA089B1B78037097E64E
:104860001B78037010E4110028007A1C0DF0C2F9C7
:1048700067603FE427AB079325930123059325AB9E
:104880009946FFF7E4F9059B1B780370FFF748FA98
:104890002DAB04932B9301232BAE9B46FFF7E6FA37
:1048A0002378059A1370259B059326E63FAB079363
:1048B0003D93012308933DAB9A46FFF79AFB089B73
:1048C0001B780370FFF7E6FB2378089A13703D9B73
:1048D0000893FCE6059B1B78037076E71B78037052
:1048E00096E743AC15ABC92220001D4904931393EE
:1048F0000DF080F9022313AE9B46FFF7DDF819484F
:1049000025F0E2F9184825F0DFF92300002250468F
:1049100008990195009732F08FFF3D9B0893D6E6EA
:10492000032300220093390043463000019432F003
:1049300083FF139B9846FFF7F8F8032300220093A8
:10494000390043463000019432F076FF2B9B9846A5
:10495000FFF7C1FA30A10610FFFFFF7F849E06100B
:10496000EC9F061008A106106C9E0610F0B5454697
:10497000DE4657464E46E0B5C56E040097B0002DA2
:104980000FD00BF07BFD002912D0FA2200239200F9
:104990000CF024FCE36FC01A934B984211D9022308
:1049A000237217B0F0BCBB46B246A946A046F0BD84
:1049B000FA2189000CF0D4FBE36FC01A8A4B9842AD
:1049C000EDD88A4B40340822200089490093022305
:1049D00017F0FAFC1A231A220093002165332000F5
:1049E00017F088FC834B06AF9C4665442B6B04AEE6
:1049F00098460497002B00D1EBE0180059F0D2FF45
:104A000005000F2800D992E0012800D18BE0002892
:104A100000D0D6E000233A0075605355049B059DF5
:104A20009B46002D00D195E02A000A21180059F07C
:104A30007BFF002800D18DE05B46C31A9946013305
:104A400000D187E00CAB9A460A934D4500D94D46FC
:104A50000F2D00D98CE0012D00D199E00AAB9846CA
:104A6000002D00D0AFE0524643465D600023535511
:104A70004A4675680132AA4200D9ADE010AB9946AA
:104A800012AB9B461093049BAD1A9B1803930F2DFA
:104A900000D983E0012D00D18FE0002D00D094E0FB
:104AA0005A464B465D6000235355434680255B685C
:104AB00020225900C91849000A9B691A2000490898
:104AC0000093012317F080FC4B465A6820005300E6
:104AD0009B185B00E91A109B2A22009349080123C6
:104AE00017F072FC1098584504D04B469968013174
:104AF0000DF096F80A98504504D043469968013164
:104B00000DF08EF83C4B2000009336220123252126
:104B100017F05AFC0498B84200D142E7B16801315D
:104B20000DF07EF83DE743461B78337272E70130A3
:104B30000DF066F8B56004902A0041460DF05AF871
:104B40000023049A75605355049B059D9B46002DD8
:104B500000D069E780216B005B195B00C91A5B46D6
:104B60002422009320000123490817F02DFCC9E7F7
:104B7000002D36DB681C2AD40DF042F80AAB9846AB
:104B80000A900C952A0059460DF034F80A9A6BE702
:104B90005B461B780AAA9046137264E7002D20DB5F
:104BA000681C14D40DF02CF84B4610909D602A0020
:104BB00003990DF01FF8109A73E74A461B78137299
:104BC0006EE73800B8E75046DCE75846EFE725F0D7
:104BD00033F80A4825F060F82B000949094825F008
:104BE000A3F8094825F070F88713000074A1061097
:104BF000FEFFFF7F6C04000004A2061080A10610D7
:104C0000B4A10610CCA106106C9E0610F0B5DE46CD
:104C100057464E464546E0B50C0087B0002B51D0B4
:104C20001D0040239C46002684446346B04600276E
:104C3000160005930490BB199A462B1999467F2BB1
:104C400009D853463F2B06D8049B52464033494669
:104C5000180017F03BFBAB199B46621B3B19E11B8D
:104C60000293019200917F2B33D85B46002B6CDBC3
:104C70003F2B00DCA2E07F294AD97F2A00D8CAE076
:104C8000731B3F2B06D8059B180003930299721BD8
:104C900017F01CFB4B467F2B09D8F31B3F2B06D884
:104CA000059B039349460398F21B17F00FFB4346FD
:104CB000002B1FDD4246013D6B000133D31A98469D
:104CC000AF42B8DD07B0F0BCBB46B246A946A0462D
:104CD000F0BD7F2916D97F2ADCD85346002B00DA95
:104CE00088E03F2B00DCD8E0F31B00D49BE0434678
:104CF000002BDFDC01377B00013398444346002B57
:104D0000D8DCDDE75B46002B00DACFE03F2B2CDD63
:104D10007F2A35D85346002B00DAA7E03F2B00DC72
:104D2000BBE0F31B00D4EEE0731BC0D43F2BBEDC12
:104D3000049B009940331800721B039317F0C6FAC6
:104D4000029B7F2BA6D80398A0E77F2A20DD7F292E
:104D500096D8731B3F2B9DDC049B721B40331800BD
:104D6000039317F0B3FA039890E7049B403303933F
:104D70005A460099039817F0A9FA019B7F2B64D932
:104D8000731B00D586E7731B3F2B00DD82E7CFE75F
:104D90005346002B64DB3F2B00DC7EE0F31B73D417
:104DA000F31B3F2B41DD009B7F2B71D8731B00D57C
:104DB0007DE7731B3F2B00DD79E7B9E7049B5A467B
:104DC000403318000299039317F080FA009B7F2B61
:104DD000CED9019B7F2B00D952E75346002B00DA36
:104DE0009AE03F2B5CDDF31B00D549E73F2B4FDCFE
:104DF00003981EE0F31B3F2B00DD58E7049B01994D
:104E000040331800F21B039317F060FA4B467F2BD8
:104E100000D94CE746E75346002B5EDB3F2B3CDDD9
:104E2000F31B00D52CE73F2B32DC049B40331800EA
:104E300003930199F21B17F049FA009B7F2B9FD92E
:104E4000029B7F2B00D81BE7E0E75346002B50DB8B
:104E50003F2B25DDF31B00D566E73F2BA6DCC7E71C
:104E6000F31B3F2BE1DD7F298DD909E7F31B3F2B96
:104E70009CDC049B019940331800F21B039317F04C
:104E800025FA731BC2D47EE7009B7F2B00D84BE72B
:104E9000029B7F2B00D8F3E609E7049B4033039382
:104EA00052460199039817F011FA77E77F2A08DC38
:104EB0005346002B2BDB3F2BEFDDF31B00D533E7F5
:104EC0006EE7731B3F2B00DDE4E6049B0099403343
:104ED0001800721B17F0FAF9DCE6F31B3F2B00DD1C
:104EE000CEE6049B019940331800F21B17F0EEF94F
:104EF000C6E6F31B3F2B00DD58E701990398F21B30
:104F000017F0E4F93CE73F2B00DD4FE78DE7F31B9B
:104F10003F2B00DD4DE788E7F31B3F2B00DDAFE6BD
:104F200001990398F21B17F0D1F9A9E6F0B5DE4616
:104F300057464E4645463423E0B5C35C04008DB069
:104F40000D2B01D900F033FCD34A9B00D3589F4668
:104F500008AB99460693D14B0926089300230420F9
:104F600006AF3B730522CE4948440CF043FE069D34
:104F700000237E60AB552500069B403500220021B2
:104F800028000093012317F01FFA0A230A220021A8
:104F900028000093763317F0ADF90BF06FFA002973
:104FA00000D1A2E2FA22002392000CF017F9824607
:104FB0000023207C9846002804D06833E25C673BDD
:104FC0005A4090460022A37A02920393002B04D009
:104FD0006932A65C683A56400296A17D227F00297C
:104FE00000D049E2002A00D13AE36B22A25C43469A
:104FF000002A00D164E3002B01D000F0E9FB029B02
:10500000002B01D000F0EBFB039B09041B020343C0
:1050100012060B431343A366A24B0497984608233A
:1050200043449B46534602934B464746039405939D
:105030003E787C78731E9946631E9A461A0049464C
:10504000280017F043F952463100280017F03EF9C6
:10505000731C984619005246280017F037F92200B1
:105060004946280017F032F922003100280017F0D5
:105070002DF9220041460134280017F027F92200BB
:105080004946280017F022F922003100280017F0C5
:105090001DF9023722004146280017F017F95F4535
:1050A000C6D1029B039C9A46059B049F9946812387
:1050B000E25C002A06D08021625C0D2A00D9E7E27A
:1050C000013262548323E25C002A06D08221625CB2
:1050D0000D2A00D9DFE2013262548523E25C002A06
:1050E00006D08421625C0D2A00D9D7E201326254D5
:1050F0008723E25C002A06D08621625C0D2A00D953
:10510000CFE2013262548923E25C002A06D0882172
:10511000625C0D2A00D9C7E2013262548B23E25C43
:10512000002A06D08A21625C0D2A00D9BFE2013232
:1051300062548D23E25C002A06D08C21625C0D2A29
:1051400000D84FE20022E2548F23E25C002A06D00E
:105150008E21625C0D2A00D847E20022E2548123AE
:10516000E35C002B00D029E28323E35C002B00D01A
:105170001CE28523E35C002B00D00FE28723E35C75
:10518000002B00D002E28923E35C002B00D0F5E184
:105190008B23E35C002B00D0E8E18D23E35C002B44
:1051A00000D0DBE18F23E35C002B00D0CEE1312384
:1051B000E25C013BE35C002A00D19CE13A4E31788D
:1051C000002900D102E2394909688846002B00D144
:1051D00003E2374884460078002802D1514635481A
:1051E000016001204146307060460370002905D0FF
:1051F0005046411A96204000814267D82D480168E8
:10520000002905D05046411A9620400081425DD8C1
:105210002621615C002900D0F5E12731615C00297D
:105220004CD12831615C002900D098E22931615CC1
:10523000002900D0C5E22A31615C002900D0F8E2E3
:105240002C31615C002900D009E32B31615C00291D
:1052500000D011E32D31615C002900D038E32E31FC
:10526000615C002900D05BE32F31615C002900D034
:1052700059E3002B00D059E3002A00D05CE332331D
:10528000E35C002B00D054E33333E35C002B1DD0F0
:10529000094B313114E0C04674CC06104D494449E5
:1052A00004A30610D0CC06108F620020504A0020C4
:1052B0008E6200204C4A002068A206103421D34B95
:1052C000009310220123280017F07EF8362336229F
:1052D0000021280000934A3317F00CF8CC4B28002B
:1052E000009338220123002117F06EF806984845F4
:1052F00003D0B96801310CF093FC0DB0F0BCBB4693
:10530000B246A946A046F0BD08AB99460693C14BEC
:1053100006AF1A680A2608924A461B7905201371BF
:1053200000237B731EE608AB99460693BA4B4A46A8
:1053300003CB03C2198806AF11809B7810269370A7
:105340000B237B600023FB740B3398461F200CF06B
:1053500057FC069B424619009A4605000CF04AFC91
:1053600043460522AD49E8180CF044FCCA4504D078
:10537000B968504601310CF053FC1E230695BB6002
:10538000F6E508AB99460693A54BD0E708AB9946DE
:105390000693A44BCBE708AB99464A460693A24B2B
:1053A00006AF03CB03C200230D2608203B74D9E5CA
:1053B00008AB9946494606939C4B06AF1A680C26E3
:1053C00008929A8807208A809B798B710023FB734F
:1053D000C8E508AB994649460693954B06AF1A882F
:1053E00008260A809B7803208B700023FB72B9E5A6
:1053F00008AB99464A4606938E4B03CB03C21B78F3
:105400001370002306AF0E2609207B74AAE508ABB3
:1054100099464A460693884B03CB03C21B78137008
:10542000EFE708AB99464A460693844B06AF23CB79
:1054300023C21B88132613800E237B600023BB75B9
:105440000E33984682E708AB99464A4606937C4B52
:1054500006AF03CB03C21B880F26138000230A204C
:10546000BB747FE508AB99460693764B5FE708ABC4
:1054700099460693744B5AE76A26A65DB446012600
:10548000B34666465B465E4004964346002A43D0D8
:105490006B22A25C002A3FD1002B00D09DE1029B31
:1054A000002B00D0ADE1002E0CD08922A25C002A96
:1054B00000D110E28B22A25C002A03D180268A321E
:1054C0007600A65201228D26A65D002E00D1C1E1F4
:1054D0008F26A65D002E00D096E50126802376005B
:1054E000A6198C365B0033808EE5FA2189000BF01B
:1054F00037FE82465CE555490A60002B78D0544956
:105500000878002800D0D5E0564652480660524E32
:10551000327001260E7072E6002B00D0F7E0029B7D
:10552000002B00D01EE1049B002B00D16CE58926E6
:10553000A65D002E00D195E18B26A65D002E00D041
:1055400062E580238A365B00A3535DE58E23262225
:105550006D212000E35CFFF759FB28E68C2326220F
:105560006D212000E35CFFF751FB1BE68A23262216
:105570004E212000E35CFFF749FB0EE6882326223C
:105580004E212000E35CFFF741FB01E68623262243
:105590002F212000E35CFFF739FBF4E5842326226A
:1055A0002F212000E35CFFF731FBE7E58223262271
:1055B00010212000E35CFFF729FBDAE58023262297
:1055C00010212000E35CFFF721FBCDE550461F4989
:1055D000D0460860002B00D0FBE51E4803601C4845
:1055E0008446FEE501326254AEE501326254B6E50E
:1055F00018490B6018490B7015490B702621615C26
:10560000002900D109E63A21144B59E610A20610F0
:105610000CA30610FCA20610A8A2061004A30610F4
:10562000B4A20610C0A20610CCA20610D8A2061082
:10563000E0A20610E4A20610F0A2061074A2061062
:1056400084A2061090A206109CA20610504A0020C8
:105650008E6200204C4A00208F62002070A206104B
:105660004346002B00D09EE0029B002B01D100227C
:10567000CAE48522A25C002A00D123E18722A25C31
:10568000002AF4D1802686327600A6520022BBE49E
:105690000022E25416E50022E2541EE50022E25404
:1056A00026E50022E2542EE50022E25436E50022EF
:1056B000E2543EE5A648027001200870A5489EE528
:1056C000002B00D080E0029B002B00D1FAE685225F
:1056D000A25C002A00D117E18722A35C0493002B6F
:1056E00000D0EFE680268622049B7600A652002B8F
:1056F00000D1E7E6049A90468926A65D002E00D1E7
:10570000B6E08B26A65D002E13D1013644E00023BF
:1057100098468123E35C002B00D18DE08323E35C7A
:10572000002B00D198E0029B002B07D1049B002B9B
:10573000E2D14346002B00D166E4C4E68526A65D8F
:10574000002E00D196E08726A65D002EEED1013610
:1057500080237600A61984365B003380E6E7342187
:105760007D4BADE58526A65D002E00D191E0872614
:10577000A35D9846002B00D181E0049B002B00D153
:1057800042E48926A65D002E6CD08B26A35D8A3E5E
:105790009846002B00D037E480237600A61988367F
:1057A0005B003380C5E7002398460493B1E708AB5C
:1057B000994606933F2306AF062601203B81FFF75B
:1057C000D1FB3121654B7BE5002342460493A0E7E2
:1057D00000234246049398469BE7424699E7852278
:1057E000A35C002B00D194E00232A25C002A01D01D
:1057F000FFF70AFC802686327600A6521A00FFF7D1
:1058000003FC8522A25C002A6AD08722A25C002ABF
:1058100000D167E7002E00D154E68922A25C002A5D
:1058200059D08B26A65D002E00D04BE6904601365F
:10583000B2E731214A4B43E500239B465B465B00C0
:105840009B4680239C46A3448026E3445B46760027
:105850001E8068E7002641E601339B46EEE73121D2
:10586000404B2DE5802388265B00A353FFF7CCFB3C
:10587000002691E700266BE734213B4B20E50133FE
:10588000FF33013EA353049B002B01D1FFF7BCFB68
:1058900032E7802384265B009846A353049B002BA9
:1058A00001D1FFF7B1FB0536A65D002E47D08B2650
:1058B000A65D002E01D0FFF7A7FB43468A36A3530F
:1058C000FFF7A2FB802384265B00A353FFF79CFB1A
:1058D0003421264BF4E4802688227600A652F1E596
:1058E0003300802684227600A652002B00D1E9E501
:1058F0000532A25C002A27D08B22A25C002A00D0AD
:10590000E0E58A32A652DDE5802684227600A652A2
:10591000D8E5802384225B00A352029AFFF774FB30
:105920003D21134BCCE43D21124BC9E43121124BF4
:10593000C6E43421114BC3E42E21114BC0E4882668
:105940004346A353FFF760FB8822A652BAE5C04640
:105950008F6200204C4A002018A2061020A20610D8
:1059600028A2061030A2061038A2061040A2061087
:1059700048A206104CA2061050A2061060A2061003
:1059800058A20610F0B5DE4657464E464546E0B5ED
:10599000CB4BE3B09C680290002C15D03622043328
:1059A0001900825C03E02100A468002C05D0237C50
:1059B0009342F8D2E468002CF9D1C24B8A4699424E
:1059C00002D00B7C934206D963B0F0BCBB46B24612
:1059D000A946A046F0BD0B7D062B5FD1029B40334C
:1059E00003930A257F230A2200210398009516F0CD
:1059F00081FC53461B7D062B00D169E1022B00D1AF
:105A000090E117AA100016000792002219A905912B
:105A1000179142600272042B00D12BE300D987E07A
:105A2000012B00D826E33623029AD35C128F991FEC
:105A3000012900D83BE10D2B00D138E1002A01D02B
:105A400001F000FAA04B059A03CB03C20823736050
:105A50000023059C08220A212000337458F064FFBB
:105A6000002801D101F0A6FA041B631C01D101F04A
:105A700059FB2BABA04604932993082C01D908238A
:105A80009846059F4346012B01D101F084F829ADCA
:105A9000002B01D000F075FE049AB1E05346029845
:105AA0009B6940300093002201230021039016F0EF
:105AB0008BFC53461B7D032B13D00FD9052B90D1A4
:105AC0000AF0DCFC00292ED0FA22002392000BF011
:105AD00085FB0823029A5066137275E7022B00D1EA
