:020000041000EA
:1000000000B5324B212058609868022188439860DF
:10001000D860186158612E4B002199600221596106
:100020000121F02299502B49196001219960352056
:1000300000F044F80222904214D00621196600F024
:1000400034F8196E01211966002018661A6600F04E
:100050002CF8196E196E196E052000F02FF8012189
:100060000842F9D1002199601B49196000215960AB
:100070001A491B48016001219960EB211966A021F2
:10008000196600F012F800219960164914480160C1
:100090000121996001BC002800D000471248134993
:1000A000086003C880F30888084703B5996A0420EC
:1000B0000142FBD001200142F8D103BD02B5186610
:1000C0001866FFF7F2FF186E186E02BD00000240BE
:1000D000000000180000070000035F00212200005C
:1000E000F4000018222000A00001001008ED00E03C
:1000F00000000000000000000000000074B24E7A12
:1001000000200420F7010010CB010010CD010010E9
:10011000C9010010C9010010C9010010C901001077
:10012000C9010010C9010010C9010010CF01001061
:10013000C9010010C9010010D1010010D301001045
:10014000C1010010C1010010C1010010C101001067
:10015000C1010010C1010010C1010010C101001057
:10016000C1010010C1010010C1010010C101001047
:10017000C1010010C1010010C1010010C101001037
:10018000C1010010C1010010C1010010C101001027
:10019000C1010010C1010010C1010010C101001017
:1001A000C1010010C1010010C1010010C101001007
:1001B000C1010010C1010010C1010010C1010010F7
:1001C000EFF30580103800BE00BE00BE00BE00BECA
:1001D00000BE00BEF2EB88716C030810900308109B
:1001E0003802001090A31AE71E481F49086006C88D
:1001F00081F3088810471D480068002801D019487D
:10020000F3E70DA40ECC002902D000F012F8F9E7B4
:100210001749184A002000E001C19142FCD116495B
:100220008847164988471649884700BEFDE701C937
:1002300001C29A42FBD3704790030810C00000200F
:1002400020360020F03808100000042000000420B0
:10025000F0380810001004200010042000000000F6
:10026000704700000000000008ED00E0000000D032
:10027000203600208C6200203D480110ED05001062
:10028000FD470110F8B5C04606480749091A8B100A
:10029000C90FC91810B5491003D0044B002B00D06A
:1002A000984710BD203600202036002000000000B6
:1002B000054B10B5002B03D00449054800E000BFF2
:1002C000FFF7E2FF10BDC04600000000705F002095
:1002D00070AF06107047C0467047C04600B58DB07D
:1002E000029011201C220021684412F039FD0123E4
:1002F0006A460D20137302A90422684412F036FDE9
:1003000003A9024811F0D6F90DB000BD043D00204C
:1003100010B5034B0100180011F0CCF910BDC04618
:10032000643F0020F0B5DE4657464E464546E0B5F0
:100330008D4CA54415F040F90321062011F0A0FAD8
:100340000321072011F09CFA00220121062011F060
:10035000B1FA00220121072011F0ACFA8349844848
:1003600014F03AFF834923A801F0EEFA824932A83B
:1003700008F0CCFF8149C4A801F01AFE0CA80DF0CA
:1003800097FA80220021520043A812F0E9FC2A22A9
:10039000002118A812F0E4FC0FAE0822002108A8E2
:1003A00012F0DEFC21220021300012F0D9FC0023E3
:1003B000734807A9079311F027FA0799C4A801F019
:1003C0006DFE082200210AA812F0CAFC6D4B6E4D8A
:1003D0009B466E4B6E4F9A466E4B01936E4B059348
:1003E00083AB99466D4B02936D4B04936D4B039316
:1003F0006D4B984618A923A801F02AF8002128007F
:1004000011F090F928001FA911F0C6F918A9584653
:1004100011F088F950460AA911F084F900287BD11F
:100420003100019811F07EF9002809D03378052BAE
:1004300006D8059A9B00D3589F46C4A801F03AFEFF
:10044000029808A911F06EF9002839D1079B002BFA
:100450003DD05C6D631E022B39D8012C61D0022C7B
:100460006AD03B78002B72D0039843A911F05AF957
:1004700000280CD0484643AA0CA90DF055FA0021DB
:10048000404611F04FF94946404611F013F918A9BA
:1004900032A808F069FF18A9C4A801F0EBFD32A842
:1004A00008F078FFC4A806F041FEA3E77178C4A85D
:1004B00001F0E6FD029808A911F034F90028C5D032
:1004C00008A9C4A801F0E4FD079B002BC1D13B782B
:1004D000002BC9D00023049A3B701370C4E7C4A852
:1004E00001F0E4FDACE7717832A808F039FFA7E726
:1004F0007378002B33D0012BA2D14A46738849462A
:100500001380337932A8937008F034FF98E771783C
:1005100032A808F027FF93E70AA9C4A801F0C0FD9C
:100520007EE7049B1B78002B9BD1C4A801F0C6FD7D
:10053000049B3C701C7097E7049B1B78002B90D0A9
:10054000C4A801F0BFFD0023049A13708CE7C4A86F
:1005500001F0B4FD0123049A3B70137084E7B17875
:10056000C4A801F091FD6BE73CF9FFFF40420F008A
:1005700068250020C0AF0610ACAF0610A4AF06106F
:10058000743F0020643D0020843F0020DC3D0020BB
:100590007F620020043D002070AF0610EC3D00207B
:1005A00080620020643F0020943F002010B50400CA
:1005B000064B08000C34994205D037F0DDF9431E94
:1005C000984140420440200010BDC04608B00610CB
:1005D000882110B50400490012F0DEFB200010BD98
:1005E000882110B5490012F0D7FB10BDF0B5DE46EA
:1005F00057464E464546E0B5E84C0127A54410F065
:1006000045FBE74A0300212110000592012211F069
:100610003FF810F03BFBE34A0300082110000F9263
:10062000012211F035F810F031FBDF4A03001C21E4
:1006300010000792012211F02BF810F027FBDB4A83
:1006400003000E2110000892012211F021F810F091
:100650001DFB8021D64C030001222000490011F02F
:1006600017F810F013FB8021D24A03004900100054
:100670000992012211F00CF810F008FBCE4A030099
:10068000934604210122584611F002F810F0FEFAB8
:10069000CA4A030008211000109254AE012210F043
:1006A000F7FF14F05FFAC649300008F0D5FC0023CC
:1006B0009846E6244246640014AB1B191A800823AE
:1006C0009946CF32FF3214AB9B184A461A70D0229B
:1006D0004D3CFF3214ABFF3C9B181C70013214AB35
:1006E0009B18D2221C70FF3214AB9B181C70013275
:1006F00014AB9B18A33A0021FF3A89A81C8012F082
:100700002FFBEA2214AB52009B181F70063214AB69
:100710009B18DC221C70FF3214AB9B181C7001323A
:1007200014AB9B18DE221C70FF3214AB9B181C709C
:1007300025234D34FF34DC3A14A90919FF3ACA5471
:1007400014A909190133ED32CA5414A90919013346
:10075000DD3ACA54FC219B4B490014AA521813805D
:100760002E23772214A90919CA5414A9091902338E
:10077000373ACA54FE2114AAFF31313B5218137084
:10078000013114AA52189049177014AA5218137004
:10079000013114AA52188D49177014AA52181370F7
:1007A0008B4A14AB9B181F7014AB9C468948C93AFE
:1007B0000021FF3A604412F0D3FA8221864B89006F
:1007C000959314AA854B5218138049463E2314AAC8
:1007D0001219D1541B2214A909191933CA5401330F
:1007E000CF5414AB9C467E4820220021604412F076
:1007F000B7FA14AB9C467B4814220021604412F0E7
:10080000AFFA9A23784A14A90919CA5214AB9C4624
:10081000764808226044002112F0A2FAB82314A9F5
:100820000919B7AACA500A00414600250433D1501D
:1008300014AA12190433D55414AA1033121933AC64
:10084000D55420002A2212F08BFA8820400012F0A2
:1008500093FA674B476003600C239C4684446346CD
:1008600087601F00050018000B930DF0B3F83800E7
:100870000DF0F0F96B68824601336B60BCA93EA8AD
:10088000BD95BC970BF002F8BD9D002D05D06B689F
:10089000013B6B60002B00D1FFE28022002152005F
:1008A000BCA812F05DFA53480378002B00D003E394
:1008B00017A95846179610F06FFF4F4814F050FED6
:1008C00050462AAD09F002FE4C4809F0B3FE212241
:1008D0000021280012F044FA53466B70059B290052
:1008E0001800984610F058FF14A884465923634412
:1008F00020220021180012F033FA02230B9F2B70E4
:1009000038000DF0E3F929006870404610F044FF0C
:1009100014A884465923634420220021180012F0B1
:100920001FFA032338002B700DF0D2F929006870EC
:10093000404610F031FF38000DF0DAF901003000C8
:1009400007F090FD390028000DF0AEF929003000C5
:1009500007F08AFD5346033BDBB2012B00D8B9E216
:100960000023994604930A933AAB029321AB0E936A
:10097000234B14AA0693234B944611931AAB9B4620
:10098000214B18AF0D93214BD8460C93204BD346E7
:10099000129335236344BA46159392E00CFCFFFF93
:1009A000043D0020EC3D0020643D0020843F0020F9
:1009B000643F0020943F0020743F0020DC3D002075
:1009C000DCAF061012F8FFFFFF010000010200007B
:1009D000020200000B020000020180808080FFFF05
:1009E00045020000650200001408000079020000C2
:1009F00090AF0610A021002025030010DD0200109A
:100A00007C6200203C4A0020826200204C4A002088
:100A100083620020002006990870022A00D884E032
:100A20004A46002A03D00422934300D17CE1049B70
:100A3000002B11D010F0DEFD002900D1DBE0FA22FE
:100A40000023920011F086FC01220A9B0492C01A36
:100A5000E14B984200D9DAE04346220083CA83C3BF
:100A600083CA83C312683EA81A600BF017FE814642
:100A70003EA80BF013FE002800D1A5E03EA80BF025
:100A80000DFE00287ED14B46002B69D122005B462B
:100A9000504687A90AF000FC534603CB09F098FDA5
:100AA00009F088FD4146079810F004FE0998BCA99A
:100AB00010F038FE002802D0BCA809F083F9039B8F
:100AC00099465A462100300007F0B6FF029908986F
:100AD00010F028FE3EA80BF0E1FD002844D10021D3
:100AE00000270220736D5A1E90424F41F9B20391C4
:100AF000012B8FD1069B1B78002B00D16EE110F0EB
:100B000079FD002900D1A3E0FA220023920011F020
:100B100021FC2123E35C002B07D0119B1B68C01A2A
:100B200096235B00984200D3ABE12223E35C002BC9
:100B300000D17CE7300008F037F814A88446592328
:100B4000634420220021180012F00AF9052329002D
:100B50002B70059810F020FE00230A9304937BE786
:100B60003EA80BF09BFD91E728000B990DF09CF837
:100B7000109F0021380010F0D5FD2900380010F03A
:100B800099FDACE73EA802990BF09AFA3EA80BF04B
:100B90009FFD002800D030E13EA80BF07FFD00282B
:100BA0005BD028003EA90BF07DFD29000F9810F0C6
:100BB000F3FD1C220021200012F0D2F80E220021A9
:100BC000029812F0CDF85EE72723E35C1F0010F0D7
:100BD00011FD002900D1A2E0FA220023920011F0B9
:100BE000B9FB0D9A002F00D088E017700C9A17609F
:100BF000129A177042E7FA21890011F06DFB012269
:100C00000A9B0492C01A744B984200D824E73EA86D
:100C10000AF01CFF3EA80AF0B3FF14A8844659232B
:100C2000634420220021180012F09AF804232900BE
:100C30002B70059810F0B0FD0E9F3EA938000BF008
:100C400031FD39000F9810F0A7FD0023049303E74E
:100C5000FA21890011F040FB5BE70B9F38000DF093
:100C60004DF820220021159812F07AF805230E9AEB
:100C700005981370110010F08FFD2122002128002B
:100C800012F06EF85B46290005986B7010F084FD39
:100C900014A884465923634420220021180012F02E
:100CA0005FF8022338002B700DF010F829006870EF
:100CB000059810F071FD14A884465923634420223E
:100CC0000021180012F04CF8032338002B700CF0B0
:100CD000FFFF29006870059810F05EFD38000DF0E8
:100CE00007F80100300007F0BDFB390028000CF0C8
:100CF000DBFF2900300007F0B7FB5AE71378013318
:100D0000DBB213700C9A1268022B00D88BE0002A19
:100D100000D08BE00C9B1860129B1A70AEE6FA2193
:100D2000890011F0D9FA5CE7300007F0E3FF0B9F70
:100D3000310038000CF090FF38000CF0DFFF21226A
:100D40000021280012F00CF85B466B70059B29000F
:100D50001800994610F020FD14A8844659236344D6
:100D600020220021180011F0FBFF022338002B7015
:100D70000CF0ACFF29006870484610F00DFD14A877
:100D800084465923634420220021180011F0E8FF13
:100D9000032338002B700CF09BFF29006870484635
:100DA00010F0FAFC38000CF0A3FF0100300007F04F
:100DB00059FB390028000CF077FF2900300007F0BC
:100DC00053FB10F017FC002954D1FA21890011F0CF
:100DD00083FA0A902EE6C046B70B000010F00AFC1A
:100DE000002955D0FA220023920011F0B3FA119B8A
:100DF000069A18600123137081E6300007F03AFB71
:100E000014A884465923634420220021180011F0BD
:100E1000A7FF0523059829002B7010F0BDFC642066
:100E200010F0D2FAB8E6002A00D127E612990B7822
:100E3000002B00D022E6821AFA208000824200D2E3
:100E40001CE601220A700D9A3EA813700C9A1360DA
:100E50000AF0FCFD14A88446592363442022002193
:100E6000180011F07DFF0423290005982B7010F065
:100E700093FC03E6FA220023920011F06BFA0A9029
:100E8000D8E5300007F09EFB0023069A13704CE66D
:100E9000FA21890011F020FAA9E72B6828009B6845
:100EA0009847AB68013BAB60434500D0F5E42B6845
:100EB0002800DB689847F0E48C21E14D4900415857
:100EC00000958A256D00DF4BDF4A4059013108F05B
:100ED00017FDEDE4002399460A93139314933AAB5C
:100EE000029321AB0E93D94B14AA0693D84B944688
:100EF00011931AAB9B46D74B18AF0D93D64B0C935F
:100F0000D64B12933523634415935B46D346039324
:100F1000BA465EE0002006990870022A00D88CE0EC
:100F20004A46002A03D00422934300D19AE10A9B47
:100F3000002B11D010F05EFB002900D1EEE0FA2268
:100F40000023920011F006FA0122139B0A92C01AA4
:100F5000C34B984200D9EDE02200039B83CA83C3B0
:100F600083CA83C312683EA81A600BF097FB00285F
:100F700000D1F4E1002314933EA80BF08FFB8046D0
:100F80003EA80BF08BFB002800D1A5E03EA80BF09B
:100F900085FB002870D14346002B69D122005B46B7
:100FA000504687A90AF078F9534603CB09F010FBA5
:100FB00009F000FB0399079810F07CFB0998BCA985
:100FC00010F0B0FB002802D0BCA808F0FBFE049B88
:100FD00099465A462100300007F02EFD02990898E4
:100FE00010F0A0FB3EA80BF059FB002866D10021B1
:100FF00000270220736D5A1E90424F41F9B20491AE
:10100000012B87D1069B1B78002B00D182E110F0C9
:10101000F1FA002900D1AEE0FA220023920011F08B
:1010200099F92123E35C002B07D0119B1B68C01AA0
:1010300096235B00984200D3D6E12223E35C002B89
:1010400000D174E7300007F0AFFD14A8844659239F
:10105000634420220021180011F082FE052329009C
:101060002B70059810F098FB002313930A9373E7F5
:101070003EA80BF013FB91E73EA802990BF020F875
:101080003EA80BF025FB002800D052E13EA80BF053
:1010900005FB002874D028003EA90BF003FB2900B3
:1010A0000F9810F079FB1C220021200011F058FE4F
:1010B0000E220021029811F053FE6CE728000B99D4
:1010C0000CF0F2FD109F0021380010F02BFB2900DE
:1010D000380010F0EFFA8AE72723E35C994610F016
:1010E00089FA002900D1A6E0FA220023920011F02B
:1010F00031F94B46002B00D195E00D9A0C991378ED
:101100000133DBB213700A68022B00D83FE1002ADA
:1011100000D03FE1129B08601A7037E7FA2189007E
:1011200011F0DAF80122139B0A92C01A4C4B984234
:1011300000D811E73EA80AF089FC3EA80AF020FD7D
:1011400014A884465923634420220021180011F07A
:1011500007FE042329002B70059810F01DFB0E9F3D
:101160003EA938000BF09EFA39000F9810F014FBDE
:1011700000230A93F0E6FA21890011F0ADF850E758
:101180000B9F38000CF0BAFD20220021159811F0B9
:10119000E7FD05230E9A1370059B11001800994670
:1011A00010F0FAFA21220021280011F0D9FD5B4647
:1011B000290048466B7010F0EFFA14A884465923B2
:1011C000634420220021180011F0CAFD02233800D8
:1011D0002B700CF07BFD29006870484610F0DCFA9B
:1011E00014A884465923634420220021180011F0DA
:1011F000B7FD032338002B700CF06AFD29006870DE
:10120000484610F0C9FA38000CF072FD01003000B9
:1012100007F028F9390028000CF046FD29003000BD
:1012200007F022F93FE74A460D9B1A700C9B1A60A3
:10123000129B1A70AAE6FA21890011F04DF858E7BE
:1012400011030010B1210020A12100207C620020A8
:101250003C4A0020826200204C4A00208362002029
:10126000B70B0000300007F045FD0B9F3100380040
:101270000CF0F2FC38000CF041FD21220021280086
:1012800011F06EFD5B466B70059B290018009846B7
:1012900010F082FA14A884465923634420220021C6
:1012A000180011F05DFD022338002B700CF00EFDCC
:1012B00029006870404610F06FFA14A8844659233C
:1012C000634420220021180011F04AFD0323380056
:1012D0002B700CF0FDFC29006870404610F05CFAA1
:1012E00038000CF005FD0100300007F0BBF83900B4
:1012F00028000CF0D9FC2900300007F0B5F810F0F8
:1013000079F900296AD0FA220023920011F022F81C
:1013100013900FE610F06EF900296CD0FA2200232A
:10132000920011F017F8119B069A186001231370B0
:101330006DE6300007F09EF814A8844659236344F4
:1013400020220021180011F00BFD0523059829002B
:101350002B7010F021FA642010F036F896E610F0A9
:1013600049F900294CD0FA220023920010F0F2FF34
:101370008046149B002B07D04246D31A234A93423F
:1013800000D8F9E508F026FB43461493F4E5002A5B
:1013900000D1FBE512990B78002B00D0F6E5801AFE
:1013A000FA229200904200D2F0E501220A700D9AD2
:1013B0003EA813700C9A13600AF048FB14A88446E8
:1013C0005923634420220021180011F0C9FC042392
:1013D000290005982B7010F0DFF9D7E5FA21890074
:1013E00010F07AFF1390A5E5300007F0EBF800232A
:1013F000069A137021E6FA21890010F06DFF92E73A
:10140000FA21890010F068FF8046B2E79F68060065
:10141000D0231B065868C0437047C0467047C0467B
:101420007047C04610B504301CF06CF910BDC046C2
:1014300010B504000C2111F0AFFC200010BDC04617
:1014400010B50400042111F0A7FC200010BDC04617
:10145000F8B54E464546DE465746E0B50700806B78
:101460003D0003680E009B6898472023FC6A2435E2
:1014700081469846AC4213D128E0FA22002392001C
:1014800010F068FFE3695B44834203D84346524649
:10149000E254E06120001CF0A3FD0400A84215D036
:1014A0004A46A36913405A1E9341DAB29246424615
:1014B000A25C9A42EED0BB7B9B4610F09BF80029C1
:1014C000DBD1FA21890010F007FFDBE7BB6A1A1EA7
:1014D00000D16BE111009268002AFBD18D4200D14E
:1014E00064E10A7C002A00D060E120328A5C280096
:1014F000914632771A0003E010009268002A05D066
:10150000117C0029F8D1D268002AF9D1854200D196
:101510004CE1027C012A00D948E12022815C2C00A8
:101520001A00717703E014009268002A05D0107C3D
:101530000128F8D8D268002AF9D1A54200D135E1B6
:10154000227C022A00D931E12022A25C28009046A8
:10155000B2771A0003E010009268002A05D0147CCC
:10156000022CF8D8D268002AF9D1854200D11DE1B9
:10157000027C032A00D919E12022825C28009446CB
:10158000F2771A0003E010009268002A05D0147C5C
:10159000032CF8D8D268002AF9D1854200D105E1A0
:1015A000027C042A00D901E12022805CB05428008A
:1015B0001A0003E010009268002A05D0147C042C65
:1015C000F8D8D268002AF9D1854200D1EEE0027C39
:1015D000052A00D9EAE02022805C0132B0542800BC
:1015E0001A0003E010009268002A05D0147C052C34
:1015F000F8D8D268002AF9D1854200D1D6E0027C21
:10160000062A00D9D2E02022805C0232B0542800A1
:101610001A0003E010009268002A05D0147C062C02
:10162000F8D8D268002AF9D1854200D1BEE0027C08
:10163000072A00D9BAE02022805C0332B054280087
:101640001A0003E010009268002A05D0147C072CD1
:10165000F8D8D268002AF9D1854200D1A6E0027CF0
:10166000082A00D9A2E02022805C0432B05428006D
:101670001A0003E010009268002A05D0147C082CA0
:10168000F8D8D268002AF9D1854200D18EE0027CD8
:10169000092A00D98AE02022805C0532B054280053
:1016A0001A0003E010009268002A05D0147C092C6F
:1016B000F8D8D268002AF9D1854200D176E0027CC0
:1016C0000A2A00D972E02022805C0632B054280039
:1016D0001A0003E010009268002A05D0147C0A2C3E
:1016E000F8D8D268002AF9D185425FD0027C0B2A53
:1016F0005CD82022805C0732B05428001A0003E036
:1017000010009268002A05D0147C0B2CF8D8D268FF
:10171000002AF9D1854249D0027C0C2A46D82022E1
:10172000805C0832B054280003E018009B68002B4E
:1017300005D01A7C0C2AF8D8DB68002BF9D1854239
:1017400034D0027C0D2A31D82022855C0932B55470
:101750004A46002A17D101233B774346002B07D185
:1017600003237B77F0BCBB46B246A946A046F8BD32
:101770006346002B12D07B7F032B12D0022BF1D1BA
:101780000023B377EEE7002906D03A7F012A0BD079
:10179000002AE2D13377E0E73977DEE702237B776F
:1017A000E0E70023F377DDE77377D6E7014829F018
:1017B0005DFBC04610B00610F0B5D6464F46464613
:1017C000C0B51E000700242015008A4611F0D4FA87
:1017D000012332782D789340027583612022002303
:1017E0000574C36183543B1D040056469946534516
:1017F00047D0337C9D4228D2FB689A46B34268D0DA
:1018000030001CF01DFC037CAB425FD3BB689846E4
:10181000002B05D18DE09B680121002B08D0984654
:1018200043461A7C9542F6D3DB680021002BF6D1A3
:101830004646002900D075E0954217D9B14548D0F9
:10184000337C9D42AD41684244E09D420FD93B69E3
:101850005345F3D030001CF0C3FB037CAB4248D9A6
:10186000F368002BECD00600012033E0464624212B
:10187000200011F091FA3000E0BCBA46B146A8460B
:10188000F0BD7B69002B2FD1BB689846002B05D19A
:101890004DE09B680121002B08D0984643461A7CF6
:1018A0009542F6D3DB680021002BF6D1464600298D
:1018B000C2D0FB6846464345C0D040461CF0C0FB42
:1018C000027C464680469542B8D8CFE7C368002BD5
:1018D0002BD001204B46320021001CF0CDFB7B6950
:1018E000260001337B61C6E73E69337CAB42A5D35A
:1018F000CAE7BB689846002B05D120E001219B6810
:10190000002B07D0984643461A7C9542F6D3002117
:10191000DB68F5E74646002900D18DE7FB689E426B
:10192000CBD18BE7C245C8D188E7060086E7D04611
:10193000BFE7C846D145C0D14E460120CAE7FB6883
:10194000C8469945B9D1F7E7F0B5CE4647460300FA
:101950000C0080B5060083B00F0007CC07C322003F
:10196000A14613CA13C3126835001A609C4B242287
:10197000B3830023B3546A46B362D3717363B36312
:10198000203398462435B0443B00290007324046B6
:10199000F5623563FFF710FF6A460123D371B26A1F
:1019A0002900002A11D0130003E019009B68002BC6
:1019B00005D0187C0028F8D1DB68002BF9D18D42C6
:1019C00003D00B7C012B00D852E16A467B1C073206
:1019D0004046FFF7F1FE02236946B26ACB71002A46
:1019E00000D1E4E11400290003E011009268002A0C
:1019F00005D0137C012BF8D8D268002AF9D18D428A
:101A000000D1D5E10B7C022B00D9D1E16A4603233A
:101A1000D3712200290003E02100A468002C05D026
:101A2000237C022BF8D8E468002CF9D18D4200D138
:101A3000AFE10B7C032B00D9ABE104236946CB71EA
:101A40001300290003E011009268002A05D0107CE1
:101A50000328F8D8D268002AF9D18D4200D189E153
:101A60000A7C042A00D985E105226946CA711A0058
:101A7000290003E019009B68002B05D0187C04287E
:101A8000F8D8DB68002BF9D18D4200D163E10B7CE3
:101A9000052B00D95FE106236946CB7113002900AD
:101AA00003E011009268002A05D0107C0528F8D8C0
:101AB000D268002AF9D18D4200D13DE10A7C062A84
:101AC00000D939E107226946CA711A00290003E0EA
:101AD00019009B68002B05D0187C0628F8D8DB6815
:101AE000002BF9D18D4200D117E10B7C072B00D9D7
:101AF00013E108236946CB711300290003E01100AC
:101B00009268002A05D0107C0728F8D8D268002AED
:101B1000F9D18D4200D1F0E00A7C082A00D9ECE02E
:101B200009226946CA711A00290003E019009B685E
:101B3000002B05D0187C0828F8D8DB68002BF9D1D9
:101B40008D4200D1C9E00B7C092B00D9C5E00A23E6
:101B50006946CB711300290003E011009268002A46
:101B600005D0107C0928F8D8D268002AF9D18D4216
:101B700000D1A2E00A7C0A2A00D99EE00B22694625
:101B8000CA711A00290003E019009B68002B05D0D8
:101B9000187C0A28F8D8DB68002BF9D18D4200D1D7
:101BA0007BE00B7C0B2B00D977E00C236946CB71D3
:101BB0001300290003E011009268002A05D0107C70
:101BC0000B28F8D8D268002AF9D18D4256D00A7C69
:101BD0000C2A53D80D226946CA71290006E0C04676
:101BE0000103000019009B68002B05D01A7C0C2A09
:101BF000F8D8DB68002BF9D18D4202D00B7C0D2B7D
:101C000006D93B006A4640460D330732FFF7D4FD44
:101C1000337E002B00D0D9E0042011F0ADF87A4BD0
:101C2000F46A81460360A54214D00123D027984668
:101C30003F06207D0FF066FE4346207D0022834054
:101C40000121BB620FF036FE20001CF0E1F9040018
:101C50008542EED14B46B06BB363002802D00368D7
:101C60005B689847300003B0C0BCB946B046F0BDD1
:101C7000022369461400CB71B5E629006A464B463B
:101C800007324046FFF798FD0D226946B36ACA71D4
:101C9000002BA2D12900B4E729003B006A460B3390
:101CA00007324046FFF788FD0C236946B26ACB71C4
:101CB000002AE2D013007CE729003B006A460A3381
:101CC00007324046FFF778FD0B226946B36ACA71B6
:101CD000002BE1D01A0055E729003B006A46093382
:101CE00007324046FFF768FD0A236946B26ACB71A6
:101CF000002AE1D013002EE729003B006A46083392
:101D000007324046FFF758FD09226946B36ACA7197
:101D1000002BE1D01A0007E729006A46FB1D0732B5
:101D20004046FFF749FD08236946B26ACB71002A95
:101D3000E2D01300E1E629006A46BB1D07324046A7
:101D4000FFF73AFD07226946B36ACA71002BE3D058
:101D50001A00BBE629006A467B1D07324046FFF7A2
:101D60002BFD06236946B26ACB71002AE3D013002B
:101D700095E629006A463B1D07324046FFF71CFDE9
:101D800005226946B36ACA71002BE3D01A006FE6D8
:101D900029006A46FB1C07324046FFF70DFD04236D
:101DA0006946B26ACB71002AE3D0130049E62900E4
:101DB0006A46BB1C07324046FFF7FEFC03236A4617
:101DC000B46AD371002CE3D0220023E60C2010F07B
:101DD000D3FF040005000D4B326908C4317D20009B
:101DE0001BF04AFC20000A491BF058FC200008495F
:101DF0001BF064FC200006491BF072FCB06BB5635D
:101E0000002800D02BE72DE7FCDD061010DE0610C1
:101E1000FFFF0000F0B5D6464F464646C0B50E005F
:101E200015000F1D390004001BF00CFBF31C984635
:101E30006B1C99461A00414620001BF003FB390039
:101E40004A4620001BF0FEFAB31C9A46AB1C99468A
:101E50001A00514620001BF0F5FA41464A46200080
:101E60001BF0F0FA39004A4620001BF0EBFAEB1C9D
:101E700099461A002000711C1BF0E4FA4A465146AC
:101E800020001BF0DFFA4A46414620002E1D1BF0C1
:101E9000D9FA4A46390020001BF0D4FA51463200E4
:101EA00020001BF0CFFA4146320020001BF0CAFA96
:101EB0003900320020006E1D1BF0C4FA320041468A
:101EC00020001BF0BFFA3200390020001BF0BAFAE4
:101ED0003900AA1D20001BF0B5FAE0BCBA46B14695
:101EE000A846F0BDF8B5CE464746160080B50400BA
:101EF0000D001BF0A7FA731C98466F1C1A002900EE
:101F000020001BF09FFA3900424620001BF09AFA8D
:101F1000B31C98461A00290020001BF093FA3900E0
:101F2000424620001BF08EFAAB1C424619002000EE
:101F300099461BF087FAF31C98461A0029002000E6
:101F40001BF080FA3900424620001BF07BFA49461C
:101F5000424620001BF076FAE91C424620001BF0A6
:101F600071FA331D98461A00290020001BF06AFA06
:101F70003900424620001BF065FA494642462000DF
:101F80001BF060FA731D98461A00290020001BF010
:101F900059FA4246390020001BF054FA2900B21DBC
:101FA00020001BF04FFAC0BCB946B046F8BDC04691
:101FB00070B50300040082B0002505C905C32000E8
:101FC0001C22002125720A3010F0CAFE20000E22C9
:101FD0000021263010F0C4FE26000D232000082228
:101FE0000021A3863630403610F0BAFE1C220021B4
:101FF000300010F0B5FEE5650FF0FCFA002932D094
:10200000FA220023920010F0A5F900252066200096
:10201000082200216566A566E566703010F0A0FE16
:1020200048232268A567E567E5542379802100925B
:10203000300040221BF05CF930001BF0FBF98023DC
:10204000E5500433E5500433094AE5500433E550C4
:102050002300A1180022A1331A7014338B42FBD144
:10206000200002B070BDFA21890010F035F9CCE7EC
:10207000C103000010B52A220A3010F077FE10BD0F
:102080003423C1547047C0463523C1547047C046FD
:1020900010B50722363010F069FE10BDC1667047DA
:1020A00010B50822703010F061FE10BD01230372DC
:1020B0007047C046022303727047C0460323037271
:1020C0007047C046042303727047C046F0B5C64649
:1020D00000B582B004000FF08DFA002933D0FA2247
:1020E0000023920010F036F9236EC01A624B98421A
:1020F00009D8FA2110F0F0F8C00700D4A7E002B028
:1021000080BCB846F0BD5D4B984221D95C4B9842EB
:10211000F5D85C4B4034200000930C22012325218C
:102120001BF00EFA584B200000931A2202230421C0
:102130001BF006FA554B302200932B21012320007F
:102140001BF0FEF9DBE7FA21890010F0C5F8CBE7B8
:102150004F4B40349C46604410F0FBFC4D4910F05E
:1021600094FC011C051C10F08DFC011C4A4810F069
:1021700086FC291C061C281C10F09BFC011C301C32
:1021800010F097FC454910F094FC10F009FD8026F2
:102190003C4B311A0093200001230C221BF0D0F994
:1021A0003F49281C10F0C4FC00285BD03C49281C87
:1021B00010F065FC3B4910F068FC011C071C10F096
:1021C00061FC011C344810F05AFC391C8046381C54
:1021D00010F06FFC011C404610F06BFC324910F00F
:1021E00068FC10F0DDFC284B311A0093200002231C
:1021F0001A221BF0A5F92D49281C10F099FC002883
:1022000038D02A49281C10F03AFC294910F03DFC2E
:10221000011C051C10F036FC011C1F4810F02FFC9F
:10222000291C071C281C10F044FC011C381C10F051
:1022300040FC204910F03DFC10F0B2FC311A134B69
:1022400030220093200001231BF07AF957E7200089
:102250000221194B1C2200934030022349421BF0FB
:102260006FF94CE7084B1A220093802102232000CB
:102270001BF066F98021E2E7B70B00009311000024
:10228000571B000024B0061030B006103CB00610FA
:1022900048F4FFFF0080BB44000040400000B6420D
:1022A000CDCC4C3ECDCC4C3F0000F842CDCCCC3E0A
:1022B0009A99193F0000AA4218B00610F0B5DE4600
:1022C00057464E4645463623E0B5A7B00C003622A9
:1022D000002140300093493303901BF0C7F808AB4E
:1022E0009B460AAB0893D44B5A460A930423536087
:1022F0000023137310AA0E92D04A06A90A8502225F
:102300000F920A002A21521813702378062B01D944
:1023100000F057FCCA4A9B00D3589F4616AB029365
:102320001493012304930023089A14AD1AAC2B7262
:10233000069223721CAA6B60023304261000984692
:102340001A9205920222BF4910F010FD1A9B99467D
:1023500043464A46636041460023535463689846A7
:102360004246B94B9B1AB34201D200F044FC1A9882
:10237000059B9719984200D173E3A3689F4200D947
:1023800056E24044012E01D100F0F6FB32000699DE
:1023900010F0ECFC1A9B99464A4600236760D3551F
:1023A0001A9B9A46636899466B6898464246A64BC4
:1023B0009B1A994501D900F01EFC4E46149F029BC2
:1023C00046449F4200D159E3AB689E4200D9FBE2EC
:1023D0004B46002B09D038004044012B00D1D2E3FA
:1023E0004A46514610F0C2FC149F00236E60BB5554
:1023F0001A98059B984203D0A168013110F0CCFCDB
:102400006C68914B9C4201D100F0F5FB149B029A41
:10241000661C934200D18AE3AA68964200D900E381
:1024200020221A55149F00236E60BB5519E0874B7C
:1024300010AA934200D3D3E1854B10AA1093042332
:102440000F93002313715B465E680123049316AB60
:1024500002931493002314AD2B726B60002E00D0F6
:102460001AE20E9B0F9E059322AB2093002320AC13
:1024700023726360B31C9A460F2B00D8BEE0002B7A
:1024800000DAA5E31D2B00D8C4E1F01C00D54FE114
:1024900010F072FC209B6768814698467A1C002FDA
:1024A00000D14DE2002A00D0ACE1A16840460131E4
:1024B00010F072FC4B46209353466768A360624B52
:1024C000DB1B012B00D896E3BB1C9846534500D973
:1024D000C4E03800484402225E4910F047FC209BCB
:1024E000994643464A466360414600235354636815
:1024F00099464A46544B9B1A9E4200D97BE3B0460C
:10250000209F22ABC8449F4200D1FEE1A3689845BA
:1025100000D9CDE0002E09D038004844012E00D16A
:102520007CE13200059910F021FC209F4346424691
:1025300063600023BB54209B9A46636898466B688F
:1025400099464A46404B9B1A984500D953E3474663
:10255000149E029B4F449E4200D1E4E1AB689F422F
:1025600000D9DBE04346002B09D030004844012B62
:1025700000D158E14246514610F0F8FB149E00236A
:102580006F60F355209822AB984203D0A1680131C7
:1025900010F002FC6A6853009B18049A5B00002A42
:1025A00030D16E240021E41A6410149B1234039875
:1025B00000933822012361181AF0C2FF1498029B7D
:1025C000984203D0A968013110F0E6FB0E9810ABD9
:1025D000984203D01099013110F0DEFB08980AAB45
:1025E000984204D05B469968013110F0D5FB27B0C2
:1025F000F0BCBB46B246A946A046F0BD022322A8C5
:10260000984668E75024039EE41A6410210038229B
:102610003000FFF7FFFBE11D38223000FFF762FCBE
:1026200021000D4B0F3100933822012330001AF0A6
:1026300087FF0C341221B8E74261636B4F4B0000F7
:102640001CDE061084B00610FFFFFF7F44B00610AA
:102650005361766588B006108CB006104346002B97
:1026600000DAB5E253465B000693984500D311E2C9
:10267000002B5DDB581C10F07FFB209B81469A46A7
:102680003A005146484610F071FB38000222C94911
:10269000484410F06BFB22AB9A4504D0A168504629
:1026A000013110F079FB4B462093069BA36018E79D
:1026B0004246002A00DA8BE25B000693984500D27E
:1026C00001E24346581C33D4069310F055FB209B7F
:1026D00007009A464B46002B06D0012B00D143E25F
:1026E0004A46514610F042FB059B002B0AD0002EB3
:1026F00008D04B46F818012E00D149E23200059966
:1027000010F034FB22AB9A4504D0A1685046013149
:1027100010F042FB069B2097A36007E7002F00DA2A
:1027200056E25B0006939F4204D2581C002B04DA49
:1027300028F03CFB781CFBD4069710F01DFB149B83
:10274000060005934B46002B06D0012B00D10FE26B
:102750004A46059910F00AFB5346002B0CD043461D
:10276000002B09D04B46F0184346012B00D113E251
:102770004246514610F0FAFA0598029B984203D05F
:10278000A968013110F008FB069B1496AB60F6E6D1
:10279000894B10AA934206D306A92A228C4662448A
:1027A000934200D817E21A682E2110929B8806AA3D
:1027B000938506230F930023521813705B465A68C3
:1027C0000AA97E4B994203D88818834200D815E2A3
:1027D00000235A4653600B7000235668049336E674
:1027E00006A92A228C466244934200D924E600229C
:1027F00001920432009210A9023A0EA836F0D6F8DF
:102800000E9A1CE6190010F0B1FA22AB984500D0E0
:102810004BE69CE01E231F209A4639E6059B1B7859
:102820000370209F82E653461B780370149EA6E631
:10283000002F00DACCE15B0007939F4200D264E1F5
:10284000781C00D574E7079710F096FA1A9B81461A
:102850009A464346002B06D0012B00D1A0E1424608
:10286000514610F083FA069B002B08D0404648449E
:10287000012E00D158E11900320010F077FA059BC3
:102880009A4504D0A1685046013110F085FA4B46B4
:102890001A93079BA3607FE5089A1AAC06922372ED
:1028A0001CAA6360B31C9A4605921A920F2B00D89B
:1028B00082E1002B00DA8BE11D2B00D808E1F01C2F
:1028C00000D535E710F058FA1A9B6768814698469C
:1028D0007A1C002F00D13BE1002A00D0E5E0A1687E
:1028E0004046013110F058FA4B461A935346676838
:1028F000A360334BDB1B012B00D87CE1BB1C98464B
:102900009A452BD3380048441CE543460F2B00D88A
:1029100000E6002B00DA5BE11D2B00D9D1E61E2377
:102920001F200693D1E60F2F00D81BE6002F00DAF8
:102930004EE11D2F00D9FDE61E231F200693FCE665
:102940001B78037022AB984500D0AEE500274B46BC
:1029500020935346A360BB1C9846BAE54346002B20
:1029600000DA35E153465B000793984500D2C2E098
:10297000F81C00D5DCE610F0FFF91A9B81469A4658
:10298000434607933A005146484610F0EFF93800A5
:1029900002220C49484410F0E9F9059B9A4504D0FD
:1029A000A1685046013110F0F7F94B461A93079B86
:1029B000A360CDE488B006104CB00610DCBC061055
:1029C000FFFFFF7F84B00610002E00DA00E15B00FD
:1029D00007939E4200D29DE0701C00D5A8E60796A2
:1029E00010F0CAF9149B070006934346002B06D04B
:1029F000012B00D1D8E04246069910F0B7F95346B2
:102A0000002B02D04B46002B66D10698029B9842C1
:102A100003D0A968013110F0BFF9079B1497AB6090
:102A2000E3E4002E00DAD3E0530098469E4276D3CA
:102A3000A01C00D57CE6B04610F09EF9149B070060
:102A40009946002C52D120233B55029B994504D036
:102A5000A9684846013110F09FF943461497AB60CE
:102A6000E1E40F2F00D88CE4002F00DAB0E01D2F36
:102A700000D9E5E61E231F200793E5E60F2E00D8B8
:102A8000A6E4002E00DAA3E01D2EA5D81E231F20E9
:102A90000793A5E7F81C00D54AE610F06DF9209BD6
:102AA00081469A4643460693EAE5190010F05EF91E
:102AB000059B984500D012E74B461A935346A360F6
:102AC000BB1C98461EE7581C002B00DA30E6FCE5DC
:102AD0001E231F209A46F5E64346F8184B46012B65
:102AE00066D04A46514610F041F98EE7012C29D1B3
:102AF0001B780370A7E7002B00DA19E6581C10F0CA
:102B00003BF91A9B81469A463CE7581C002B00DA99
:102B10000EE699E6581C002B00DA09E660E7581C1F
:102B2000002B00DA04E687E71B780370A7E6102E77
:102B300000D075E41F2010F01FF9149B0700994680
:102B40001E23984622004946380010F00FF97AE714
:102B50001B780370059B984500D0C0E65346A360E0
:102B600002231A909846CDE653461B780370BBE5C6
:102B7000059B1B780370EFE5069B1B7803701A9B7F
:102B80009946FFF709FC53461B780370149F2CE409
:102B9000059B1B780370B5E553461B780370EBE586
:102BA00053461B7803705EE6069B1B78037026E78E
:102BB00053461B78037028E7022305989846FFF7D1
:102BC000C1FB16AB0293149300230493FFF7ABFBF6
:102BD0000E4828F033F900240625022210A901949A
:102BE00000950EA835F0E2FE0E9B0F959C715B469A
:102BF00008995A68E5E5064828F020F90020019078
:102C00000090584635F0D2FE0899E1E554B0061020
:102C10006CB00610F0B5DE4657464E464546E0B568
:102C200095B004000EF0E6FC002900D1A4E0FA22E1
:102C3000002392000FF08EFB636EC01A3623E35C14
:102C4000142B00D1A3E0E04B3027984200D842E19A
:102C5000DE4B4034082200930721012320001AF0A4
:102C60006FFC0023012208AE0AAD089598467372E6
:102C7000D74B37727260AB4200D334E12A00B7748D
:102C800003CB03C21B8813800023F37410AB9A4656
:102C90000E930EAB99460C222900504610F066F8B0
:102CA0000B234A46536000230895736033721E233A
:102CB0001F209B4610F060F807000E9B0B221900A6
:102CC000984610F053F838000822C2490B3010F033
:102CD0004DF8D04505D04B4699684046013110F07B
:102CE0005BF84B465A460E979A6013234A46536048
:102CF0000023FB740E9A04AB984602AF0293524530
:102D000000D150E14B469B680292BB6013230898A8
:102D10007B60A84200D144E1B168013110F03CF879
:102D20007968029A4B005B1880215B00C91A200069
:102D300001234908009218221AF002FCA64B28220F
:102D400004212000009301231AF0FAFBA34B20007A
:102D500000933422012301211AF0F2FB029840452E
:102D600003D0B968013110F017F815B0F0BCBB46BC
:102D7000B246A946A046F0BDFA2189000FF0ACFA90
:102D8000636EC01A3623E35C142B00D05BE78E4BD6
:102D90003027984206D8FA2189000FF09DFA35278E
:102DA0003F1AFFB28E4B40340422009307210123C7
:102DB00020001AF0C5FB0023012208AE0AAD0895D9
:102DC00098467372874B37727260AB4200D3B9E09A
:102DD0002A00377583CB83C20023737510AB9A46E4
:102DE0000E930EAB99460E22290050460FF0BEFFFF
:102DF0000D234A46536000230895736033721E23E7
:102E00001F209B460FF0B8FF07000E9B0D221900F4
:102E100098460FF0ABFF3800032273490D300FF0D6
:102E2000A5FFD04505D04B469968404601310FF0CB
:102E3000B3FF4B465A460E979A6010234A4653609A
:102E400000233B740E9A04AB984602AF029352459E
:102E500000D1B1E04B469B680292BB6010230898FA
:102E60007B60A84200D1A5E0B16801310FF094FF6A
:102E70007968029A4B005B1880215B00C91A200018
:102E800001234908009210221AF05AFB1A231A2231
:102E90000A21200000935B331AF0E8FA534B2022FA
:102EA00007212000009301231AF04AFB504B2A22ED
:102EB0000A212000009301231AF042FB4D4B200011
:102EC00000933422012307211AF03AFB029840456F
:102ED00000D046E749E7FA2189000FF0FDF93527D0
:102EE0003F1AFFB2B4E6292169448B4200D9C5E6F6
:102EF00001920932300000922900424635F056FD19
:102F000043460B2208987260C3720EAB994610AB11
:102F10009A460E93A84200D1BDE649460E904A60FB
:102F20004246B36808958B6072603272504500D19A
:102F3000BDE6122B6AD9082226490B300FF016FF86
:102F40000E9FD2E6292169448B4200D940E70192C5
:102F50000B32300000922900424635F027FD4346EF
:102F60000D220898726043730EAB994610AB9A46D7
:102F70000E93A84200D136E749460E904A60424679
:102F8000B36808958B6072603272504500D136E7A5
:102F90000F2B31D9032214490D300FF0E7FE0E9F9D
:102FA0004BE71321BEE61422514618000FF0DEFE57
:102FB0004246ABE610215DE71122514618000FF0A2
:102FC000D5FE42464AE7C04687130000F0B006101F
:102FD00004B1061010B106101CB1061034B1061071
:102FE00090B00610A4B0061000B10610B4B00610E0
:102FF000C8B00610DCB006105B009B46581C102BB6
:1030000000D9FFE6102311209B46FBE65B009B46A0
:10301000581C132B00D94DE6132314209B4649E678
:1030200010B5224B82B040300093022201231621BA
:1030300004001AF085FA0C23200000930C220021D2
:1030400073331AF013FA1A4B200000931022012355
:1030500010211AF075FA174B200000931822012353
:103060000D211AF06DFA144B200000932022012349
:103070000A211AF065FA114B20000093282201233F
:103080001C211AF05DFA0E4B200000933022012320
:1030900016211AF055FA0B4B382200931321012305
:1030A00020001AF04DFA02B010BDC0464CB1061017
:1030B0005CB1061070B1061084B10610B0B20610F3
:1030C00098B10610A8B10610F0B5DE4657464E4638
:1030D0004546E0B5C46EBFB0002C56D0636D032BDF
:1030E00000D1BEE0402399466F4B814404220A215F
:1030F0004846009302231AF023FA162316220021D1
:103100004846009369331AF0B1F90EF073FA0029BA
:1031100042D0FA22002392000FF01CF9636D022BBB
:1031200041D0032B00D1ACE007AB039305930123FF
:10313000029305AB00249B463034E4B25B46002288
:1031400002991C725960059B48465A545B4680217F
:103150005A6853009B189B00C91A059B1C224908FA
:10316000009302231AF0ECF9504B484600933022AA
:10317000012319211AF0E4F90598039B984204D021
:103180005B46996801310FF007FE3FB0F0BCBB46CB
:10319000B246A946A046F0BDFA2189000FF09CF87E
:1031A000636D022BBDD1A36D414AC11A9142BBD8B8
:1031B000404A9446FA216344181A89000FF08CF8AB
:1031C0000400092867D90123632851D9FA239B00F9
:1031D00098425ED3384B98424DD9384B98424DD9DE
:1031E000374B984243D905230233029305AB9B46E4
:1031F00000235A46536013720BAB07ADC922180067
:1032000030499846039505950FF0B0FD632C1FD902
:10321000029BAC469E1E284B66449A4620006421C1
:103220000FF05AF820004D0064210FF055F8434686
:103230005B195B782700737043465B5D0400337055
:10324000023E5745EAD8FA239B009F4200D273E71B
:1032500043465A4664001B195B78537243461C5D13
:103260006CE7037A052B90D0052303728DE70523C5
:1032700001330293BAE704230293B7E705230293CD
:10328000B4E7E36D104AC11A914200D94CE70F4AE6
:103290008FE70123A8E707AB03930593012302936C
:1032A00005AB9B4648E7C046B8B10610C4B106104E
:1032B000B70B00009F0F00000F2700009F86010042
:1032C0003F420F00D4B106101F4E0000075200000D
:1032D000F0B54546DE4657464E46E0B5C56E04009D
:1032E000BFB0002D00D1C2E06B6D042B00D18BE18B
:1032F000052B00D131E140239946D44B8144002273
:1033000004214846009302231AF01AF9D04B1422E4
:1033100010214846009301231AF012F9CD4B1C22CC
:103320000D214846009301231AF00AF9CA4B2422C2
:1033300016214846009301231AF002F90EF05AF9BB
:10334000002900D19AE0FA22002392000FF002F83F
:103350006B6D0E24032B19D1EB6DC01ABF4B984235
:1033600000D9F8E043011B1A9B001818BC49C000A3
:103370000EF0B2FF0FF0EDFBBA490FF09AFBBA491D
:103380000FF097FB0FF03AFC84B20E34302330225A
:103390000E214846009323001AF068F831233122A9
:1033A0000E214846009323001AF060F8322332229F
:1033B0000E214846009323001AF058F80EF01AF92F
:1033C000002960D0FA22002392000EF0C3FF6B6D3B
:1033D000022B5FD0032B00D1FCE007AB02930593D7
:1033E0000123039305AB00249A463034E4B25346DC
:1033F000002203991C725960059B5A5453465C681D
:103400009A4B9C4200D14CE1059B029A651C934269
:1034100000D1E7E052469768BD4200D9AAE0732286
:103420001A55059E53465D600023524673550BABFB
:1034300098465568059B029A0DAC0B94934200D1B7
:10344000DBE05246414692680B938A60424648460A
:10345000556074210093302201231AF071F80B9803
:10346000A04204D04346996801310FF095FC3FB06B
:10347000F0BCBB46B246A946A046F0BDFA21890081
:103480000EF02AFF64E7FA2189000EF025FF6B6D2C
:10349000022B9FD1AB6D764AC11A91429DD8754AD5
:1034A0009446FA216344181A89000EF015FF0400AF
:1034B000092800D8EAE00123632800D881E0FA2334
:1034C0009B00984200D2BEE06B4B98427CD96B4B7C
:1034D00098427CD96A4B984272D9052302330393F0
:1034E00005AB9A4600235246536013720BAB07ADEF
:1034F0001800C92263499846029505950FF036FCDD
:10350000AC46039B9E1E6644632C1BD95A4B9B46BC
:10351000200064210EF0E0FE20004D0064210EF03A
:10352000DBFE43465B195B782700737043465B5DA7
:1035300004003370023E5F45EAD8FA239B009F42A5
:1035400000D252E74346524664001B195B7853721F
:1035500043461C5D4BE7722418E70EF04BF8002938
:103560005FD0FA22002392000EF0F4FE0723E067FA
:1035700023727CE7002D00DA90E07F00BD425AD331
:10358000A01C5BD42F000FF0F7FB059B06009846AC
:10359000002C06D0012C53D02200414630000FF001
:1035A000E5FB73233355029B984505D05346996834
:1035B000404601310FF0F0FB534605969F6031E71E
:1035C0000523013303938BE70423039388E7052343
:1035D000039385E7EB6D214AC11A914200D9FCE6BD
:1035E000294A5DE7102D00D019E71F200FF0C4FB1A
:1035F000059B060098461E27CEE7110020006A1C96
:103600000FF0B4FB230021E70DF0F4FF00290DD0EB
:10361000FA22002392000EF09DFE0623A06723727B
:1036200025E7FA2189000EF057FE9FE7FA2189006D
:103630000EF052FEF1E7781C002FA4DA27F0B6FB5B
:103640001B780370ADE7012348E7C046A0B206101F
:10365000ACB20610C0B20610D4B206101F4E000065
:10366000204E00006F12833A0000C842FFFFFF7F28
:10367000B70B00009F0F00000F2700009F8601007E
:103680003F420F00D4B106100752000007AB02936F
:1036900005930123039305AB9A46A6E6024827F05B
:1036A000CDFB024827F0CAFB54B006106CB00610E0
:1036B000F0B5DE4657464E464546E0B5C36EF7B018
:1036C00004000593002B0FD00DF094FF002912D0B9
:1036D000FA22002392000EF03DFEA36FC01A8E4B1B
:1036E000984211D90223237277B0F0BCBB46B24690
:1036F000A946A046F0BDFA2189000EF0EDFDA36FAA
:10370000C01A854B9842EDD8844B403404220A21DC
:10371000200000930223089419F012FF16231622AA
:10372000002100932000693319F0A0FE059A1300D0
:10373000943307939B68983211000392002B05D1B4
:1037400000F0DFFF19009B68002B05D01A69002AE2
:10375000F8DADB68002BF9D1039A914201D100F02D
:10376000D0FF0A69002A01DD00F0CBFF8D8A092D08
:1037700001D800F017FC632D01D800F0B1FFFA2248
:103780009200954201D200F0B7FC654A954201D8FB
:1037900000F0BDFC1493052304279B4615AA13AE25
:1037A000049213922D2343AC2000C9225D49337249
:1037B0000FF0DCFA5A4BB8469A462300B044444610
:1037C000B1469846280064210EF086FD28004F007F
:1037D00064210EF081FD4346DB195B782E002372D5
:1037E0004346DB5D0500E371023C5645EAD84B4693
:1037F000B1461E00FA2344469B00994500D2D7E308
:103800006D0063195B78655D73725B4600225946F3
:103810007360139B35725A547468434B1B1B022B05
:1038200001D800F097FF139F049BE51C9F4201D134
:1038300000F01BFDB3689D4201D900F010FC3B4B2A
:1038400098469F4204D83B19984501D800F075FF6F
:10385000002C08D0012C01D100F067FE22003900B5
:10386000F81C58F0E3FE4146032238000FF07EFAC0
:10387000139B98464346002775605F5519AB9B46DE
:103880001BAB19931398049B7468984201D100F004
:1038900002FD5B46B2685C609A60049B19901393CA
:1038A000214B776037721B1B032B01D800F054FEAD
:1038B0001BAB251D984201D100F0FFFC954200D9B9
:1038C000F1E304221A4900190FF050FA199F5B46E0
:1038D0005D6000235A467B551FAB994621AB1F9371
:1038E000199B54681BAA934201D100F0F3FC1F936B
:1038F0005B464A469B6893604B465C601BAB5A46EE
:103900001993002353601372079B9B68002B01D10E
:1039100000F0F7FE039911E087130000E4B20610EF
:103920000F270000D4B10610FFFFFF7F0CB3061075
:1039300010B3061019009B68002B05D01A69012AE4
:10394000F8DCDB68002BF9D1039A914201D100F039
:10395000D8FE0A69022A01DD00F0D3FE8D8A092D06
:1039600001D800F085FE632D00D824E3FA229200EE
:10397000954201D200F0FBFB7B4A954201D800F052
:1039800003FC25AA924627AA099225925246536023
:103990000523042706932D23524643ACA0461372F9
:1039A0002000C92271490FF0E1F957440A96280016
:1039B00064210EF091FC28004E0064210EF08CFC76
:1039C00043469B195B782C003B7243469B5D050088
:1039D000FB71654B023F9C42E9D84346A0461C0060
:1039E000FA230A9E9B00984500D3F1E23035EDB2F0
:1039F0005346002206991D725960259B5A544B4626
:103A00005B681F9D984653465F684346DC1921ABAF
:103A10009D4200D1E3E24B46259A9B6806929C4268
:103A200000D8E2E209998A4201D100F08CFD5246A9
:103A30009268944201D800F054FC41464C4A521A14
:103A4000974201D900F088FD21AA954201D100F0EA
:103A5000E6FD002C01DA00F051FE5B000B939C4266
:103A600001D200F0C9FC601C00D5ECE30B940FF010
:103A700083F91F9B05000A934346002B01D000F0F9
:103A800074FC069B002B09D04346E818012F01D196
:103A900000F0F7FD3A0006990FF068F90A9821AB9B
:103AA000984204D04B46996801310FF075F94B46A6
:103AB0000B9A1F959A604B465C6000234A462B5533
:103AC0000DAB06930FAB0A930D931F9B546821AA6D
:103AD000934201D100F021FD0D934B46069A9B685D
:103AE000936013005C6021AB4A461F930023259826
:103AF00053601372099B984204D053469968013170
:103B00000FF04AF91F9821AB984204D04B469968B0
:103B100001310FF041F919981BAB984204D05B4674
:103B2000996801310FF038F91398049B984203D03B
:103B3000B16801310FF030F98021069B08985A686E
:103B400053009B185B00C91A0D9B1A220093490869
:103B5000012319F0F5FC079B9B68002B01D100F0B5
:103B6000D0FD03990AE0C0460F270000D4B106102B
:103B7000FFFFFF7F19009B68002B05D01A69002A00
:103B8000F8DCDB68002BF9D1039A8A4201D100F0FE
:103B9000B8FD0A69012A01DD00F0B3FD8D8A092D07
:103BA00001D800F073FD632D00D832E2FA229200B2
:103BB000954200D235E35F4A954200D83BE32C930F
:103BC000052304279B462DAA2BAE04922B922D236E
:103BD00043AC2000C922584933720FF0C7F8554B47
:103BE000B8469A462300B0444446B1469846280059
:103BF00064210EF071FB28004F0064210EF06CFB75
:103C00004346DB195B782E0023724346DB5D0500DB
:103C1000E371023C5645EAD84B46B1461E00FA23F2
:103C200044469B00994500D3FFE13035EDB25B4639
:103C30000022594673602B9B35725A5474683F4B6F
:103C40001B1B022B01D800F085FD2B9F049BE51C5C
:103C50009F4200D1E3E3B3689D4200D998E2384B1C
:103C600098469F4204D83B19984501D800F04CFD76
:103C7000002C08D0012C01D100F061FC2200390099
:103C8000F81C58F0D3FC4146032238000FF06EF8C0
:103C90002B9B98464346002775605F5531AB9A468B
:103CA00033AB31932B98049B7468984200D1CBE3DB
:103CB0005346B2685C609A60049B31902B931F4B13
:103CC000776037721B1B032B01D800F045FC33AB28
:103CD000251D984200D1C8E3954200D97AE204221A
:103CE000184900190FF042F8319F53465D600023D8
:103CF00052467B5537AB9B4639AB3793319B546863
:103D000033AA934200D1BCE3379353465A469B688B
:103D100093605B465C6033AB524631930023536043
:103D20001372079B9B68002B01D100F0EAFC0399FA
:103D30000EE0C0460F270000D4B10610FFFFFF7F42
:103D400018B306101CB3061019009B68002B05D091
:103D50001A69022AF8DCDB68002BF9D1039A914238
:103D600001D100F0CEFC0A69032A01DD00F0C9FC94
:103D70008D8A092D01D800F097FC632D00D85AE1F7
:103D8000FA229200954200D25FE2E34A954200D8BF
:103D900067E23DAA91463FAA03923D924A4653608C
:103DA0000523042707932D234A4643ACA0461372EC
:103DB0002000C922D9490EF0D9FF4F4409962800A6
:103DC00064210EF089FA28004E0064210EF084FA76
:103DD00043469B195B782C003B7243469B5D050074
:103DE000FB71CD4B023F9C42E9D84346A0461C00E4
:103DF000FA23099E9B00984500D329E13035EDB2A6
:103E00004B46002207991D7259603D9B5A545B46F0
:103E10005B68379D98464B465F684346DC1939AB73
:103E20009D4200D165E35B463D9A9B6807929C42A8
:103E300000D87FE103998A4200D19EE34A46926806
:103E4000944200D82EE34146B54A521A974200D90F
:103E500082E339AA954200D1EAE3002C01DA00F0AE
:103E60004DFC5B0009939C4200D2D2E2601C00D55D
:103E7000E9E109940EF080FF379B05000B93434660
:103E8000002B00D16BE3012B00D1E6E342460B99F6
:103E90000EF06CFF079B002B02D0002F00D062E3D6
:103EA0000B9839AB984204D05B46996801310EF00B
:103EB00073FF5B46099A37959A605B465C60002306
:103EC0005A462B55379B576845AD39AA43AC4395A5
:103ED000934200D12DE343935B469B68A36039ABCB
:103EE0005A46379300233D9853601372039B6760D3
:103EF000984204D04B46996801310EF04DFF379837
:103F000039AB984204D05B46996801310EF044FF0A
:103F1000319833AB984204D05346996801310EF082
:103F20003BFF2B98049B984203D0B16801310EF0FF
:103F300033FF80216268089E53009B185B00C91AFA
:103F4000439B2422009330000123490819F0F8FA1A
:103F5000059BB0331B78002B00D1FFE0714B2E2264
:103F6000132130000093012319F0EAFA6E4B362238
:103F700000930A210123300019F0E2FA4398A84285
:103F800003D0A16801310EF007FF0D980A9B9842FB
:103F900001D1FFF7A9FB069B996801310EF0FCFEE9
:103FA000FFF7A2FB15AB0493139301239B4613AEBB
:103FB0003035EDB229E443AC27ABC9222000574984
:103FC000099325930EF0D2FE0223069325AB9A4661
:103FD00052466D0063195B78655D537208E5259B59
:103FE0001A0006930F2C00D9ACE142464C4B9B1AA9
:103FF0009F4200D9B0E2002F00D15CE52800404488
:10400000012F00D1D9E13A0006990EF0AFFE1F9DB5
:1040100051E543AC2DABC9222000404904932B93BA
:104020000EF0A4FE02239B462BAE6D0063195B7855
:10403000655D7372FBE543AC3FABC9222000374995
:1040400003933D930EF092FE022307933DAB9946F6
:104050004A466D0063195B78655D5372D0E6002DAA
:1040600000DA4BE35F00BD4200D2B1E1201D00D574
:10407000E9E02F000EF080FE03222C4980460EF06E
:1040800075FE139B9946002C00D080E1049B994556
:1040900004D0B168484601310EF07EFE4346B76059
:1040A0001393FFF7E7FB002D00DA27E35300984650
:1040B0009D4200D2C3E0601D00D5C4E0A8460EF0CA
:1040C0005BFE199B07009946002C00D031E10425C6
:1040D0000422174938190EF049FE1BAB994505D04B
:1040E0005B469968484601310EF056FE5B464246F3
:1040F00019979A60FFF7EBFB032302279B4615AB4A
:1041000004931393002313AE1493FFF74BFB042384
:1041100003279B46F3E7C0460F270000D4B10610E3
:10412000FFFFFF7F24B3061034B306100CB3061054
:1041300010B306104246D64B9B1A9F4200D90BE2A1
:10414000002F00D1B9E628004044012F00D13AE108
:104150003A0007990EF00AFE379DAEE6CD4B3222AB
:10416000009307210123089819F0EAF906E70323D1
:104170000227069325AB9A4627AB5246099325930F
:1041800000235360FFF707FC042303270693F1E79E
:10419000002D00DAB2E25F00BD4200D22FE1201D07
:1041A00051D42F000EF0E8FD0322BB4980460EF0EB
:1041B000DDFD2B9B9946002C00D0F8E0049B99452F
:1041C00004D0B168484601310EF0E6FD4346B760C1
:1041D0002B935FE5002D00DA90E2530099469D4253
:1041E00000D211E1601D2ED4A9460EF0C5FD319B11
:1041F00007009846002C00D0D0E004250422A749EF
:1042000038190EF0B3FD33AB984505D05346996885
:10421000404601310EF0C0FD53464A4631979A6040
:1042200063E5032302279B462DAB04932B930023C6
:104230002BAE2C93CBE4042303279B46F4E7581CB6
:10424000002B00DB3BE726F0B1FD03230227079399
:104250003DAB99463FAB4A4603933D9300235360E1
:10426000A1E5042303270793F2E70F2D01D8FFF7F9
:10427000E6FA1F200EF080FD0322894980460EF0E9
:1042800075FD139B1E279946434622004946D81CBC
:104290000EF06CFDFAE61900621C1BA81D000EF062
:1042A00065FD5B465C607A4B1395776037721B1B2C
:1042B000251D1BA8032B00D84EE10F2D01D8FFF7B9
:1042C00000FB1F200EF058FD199B070099461E2386
:1042D000984631E0621C1BA921A80EF047FDFFF7AC
:1042E0000BFB6B4BDB1B984500D933E2069BAB42C3
:1042F00073D9002F00D056E1002C00D060E1534666
:104300005C600023069A135552460DAB06930FAB23
:1043100054680A930D93099A259B934200D18FE12B
:104320000D935346069A9B68936013005C60FFF7F9
:10433000E9FB012C00D177E12200494638000EF05C
:1043400015FDC5E609990F238A4201D0FFF76FFBDF
:10435000002C00DAD2E11D2C01D9FFF784FB1E23CB
:104360000B930B9B581CFFF782FB012B00D170E1D4
:1043700042460A990EF0FAFC069B002B01D1FFF78A
:104380008DFB002F01D1FFF789FBFFF77DFB012C8F
:1043900000D079E742461B78D37077E6012C00D134
:1043A0004AE12200414638000EF0E0FC26E7012CED
:1043B00043D142461B78D37000E7069B1B780370FD
:1043C0001F9DFFF778FB079B1B780370379D74E5F3
:1043D000002F00DA37E7781C4CE6DB199D4288D8BD
:1043E00043460022009350462B000699019734F073
:1043F000DDFA259B069382E7002BB2DA23E7781CCF
:10440000002F00DA1FE7CDE6581C002B00DA1AE770
:10441000EBE6002B00DA16E7099B581C2AE50F2D66
:1044200000D81CE41F200EF0A7FC03221A49804686
:104430000EF09CFC2B9B1E279946434622004946C2
:10444000D81C0EF093FCB9E61900621C33A81D00BD
:104450000EF08CFC53465C600D4B2B9577603772E9
:104460001B1B251D33A8032B76D90F2D00D836E44E
:104470001F200EF081FC319B070098461E239946B1
:104480008FE7621C33A939A80EF070FC41E4C046E6
:10449000FFFFFF7F48B3061018B306101CB30610C9
:1044A0000CB30610AD4BDB1B984500D952E1079BBE
:1044B000AB4203D8DB199D4200D832E1002F00D077
:1044C00096E0002C00D09FE04B465C600023079AEA
:1044D00045AD13554A463D9B5768039A43AC4395F7
:1044E000934200D1BDE043934B469B686760A36055
:1044F00005E53D9B1A0007930F2C00D81AE6039997
:104500000F238A4200D099E4002C00DAF6E01D2C3B
:1045100000D9ABE41E2309937EE70A98621C21A907
:104520000EF024FC069BFFF7DDFA3B78FB70FFF7EB
:104530009AF928007A1C39A90EF018FCCFE43B78D0
:10454000FB70FFF7A0FB0F2C20D94146834A521A7B
:10455000974201D8FFF77DFA814826F06FFC079B50
:10456000002B00D19CE44346E818012F00D1A4E0C1
:104570003A0007990EF0FAFB92E40F2C2BD9414632
:10458000764A521A974200D867E4E5E7734BDB1B83
:10459000984500D9DEE08D4203D3CB199D4200D867
:1045A0001EE7002F0CD04346002B00D1A7E606984B
:1045B0004044012F00D18BE03A00069958F036F8BC
:1045C0004346012B6AD04246290006980EF0CEFBE6
:1045D000259B069393E6614BDB1B984500D9B9E018
:1045E000A94203D8CB19AB4200D39AE0002F0BD0DD
:1045F0004346002B00D167E707984044012F6BD05A
:104600003A00079958F012F84346012B5AD0424617
:10461000290007980EF0AAFB3D9B079354E79C42A4
:1046200000D8E8E4FFF715FA1B78052503704FE57D
:104630009C4200D884E510E41B7805250370DDE575
:1046400011000A98621C0EF091FB069B5C60FFF75C
:1046500059FA0A9B1B7803708EE60B9B1B7803703C
:1046600018E4110028007A1C0EF080FB676046E415
:1046700027AB099325930123069325AB9A46FFF7B1
:10468000B5F9069B1B780370FFF708FA2DAB04936E
:104690002B9301232BAE9B46FFF7C7FA2B78069A84
:1046A0001370259B06932AE63FAB03933D930123AA
:1046B00007933DAB9946FFF7A1FB079B1B7803705F
:1046C000FFF7EEFB2B78079A13703D9B0793FBE6F1
:1046D000069B1B78037073E7079B1B78037093E7B7
:1046E00043AC15ABC92220001E49049313930EF06E
:1046F0003DFB022313AE9B46FFF782F81A4826F0D3
:104700009DFB1A4826F0B2FB0323002200933900D8
:1047100043463000019434F049F92B9B9846FFF74B
:10472000B9FA43460022009348462B0007990197A7
:1047300034F03CF93D9B0793C6E603230022009327
:10474000390043463000019434F030F9139B984609
:10475000FFF790F8064826F071FBC046FFFFFF7F89
:104760006CB00610D4B1061054B0061010B006108C
:10477000F0B20610F0B54546DE4657464E46E0B567
:10478000C56E040097B0002D0FD00CF033FF002948
:1047900012D0FA22002392000DF0DCFDE36FC01A64
:1047A0008E4B984211D90223237217B0F0BCBB463E
:1047B000B246A946A046F0BDFA2189000DF08CFD55
:1047C000E36FC01A854B9842EDD8854B40340822E0
:1047D000200084490093022318F0B2FE1A231A2203
:1047E000009300216533200018F040FEB423EB58FD
:1047F000B4356D6806AF984604AE04970F2D00D906
:1048000091E0012D00D18BE0002D00D0DAE00023F3
:104810003A0075605355049B059D9B46002D00D1C1
:1048200097E02A000A2118005BF038F9002800D12F
:104830008FE05B46C31A9946013300D189E00CAB87
:104840009A460A934D4500D94D460F2D00D995E063
:10485000012D00D08BE05B460AAA90461B781372AC
:10486000524643465D60002353554A4675680132FF
:10487000AA4200D9ADE010AB994612AB9B4610930B
:10488000049BAD1A9B1803930F2D00D98BE0012DCB
:1048900000D083E04A461B7813725A464B465D604F
:1048A00000235355434680255B6820225900C918D0
:1048B00049000A9B691A200049080093012318F057
:1048C0003FFE4B465A68200053009B185B00E91AD4
:1048D000109B2A2200934908012318F031FE1098FA
:1048E000584504D04B46996801310EF055FA0A98A4
:1048F000504504D04346996801310EF04DFA3A4BC9
:104900002000009336220123252118F019FE049877
:10491000B84200D149E7B16801310EF03DFA44E7F1
:104920001B78337273E7002D50DB681C4CD40EF0FB
:1049300023FAB56004902A0041460EF017FA0023CE
:10494000049A75605355049B059D9B46002D00D02D
:1049500067E780216B005B195B00C91A5B46242264
:10496000009320000123490818F0EAFDC7E70AABCD
:104970009846002D00D173E7504609E0002D25DB55
:10498000681C21D40EF0F8F90AAB98460A900C95F1
:104990002A0059460EF0EAF90A9A62E7002D00D182
:1049A0007BE7584608E0002D10DB681C0CD40EF0A5
:1049B000E3F94B4610909D602A0003990EF0D6F95A
:1049C000109A6BE73800B6E726F0F0F9074826F0B2
:1049D00035FA2B000649074826F060FA87130000D5
:1049E0005CB30610FEFFFF7FB8B3061054B006108C
:1049F00068B3061080B30610F0B5DE4657464E4643
:104A00004546E0B50C0087B0002B51D01D00402377
:104A10009C46002684446346B04600271600059352
:104A20000490BB199A462B1999467F2B09D85346F7
:104A30003F2B06D8049B524640334946180018F0D5
:104A400001FDAB199B46621B3B19E11B02930192CE
:104A500000917F2B33D85B46002B6CDB3F2B00DCB7
:104A6000A2E07F294AD97F2A00D8CAE0731B3F2BD6
:104A700006D8059B180003930299721B18F0E2FCFC
:104A80004B467F2B09D8F31B3F2B06D8059B03937E
:104A900049460398F21B18F0D5FC4346002B1FDD56
:104AA0004246013D6B000133D31A9846AF42B8DD50
:104AB00007B0F0BCBB46B246A946A046F0BD7F2970
:104AC00016D97F2ADCD85346002B00DA88E03F2B2A
:104AD00000DCD8E0F31B00D49BE04346002BDFDC76
:104AE00001377B00013398444346002BD8DCDDE7D7
:104AF0005B46002B00DACFE03F2B2CDD7F2A35D838
:104B00005346002B00DAA7E03F2B00DCBBE0F31B91
:104B100000D4EEE0731BC0D43F2BBEDC049B009995
:104B200040331800721B039318F08CFC029B7F2B00
:104B3000A6D80398A0E77F2A20DD7F2996D8731B8B
:104B40003F2B9DDC049B721B40331800039318F02D
:104B500079FC039890E7049B403303935A460099ED
:104B6000039818F06FFC019B7F2B64D9731B00D551
:104B700086E7731B3F2B00DD82E7CFE75346002B10
:104B800064DB3F2B00DC7EE0F31B73D4F31B3F2B75
:104B900041DD009B7F2B71D8731B00D57DE7731B14
:104BA0003F2B00DD79E7B9E7049B5A4640331800F4
:104BB0000299039318F046FC009B7F2BCED9019BF2
:104BC0007F2B00D952E75346002B00DA9AE03F2BA7
:104BD0005CDDF31B00D549E73F2B4FDC03981EE05B
:104BE000F31B3F2B00DD58E7049B0199403318006D
:104BF000F21B039318F026FC4B467F2B00D94CE7A1
:104C000046E75346002B5EDB3F2B3CDDF31B00D514
:104C10002CE73F2B32DC049B4033180003930199AF
:104C2000F21B18F00FFC009B7F2B9FD9029B7F2B60
:104C300000D81BE7E0E75346002B50DB3F2B25DD78
:104C4000F31B00D566E73F2BA6DCC7E7F31B3F2B22
:104C5000E1DD7F298DD909E7F31B3F2B9CDC049B09
:104C6000019940331800F21B039318F0EBFB731B00
:104C7000C2D47EE7009B7F2B00D84BE7029B7F2BA3
:104C800000D8F3E609E7049B4033039352460199A9
:104C9000039818F0D7FB77E77F2A08DC5346002BF0
:104CA0002BDB3F2BEFDDF31B00D533E76EE7731BE8
:104CB0003F2B00DDE4E6049B009940331800721B93
:104CC00018F0C0FBDCE6F31B3F2B00DDCEE6049BB7
:104CD000019940331800F21B18F0B4FBC6E6F31B31
:104CE0003F2B00DD58E701990398F21B18F0AAFB4F
:104CF0003CE73F2B00DD4FE78DE7F31B3F2B00DD4B
:104D00004DE788E7F31B3F2B00DDAFE601990398E1
:104D1000F21B18F097FBA9E6F0B5DE4657464E4663
:104D200045463423E0B5C35C04008DB00D2B01D99A
:104D300000F033FCD34A9B00D3589F4608AB9946FA
:104D40000693D14B092608930023042006AF3B733A
:104D50000522CE4948440EF009F8069D00237E60E6
:104D6000AB552500069B403500220021280000930A
:104D7000012318F0E5FB0A230A22002128000093F2
:104D8000763318F073FB0CF035FC002900D1A2E259
:104D9000FA22002392000DF0DDFA82460023207CE7
:104DA0009846002804D06833E25C673B5A4090463E
:104DB0000022A37A02920393002B04D06932A65CEE
:104DC000683A56400296A17D227F002900D049E230
:104DD000002A00D13AE36B22A25C4346002A00D1AC
:104DE00064E3002B01D000F0E9FB029B002B01D013
:104DF00000F0EBFB039B09041B02034312060B4369
:104E00001343A366A24B04979846082343449B464A
:104E1000534602934B464746039405933E787C786D
:104E2000731E9946631E9A461A004946280018F0D8
:104E300009FB52463100280018F004FB731C984609
:104E400019005246280018F0FDFA220049462800B1
:104E500018F0F8FA22003100280018F0F3FA2200C6
:104E600041460134280018F0EDFA22004946280096
:104E700018F0E8FA22003100280018F0E3FA0237AF
:104E800022004146280018F0DDFA5F45C6D1029B9A
:104E9000039C9A46059B049F99468123E25C002A65
:104EA00006D08021625C0D2A00D9E7E2013262540B
:104EB0008323E25C002A06D08221625C0D2A00D99D
:104EC000DFE2013262548523E25C002A06D08421AD
:104ED000625C0D2A00D9D7E2013262548723E25C7A
:104EE000002A06D08621625C0D2A00D9CFE2013269
:104EF00062548923E25C002A06D08821625C0D2A74
:104F000000D9C7E2013262548B23E25C002A06D04A
:104F10008A21625C0D2A00D9BFE2013262548D23DE
:104F2000E25C002A06D08C21625C0D2A00D84FE298
:104F30000022E2548F23E25C002A06D08E21625CBC
:104F40000D2A00D847E20022E2548123E35C002BC3
:104F500000D029E28323E35C002B00D01CE28523F0
:104F6000E35C002B00D00FE28723E35C002B00D032
:104F700002E28923E35C002B00D0F5E18B23E35CA4
:104F8000002B00D0E8E18D23E35C002B00D0DBE1B7
:104F90008F23E35C002B00D0CEE13123E25C013BA8
:104FA000E35C002A00D19CE13A4E3178002900D11F
:104FB00002E2394909688846002B00D103E23748EC
:104FC00084460078002802D151463548016001200E
:104FD0004146307060460370002905D05046411AA2
:104FE00096204000814267D82D480168002905D0ED
:104FF0005046411A9620400081425DD82621615CCE
:10500000002900D0F5E12731615C00294CD128311D
:10501000615C002900D098E22931615C002900D050
:10502000C5E22A31615C002900D0F8E22C31615CD4
:10503000002900D009E32B31615C002900D011E385
:105040002D31615C002900D038E32E31615C0029EC
:1050500000D05BE32F31615C002900D059E3002BC5
:1050600000D059E3002A00D05CE33233E35C002B2C
:1050700000D054E33333E35C002B1DD0094B3131B6
:1050800014E0C04638DE06104D494449B8B4061055
:1050900094DE06107E620020444A00207D620020DB
:1050A000404A00201CB406103421D34B0093102238
:1050B0000123280018F044FA362336220021280064
:1050C00000934A3318F0D2F9CC4B280000933822D1
:1050D0000123002118F034FA0698484503D0B96836
:1050E00001310DF059FE0DB0F0BCBB46B246A946E9
:1050F000A046F0BD08AB99460693C14B06AF1A68AF
:105100000A2608924A461B790520137100237B73F7
:105110001EE608AB99460693BA4B4A4603CB03C238
:10512000198806AF11809B78102693700B237B6043
:105130000023FB740B3398461F200DF01DFE069BC9
:10514000424619009A4605000DF010FE434605221E
:10515000AD49E8180DF00AFECA4504D0B9685046BA
:1051600001310DF019FE1E230695BB60F6E508AB74
:1051700099460693A54BD0E708AB99460693A44BF6
:10518000CBE708AB99464A460693A24B06AF03CB42
:1051900003C200230D2608203B74D9E508AB9946CD
:1051A000494606939C4B06AF1A680C2608929A88CB
:1051B00007208A809B798B710023FB73C8E508ABBD
:1051C000994649460693954B06AF1A8808260A80E9
:1051D0009B7803208B700023FB72B9E508AB9946DE
:1051E0004A4606938E4B03CB03C21B7813700023F1
:1051F00006AF0E2609207B74AAE508AB99464A46FD
:105200000693884B03CB03C21B781370EFE708AB00
:1052100099464A460693844B06AF23CB23C21B888C
:10522000132613800E237B600023BB750E33984634
:1052300082E708AB99464A4606937C4B06AF03CB00
:1052400003C21B880F26138000230A20BB747FE54E
:1052500008AB99460693764B5FE708AB99460693F1
:10526000744B5AE76A26A65DB4460126B3466646E5
:105270005B465E4004964346002A43D06B22A25C04
:10528000002A3FD1002B00D09DE1029B002B00D0D3
:10529000ADE1002E0CD08922A25C002A00D110E2E0
:1052A0008B22A25C002A03D180268A327600A65285
:1052B00001228D26A65D002E00D1C1E18F26A65DBC
:1052C000002E00D096E5012680237600A6198C36A4
:1052D0005B0033808EE5FA2189000CF0FDFF8246E9
:1052E0005CE555490A60002B78D0544908780028BD
:1052F00000D0D5E0564652480660524E3270012624
:105300000E7072E6002B00D0F7E0029B002B00D05D
:105310001EE1049B002B00D16CE58926A65D002EC2
:1053200000D195E18B26A65D002E00D062E580239A
:105330008A365B00A3535DE58E2326226D21200073
:10534000E35CFFF759FB28E68C2326226D21200021
:10535000E35CFFF751FB1BE68A2326224E21200047
:10536000E35CFFF749FB0EE6882326224E2120004E
:10537000E35CFFF741FB01E6862326222F21200074
:10538000E35CFFF739FBF4E5842326222F2120007C
:10539000E35CFFF731FBE7E58223262210212000A2
:1053A000E35CFFF729FBDAE58023262210212000A9
:1053B000E35CFFF721FBCDE550461F49D04608606E
:1053C000002B00D0FBE51E4803601C488446FEE528
:1053D00001326254AEE501326254B6E518490B6001
:1053E00018490B7015490B702621615C002900D10A
:1053F00009E63A21144B59E6C4B30610C0B40610AE
:10540000B0B406105CB40610B8B4061068B4061048
:1054100074B4061080B406108CB4061094B4061050
:1054200098B40610A4B4061028B4061038B40610B8
:1054300044B4061050B40610444A00207D62002097
:10544000404A00207E62002024B406104346002B10
:1054500000D09EE0029B002B01D10022CAE48522ED
:10546000A25C002A00D123E18722A25C002AF4D1A9
:10547000802686327600A6520022BBE40022E25447
:1054800016E50022E2541EE50022E25426E5002241
:10549000E2542EE50022E25436E50022E2543EE5D5
:1054A000A648027001200870A5489EE5002B00D098
:1054B00080E0029B002B00D1FAE68522A25C002A44
:1054C00000D117E18722A35C0493002B00D0EFE604
:1054D00080268622049B7600A652002B00D1E7E6A8
:1054E000049A90468926A65D002E00D1B6E08B2650
:1054F000A65D002E13D1013644E000239846812397
:10550000E35C002B00D18DE08323E35C002B00D112
:1055100098E0029B002B07D1049B002BE2D143466D
:10552000002B00D166E4C4E68526A65D002E00D1DE
:1055300096E08726A65D002EEED101368023760008
:10554000A61984365B003380E6E734217D4BADE558
:105550008526A65D002E00D191E08726A35D9846A2
:10556000002B00D181E0049B002B00D142E489266E
:10557000A65D002E6CD08B26A35D8A3E9846002B3C
:1055800000D037E480237600A61988365B0033808C
:10559000C5E7002398460493B1E708AB9946069304
:1055A0003F2306AF062601203B81FFF7D1FB3121C7
:1055B000654B7BE5002342460493A0E70023424667
:1055C000049398469BE7424699E78522A35C002B0B
:1055D00000D194E00232A25C002A01D0FFF70AFC5D
:1055E000802686327600A6521A00FFF703FC852239
:1055F000A25C002A6AD08722A25C002A00D167E759
:10560000002E00D154E68922A25C002A59D08B26B4
:10561000A65D002E00D04BE690460136B2E7312160
:105620004A4B43E500239B465B465B009B46802339
:105630009C46A3448026E3445B4676001E8068E7D0
:10564000002641E601339B46EEE73121404B2DE534
:10565000802388265B00A353FFF7CCFB002691E74D
:1056600000266BE734213B4B20E50133FF33013E3D
:10567000A353049B002B01D1FFF7BCFB32E780232F
:1056800084265B009846A353049B002B01D1FFF7AF
:10569000B1FB0536A65D002E47D08B26A65D002EF9
:1056A00001D0FFF7A7FB43468A36A353FFF7A2FBBF
:1056B000802384265B00A353FFF79CFB3421264BF9
:1056C000F4E4802688227600A652F1E53300802695
:1056D00084227600A652002B00D1E9E50532A25CB7
:1056E000002A27D08B22A25C002A00D0E0E58A3273
:1056F000A652DDE5802684227600A652D8E58023D6
:1057000084225B00A352029AFFF774FB3D21134BE6
:10571000CCE43D21124BC9E43121124BC6E43421C3
:10572000114BC3E42E21114BC0E488264346A353FA
:10573000FFF760FB8822A652BAE5C0467E620020D1
:10574000404A0020CCB30610D4B30610DCB30610D8
:10575000E4B30610ECB30610F4B30610FCB3061065
:1057600000B4061004B4061014B406100CB40610ED
:10577000F0B5DE4657464E464546E0B5CB4BE3B066
:105780009C680290002C15D0362204331900825CEC
:1057900003E02100A468002C05D0237C9342F8D2BA
:1057A000E468002CF9D1C24B8A46994202D00B7CA6
:1057B000934206D963B0F0BCBB46B246A946A046A8
:1057C000F0BD0B7D062B5FD1029B403303930A256E
:1057D0007F230A2200210398009517F047FE5346C5
:1057E0001B7D062B00D169E1022B00D190E117AAA5
:1057F000100016000792002219A905911791426026
:105800000272042B00D12BE300D987E0012B00D8D2
:1058100026E33623029AD35C128F991F012900D800
:105820003BE10D2B00D138E1002A01D001F000FA54
:10583000A04B059A03CB03C2082373600023059C89
:1058400008220A21200033745AF028F9002801D1D7
:1058500001F0A6FA041B631C01D101F059FB2BAB2C
:10586000A04604932993082C01D908239846059F44
:105870004346012B01D101F084F829AD002B01D062
:1058800000F075FE049AB1E0534602989B694030DF
:105890000093002201230021039017F051FE53468C
:1058A0001B7D032B13D00FD9052B90D10BF0A2FE3B
:1058B00000292ED0FA22002392000CF04BFD082381
:1058C000029A5066137275E7022B00D17FE75346A8
:1058D0005D6B1B6BED1A1C2D00D878E7029B1A8FAD
:1058E000002A01D001F00FF8AD10EB005B1999010F
:1058F0005B18DB005B19D9035B18DB005B19DB432A
:105900009A4200D363E7022279210398FCF7EAFA6E
:105910005DE7FA2189000CF0DFFCD0E7052B01D010
:1059200000F0EBFF029B198F53461D6B586B401B19
:105930008010C3001B189A019B18DB001B18DA03A8
:105940009A18D20012185242914201D301F0CDFBB5
:10595000CB005B1A9B00ED18079B9D4201D100F024
:10596000CCFF6F680F2F01D900F0D6FF002F01D0B8
:1059700000F0BEFC059A00237760D3555346189A71
:105980001B7D9146179F042B01D100F00DFE002ACC
:1059900001D100F0B3FF0A2138005AF07FF8002847
:1059A00001D101F019F8C41B631C01D101F014F8F6
:1059B0002BABC84604932993A14500D9A046434682
:1059C0000F2B00D854E7002B01DA01F082FB581CA2
:1059D00001D500F096FF0DF0CFF9434629AD29908F
:1059E000AB60424639000DF0C1F9299A4346414661
:1059F0006B6000235354736801349C4201D901F059
:105A000077FB179F2FAA31AE3F1993462F961C1B89
:105A10000F2C01D900F0BFFF012C01D100F0B7FF1E
:105A2000002C01D000F0A6FD32005B465C60002334
:105A300013555B466A685F685100299B89180A2ADA
:105A400003D80A2F01D801F048F8802403984900B0
:105A50008046611A182249080093012317F070FD4F
:105A60007B00DB195B00E11A2F9B2022009340464C
:105A70000123490817F064FD2F98B04204D05B461B
:105A8000996801310DF088F92998049B98422AD031
:105A9000A96801310DF080F925E0002A01D000F05D
:105AA0002CFD054B059A03CB03C2C5E61C3C002028
:105AB000203C002088B5061070B50610029BDB6EF6
:105AC000002B00D038E217AA1100079219AA4B60E8
:105AD0000B72170040211792059202231C22039893
