:020000041000EA
:1000000000B5324B212058609868022188439860DF
:10001000D860186158612E4B002199600421596104
:100020000121F02299502B49196001219960352056
:1000300000F044F80222904214D00621196600F024
:1000400034F8196E01211966002018661A6600F04E
:100050002CF8196E196E196E052000F02FF8012189
:100060000842F9D1002199601B49196000215960AB
:100070001A491B48016001219960EB211966A021F2
:10008000196600F012F800219960164914480160C1
:100090000121996001BC002800D000471248134993
:1000A000086003C880F30888084703B5996A0420EC
:1000B0000142FBD001200142F8D103BD02B5186610
:1000C0001866FFF7F2FF186E186E02BD00000240BE
:1000D000000000180000070000035F00212200005C
:1000E000F4000018222000A00001001008ED00E03C
:1000F000000000000000000000000000070B8FD58A
:1001000000200420F7010010CB010010CD010010E9
:10011000C9010010C9010010C9010010C901001077
:10012000C9010010C9010010C9010010CF01001061
:10013000C9010010C9010010D1010010D301001045
:10014000C1010010C1010010C1010010C101001067
:10015000C1010010C1010010C1010010C101001057
:10016000C1010010C1010010C1010010C101001047
:10017000C1010010C1010010C1010010C101001037
:10018000C1010010C1010010C1010010C101001027
:10019000C1010010C1010010C1010010C101001017
:1001A000C1010010C1010010C1010010C101001007
:1001B000C1010010C1010010C1010010C1010010F7
:1001C000EFF30580103800BE00BE00BE00BE00BECA
:1001D00000BE00BEF2EB8871CCED0710ECED07100D
:1001E0003802001090A31AE71E481F49086006C88D
:1001F00081F3088810471D480068002801D019487D
:10020000F3E70DA40ECC002902D000F012F8F9E7B4
:100210001749184A002000E001C19142FCD116495B
:100220008847164988471649884700BEFDE701C937
:1002300001C29A42FBD37047ECED0710C0000020CA
:100240001836002044230810000004200000042079
:1002500044230810001004200010042000000000B7
:10026000704700000000000008ED00E0000000D032
:1002700018360020A4620020392F01101506001046
:10028000F92E0110F8B5C04606480749091A8B1027
:10029000C90FC91810B5491003D0044B002B00D06A
:1002A000984710BD183600201836002000000000C6
:1002B000054B10B5002B03D00449054800E000BFF2
:1002C000FFF7E2FF10BDC04600000000845F002081
:1002D000709606107047C0467047C04600B58DB096
:1002E000029011201C220021684411F0B7F801236C
:1002F0006A460D20137302A90422684411F0B4F871
:1003000003A902480FF054FD0DB000BDFC3C0020D5
:1003100010B5034B010018000FF04AFD10BDC04698
:100320006C3F0020F0B5DE4657464E464546E0B5E8
:10033000974CA54413F0BEFC032108200FF01EFECD
:10034000032109200FF01AFE0022012108200FF0DE
:100350002FFE0022012109200FF02AFE8D498E4830
:1003600013F0B8FA8D4925A801F0F4FD8C4934A8A2
:1003700007F0E0FA8B49C8A802F020F90CA80BF0AE
:1003800013FD80220021520047A811F067F83422A3
:10039000002118A811F062F80FAD0822002108A86A
:1003A00011F05CF821220021280011F057F80023F9
:1003B0007D4807A906AE338007930FF0A3FD079988
:1003C000C8A802F075F9082200210AA811F046F821
:1003D000764B774F9B46774B87AC9A46764B994640
:1003E000764B0493764B0193764B0293764B0593B1
:1003F000764B0393764B984618A925A801F02AFB63
:10040000380021A90FF0D4FC002800D1ADE018A9D4
:1004100058460FF005FD50460AA90FF001FD0028CF
:1004200000D09DE0290048460FF0FAFC002809D0D2
:100430002B78052B06D8049A9B00D3589F46C8A852
:1004400002F048F9019808A90FF0EAFC002842D10F
:10045000310002980FF0E4FC002846D1079B002BE6
:100460000DD09722D2009B58002B08D00A2B06D81B
:10047000059A9B00D3589F46C8A802F02FF903980D
:1004800047A90FF0CDFC00280CD0200047AA0CA9EA
:100490000BF0C6FC002140460FF0C2FC2100404694
:1004A0000FF086FC18A934A807F074FA18A9C8A898
:1004B00002F0EAF834A807F083FAC8A805F062FB56
:1004C0009AE7697834A807F063FA019808A90FF051
:1004D000A7FC0028BCD008A9C8A802F0E3F83100A6
:1004E00002980FF09DFC0028B8D03100C8A802F097
:1004F000E7F83378002BB1D0C8A802F007F9ADE7D0
:10050000697834A807F042FA9CE7C8A802F0DEF840
:1005100098E76B78002B36D0012B93D16B882100A4
:1005200023802B7934A8A37007F03AFA8AE7697818
:10053000C8A802F0AFF885E7C8A802F0D3F89EE794
:10054000C8A802F0DFF89AE7C8A802F0D7F896E743
:10055000C8A802F0CFF892E7C8A802F0C7F88EE763
:100560000AA9C8A802F0A6F85CE70E220021200024
:1005700010F074FF210038000FF052FC380021A960
:100580000FF016FC43E7A978C8A802F087F859E7EE
:1005900024F9FFFF40420F006825002014C7061011
:1005A00000C70610F8C606107C3F00205C3D002006
:1005B0008C3F0020D43D0020FC3C002070960610AB
:1005C000F43D0020E43D0020889606106C3F00209A
:1005D0009C3F002010B50400064B08000C349942E3
:1005E00005D035F049FD431E9841404204402000AB
:1005F00010BDC0465CC70610882110B50400490034
:1006000010F048FF200010BD882110B5490010F0FF
:1006100041FF10BDF0B5DE4657464E464546E0B5B3
:10062000F54C0127A5440EF0AFFEF44A030021214A
:1006300010000A9201220FF0A9FB0EF0A5FEF04A6D
:10064000030008211000169201220FF09FFB0EF00C
:100650009BFEEC4A0300242110000E9201220FF0B1
:1006600095FB0EF091FEE84A030093460E21082206
:1006700058460FF08BFB0EF087FEE44E030001227C
:10068000022130000FF082FB0EF07EFE8021E04C54
:1006900003000122200049000FF078FB0EF074FEE9
:1006A0008021DC4A0300490010000F9201220FF064
:1006B0006DFB0EF069FED84A03000421100005927C
:1006C00001220FF063FB0EF05FFED44A0300082105
:1006D00010001A9201220FF059FB12F0C1FD28AA56
:1006E000B2239446DB0063441800CD4905F0F0FBCB
:1006F000002399469E244A46640028AB1B191A80A1
:10070000082398463F32FF3228AB9B1842461A70A6
:10071000402228ABFF32BC3C9B181C70013228AB36
:100720009B1842221C70FF3228AB9B181C700132B0
:1007300028AB9B18133A0021FF3A79A81C8010F0CF
:100740008DFEA22228AB52009B181F70063228ABE8
:100750009B184C221C70FF3228AB9B181C70013276
:1007600028AB9B184E221C70FF3228AB9B181C70C4
:100770002523BC344C3A28A90919FF3ACA5428A9A0
:1007800009190133ED32CA5428A909190133DD3A98
:10079000CA54B421A34B490028AA521813802E230F
:1007A000772228A90919CA5428A909190233373A06
:1007B000CA546E2128AAFF31313B521813700131FF
:1007C00028AA521870211770FF3128AA52181370E6
:1007D000013128AA521872211770FF3128AA521825
:1007E0001370B92228AB52009B181F707C2028ABD5
:1007F0009C46393AFF300021FF3A604410F02EFE4B
:10080000BC21894B4900859328AA884B5218138034
:1008100041463E2328AA1219D1541B2228A909199E
:100820001933CA540133CF54B62028AB9C46FF304D
:1008300020220021604410F011FE28ABD6209C46F7
:10084000FF3014220021604410F008FE9A23784AF9
:1008500028A90919CA52EA2028AB9C46FF306044F7
:100860000822002110F0FAFDB82328A90919A7AA27
:10087000CA500A00494600250433D15028AA12194B
:100880000433D55428AA10331219D55454AD342248
:10089000280010F0E3FD3AAB0E2200211800984624
:1008A00010F0DCFD8820400010F0E4FD614B0400F6
:1008B00003600C239C4684446346476087601800AD
:1008C0001F0008930BF002FBECAA92466368EC97BA
:1008D000013363605460110061A82E9709F0F6F9A6
:1008E00053465C68002C06D06368013B6360002BB4
:1008F00001D100F0E8FF802200215200ACA810F0E6
:10090000ADFD4D480378002B01D001F015F828AA61
:10091000B2239446DB0063442DA905982D930FF074
:10092000B9FA464813F09AF9002352460021138081
:1009300030000FF075FA514630000FF039FA089C7C
:1009400020000BF087FC08F029F93D4808F0DAF99F
:1009500020000BF07FFC38AB0600210018000BF0E4
:10096000A3FC20000BF0C4FC1E2801D800F083FF7C
:100970001E239946402228AB9B181988314C0B1C2A
:10098000A14201D800F06EFF231C402128AA521872
:100990001380422228AB9B1819882A4A0B1C9142CB
:1009A00001D800F057FF131C422128AA52181380C7
:1009B000442228AB9B181988224A0B1C914201D86B
:1009C00000F040FF131C442128AA5218138046222D
:1009D00028AB9B1819881B4A0B1C914201D800F0C8
:1009E00029FF131C462128AA52181380484501D11B
:1009F00000F0B1FF28E0C046CCF2FFFFFC3C002035
:100A0000F43D00205C3D00208C3F0020E43D0020B0
:100A10006C3F00209C3F00207C3F0020D43D002004
:100A200030C7061012F8FFFF020180808080FFFFB0
:100A300014080000E4C60610A021002025030010C1
:100A4000DD020010DC0500004BAB059342AB2193A7
:100A50003EAC089F494638000BF03CFC380038A9F2
:100A60000BF0FAFB21220021504610F0F7FC534610
:100A70005E700A9E514630000FF00CFA28A884469A
:100A8000E04B002163442022180010F0E7FC52469E
:100A90000223089F137038000BF018FC5346514690
:100AA000587030000FF0F6F928A88446D54B002185
:100AB00063442022180010F0D1FC52460323380072
:100AC00013700BF005FC53465146587030000FF080
:100AD000E1F928AAB2239446DB0063444946180092
:100AE00006F002FA28AAB2239446DB0063441800F9
:100AF00038A906F0FBF900231E931D931C93239342
:100B000025930C9309930D93BF4B00261293BF4B73
:100B10005F461393BE4B1793BE4B1593BE4B189372
:100B2000BE4B1993BE4B1B93BE4B1F93BE4B2093E2
:100B3000BE4B2293BE4B2493BE4B2793BE4B0796CE
:100B40002893BE4B26002993BD4B2693BD4B2A9379
:100B5000BD4B2B9330AB994608980BF07BFBB2232F
:100B60000200834628A88446DB006344290018005D
:100B700006F054FE0E220021300010F06FFC04E05D
:100B80000E223100404610F06FFC310038000FF0AB
:100B900047F90028F4D142465DAB13CA13C312884B
:100BA00061A81A800AF028F8002800D04EE1B2218E
:100BB0009722C90028ABD2005B189B581A00511E1F
:100BC0008A41D2B20692002B00D112E12923EB5CBC
:100BD0001093002B04D0129B1A7801235A401092D4
:100BE0002A23EC5C00231193002C04D0139B1A7869
:100BF00001235A4011920FF07BF8002900D16EE1D9
:100C0000FA22002392000FF023FF14902923129A56
:100C1000EB5C13700B932A23139AEB5C13700C9B01
:100C2000002B05D1109B002B00D01CE300230B935D
:100C3000002C00D140E11799159A0B681278002B0F
:100C400000D08BE1149B0B60002A00D138E1079B98
:100C5000002B00D06FE10B9B0C93099B002B30D035
:100C6000B221972228ABC900D2005B189B580B9A7F
:100C70000C92002B00D02AE361A809F007F961A8C3
:100C800009F0B6F928A884465E4B2022634400216F
:100C9000180010F0E3FB04235246514613700A98E3
:100CA0000FF0F8F8059861A909F0AAFF169C002139
:100CB00020000FF0B5F8200005990FF079F8002317
:100CC00009932A00059B13CA13C313CA13C313CA7B
:100CD00013C35B46033BDBB2012B00D8CDE00023FE
:100CE0000D9361A809F088FF30230790EC5C0EF0AB
:100CF000FFFF002900D125E2FA22002392000FF025
:100D0000A7FE002C00D124E2189A19991378013318
:100D1000DBB213700A68022B00D8ADE2002A00D0C3
:100D2000ADE21B9B08601A702E23EC5C0EF0E0FF16
:100D3000002900D11AE2FA22002392000FF088FE67
:100D4000002C00D119E21F9A209913780133DBB2ED
:100D500013700A68022B01D800F081FC002A01D030
:100D600000F081FC229B08601A7061A809F044FF22
:100D7000002800D10DE261A809F03EFF002800D054
:100D800042E2079B002B00D069E25B460D2B00D1AD
:100D9000ABE034222900504610F066FB61A809F050
:100DA0002BFF002809D024220021504610F056FBCA
:100DB0000E220021F5A810F051FB52465B46484632
:100DC00077A908F069FC4B4603CB07F069FF07F0F1
:100DD00059FF05990E980EF0EBFF0F98ACA90FF094
:100DE0001FF8002802D0ACA807F054FB069B07931D
:100DF000B2E6079B002B00D03EE7099B002B00D0FA
:100E00003AE75EE711030000936200209062002041
:100E1000444A002091620020976200205C4A002032
:100E20009862002099620020604A00209A620020A7
:100E300092620020B4960610C8960610E896061036
:100E4000484A0020F4960610F89606105046089975
:100E50000BF02AFA28AAB2239446DB006344180058
:100E6000514606F043F81A9C002120000EF0D8FFEE
:100E7000514620000EF09CFF99E661A809F0BCFEE7
:100E8000002800D02BE70EF033FF002901D100F03D
:100E9000DFFBFA22002392000FF0DAFD04000D9B25
:100EA000002B07D0A34AE31A934201D800F0B6FC06
:100EB00007F0F8F80D9414E7179B1C60159B1C7045
:100EC000119B002B52D1079B002B34D1099B002B87
:100ED00000D0C5E60B9B0C9300230993F1E6FA21A1
:100EE00089000FF077FD149090E600200CF0E0FCF4
:100EF000002800D14DE7219C0122210000200CF0A8
:100F0000E1FC249A23781278BB2B01D100F0FAFB84
:100F1000BC2B01D100F066FC002A01D000F0F4FBEC
:100F2000AA2B02D0AD2B00D033E7012224990A70FE
:100F3000269A13702DE7B221972228ABC900D20060
:100F40005B189B58072B00D1BDE1099A002A00D0FD
:100F50008DE6002BBED10B9B0C938DE61499CB1A1A
:100F6000B32B00D870E6002A00D070E60123159A52
:100F7000137028AAB2239446DB006344180006F0DD
:100F8000B5F828A884466C4B202263440021180041
:100F900010F064FA05235246514613700A980EF079
:100FA00079FF079B002B95D0B221972228ABC9006F
:100FB000D2005B189B58072BCBD128AAB2239446AA
:100FC000DB006344180006F06FFC28AAB2239446A5
:100FD000DB006344190008980BF03EF9B221574B2F
:100FE00028AAC9005218D4580EF082FE002900D158
:100FF0006AE3FA22002392000FF02AFD28A9A92211
:101000008C462100089C12015B466244009020003F
:101010000BF074F920000BF0EBF920000BF01AF93B
:1010200036AB0C90210018000BF03EF920000BF0BD
:101030005FF91E2800D8A4E11E2428AB198F404A6E
:101040000B1C914200D893E1131C099228AA138724
:101050003B49528F131C8A4200D883E10B1C28AAFB
:1010600053873749928F131C8A4200D874E10B1CB6
:1010700028AA93873249D28F131C8A4200D82BE1C9
:101080000B1C28AAD3872E9B0793A04200D12FE1E7
:10109000210007980BF01EF9079836A90BF0DCF831
:1010A00021220021504610F0D9F953460C9A51469E
:1010B0000A985A700EF0EEFE28A884461E4B0021B6
:1010C00063442022180010F0C9F952460223079801
:1010D00013700BF0FBF85346514658700A980EF007
:1010E000D9FE28A88446144B00216344202218000E
:1010F00010F0B4F952460323079813700BF0E8F888
:101100005346514658700A980EF0C4FE28AAB223DE
:101110009446DB0063442100180005F0E5FE28AA90
:10112000B2239446DB006344180036A905F0DEFEC6
:1011300096E5C0469F68060011030000FC0400000D
:10114000DC050000FA2189000FF044FC002C00D0DF
:10115000DAE5189B1C70199B1C601B9B1C702E23CE
:10116000EC5C0EF0C5FD002900D0E4E5FA21890011
:101170000FF030FC002C00D0E5E51F9B61A81C702F
:10118000209B1C60229B1C7009F036FD002800D0BB
:10119000F1E52E23EB5C0B932F23EB5C10932423C0
:1011A000EC5C002C09D10133EC5C002C05D101333F
:1011B000EC5C002C01D10133EC5C0EF099FD0029B0
:1011C00000D11FE1FA22002392000FF041FC0B9B9B
:1011D000002B00D0DBE0109B002B00D124E31D9BF3
:1011E000002B00D051E31E9B002B00D064E3239022
:1011F00000231E93109B61A81D9300231C9309F0EC
:10120000FBFC002800D1BCE55DA961A809F0BAF992
:1012100061A809F00BFD041E00D038E261A809F0B6
:10122000EBFC002800D1F2E0504661A909F0E8FC8F
:10123000169C002120000EF0F3FD514620000EF018
:10124000B7FD24220021280010F008F90E22002109
:101250005DA810F003F9079B002B00D195E561A86C
:1012600009F0CAFC91E528AAB2239446DB00634446
:10127000180005F0A9FED9E4002A00D154E51B9915
:101280000B78002B00D04FE5801AB34A904200D86B
:101290004AE501220A70189A1370199A136061A81E
:1012A00008F0FAFF28A88446AC4B202263440021B2
:1012B000180010F0D3F80423524651460A981370D0
:1012C0000EF0E8FD51E5099B002B00D175E60B9B64
:1012D0000C9301230993F4E492B20A2A00D3D0E6D6
:1012E0000A2328AAD3872E9B0793A04200D0CFE6DB
:1012F000504608990AF0D8FF5346099A1B88934232
:1013000000D0C5E628AB5B8F0899059809930AF0D1
:10131000CBFF0599099A4B88934200D0B8E628ABD9
:101320009B8F0899219809930AF0BEFF2199099A89
:101330008B88934200D0ABE628ABDB8F089938A8A6
:1013400009930AF0B1FF462028A909180B88099AC9
:10135000934200D09CE6A3E692B20A2A00D387E625
:101360000A2385E692B20A2A00D378E60A2376E6B3
:101370008AB209920A2A00D368E60A220A2309924D
:1013800064E684B2002C00D057E6013455E61C9B7D
:10139000002B00D19DE1109B002B00D12EE31D9B63
:1013A000002B00D0A4E11E9B2390002B00D0A3E1D2
:1013B000002C00D073E2259A002A00D175E223990F
:1013C000002900D101E38B1A914200D2531AC82B95
:1013D00000D96AE261A808F059FD28A884465F4B4D
:1013E000202263440021180010F038F804235246EC
:1013F000514613700A980EF04DFD0B9B1E931D93E2
:101400001C93B8E4FA2189000FF0E4FADFE60898AB
:101410000AF0EEFF28A884466923634420220021B5
:10142000180010F01BF80523219A0A981100137078
:101430000EF030FD2E9C20000AF00CFF21001190D0
:1014400032A80AF031FF20000AF052FF1E2800D80F
:1014500088E01E230B9328AB198D414A0B1C914247
:1014600000D88DE0131C109228AA13853C49528D98
:10147000131C8A4200D893E00B1C28AA53853849D4
:10148000928D131C8A4200D897E00B1C28AA9385E2
:101490003349D28D131C8A4200D89BE00B1C28AA2A
:1014A000D3850B9B984200D19FE020000B990AF056
:1014B00011FF200032A90AF0CFFE21220021504660
:1014C0000FF0CCFF5346119A51465A700A980EF00D
:1014D000E1FC28A88446214B002163442022180007
:1014E0000FF0BCFF52460223200013700AF0EEFEFC
:1014F0005346514658700A980EF0CCFC28A88446F2
:10150000164B00216344202218000FF0A7FF52461B
:101510000323200013700AF0DBFE53465146587037
:101520000A980EF0B7FC28AAB2239446DB00634465
:1015300018000B9905F0D8FC28AAB2239446DB00CA
:101540006344180032A905F0D1FC00231E931D93BB
:101550001C932393259374E6871300001103000066
:10156000DC05000083B20B93002B00D073E701333E
:101570000B9328AB198DDC4A0B1C914200D971E703
:101580008AB210920A2A00D36EE70A220A23109226
:1015900028AA1385D449528D131C8A4200D96BE7BF
:1015A00092B20A2A00D368E70A2328AA5385CE49B3
:1015B000928D131C8A4200D967E792B20A2A00D39F
:1015C00064E70A2328AA9385C749D28D131C8A424F
:1015D00000D963E792B20A2A00D360E70A2328AA57
:1015E000D3850B9B984200D05FE7210050460AF05C
:1015F0005BFE5346109A1B88934200D055E728ABF8
:101600005B8D210038A810930AF04EFE422028A9D5
:1016100009180B88109A934200D046E728AB9B8D9F
:10162000210036A810930AF03FFE28A98B8F109A4C
:10163000934200D039E7CB8D34A8210010930AF0F3
:1016400033FE28A9CB8E109A934200D02DE734E7C1
:10165000FA2189000FF0BEF90400FFF720FC002AF0
:1016600001D1FFF782FB22990B78002B01D0FFF705
:101670007CFB801AFA22D200904201D2FFF775FB60
:1016800001220A701F9A1370209A136007E628AA95
:10169000B2239446DB006344180005F02DFC61A8DA
:1016A00008F01EFC28A88446904B202263440021A9
:1016B00018000FF0D3FE0523524651460A981370C6
:1016C0000EF0E8FB0C94A9E5FA2189000FF082F9ED
:1016D00094E4109B002B00D0A4E01E9B2590002BCF
:1016E0000AD100231E931D930B9B1C93FFF743FB12
:1016F0001E9B002B00D15BE6109B1D930B9B1C9344
:10170000FFF739FB002A47D02498269C511CC9B208
:101710000170A3540A2901D0FFF73BFB002303709B
:10172000637A552B01D0FFF734FBA37862781B0254
:10173000134352465BBA13802379E2781B021343AA
:1017400052465BBA9380A37962791B0213435246D7
:101750005BBA5380237AE2791B02134352465BBA89
:10176000D38028AAB2239446DB0063441800514674
:1017700005F0BCFB2378AA2B00D12DE1AD2B01D0C5
:10178000FFF707FB05222B9900200CF019F9002028
:101790000CF0DCF8FFF7FDFAB2225549D20028AB75
:1017A0009B1828AA5218128852491B88029228AA0C
:1017B000521812885049019228AA521812882021E2
:1017C00000925046279A11F0D3FA50465CF052FD31
:1017D0005146020000200CF0F3F800200CF0B6F89F
:1017E000FFF7D7FA002A8FD108980AF0FFFD037897
:1017F0000400002B00D087E0B221A02328AAC90052
:10180000DB005218D35C002B78D15346299A03CAC7
:1018100003C31188198092789A70D6E70D9C0D94B5
:10182000FFF75FFA2590BAE500231E931D931C93E2
:10183000FFF7A1FA8AB20A2A01D3FFF7D3F80A23E5
:10184000FFF7D0F88AB20A2A01D3FFF7BCF80A23BF
:10185000FFF7B9F88AB20A2A01D3FFF7A5F80A23DD
:10186000FFF7A2F88CB20A2C01D3FFF78EF80A23F7
:101870000A24FFF78AF883B29946002B01D0FFF7BC
:1018800079F801339946FFF775F81E9B002B00D1BC
:10189000AEE41E9B1D9300231C93FFF76CFA0023FC
:1018A0001D941E931C94FFF766FA00231E930B9B56
:1018B0001D931C93FFF75FFA00231C931E9B23903C
:1018C0001D93FFF758FA236820009B689847A36888
:1018D000013BA3604B4501D0FFF70DF823682000C2
:1018E000DB689847FFF707F8DC05000011030000EC
:1018F000960500009205000094050000A92328AA7F
:1019000094461B0163441C0008980AF055FD07909B
:1019100008980AF069FD0B9008980AF059FDA0217B
:101920000B9B02900193079B50460093289A23003B
:10193000890011F01DFA48E78C21334C49004158C9
:1019400000948A246400314B314A0059013106F079
:101950003FFBFEF7DCFF504608990AF0A5FC534612
:101960001B88A34201D0FFF76FF8422228AB9B18D7
:101970001C884BAB1F001800089905930AF094FCD3
:101980007B88A34201D0FFF761F8442228AB9B1863
:101990001F8842AB1C001800089921930AF084FCB0
:1019A000A3883EACBB4201D0FFF753F8462228ABD8
:1019B0009B18200008991F880AF076FCE388BB4238
:1019C00001D0FFF746F8FFF74DF8239B1E930B9BC2
:1019D0001D931C93FFF7CFF9089C514620000AF095
:1019E0003BFC20000AF004FD03222A9900200BF0A2
:1019F000E7FF00200BF0AAFFFFF7CBF91E9B002B9F
:101A000000D079E66DE6C04611030010B121002038
:101A1000A1210020D0231B065868C0437047C04650
:101A20007047C0467047C04610B504301AF0E8F958
:101A300010BDC04610B504000C210FF02BFD200096
:101A400010BDC04610B5040004210FF023FD200096
:101A500010BDC046F8B54E464546DE465746E0B591
:101A60000700806B3D0003680E009B6898472023A9
:101A7000FC6A243581469846AC4213D128E0FA220C
:101A8000002392000EF0E4FFE3695B44834203D835
:101A900043465246E254E06120001AF021FE040061
:101AA000A84215D04A46A36913405A1E9341DAB2A0
:101AB00092464246A25C9A42EED0BB7B9B460EF019
:101AC00017F90029DBD1FA2189000EF083FFDBE74B
:101AD000BB6A1A1E00D16FE111009268002AFBD187
:101AE0008D4200D168E10A7C002A00D064E12032F6
:101AF0008A5C2800914624224946B1541A0003E02A
:101B000010009268002A05D0117C0029F8D1D26813
:101B1000002AF9D1854200D14EE1027C012A00D988
:101B20004AE12022815C0532B1542C001A0003E006
:101B300014009268002A05D0107C0128F8D8D268D9
:101B4000002AF9D1A54200D136E1227C022A00D92F
:101B500032E12022A25C904626224046B054280062
:101B60001A0003E010009268002A05D0147C022CB1
:101B7000F8D8D268002AF9D1854200D11CE1027C54
:101B8000032A00D918E12022825C9446272260466D
:101B9000B05428001A0003E010009268002A05D013
:101BA000147C032CF8D8D268002AF9D1854200D1E0
:101BB00002E1027C042A00D9FEE02022805C083287
:101BC000B05428001A0003E010009268002A05D0E3
:101BD000147C042CF8D8D268002AF9D1854200D1AF
:101BE000EAE0027C052A00D9E6E02022805C093286
:101BF000B05428001A0003E010009268002A05D0B3
:101C0000147C052CF8D8D268002AF9D1854200D17D
:101C1000D2E0027C062A00D9CEE02022805C0A3283
:101C2000B05428001A0003E010009268002A05D082
:101C3000147C062CF8D8D268002AF9D1854200D14C
:101C4000BAE0027C072A00D9B6E02022805C0B3281
:101C5000B05428001A0003E010009268002A05D052
:101C6000147C072CF8D8D268002AF9D1854200D11B
:101C7000A2E0027C082A00D99EE02022805C0C327F
:101C8000B05428001A0003E010009268002A05D022
:101C9000147C082CF8D8D268002AF9D1854200D1EA
:101CA0008AE0027C092A00D986E02022805C0D327D
:101CB000B05428001A0003E010009268002A05D0F2
:101CC000147C092CF8D8D268002AF9D1854200D1B9
:101CD00072E0027C0A2A6FD82022805C0E32B05457
:101CE00028001A0003E010009268002A05D0147C36
:101CF0000A2CF8D8D268002AF9D185425CD0027C3F
:101D00000B2A59D82022805C0F32B05428001A00C8
:101D100003E010009268002A05D0147C0B2CF8D840
:101D2000D268002AF9D1854246D0027C0C2A43D8D9
:101D30002022805C1032B054280003E018009B6819
:101D4000002B05D01A7C0C2AF8D8DB68002BF9D1BF
:101D5000854231D0027C0D2A2ED82022855C11329A
:101D6000B5544A46002A18D101233B774346002B3D
:101D700007D103237B77F0BCBB46B246A946A046F9
:101D8000F8BD6346002B14D07B7F032B01D0022BC0
:101D9000F1D100222433F254EDE7002907D03A7F35
:101DA000012A01D0002AE1D12432B354DEE7397789
:101DB000DCE702237B77DEE7014827F0D7FBC0464C
:101DC00000970610F0B5D6464F464646C0B51E00F1
:101DD0000700242015008A460FF04CFB01233278BF
:101DE0002D78934002758361202200230574C3611E
:101DF00083543B1D040056469946534547D0337CD7
:101E00009D4228D2FB689A46B34268D030001AF04F
:101E100097FC037CAB425FD3BB689846002B05D18F
:101E20008DE09B680121002B08D0984643461A7C20
:101E30009542F6D3DB680021002BF6D146460029F7
:101E400000D075E0954217D9B14548D0337C9D420A
:101E5000AD41684244E09D420FD93B695345F3D000
:101E600030001AF03DFC037CAB4248D9F368002BEC
:101E7000ECD00600012033E04646242120000FF07C
:101E800009FB3000E0BCBA46B146A846F0BD7B690C
:101E9000002B2FD1BB689846002B05D14DE09B68E5
:101EA0000121002B08D0984643461A7C9542F6D370
:101EB000DB680021002BF6D146460029C2D0FB6822
:101EC00046464345C0D040461AF03AFC027C46469E
:101ED00080469542B8D8CFE7C368002B2BD00120AD
:101EE0004B46320021001AF047FC7B692600013383
:101EF0007B61C6E73E69337CAB42A5D3CAE7BB68CA
:101F00009846002B05D120E001219B68002B07D0CB
:101F1000984643461A7C9542F6D30021DB68F5E7E4
:101F20004646002900D18DE7FB689E42CBD18BE766
:101F3000C245C8D188E7060086E7D046BFE7C84655
:101F4000D145C0D14E460120CAE7FB68C846994535
:101F5000B9D1F7E7F0B5CE46474603000C0080B58F
:101F6000060083B00F0007CC07C32200A14613CAA6
:101F700013C3126835001A609C4B2422B3830023DC
:101F8000B3546A46B362D3717363B3632033984624
:101F90002435B0443B00290007324046F5623563E2
:101FA000FFF710FF6A460123D371B26A2900002AA5
:101FB00011D0130003E019009B68002B05D0187C9A
:101FC0000028F8D1DB68002BF9D18D4203D00B7CBF
:101FD000012B00D852E16A467B1C07324046FFF7CE
:101FE000F1FE02236946B26ACB71002A00D1E4E116
:101FF0001400290003E011009268002A05D0137C28
:10200000012BF8D8D268002AF9D18D4200D1D5E150
:102010000B7C022B00D9D1E16A460323D371220045
:10202000290003E02100A468002C05D0237C022BAA
:10203000F8D8E468002CF9D18D4200D1AFE10B7CD7
:10204000032B00D9ABE104236946CB7113002900AF
:1020500003E011009268002A05D0107C0328F8D80C
:10206000D268002AF9D18D4200D189E10A7C042A84
:1020700000D985E105226946CA711A00290003E0EA
:1020800019009B68002B05D0187C0428F8D8DB6861
:10209000002BF9D18D4200D163E10B7C052B00D9D7
:1020A0005FE106236946CB711300290003E01100AC
:1020B0009268002A05D0107C0528F8D8D268002A3A
:1020C000F9D18D4200D13DE10A7C062A00D939E1DF
:1020D00007226946CA711A00290003E019009B68AB
:1020E000002B05D0187C0628F8D8DB68002BF9D126
:1020F0008D4200D117E10B7C072B00D913E1082397
:102100006946CB711300290003E011009268002A90
:1021100005D0107C0728F8D8D268002AF9D18D4262
:1021200000D1F0E00A7C082A00D9ECE009226946D7
:10213000CA711A00290003E019009B68002B05D022
:10214000187C0828F8D8DB68002BF9D18D4200D123
:10215000C9E00B7C092B00D9C5E00A236946CB7185
:102160001300290003E011009268002A05D0107CBA
:102170000928F8D8D268002AF9D18D4200D1A2E00E
:102180000A7C0A2A00D99EE00B226946CA711A000D
:10219000290003E019009B68002B05D0187C0A2851
:1021A000F8D8DB68002BF9D18D4200D17BE00B7CA5
:1021B0000B2B00D977E00C236946CB711300290063
:1021C00003E011009268002A05D0107C0B28F8D893
:1021D000D268002AF9D18D4256D00A7C0C2A53D8F5
:1021E0000D226946CA71290006E0C04601030000BD
:1021F00019009B68002B05D01A7C0C2AF8D8DB68E4
:10220000002BF9D18D4202D00B7C0D2B06D93B005F
:102210006A4640460D330732FFF7D4FD337E002B6C
:1022200000D0D9E004200FF025F97A4BF46A8146FA
:102230000360A54214D00123D02798463F06207D95
:102240000DF0DEFE4346207D002283400121BB626B
:102250000DF0AEFE20001AF05BFA04008542EED1CC
:102260004B46B06BB363002802D003685B689847A5
:10227000300003B0C0BCB946B046F0BD0223694689
:102280001400CB71B5E629006A464B46073240463A
:10229000FFF798FD0D226946B36ACA71002BA2D1DF
:1022A0002900B4E729003B006A460B330732404659
:1022B000FFF788FD0C236946B26ACB71002AE2D091
:1022C00013007CE729003B006A460A330732404688
:1022D000FFF778FD0B226946B36ACA71002BE1D083
:1022E0001A0055E729003B006A4609330732404689
:1022F000FFF768FD0A236946B26ACB71002AE1D074
:1023000013002EE729003B006A4608330732404697
:10231000FFF758FD09226946B36ACA71002BE1D064
:102320001A0007E729006A46FB1D07324046FFF7FF
:1023300049FD08236946B26ACB71002AE2D0130036
:10234000E1E629006A46BB1D07324046FFF73AFD29
:1023500007226946B36ACA71002BE3D01A00BBE6B4
:1023600029006A467B1D07324046FFF72BFD0623F6
:102370006946B26ACB71002AE3D0130095E62900C2
:102380006A463B1D07324046FFF71CFD05226946A1
:10239000B36ACA71002BE3D01A006FE629006A46BF
:1023A000FB1C07324046FFF70DFD04236946B26A65
:1023B000CB71002AE3D0130049E629006A46BB1C12
:1023C00007324046FFF7FEFC03236A46B46AD37126
:1023D000002CE3D0220023E60C200FF04BF8040081
:1023E00005000D4B326908C4317D200019F0C2FC94
:1023F00020000A4919F0D0FC2000084919F0DCFC43
:102400002000064919F0EAFCB06BB563002800D043
:102410002BE72DE76CC7061080C70610FFFF0000F2
:10242000F0B5D6464F464646C0B50E0015000F1D06
:102430003900040019F084FBF31C98466B1C994684
:102440001A004146200019F07BFB39004A46200063
:1024500019F076FBB31C9A46AB1C99461A005146FC
:10246000200019F06DFB41464A46200019F068FB38
:1024700039004A46200019F063FBEB1C99461A000C
:102480002000711C19F05CFB4A465146200019F0EF
:1024900057FB4A46414620002E1D19F051FB4A4683
:1024A0003900200019F04CFB51463200200019F091
:1024B00047FB41463200200019F042FB3900320050
:1024C00020006E1D19F03CFB32004146200019F03F
:1024D00037FB32003900200019F032FB3900AA1D09
:1024E000200019F02DFBE0BCBA46B146A846F0BD6D
:1024F000F8B5CE464746160080B504000D0019F029
:102500001FFB731C98466F1C1A002900200019F04D
:1025100017FB39004246200019F012FBB31C984605
:102520001A002900200019F00BFB39004246200058
:1025300019F006FBAB1C424619002000994619F021
:10254000FFFAF31C98461A002900200019F0F8FA47
:1025500039004246200019F0F3FA4946424620006D
:1025600019F0EEFAE91C4246200019F0E9FA331D91
:1025700098461A002900200019F0E2FA3900424674
:10258000200019F0DDFA49464246200019F0D8FA39
:10259000731D98461A002900200019F0D1FA42460E
:1025A0003900200019F0CCFA2900B21D200019F0E2
:1025B000C7FAC0BCB946B046F8BDC04670B5030006
:1025C000040082B0002505C905C320002422002193
:1025D00025720C300EF042FF20000E220021303018
:1025E0000EF03CFF260040230D222000E252002185
:1025F000053A42304C360EF031FF1C2200213000EB
:102600000EF02CFFA5660DF073FB002935D0FA22E1
:10261000002392000EF01CFA0025E066200008223C
:10262000002125676567A5677C300EF017FF8423BE
:102630000022E552303BE254226823798021009247
:102640003000402219F0D2F9300019F071FA8623D7
:10265000E5520233E5500433E5500433094AE550AE
:102660000433E5522300A1180022A9331A70143351
:102670008B42FBD1200002B070BDFA2189000EF020
:10268000A9F9C9E7C903000010B532220C300EF0D9
:10269000EBFE10BD4023C1547047C0464123C154D6
:1026A0007047C04610B5072242300EF0DDFE10BD67
:1026B0008167704710B508227C300EF0D5FE10BD42
:1026C00010B5022284300EF0CFFE10BD012303723C
:1026D0007047C046022303727047C046032303724B
:1026E0007047C046042303727047C0460523037237
:1026F0007047C046062303727047C0460723037223
:102700007047C046082303727047C046092303720E
:102710007047C046F0B5C64600B582B004000DF063
:10272000E7FA002933D0FA22002392000EF090F944
:10273000E36EC01A624B984209D8FA210EF04AF9AA
:10274000C00700D4A7E002B080BCB846F0BD5D4B26
:10275000984221D95C4B9842F5D85C4B4C34200010
:1027600000930C220123252119F068FA584B200010
:1027700000931A220223042119F060FA554B3022EB
:1027800000932B210123200019F058FADBE7FA21EE
:1027900089000EF01FF9CBE74F4B4C349C46604448
:1027A0000EF055FD4D490EF0EEFC011C051C0EF01F
:1027B000E7FC011C4A480EF0E0FC291C061C281C02
:1027C0000EF0F5FC011C301C0EF0F1FC45490EF03A
:1027D000EEFC0EF063FD80263C4B311A0093200086
:1027E00001230C2219F02AFA3F49281C0EF01EFD85
:1027F00000285BD03C49281C0EF0BFFC3B490EF082
:10280000C2FC011C071C0EF0BBFC011C34480EF07E
:10281000B4FC391C8046381C0EF0C9FC011C404633
:102820000EF0C5FC32490EF0C2FC0EF037FD284B0D
:10283000311A0093200002231A2219F0FFF92D49C2
:10284000281C0EF0F3FC002838D02A49281C0EF072
:1028500094FC29490EF097FC011C051C0EF090FC1D
:10286000011C1F480EF089FC291C071C281C0EF0B7
:102870009EFC011C381C0EF09AFC20490EF097FCBF
:102880000EF00CFD311A134B30220093200001236F
:1028900019F0D4F957E720000221194B1C220093AC
:1028A0004C300223494219F0C9F94CE7084B1A226F
:1028B000009380210223200019F0C0F98021E2E773
:1028C000B70B000093110000571B0000149706106F
:1028D000209706102C97061048F4FFFF0080BB4499
:1028E000000040400000B642CDCC4C3ECDCC4C3F29
:1028F0000000F842CDCCCC3E9A99193F0000AA4284
:1029000008970610F0B5DE4657464E464546362334
:10291000E0B5A7B00C00362200214C3000934933BB
:10292000039019F021F908AB9B460AAB0893D64BEC
:1029300006A91A680A926A469B8893855A46062316
:1029400053600023937310AA0E92D04A0A85022284
:102950000F920A002A21521813702378062B01D9EE
:1029600000F057FCCA4A9B00D3589F4616AB02930F
:102970001493012304930023089A14AD1AAC2B720C
:10298000069223721CAA6B6002330626100098463A
:102990001A9205920222BF490EF066FD1A9B9946D3
:1029A00043464A4663604146002353546368984651
:1029B0004246B94B9B1AB34201D200F044FC1A982C
:1029C000059B9719984200D173E3A3689F4200D9F1
:1029D00056E24044012E01D100F0F6FB3200069988
:1029E0000EF042FD1A9B99464A4600236760D35574
:1029F0001A9B9A46636899466B6898464246A64B6E
:102A00009B1A994501D900F01EFC4E46149F029B6B
:102A100046449F4200D159E3AB689E4200D9FBE295
:102A20004B46002B09D038004044012B00D1D2E3A3
:102A30004A4651460EF018FD149F00236E60BB55A8
:102A40001A98059B984203D0A16801310EF022FD2F
:102A50006C68914B9C4201D100F0F5FB149B029AEB
:102A6000661C934200D18AE3AA68964200D900E32B
:102A700020221A55149F00236E60BB5519E0874B26
:102A800010AA934200D3D3E1854B10AA10930423DC
:102A90000F93002313715B465E680123049316AB0A
:102AA00002931493002314AD2B726B60002E00D0A0
:102AB0001AE20E9B0F9E059322AB2093002320ACBD
:102AC00023726360B31C9A460F2B00D8BEE0002B24
:102AD00000DAA5E31D2B00D8C4E1F01C00D54FE1BE
:102AE0000EF0C8FC209B6768814698467A1C002F30
:102AF00000D14DE2002A00D0ACE1A168404601318E
:102B00000EF0C8FC4B46209353466768A360624BA7
:102B1000DB1B012B00D896E3BB1C9846534500D91C
:102B2000C4E03800484402225E490EF09DFC209B20
:102B3000994643464A4663604146002353546368BE
:102B400099464A46544B9B1A9E4200D97BE3B046B5
:102B5000209F22ABC8449F4200D1FEE1A368984564
:102B600000D9CDE0002E09D038004844012E00D114
:102B70007CE1320005990EF077FC209F43464246E7
:102B800063600023BB54209B9A46636898466B6839
:102B900099464A46404B9B1A984500D953E347460D
:102BA000149E029B4F449E4200D1E4E1AB689F42D9
:102BB00000D9DBE04346002B09D030004844012B0C
:102BC00000D158E1424651460EF04EFC149E0023BF
:102BD0006F60F355209822AB984203D0A168013171
:102BE0000EF058FC6A6853009B18049A5B00002A98
:102BF00030D16E240021E41A6410149B123403981F
:102C0000009338220123611819F018F81498029BD8
:102C1000984203D0A96801310EF03CFC0E9810AB2D
:102C2000984203D0109901310EF034FC08980AAB99
:102C3000984204D05B46996801310EF02BFC27B016
:102C4000F0BCBB46B246A946A046F0BD022322A86E
:102C5000984668E75024039EE41A64102100382245
:102C60003000FFF7DDFBE11D38223000FFF740FCAC
:102C700021000D4B0F31009338220123300018F052
:102C8000DDFF0C341221B8E7349706104F4B0000DB
:102C90008CC7061074970610FFFFFF7F849C0610F8
:102CA00053617665789706107C9706104346002B93
:102CB00000DAB5E253465B000693984500D311E273
:102CC000002B5DDB581C0EF0D5FB209B81469A46FD
:102CD0003A00514648460EF0C7FB38000222C94967
:102CE00048440EF0C1FB22AB9A4504D0A16850467F
:102CF00001310EF0CFFB4B462093069BA36018E7F3
:102D00004246002A00DA8BE25B000693984500D227
:102D100001E24346581C33D406930EF0ABFB209BD4
:102D200007009A464B46002B06D0012B00D143E208
:102D30004A4651460EF098FB059B002B0AD0002E08
:102D400008D04B46F818012E00D149E2320005990F
:102D50000EF08AFB22AB9A4504D0A168504601319F
:102D60000EF098FB069B2097A36007E7002F00DA80
:102D700056E25B0006939F4204D2581C002B04DAF3
:102D800026F094FB781CFBD406970EF073FB149B83
:102D9000060005934B46002B06D0012B00D10FE215
:102DA0004A4605990EF060FB5346002B0CD0434673
:102DB000002B09D04B46F0184346012B00D113E2FB
:102DC000424651460EF050FB0598029B984203D0B4
:102DD000A96801310EF05EFB069B1496AB60F6E627
:102DE000894B10AA934206D306A92A228C46624434
:102DF000934200D817E21A682E2110929B8806AAE7
:102E0000938506230F930023521813705B465A686C
:102E10000AA97E4B994203D88818834200D815E24C
:102E200000235A4653600B7000235668049336E61D
:102E300006A92A228C466244934200D924E6002245
:102E400001920432009210A9023A0EA834F02EF931
:102E50000E9A1CE619000EF007FB22AB984500D035
:102E60004BE69CE01E231F209A4639E6059B1B7803
:102E70000370209F82E653461B780370149EA6E6DB
:102E8000002F00DACCE15B0007939F4200D264E19F
:102E9000781C00D574E707970EF0ECFA1A9B814670
:102EA0009A464346002B06D0012B00D1A0E14246B2
:102EB00051460EF0D9FA069B002B08D040464844F4
:102EC000012E00D158E1190032000EF0CDFA059B19
:102ED0009A4504D0A168504601310EF0DBFA4B460A
:102EE0001A93079BA3607FE5089A1AAC0692237297
:102EF0001CAA6360B31C9A4605921A920F2B00D845
:102F000082E1002B00DA8BE11D2B00D808E1F01CD8
:102F100000D535E70EF0AEFA1A9B676881469846F1
:102F20007A1C002F00D13BE1002A00D0E5E0A16827
:102F3000404601310EF0AEFA4B461A93534667688D
:102F4000A360334BDB1B012B00D87CE1BB1C9846F4
:102F50009A452BD3380048441CE543460F2B00D834
:102F600000E6002B00DA5BE11D2B00D9D1E61E2321
:102F70001F200693D1E60F2F00D81BE6002F00DAA2
:102F80004EE11D2F00D9FDE61E231F200693FCE60F
:102F90001B78037022AB984500D0AEE500274B4666
:102FA00020935346A360BB1C9846BAE54346002BCA
:102FB00000DA35E153465B000793984500D2C2E042
:102FC000F81C00D5DCE60EF055FA1A9B81469A46AD
:102FD000434607933A00514648460EF045FA3800FA
:102FE00002220C4948440EF03FFA059B9A4504D052
:102FF000A168504601310EF04DFA4B461A93079BDB
:10300000A360CDE4789706103C97061000A6061042
:10301000FFFFFF7F74970610002E00DA00E15B00CF
:1030200007939E4200D29DE0701C00D5A8E607964B
:103030000EF020FA149B070006934346002B06D09F
:10304000012B00D1D8E0424606990EF00DFA534606
:10305000002B02D04B46002B66D10698029B98426B
:1030600003D0A96801310EF015FA079B1497AB60E5
:10307000E3E4002E00DAD3E0530098469E4276D374
:10308000A01C00D57CE6B0460EF0F4F9149B0700B6
:103090009946002C52D120233B55029B994504D0E0
:1030A000A968484601310EF0F5F943461497AB6024
:1030B000E1E40F2F00D88CE4002F00DAB0E01D2FE0
:1030C00000D9E5E61E231F200793E5E60F2E00D862
:1030D000A6E4002E00DAA3E01D2EA5D81E231F2093
:1030E0000793A5E7F81C00D54AE60EF0C3F9209B2C
:1030F00081469A4643460693EAE519000EF0B4F974
:10310000059B984500D012E74B461A935346A3609F
:10311000BB1C98461EE7581C002B00DA30E6FCE585
:103120001E231F209A46F5E64346F8184B46012B0E
:1031300066D04A4651460EF097F98EE7012C29D108
:103140001B780370A7E7002B00DA19E6581C0EF075
:1031500091F91A9B81469A463CE7581C002B00DAED
:103160000EE699E6581C002B00DA09E660E7581CC9
:10317000002B00DA04E687E71B780370A7E6102E21
:1031800000D075E41F200EF075F9149B07009946D6
:103190001E2398462200494638000EF065F97AE76A
:1031A0001B780370059B984500D0C0E65346A3608A
:1031B00002231A909846CDE653461B780370BBE570
:1031C000059B1B780370EFE5069B1B7803701A9B29
:1031D0009946FFF709FC53461B780370149F2CE4B3
:1031E000059B1B780370B5E553461B780370EBE530
:1031F00053461B7803705EE6069B1B78037026E738
:1032000053461B78037028E7022305989846FFF77A
:10321000C1FB16AB0293149300230493FFF7ABFB9F
:103220000E4826F08BF900240625022210A90194ED
:1032300000950EA833F03AFF0E9B0F959C715B46EC
:1032400008995A68E5E5064826F078F900200190CB
:103250000090584633F02AFF0899E1E5449706109C
:103260005C970610F0B5DE4657464E464546E0B53B
:10327000C94BE3B09C680390002C14D04222191D66
:10328000825C03E02100A468002C05D0237C9342DB
:10329000F8D2E468002CF9D1C04B0291994202D0D7
:1032A0000B7C934206D963B0F0BCBB46B246A9463C
:1032B000A046F0BD0B7D062B60D1039B4C330493DD
:1032C0000A230A22009300217533049818F04CFC5D
:1032D000029B1B7D062B00D166E1022B00D18DE104
:1032E00017AA100017000892002219A90691179139
:1032F00042600272042B00D120E300D988E0012B48
:1033000000D81BE3422344220399CB5C8A5A991FBD
:10331000012900D838E10D2B00D135E1002A01D078
:1033200000F043FF9E4B069A03CB03C208237B6049
:103330000023069C08220A2120003B745AF05CFFFF
:10334000002801D100F08EFF041B631C01D100F0A6
:10335000B6FF2BABA14609932993082C01D908236A
:103360009946069E4B46012B01D100F01EFE29AD69
:10337000002B01D000F026FC099AAFE00D008B690C
:10338000039800934C30012300220021049018F090
:1033900055FC2B7D032B13D00FD9052B90D10CF0AE
:1033A000A7FC00292FD0FA22002392000DF050FB39
:1033B0000A23039A1067137275E7022B00D17FE787
:1033C000029B5D6B1B6BED1A1C2D00D878E7442621
:1033D000039B9A5B002A01D000F0AAFDAD10EB0020
:1033E0005B1999015B18DB005B19D9035B18DB00E3
:1033F0005B19DB439A4200D362E7022279210498E9
:10340000FFF776F85CE7FA2189000DF0E3FACFE7E1
:10341000052B01D000F086FD4423039AD15A029B6C
:103420001D6B586B401B8010C3001B189A019B1822
:10343000DB001B18DA039A18D2001218524291428C
:1034400001D300F075FFCB005B1A9B00ED18089BC1
:103450009D4201D100F066FD6E680F2E01D900F08B
:1034600070FD002E00D080E3069A00237E60935505
:10347000029B189A1B7D9146179E042B00D1A3E353
:10348000002A01D100F04FFD0A2130005AF0B4FEAD
:10349000002801D100F0B4FD841B631C01D100F0B1
:1034A000AFFD2BAB09932993A14500D9A1464B460B
:1034B0000F2B00D856E7002B01DA00F044FF581C10
:1034C00001D500F033FD0DF0D5FF4B4629AD299015
:1034D000AB604A4631000DF0C7FF299A4B4649467A
:1034E0006B60002353547B6801349C4201D900F087
:1034F00025FF179F2FAA31AE3F1993462F961C1B0D
:103500000F2C01D900F05BFD012C01D100F053FD1F
:10351000002C00D04FE332005B465C600023135563
:103520005B466A685F685100299B89180A2A03D89C
:103530000A2F01D800F09FFD80240498490080469E
:10354000611A182249080093012318F077FB7B00C9
:10355000DB195B00E11A2F9B2022009340460123D8
:10356000490818F06BFB2F98B04204D05B4699686D
:1035700001310DF08FFF2998099B984229D0A96845
:1035800001310DF087FF24E0002A00D0F6E2054B60
:10359000069A03CB03C2C9E6143C0020183C002065
:1035A0003C98061024980610039B9B6F002B00D0BC
:1035B00033E217AA1100089219AA4B600B72160089
:1035C00040211792069202231C220498009618F0BC
:1035D00035FB1798069B984204D0089B99680131E7
:1035E0000DF058FF029A137D043B012B00D85AE6D8
:1035F000143211000398FFF785F954E64423039A27
:10360000D45A092C01D800F070FE632C00D8BDE21A
:10361000FA239B009C4201D200F06EFDC34B9C42FA
:1036200001D800F09EFD0DAB99460B9300230C933F
:1036300005339A4604260BAD2D232B722FAB1800B1
:10364000C922BB499B460DF00FFFB84BAE199846F7
:1036500053463700AA460593200064210DF0BAF9BD
:1036600020004E0064210DF0B5F95B469B195B7894
:1036700025003B725B469B5D0400FB71023F4545A4
:10368000EAD8059B2F0055469A46FA239B009F4295
:1036900000D388E23034E4B25346002251466B60D6
:1036A0000B9B2C725A546C68A24B9C4201D100F0C7
:1036B00050FE0B9F661C4F4501D100F090FDAB689A
:1036C0009E4201D900F0F0FC9B4B9F4204D83A196E
:1036D000934201D800F040FE002C08D0012C01D10B
:1036E00000F0CCFD22003900781C57F01FFB282386
:1036F0003B700B9F00236E609A46BB5513AB9846F8
:1037000011930B9B6E6811AC4B4501D100F053FD3A
:1037100049460B915146AA686960297285491193FF
:10372000A26066608E4201D100F010FE771C434516
:1037300001D100F04DFD974201D900F0E8FC2922AB
:103740009A55119B9B4600235A466760D355119AA0
:103750001DAB05931FAB66681D93424501D100F078
:103760006AFD0599A3680C001D928B600B9866603A
:10377000484505D0A96801310DF08CFE66681D9A98
:10378000802173009B195B00C91A0092012311224A
:103790000498490818F052FA029B9F8F23AB994670
:1037A00025AB23934A460793012353602F333C00F4
:1037B0001381092F01D800F090FD632F00D8DFE3BB
:1037C000FA239B009F4201D200F0E1FC574B9F423D
:1037D00001D800F0D1FC2BAB2993099300230426D8
:1037E0002A93053329AD06932D232B722FAB180096
:1037F000C9224F499B460DF037FE4C4BA8469A46CE
:10380000AE190897200064210DF0E4F820004F0065
:1038100064210DF0DFF85B46DB195B78250033721D
:103820005B46DB5D0400F371023E5545EAD8434632
:10383000A8461D00FA23089F9B00984500D3ACE3DF
:103840003034E4B200222C720699299B69605A54E4
:10385000049E239B0221300000931D32012318F0A7
:10386000EDF980216A68300053009B185B00C91A8B
:10387000299B1D220093012318F0E0F927232F2410
:103880002722022130000093573318F06DF97E2370
:103890002F2202213000009418F066F9022327221B
:1038A00002213000009418F05FF97E2327227E2148
:1038B0003000009418F058F9002F1BD04423039ACD
:1038C0003900D35A1801C01AC0000DF05BF8002867
:1038D00010D02926A846049D071D0424210032008B
:1038E0002800013418F02CF9BC42F7D101362D2EF6
:1038F000F3D145462998099B984203D0A968013124
:103900000DF0C8FD2398079B984204D04B46996858
:1039100001310DF0BFFD1D981FAB984200D161E64B
:10392000059B996801310DF0B5FD5BE60F2700009E
:10393000C0980610FFFFFF7FD4970610442203991A
:10394000895A029A156B506B401B8010C2001218E6
:1039500096019219D2001218D6039219D2001218A9
:103960005242914201D300F0E3FCCA00521A920085
:10397000AD18BD4200D06FE5042B00D0D2E223ABDE
:10398000994625AB23934A460793002300259A4680
:1039900053601372059301335A00D318DB001800EB
:1039A00098460DF067FD83465D442800239B079AE7
:1039B00008302860934201D100F087FC2B604B4611
:1039C0009B68AB604B465E68079B4A462393002387
:1039D0006E6053601372A24501D100F074FC43463F
:1039E000270026005D46A0460837099309E02B60B2
:1039F000B368AB6018366C6018371835B24500D123
:103A000012E328003368083074682860BB42EED1A6
:103A10003900621C0DF028FDECE77C23039A049C1E
:103A2000D35A200099467E23D75A0233D358002117
:103A30009A464423D35C00229846E04B29AD00937C
:103A4000012318F0FBF8092320000922002100932C
:103A5000763318F089F8DA4B2A00190051C951C29F
:103A60000968103311602FAA934613CB13C21B6849
:103A7000002413604A461DAB1F805A8005935346AD
:103A80001E9323AB99467F239A46CE4F5A46A300F6
:103A90002E68D35804980E22B11F0093012318F00A
:103AA000CDF8059A6300D35A08213A0048460FF032
:103AB0005FF948465AF0DEFB8100411A8919CA4372
:103AC0004300D2171B185B0011405A187F2A01DDF2
:103AD0005246D11A4B46182200930498012318F03D
:103AE000ADF8A0452ED001340435042CCED12523C9
:103AF000049C00932000252200215A3318F034F84A
:103B0000B14B200000932A220123042118F096F8DB
:103B1000AE4B200000932A220123482118F08EF892
:103B2000AB4B2000009336220123042118F086F8C5
:103B3000A84B362200934C210123200018F07EF878
:103B4000FFF7B1FB33000B337F2B1DDC31000B394A
:103B5000CA43D2171140212204980092013418F070
:103B600003F80435042C91D1C1E7069B29689846D7
:103B7000012E00D0FDE10B783B7275E4964B069A5E
:103B800003CB03C2FFF7D2FB7F23DFE70DAB0B9321
:103B900099462FAB1800C92290499B460DF064FC52
:103BA00002239A460BAD5B4664001B195B786B726F
:103BB0005B461C5D70E53000220039000DF054FCBE
:103BC0002F9AA9E4099884E4002A00D1D7E60023BB
:103BD00000259B46B24605934B465E1B53465F1934
:103BE00032000A2138005AF007FB002800D113E107
:103BF0005346C31A9A46013300D10DE11DAB9946D5
:103C00001FAB1D9353465D1BB54200D935000F2DE8
:103C100000D9B6E0012D00D1BFE0002D21D14B46E7
:103C20005D6000231FAA5355059B9C4226D04A463F
:103C300020001D9B556808301FAA2060934200D1C8
:103C40006BE123604B469B68A36065605546189BFB
:103C50000135994618349D4200D389E0179B9A4656
:103C6000BAE71FA82A0039000DF0FEFB4B461D9A4B
:103C70005D6000235355059B9C42D8D15B46E51AF5
:103C8000EA1093009B1819015B1819025B181904BC
:103C90005B185B009B18524A934200D14BE3012210
:103CA000002B00D0A4E04E4B9A4200D91A005300DA
:103CB0009B18DB00180007930DF0DCFB80464544A1
:103CC00028001D9B08301FAA2860934200D190E174
:103CD0002B604B469B68AB604B465E681FAB1D93E9
:103CE0004A4600236E60536013725C4500D199E12F
:103CF0005F465E464546083728000830286033682E
:103D00007268BB424DD02B60B3681836AB606A60F6
:103D100018371835B442EFD15B46183CE21A314BE4
:103D2000D2085343DB00DB0801335C00E418E400F5
:103D300044445B461834002B00D1F4E25A46059BFC
:103D40005846991A0DF0A6FB079B1D98434405930E
:103D50001FAB984204D04B46996801310DF09AFB95
:103D6000C3465546189B013599469D4200D275E7DA
:103D70009D4200D8CCE24B462A001B491B4825F047
:103D80000DFC002D00DADEE2681C00D5CEE00DF05F
:103D900071FB4B461D909D6064E74A463B78137269
:103DA0003DE7390001320DF05FFB736818366B6038
:103DB00018371835B4429FD1AEE7C0468097061039
:103DC0007CC8061090970610949706109C970610D2
:103DD000A4970610B097061030980610C0980610E9
:103DE00055555505ABAAAA0A709806108898061072
:103DF0005A00934200D856E7DC480DF03BFB804662
:103E0000454428001D9B08301FAA2860934200D11A
:103E10001AE2D64A07925BE7B046A945ABD323AB7B
:103E2000994625AB3500079323930F2E00D8D1E098
:103E3000002E00DA87E2701C78D40DF01BFB4B4695
:103E400023909E60424639000DF00EFB239B4344B5
:103E50004A46556000221A70059BA34200D1CDE16D
:103E60004A4620005568239B079A083020609342F9
:103E700000D1EEE123604B469B68A3606560183477
:103E800027005B46FA1AD21093009B1819015B18A1
:103E900019025B1819045B185B00994691444B4664
:103EA0003625DB00ED1A6D100A35BB452DD0802379
:103EB0009846049BBA465C464F460026994663687E
:103EC0002A005900C91843464900591A2368484630
:103ED000009349080123013617F0B0FE1834083565
:103EE000BE42ECD357465C46230020680833984214
:103EF00003D0A16801310DF0CDFA1834A742F3D1F7
:103F00005B46002B01D1FFF764FB5A46059B5846E0
:103F1000991A0DF0BFFAFFF75CFB6A1C1FA90DF0A0
:103F2000A3FA92E6069E4021FFF74DFB25F0BEFA6C
:103F300002226E210498FEF773FA039B9A5BFFF747
:103F40004DFA002E00DAFEE11D2E4ED81E231F2052
:103F500099460DF08FFA069B80461798984203D039
:103F6000B96801310DF096FA434617934B46BB6092
:103F70002968320040460DF077FA179AFFF775FA74
:103F80002BAB099329932FAB1800C92278499B4684
:103F90000DF06AFA022329AD06935B4664001B19F3
:103FA0005B786B725B461C5D4CE4337829AD099AF3
:103FB0002B72FFF793FA3B781372FFF7ACFA002CE1
:103FC00000DAC0E1601CB1D40DF054FA5B462F90CA
:103FD0009C60F1E5012E00D040E14A463B78137227
:103FE00008AA75239446634432E7701C9ED4B146F8
:103FF000AFE74B465E68721C1FA90DF035FA6DE6FF
:104000004B460A2B00D830E180215B004B445B001B
:10401000C91A1C22012304984908009617F00EFEC5
:10402000FFF7D7FA444684E652464446099B183ABD
:104030009846121B4F4BD2085343DB00DB08013379
:104040005F00FF18FF005F441837002C00D166E1C5
:10405000059B2000191B0DF01DFA43465B44059398
:104060002398079B984200D10BE74B469968013192
:104070000DF010FA05E78024049889008046611A43
:10408000009314220223490817F0D8FD7B00DB19A6
:104090009B00E11A2F9B24220093404602234908EB
:1040A00017F0CCFDFFF75FFA002E00DA4BE15B0062
:1040B00098469E426FD2581C002B00DA36E70DF06E
:1040C000D9F9282303700B9B07009A46002C07D0D0
:1040D000012C00D1F0E022005146781C0DF0C4F90B
:1040E000CA4504D0A968504601310DF0D3F94346C2
:1040F0000B97AB60FFF7FEFA032302269A460DAB3F
:1041000099460B9300230BAD0C93FFF795FA002F04
:1041100000DA18E15200974242D2002A00DA05E79D
:10412000501C059717000DF0A5F9119B83469A4680
:10413000002E06D0012E00D1BBE0320019000DF098
:1041400093F929235A469355C24504D0A168504695
:1041500001310DF09FF95B46A7601193059FFFF7B2
:10416000F2FA042303269A46C9E7C046F8FFFF7F08
:10417000C0980610ABAAAA0A0423032606932BAB09
:1041800009932993002329AD2A93FFF72DFB0323DD
:1041900002260693F3E7A01C00D5C7E6B0468EE7DB
:1041A000B01C00D5C2E60597BDE7714B069A03CB5C
:1041B00003C2FFF7BBF8771C3A00494640460DF0B2
:1041C00053F94B460B9353466B602B724346666024
:1041D000102F01D0FFF7B3FA1F201E22A1E7102EE7
:1041E00001D0FFF771FA1F200DF044F92823037066
:1041F0000B9B07009A461E2398466CE75A469D1A69
:10420000EA1093009B1819015B1819025B18190436
:104210005B185B009B18574A934200D18BE0012248
:10422000002B2FD11300534A934200D91300A2460A
:104230005C46FFF7B1FB721C414618000DF014F903
:10424000059C1FAAFFF792FA4B465E684A4B0793FC
:10425000D1E611006A1C0DF007F90FE6002E55D0CB
:104260000798EFE50823260099464B4680215B001E
:104270004B449B00C91A4908FFF7A5F93B787B70AE
:10428000FFF735FA5A009342CCD93B480DF0F2F8CB
:10429000451902002800239B0799083028608B42AB
:1042A0002BD05C4605999346334A8A469046FFF7E1
:1042B00085FB1B78037044E71B78437010E70823E5
:1042C000069E9946D1E75F46BEE64B4611005E6802
:1042D000721C0DF0C9F8FFF777FB2BAB09932993FC
:1042E000012329AD0693FFF7ABFA0DAB99460B936B
:1042F00001230BAD9A46FFF7CDF94B465E68059B4F
:104300005C469A461C4B93469846E1E7079B9FE51F
:1043100025AB23AA002591462393079398E54346AE
:104320005B440593ADE5079BC3464344059318E5FD
:10433000124825F033F9124825F000F922001149FE
:10434000114825F02BF9114825F0F8F8104825F010
:10435000F5F8104825F0F2F8012239000092280003
:104360000022019432F0A2FE0B9FFFF7C3F9C04672
:104370004898061055555505F8FFFF7FD897061049
:1043800054980610709806108898061044970610E6
:104390005C970610B8970610F0B505002E4B89B053
:1043A0004C3504000022002128000093012317F05F
:1043B00045FC0A23852600930A2276330021280033
:1043C00017F0D2FBA35D112B2DD8244B0A2112220A
:1043D00028000093012317F031FCA25D204B9200CE
:1043E000D758380059F046FF802143001B189B0026
:1043F000C91A1E22022328004910009717F01EFC3C
:104400001221A35D03AC174A013300912000023151
:104410000EF0AEFC0123382200212800009417F092
:104420000DFC09B0F0BD104B2800009312220223AE
:10443000282117F003FC0D4B280000932A220123AA
:104440000E2117F0FBFB0A4B382200930A210123AF
:10445000280017F0F3FBE4E78C990610D0990610BA
:104460000CC80610E89906109C990610A49906102D
:10447000BC990610F0B5DE4657464E464546E0B5B7
:1044800095B004000BF034FC002900D1A4E0FA221E
:10449000002392000CF0DCFA236FC01A4223E35C85
:1044A000132B00D1A3E0E04B3027984200D842E123
:1044B000DE4B4C340822009307210123200017F023
:1044C000BDFB0023012208AE0AAD08959846737221
:1044D000D74B37727260AB4200D334E12A00B77415
:1044E00003CB03C21B8813800023F37410AB9A46DE
:1044F0000E930EAB99460C22290050460CF0B4FFE7
:104500000B234A46536000230895736033721E23C1
:104510001F209B460CF0AEFF07000E9B0B221900DC
:1045200098460CF0A1FF38000822C2490B300CF06D
:104530009BFFD04505D04B469968404601310CF0B1
:10454000A9FF4B465A460E979A6013234A4653607A
:104550000023FB740E9A04AB984602AF02935245B7
:1045600000D150E14B469B680292BB601323089830
:104570007B60A84200D144E1B16801310CF08AFFB0
:104580007968029A4B005B1880215B00C91A2000F1
:10459000012349080092182217F050FBA64B28224D
:1045A000042120000093012317F048FBA34B2000B7
:1045B000009334220123012117F040FB029840456B
:1045C00003D0B96801310CF065FF15B0F0BCBB46F3
:1045D000B246A946A046F0BDFA2189000CF0FAF9CE
:1045E000236FC01A4223E35C132B00D05BE78E4B92
:1045F0003027984206D8FA2189000CF0EBF93527CC
:104600003F1AFFB28E4B4C34042200930721012342
:10461000200017F013FB0023012208AE0AAD089515
:1046200098467372874B37727260AB4200D3B9E021
:104630002A00377583CB83C20023737510AB9A466B
:104640000E930EAB99460E22290050460CF00CFF3B
:104650000D234A46536000230895736033721E236E
:104660001F209B460CF006FF07000E9B0D22190031
:1046700098460CF0F9FE3800032273490D300CF017
:10468000F3FED04505D04B469968404601310CF009
:1046900001FF4B465A460E979A6010234A465360D4
:1046A00000233B740E9A04AB984602AF0293524526
:1046B00000D1B1E04B469B680292BB601023089882
:1046C0007B60A84200D1A5E0B16801310CF0E2FEA8
:1046D0007968029A4B005B1880215B00C91A2000A0
:1046E000012349080092102217F0A8FA1A231A226F
:1046F0000A21200000935B3317F036FA534B202237
:10470000072120000093012317F098FA504B2A222A
:104710000A2120000093012317F090FA4D4B20004E
:10472000009334220123072117F088FA02984045AC
:1047300000D046E749E7FA2189000CF04BF935270C
:104740003F1AFFB2B4E6292169448B4200D9C5E67D
:1047500001920932300000922900424632F0A6FC54
:1047600043460B2208987260C3720EAB994610AB99
:104770009A460E93A84200D1BDE649460E904A6083
:104780004246B36808958B6072603272504500D122
:10479000BDE6122B6AD9082226490B300CF064FEC4
:1047A0000E9FD2E6292169448B4200D940E701924D
:1047B0000B32300000922900424632F077FC43462B
:1047C0000D220898726043730EAB994610AB9A465F
:1047D0000E93A84200D136E749460E904A60424601
:1047E000B36808958B6072603272504500D136E72D
:1047F0000F2B31D9032214490D300CF035FE0E9FDA
:104800004BE71321BEE61422514618000CF02CFE93
:104810004246ABE610215DE71122514618000CF02C
:1048200023FE42464AE7C04687130000509A06100E
:10483000649A0610709A06107C9A0610949A0610D4
:10484000F0990610049A0610609A0610149A061041
:10485000289A06103C9A06105B009B46581C102BA9
:1048600000D9FFE6102311209B46FBE65B009B4628
:10487000581C132B00D94DE6132314209B4649E600
:1048800030B5836F8BB0002B53D09722D2009B584A
:104890004C300400092B00D181E00A2B00D1AAE0A2
:1048A000022B48D0644B002222210093012317F0F1
:1048B000C5F90A230A22002120000093753317F05E
:1048C00053F95E4B14220A2120000093012317F0B4
:1048D000B5F95B4B1D22222120000093012317F024
:1048E000ADF9584B2922042120000093012317F031
:1048F000A5F9342334220021009320004B3317F014
:1049000033F9514B514A524902AD00912800202100
:104910000EF02EFA280059F0ADFC802143001B1840
:104920005B00C91A3722012320004910009517F0B7
:1049300085F90BB030BD474B00221C2100930123A9
:1049400017F07CF90A230A22002120000093753316
:1049500017F00AF9404B102219212000009301237F
:1049600017F06CF93D4B1B220A2120000093012314
:1049700017F064F93A4B26220D2120000093012301
:1049800017F05CF9342334220021009320004B33CC
:1049900017F0EAF802AD2C4B2C4A3249B5E7324BFE
:1049A00000221F210093012317F048F90A230A224D
:1049B000002120000093753317F0D6F82B4B1422FA
:1049C000102120000093012317F038F9284B1D22F5
:1049D000252120000093012317F030F934233422DD
:1049E0000021009320004B3317F0BEF802AD164BA8
:1049F000164A204989E7204B062200930A21022308
:104A000017F01CF91A23200000931A2200216533A5
:104A100017F0AAF8194B2000009323220123042148
:104A200017F00CF9164B2C2200930D2101232000C6
:104A300017F004F97DE7C046809B06108C9B06109A
:104A4000A09B0610AC9B0610D89A0610E09A0610A0
:104A5000C49B06102C9B06103C9B06104C9B06101A
:104A6000609B0610749B0610AC9A0610B89A06104C
:104A7000CC9A0610E89A0610F49A0610009B0610CD
:104A8000189B0610F0B5C64600B5856F04008CB0C3
:104A9000002D63D09723DB009C46EF5865442979AD
:104AA000374B8A0006AE0131D3580091354A1821A0
:104AB00030000EF05DF9300059F0DCFB802341003E
:104AC000091849004C34591A002220004910984610
:104AD00000967F3B17F0B2F80923092200930021CA
:104AE0002000763317F040F8042F3BD0264B0D22E0
:104AF000192120000093012317F0A0F805212B7D38
:104B000002AD224A009128000B310EF031F9280045
:104B100059F0B0FB424643001B185B00D11A491004
:104B200001231D222000009517F088F8184B2A2237
:104B3000009322210123200017F080F8342334222F
:104B40000021200000934B3317F00EF8114B372251
:104B5000009328210123200017F070F80CB080BCCE
:104B6000B846F0BD0C4B1022192100932000012300
:104B700017F064F8094B1E2200932E210223DAE776
:104B80006CC80610CC9B0610F89B0610089C0610FB
:104B9000189C0610EC9B0610D89B0610E89B06108C
:104BA000F0B5C64600B5856F92B0002D6ED0394B7A
:104BB0004C3000220D2100930123040017F03EF831
:104BC00009230922002120000093763316F0CCFF40
:104BD0009723DB009C4602A9884665442B890E2159
:104BE0002D4A06AF40460EF0C3F80AAEEB880E2100
:104BF0002A4A38000EF0BCF86B890E21284A300092
:104C00000EF0B6F8AB890EAD0E21264A28000EF044
:104C1000AFF843460C22022120000093012317F035
:104C20000DF801230C2242212000009717F006F80E
:104C30000123152202212000009616F0FFFF012318
:104C4000152242212000009516F0F8FF1F231F2295
:104C5000002120000093603316F086FF124B2122C2
:104C6000192120000093012316F0E8FF3423342299
:104C70000021200000934B3316F076FF0B4B3722B8
:104C8000009310210123200016F0D8FF12B080BC41
:104C9000B846F0BD249C0610389C0610449C0610B3
:104CA000509C06105C9C0610689C0610789C0610B0
:104CB0004C3010B504000D4B82B000931222022339
:104CC000222116F0BBFF0A4B200000932A22012369
:104CD0001C2116F0B3FF074B332200931921012347
:104CE000200016F0ABFF02B010BDC046AC9C061011
:104CF000B49C0610C49C061030B5856F89B0002D99
:104D000058D03B4B4C300122162100930123040064
:104D100016F094FF0A230A22002120000093753325
:104D200016F022FF334B9C46012365442A781D0070
:104D300051089008154019401840D20813404218F5
:104D4000AA18D218012A37D1002D46D1002949D1FD
:104D5000002849D1002B49D1274B02AD1821274A01
:104D600028000EF005F8280059F084FA802143004D
:104D70001B185B00C91A1722012320004910009557
:104D800016F05CFF1E4B2B220A212000009301230A
:104D900016F054FF342334220021200000934B33BB
:104DA00016F0E2FE174B3722009304210123200066
:104DB00016F044FF09B030BD134B200000931322BE
:104DC0000123132116F03AFF104B1C2200931621E9
:104DD0000123200016F032FFD4E700230C4A9B0089
:104DE0009B58BAE70123F9E70223F7E70323F5E726
:104DF000DC9C0610EA040000D49C0610EC9C061013
:104E00001C9D0610309D0610FC9C06100C9D061083
:104E10005CC80610F0B5DE4657464E464546E0B53E
:104E20000C0087B0002B51D01D004C239C4600265F
:104E300084446346B0460027160005930490BB19CE
:104E40009A462B1999467F2B09D853463F2B06D8F3
:104E5000049B52464C334946180016F071FEAB19BC
:104E60009B46621B3B19E11B0293019200917F2B31
:104E700033D85B46002B6CDB3F2B00DCA2E07F29A4
:104E80004AD97F2A00D8CAE0731B3F2B06D8059B5E
:104E9000180003930299721B16F052FE4B467F2BAB
:104EA00009D8F31B3F2B06D8059B0393494603986B
:104EB000F21B16F045FE4346002B1FDD4246013D26
:104EC0006B000133D31A9846AF42B8DD07B0F0BC8F
:104ED000BB46B246A946A046F0BD7F2916D97F2A17
:104EE000DCD85346002B00DA88E03F2B00DCD8E00A
:104EF000F31B00D49BE04346002BDFDC01377B0033
:104F0000013398444346002BD8DCDDE75B46002B99
:104F100000DACFE03F2B2CDD7F2A35D85346002B1B
:104F200000DAA7E03F2B00DCBBE0F31B00D4EEE08F
:104F3000731BC0D43F2BBEDC049B00994C3318007C
:104F4000721B039316F0FCFD029B7F2BA6D80398DF
:104F5000A0E77F2A20DD7F2996D8731B3F2B9DDC9D
:104F6000049B721B4C331800039316F0E9FD039861
:104F700090E7049B4C3303935A460099039816F02C
:104F8000DFFD019B7F2B64D9731B00D586E7731B64
:104F90003F2B00DD82E7CFE75346002B64DB3F2B3E
:104FA00000DC7EE0F31B73D4F31B3F2B41DD009B41
:104FB0007F2B71D8731B00D57DE7731B3F2B00DD62
:104FC00079E7B9E7049B5A464C33180002990393DA
:104FD00016F0B6FD009B7F2BCED9019B7F2B00D90D
:104FE00052E75346002B00DA9AE03F2B5CDDF31BBF
:104FF00000D549E73F2B4FDC03981EE0F31B3F2B06
:1050000000DD58E7049B01994C331800F21B039311
:1050100016F096FD4B467F2B00D94CE746E75346EA
:10502000002B5EDB3F2B3CDDF31B00D52CE73F2B39
:1050300032DC049B4C33180003930199F21B16F0E9
:105040007FFD009B7F2B9FD9029B7F2B00D81BE706
:10505000E0E75346002B50DB3F2B25DDF31B00D54B
:1050600066E73F2BA6DCC7E7F31B3F2BE1DD7F297B
:105070008DD909E7F31B3F2B9CDC049B01994C3332
:105080001800F21B039316F05BFD731BC2D47EE77E
:10509000009B7F2B00D84BE7029B7F2B00D8F3E6C9
:1050A00009E7049B4C33039352460199039816F089
:1050B00047FD77E77F2A08DC5346002B2BDB3F2B8D
:1050C000EFDDF31B00D533E76EE7731B3F2B00DDED
:1050D000E4E6049B00994C331800721B16F030FD77
:1050E000DCE6F31B3F2B00DDCEE6049B01994C333D
:1050F0001800F21B16F024FDC6E6F31B3F2B00DD63
:1051000058E701990398F21B16F01AFD3CE73F2B74
:1051100000DD4FE78DE7F31B3F2B00DD4DE788E710
:10512000F31B3F2B00DDAFE601990398F21B16F04D
:1051300007FDA9E6F0B5DE4657464E4645464023F4
:10514000E0B5C35C04008DB00D2B01D900F02FFC3D
:10515000D34A9B00D3589F4608AB99460693D14B40
:10516000092608930023042006AF3B730522CE498D
:1051700048440CF079F9069D00237E60AB5525006C
:10518000069B4C350022002128000093012316F0D5
:1051900055FD0A230A22002128000093763316F0D9
:1051A000E3FC0AF0A5FD002900D19DE2FA220023CC
:1051B00092000BF04DFC82460023A07C984600280C
:1051C00004D07433E25C733B5A4090460022237B48
:1051D00002920393002B04D07532A65C743A5640B9
:1051E0000296217EA27F002900D044E2002A00D14D
:1051F00036E37722A25C4346002A00D160E3002B0D
:1052000001D000F0E5FB029B002B01D000F0E7FB92
:10521000039B09041B02034312060B4313436367FA
:10522000A24B04979846082343449B465346029357
:105230004B464746039405933E787C78731E994607
:10524000631E9A461A004946280016F079FC524619
:105250003100280016F074FC731C98461900524661
:10526000280016F06DFC22004946280016F068FC64
:1052700022003100280016F063FC22004146013470
:10528000280016F05DFC22004946280016F058FC64
:1052900022003100280016F053FC0237220041465C
:1052A000280016F04DFC5F45C6D1029B039C9A4630
:1052B000059B049F99468723E25C002A06D086213D
:1052C000625C0D2A00D9E3E2013262548923E25C78
:1052D000002A06D08821625C0D2A00D9DBE2013267
:1052E00062548B23E25C002A06D08A21625C0D2A7C
:1052F00000D9D3E2013262548D23E25C002A06D049
:105300008C21625C0D2A00D9CBE2013262548F23DA
:10531000E25C002A06D08E21625C0D2A00D9C3E22D
:10532000013262549123E25C002A06D09021625C33
:105330000D2A00D9BBE2013262549323E25C002AB9
:1053400006D09221625C0D2A00D84AE20022E25483
:105350009523E25C002A06D09421625C0D2A00D8D5
:1053600042E20022E2548723E35C002B00D024E2D7
:105370008923E35C002B00D017E28B23E35C002B36
:1053800000D00AE28D23E35C002B00D0FDE18F23E7
:10539000E35C002B00D0F0E19123E35C002B00D014
:1053A000E3E19323E35C002B00D0D6E19523E35C9B
:1053B000002B00D0C9E13B23E25C013BE35C002A07
:1053C00000D197E13A4E3178002900D1FDE1394909
:1053D00009688846002B00D1FEE1374884460078F2
:1053E000002802D151463548016001204146307005
:1053F00060460370002905D05046411A96204000AF
:10540000814267D82D480168002905D05046411ACD
:105410009620400081425DD83021615C002900D097
:10542000F0E13131615C00294CD13231615C0029FD
:1054300000D094E23331615C002900D0C1E2343104
:10544000615C002900D0F4E23631615C002900D0B3
:1054500005E33531615C002900D00DE33731615C33
:10546000002900D034E33831615C002900D057E3D3
:105470003931615C002900D055E3002B00D055E3A1
:10548000002A00D058E33C33E35C002B00D050E30B
:105490003D33E35C002B1DD0094B313114E0C04695
:1054A000A8C706104D494449309E061054C806103E
:1054B00095620020584A002094620020544A00203F
:1054C000909D06103421D14B009310220123280017
:1054D00016F0B4FB362336220021280000934A330D
:1054E00016F042FBCA4B280000933822012300210A
:1054F00016F0A4FB0698484503D0B96801310BF0BB
:10550000C9FF0DB0F0BCBB46B246A946A046F0BDEF
:1055100008AB99464A460693BE4B03CB03C21B8891
:105520001380002306AF0F260A20BB741EE608ABCB
:1055300099460693B84B4A4603CB03C2198806AF77
:1055400011809B78102693700B237B600023FB74E3
:105550000B3398461F200BF08DFF069B4246190027
:105560009A4605000BF080FF43460522AB49E81838
:105570000BF07AFFCA4504D0B968504601310BF0F0
:1055800089FF1E230695BB60F6E508AB9946069396
:10559000A34BD0E708AB99460693A24BCBE708ABE9
:1055A00099464A460693A04B06AF03CB03C200239D
:1055B0000D2608203B74D9E508AB99464946069369
:1055C0009A4B06AF1A680C2608929A8807208A80A0
:1055D0009B798B710023FB73C8E508AB994649465C
:1055E0000693934B06AF1A8808260A809B780320FF
:1055F0008B700023FB72B9E508AB99464A460693C7
:105600008C4B03CB03C21B781370002306AF0E260E
:1056100009207B74AAE508AB99464A460693864B57
:1056200003CB03C21B781370EFE708AB99464A46D9
:105630000693824B06AF23CB23C21B88132613800D
:105640000E237B600023BB750E33984682E708ABC0
:1056500099464A4606937A4B03CB03C21B881380B4
:105660005FE708AB99460693764B64E708AB99462B
:105670000693754B5FE77626A65DB4460126B346D2
:1056800066465B465E4004964346002A43D0772236
:10569000A25C002A3FD1002B00D09EE1029B002B90
:1056A00000D0AEE1002E0CD08F22A25C002A00D1E7
:1056B00011E29122A25C002A03D18026903276006A
:1056C000A65201229326A65D002E00D1C2E19526A6
:1056D000A65D002E00D09BE5012680237600A6194A
:1056E00092365B00338093E5FA2189000BF072F962
:1056F000824661E555490A60002B78D05449087804
:10570000002800D0D6E0564652480660524E32700D
:1057100001260E7077E6002B00D0F8E0029B002BEC
:1057200000D01FE1049B002B00D171E58F26A65D00
:10573000002E00D196E19126A65D002E00D067E5EF
:10574000802390365B00A35362E5942326226D21CB
:105750002000E35CFFF75EFB2DE6922326226D21FD
:105760002000E35CFFF756FB20E6902326224E2123
:105770002000E35CFFF74EFB13E68E2326224E212A
:105780002000E35CFFF746FB06E68C2326222F2150
:105790002000E35CFFF73EFBF9E58A2326222F2158
:1057A0002000E35CFFF736FBECE58823262210217E
:1057B0002000E35CFFF72EFBDFE586232622102185
:1057C0002000E35CFFF726FBD2E550461F49D04698
:1057D0000860002B00D000E61E4803601C48844689
:1057E00003E601326254B3E501326254BBE5194964
:1057F0000B6019490B7016490B703021615C002950
:1058000000D10EE63A21154B5EE6C046489D0610D3
:10581000389E0610249E0610D09D0610309E06105D
:10582000DC9D0610E89D0610F49D0610009E0610F3
:10583000089E06100C9E0610189E06109C9D0610D1
:10584000AC9D0610B89D0610C49D0610584A002055
:1058500094620020544A002095620020989D061012
:105860004346002B00D09EE0029B002B01D100227A
:10587000CEE48B22A25C002A00D123E18D22A25C1F
:10588000002AF4D180268C327600A6520022BFE492
:105890000022E2541AE50022E25422E50022E254FA
:1058A0002AE50022E25432E50022E2543AE50022E1
:1058B000E25442E5A648027001200870A548A2E51E
:1058C000002B00D080E0029B002B00D1F9E68B2258
:1058D000A25C002A00D117E18D22A35C0493002B67
:1058E00000D0EEE680268C22049B7600A652002B88
:1058F00000D1E6E6049A90468F26A65D002E00D1E0
:10590000B6E09126A65D002E13D1013644E00023B7
:1059100098468723E35C002B00D18DE08923E35C6C
:10592000002B00D198E0029B002B07D1049B002B99
:10593000E2D14346002B00D16AE4C3E68B26A65D84
:10594000002E00D196E08D26A65D002EEED1013608
:1059500080237600A6198A365B003380E6E734217F
:105960007D4BB1E58B26A65D002E00D191E08D2602
:10597000A35D9846002B00D181E0049B002B00D151
:1059800046E48F26A65D002E6CD09126A35D903E46
:105990009846002B00D03BE480237600A6198E3673
:1059A0005B003380C5E7002398460493B1E708AB5A
:1059B000994606933F2306AF062601203B81FFF759
:1059C000D5FB3121654B7FE5002342460493A0E7D8
:1059D00000234246049398469BE7424699E78B2270
:1059E000A35C002B00D194E00232A25C002A01D01B
:1059F000FFF70EFC80268C327600A6521A00FFF7C5
:105A000007FC8B22A25C002A6AD08D22A25C002AAD
:105A100000D167E7002E00D153E68F22A25C002A56
:105A200059D09126A65D002E00D04AE69046013658
:105A3000B2E731214A4B47E500239B465B465B00BA
:105A40009B4686239C46A3448026E3445B4676001F
:105A50001E8068E7002640E601339B46EEE73121D1
:105A6000404B31E580238E265B00A353FFF7D0FB2C
:105A7000002691E700266BE734213B4B24E50133F8
:105A8000FF33013EA353049B002B01D1FFF7C0FB62
:105A900032E780238A265B009846A353049B002BA1
:105AA00001D1FFF7B5FB0536A65D002E47D0912644
:105AB000A65D002E01D0FFF7ABFB43469036A35303
:105AC000FFF7A6FB80238A265B00A353FFF7A0FB0A
:105AD0003421264BF8E480268E227600A652F0E58B
