:020000041000EA
:1000000000B5324B212058609868022188439860DF
:10001000D860186158612E4B002199600421596104
:100020000121F02299502B49196001219960352056
:1000300000F044F80222904214D00621196600F024
:1000400034F8196E01211966002018661A6600F04E
:100050002CF8196E196E196E052000F02FF8012189
:100060000842F9D1002199601B49196000215960AB
:100070001A491B48016001219960EB211966A021F2
:10008000196600F012F800219960164914480160C1
:100090000121996001BC002800D000471248134993
:1000A000086003C880F30888084703B5996A0420EC
:1000B0000142FBD001200142F8D103BD02B5186610
:1000C0001866FFF7F2FF186E186E02BD00000240BE
:1000D000000000180000070000035F00212200005C
:1000E000F4000018222000A00001001008ED00E03C
:1000F000000000000000000000000000070B8FD58A
:1001000000200420F7010010CB010010CD010010E9
:10011000C9010010C9010010C9010010C901001077
:10012000C9010010C9010010C9010010CF01001061
:10013000C9010010C9010010D1010010D301001045
:10014000C1010010C1010010C1010010C101001067
:10015000C1010010C1010010C1010010C101001057
:10016000C1010010C1010010C1010010C101001047
:10017000C1010010C1010010C1010010C101001037
:10018000C1010010C1010010C1010010C101001027
:10019000C1010010C1010010C1010010C101001017
:1001A000C1010010C1010010C1010010C101001007
:1001B000C1010010C1010010C1010010C1010010F7
:1001C000EFF30580103800BE00BE00BE00BE00BECA
:1001D00000BE00BEF2EB88713CEB07105CEB071031
:1001E0003802001090A31AE71E481F49086006C88D
:1001F00081F3088810471D480068002801D019487D
:10020000F3E70DA40ECC002902D000F012F8F9E7B4
:100210001749184A002000E001C19142FCD116495B
:100220008847164988471649884700BEFDE701C937
:1002300001C29A42FBD370475CEB0710C00000205C
:1002400018360020B420081000000420000004200C
:10025000B42008100010042000100420000000004A
:10026000704700000000000008ED00E0000000D032
:1002700018360020A4620020A12C011015060010E1
:10028000612C0110F8B5C04606480749091A8B10C1
:10029000C90FC91810B5491003D0044B002B00D06A
:1002A000984710BD183600201836002000000000C6
:1002B000054B10B5002B03D00449054800E000BFF2
:1002C000FFF7E2FF10BDC04600000000845F002081
:1002D000D89306107047C0467047C04600B58DB031
:1002E000029011201C220021684410F06BFF0123B2
:1002F0006A460D20137302A90422684410F068FFB7
:1003000003A902480FF008FC0DB000BDFC3C002022
:1003100010B5034B010018000FF0FEFB10BDC046E6
:100320006C3F0020F0B5DE4657464E464546E0B5E8
:10033000974CA54413F072FB032108200FF0D2FC68
:10034000032109200FF0CEFC0022012108200FF02C
:10035000E3FC0022012109200FF0DEFC8D498E48CC
:1003600013F06CF98D4925A801F084FD8C4934A85F
:1003700007F04EFA8B49C8A802F0B0F80CA80BF0B1
:10038000C9FB80220021520047A810F01BFF342235
:10039000002118A810F016FF0FAD0822002108A8B0
:1003A00010F010FF21220021280010F00BFF002385
:1003B0007D4807A906AE338007930FF057FC0799D5
:1003C000C8A802F005F9082200210AA810F0FAFED8
:1003D000764B774F9B46774B87AC9A46764B994640
:1003E000764B0493764B0193764B0293764B0593B1
:1003F000764B0393764B984618A925A801F0BAFAD4
:10040000380021A90FF088FB002800D1ADE018A921
:1004100058460FF0B9FB50460AA90FF0B5FB00286B
:1004200000D09DE0290048460FF0AEFB002809D01F
:100430002B78052B06D8049A9B00D3589F46C8A852
:1004400002F0D8F8019808A90FF09EFB002842D1CD
:10045000310002980FF098FB002846D1079B002B33
:100460000DD09722D2009B58002B08D00A2B06D81B
:10047000059A9B00D3589F46C8A802F0BFF803987E
:1004800047A90FF081FB00280CD0200047AA0CA937
:100490000BF07CFB002140460FF076FB210040462C
:1004A0000FF03AFB18A934A807F0E2F918A9C8A878
:1004B00002F07AF834A807F0F1F9C8A805F0F2FACA
:1004C0009AE7697834A807F0D1F9019808A90FF0E4
:1004D0005BFB0028BCD008A9C8A802F073F8310063
:1004E00002980FF051FB0028B8D03100C8A802F0E4
:1004F00077F83378002BB1D0C8A802F097F8ADE7B1
:10050000697834A807F0B0F99CE7C8A802F06EF843
:1005100098E76B78002B36D0012B93D16B882100A4
:1005200023802B7934A8A37007F0A8F98AE76978AB
:10053000C8A802F03FF885E7C8A802F063F89EE774
:10054000C8A802F06FF89AE7C8A802F067F896E723
:10055000C8A802F05FF892E7C8A802F057F88EE743
:100560000AA9C8A802F036F85CE70E220021200094
:1005700010F028FE210038000FF006FB380021A9FA
:100580000FF0CAFA43E7A978C8A802F017F859E7AC
:1005900024F9FFFF40420F006825002080C40610A8
:1005A0006CC4061064C406107C3F00205C3D002033
:1005B0008C3F0020D43D0020FC3C0020D893061046
:1005C000F43D0020E43D0020F09306106C3F002035
:1005D0009C3F002010B50400064B08000C349942E3
:1005E00005D035F0FDFB431E9841404204402000F9
:1005F00010BDC046C8C40610882110B504004900CB
:1006000010F0FCFD200010BD882110B5490010F04D
:10061000F5FD10BDF0B5DE4657464E464546E0B501
:10062000F44C0127A5440EF063FDF34A0300212199
:1006300010000A9201220FF05DFA0EF059FDEF4A08
:10064000030008211000169201220FF053FA0EF059
:100650004FFDEB4A0300242110000E9201220FF0FF
:1006600049FA0EF045FDE74A030093460E210822A1
:1006700058460FF03FFA0EF03BFDE34E0300012217
:10068000022130000FF036FA0EF032FD8021DF4CEF
:1006900003000122200049000FF02CFA0EF028FD83
:1006A0008021DB4A0300490010000F9201220FF065
:1006B00021FA0EF01DFDD74A030004211000059217
:1006C00001220FF017FA0EF013FDD34A03000821A0
:1006D00010001A9201220FF00DFA12F075FC26AAF2
:1006E000B2239446DB0063441800CC4905F080FB3C
:1006F000002399469E244A46640026AB1B191A80A3
:10070000082398463F32FF3226AB9B1842461A70A8
:10071000402226ABFF32BC3C9B181C70013226AB3A
:100720009B1842221C70FF3226AB9B181C700132B2
:1007300026AB9B18133A0021FF3A77A81C8010F0D3
:1007400041FDA22226AB52009B181F70063226AB39
:100750009B184C221C70FF3226AB9B181C70013278
:1007600026AB9B184E221C70FF3226AB9B181C70C8
:100770002523BC344C3A26A90919FF3ACA5426A9A4
:1007800009190133ED32CA5426A909190133DD3A9A
:10079000CA54B421A24B490026AA521813802E2312
:1007A000772226A90919CA5426A909190233373A0A
:1007B000CA546E2126AAFF31313B52181370013101
:1007C00026AA521870211770FF3126AA52181370EA
:1007D000013126AA521872211770FF3126AA521829
:1007E0001370B92226AB52009B181F707C2026ABD9
:1007F0009C46393AFF300021FF3A604410F0E2FC99
:10080000BC21884B4900839326AA874B521813803A
:1008100041463E2326AA1219D1541B2226A90919A2
:100820001933CA540133CF54B62026AB9C46FF304F
:1008300020220021604410F0C5FC26ABD6209C4647
:10084000FF3014220021604410F0BCFC9A23774A48
:1008500026A90919CA52EA2026AB9C46FF306044FB
:100860000822002110F0AEFCB82326A90919A5AA78
:10087000CA500A00494600250433D15026AA12194D
:100880000433D55426AA12191033D55452AB18008C
:10089000342238AD984610F095FC0E220021280035
:1008A00010F090FC8820400010F098FC604B040091
:1008B00003600C239C4684446346476087601800AD
:1008C0001F0008930BF0B8F9EAAA92466368EA970A
:1008D00001336360546011005FA82C9709F032F96E
:1008E00053465C68002C06D06368013B6360002BB4
:1008F00001D100F0A2FF802200215200AAA810F02E
:1009000061FC4C480378002B01D000F0A7FF26AA19
:10091000B2239446DB0063442BA905982B930FF078
:100920006DF9454813F04EF800235246002113801C
:1009300030000FF029F9514630000FF0EDF8089C17
:1009400020000BF03DFB08F097F83C4808F048F910
:1009500020000BF035FB36AB0700210018000BF030
:1009600059FB20000BF07AFB1E2801D800F03FFF56
:100970001E26402226AB9B181988314C0B1CA14225
:1009800001D800F02BFF231C402126AA5218138007
:10099000422226AB9B181988294A0B1C914201D888
:1009A00000F014FF131C422126AA5218138044227F
:1009B00026AB9B181988224A0B1C914201D800F0E3
:1009C000FDFE131C442126AA52181380462226AB92
:1009D0009B1819881A4A0B1C914201D800F0E6FEB8
:1009E000131C462126AA52181380B04201D100F0F0
:1009F00044FF27E0D4F2FFFFFC3C0020F43D002040
:100A00005C3D00208C3F0020E43D00206C3F002036
:100A10009C3F00207C3F0020D43D00209CC4061059
:100A200012F8FFFF020180808080FFFF14080000A1
:100A300050C40610A021002025030010DD02001084
:100A4000DC05000049AB059340AB21933CAC089B0F
:100A50003100994618000BF0F3FA484636A90BF01E
:100A6000B1FA21220021504610F0ACFB53465F70D2
:100A70000A9F514638000FF0C1F826A88446E34B80
:100A8000002163442022180010F09CFB52460223F0
:100A90001370089B180099460BF0CEFA5346514646
:100AA000587038000FF0AAF826A88446D74B0021CA
:100AB00063442022180010F085FB52460323484669
:100AC00013700BF0BBFA53465146587038000FF0C4
:100AD00095F826AAB2239446DB006344310018003F
:100AE00006F092F926AAB2239446DB00634418006C
:100AF00036A906F08BF900231C931E931D930C93CB
:100B0000099306930D93C24B5F461293C14B260087
:100B10001393C14B1793C14B1593C14B1893C14B02
:100B20001993C14B1B93C14B1F93C14B2093C14BD6
:100B30002293C14B2393C14B2593C14B2693C14BA9
:100B40002793C14B2493C14B2893C14B29932EABC0
:100B5000994608980BF034FAB2230200834626A87F
:100B60008446DB0063444146180006F0C5FD0E22B2
:100B70000021300010F026FB04E00E223100280096
:100B800010F026FB310038000EF0FEFF0028F4D1F3
:100B90002A005BAB13CA13C312885FA81A8009F03E
:100BA000E1FE002800D055E1B2219722C90026AB12
:100BB000D2005B189B581A00511E8A41D2B207928C
:100BC000002B00D118E129234246D35C1093002B5F
:100BD00004D0129B1A7801235A4010922A234246CD
:100BE000D45C00231193002C04D0139B1A780123AA
:100BF0005A4011920EF030FF002900D172E1FA2222
:100C0000002392000FF0D8FD149042462923D35CB4
:100C1000129A0B93137042462A23D35C139A1370D3
:100C20000C9B002B05D1109B002B00D006E300236A
:100C30000B93002C00D142E11799159A0B6812789A
:100C4000002B00D08BE1149B0B60002A00D13AE10D
:100C5000069B002B00D06FE10B9B0C93099B002B94
:100C600030D0B221972226ABC900D2005B189B5826
:100C70000B9A0C92002B00D014E35FA809F042F805
:100C80005FA809F0F1F826A88446604B202263444F
:100C90000021180010F096FA0423524651461370B2
:100CA0000A980EF0ABFF05985FA909F05FFE169C4D
:100CB000002120000EF068FF200005990EF02CFFA7
:100CC000002309934246059B13CA13C313CA13C3D7
:100CD00013CA13C35B46033BDBB2012B00D8D0E041
:100CE00000230D935FA809F03DFE30234246069095
:100CF000D45C0EF0B1FE002900D11BE2FA220023E1
:100D000092000FF059FD002C00D11AE2189A19999F
:100D100013780133DBB213700A68022B00D896E215
:100D2000002A00D096E21B9B08601A702E234246D0
:100D3000D45C0EF091FE002900D110E2FA220023CB
:100D400092000FF039FD002C00D10FE21F9A20997C
:100D500013780133DBB213700A68022B01D800F05C
:100D600031FC002A01D000F031FC229B08601A708F
:100D70005FA809F0F7FD002800D103E25FA809F0A1
:100D8000F1FD002800D021E2069B002B00D048E2B4
:100D90005B460D2B00D1ABE034224146504610F0AB
:100DA00017FA5FA809F0DEFD002809D024220021EF
:100DB000504610F007FA0E220021F3A810F002FAB4
:100DC00052465B46484675A908F0D4FB4B4603CB18
:100DD00007F0D4FE07F0C4FE05990E980EF09CFEB5
:100DE0000F98AAA90EF0D0FE002802D0AAA807F0FA
:100DF000BFFA079B0693ACE6069B002B00D03CE7AE
:100E0000099B002B00D038E75CE7C04611030000C7
:100E10009362002090620020444A002091620020EA
:100E2000976200205C4A00209862002099620020AE
:100E3000604A00209A620020926200201C940610F2
:100E40003094061050940610484A00205C94061016
:100E500060940610504608990BF0DCF826AAB223DD
:100E60009446DB0063441800514605F0CFFF1A9CFE
:100E7000002120000EF088FE514620000EF04CFEAE
:100E800092E65FA809F06EFD002800D028E70EF07A
:100E9000E3FD002900D188E3FA22002392000FF03D
:100EA0008BFC04000D9B002B07D0E04AE31A934211
:100EB00001D800F077FC07F063F80D9412E7179B58
:100EC0001C60159B1C70119B002B50D1069B002BA6
:100ED00032D1099B002B00D0C3E60B9B0C9300235F
:100EE0000993EFE6FA2189000FF028FC14908CE6B4
:100EF00000200CF091FB002800D14DE7219C01223D
:100F0000210000200CF092FB239A23781278BB2B4F
:100F100000D1BCE3BC2B01D100F029FC002A00D099
:100F2000B7E3AA2B02D0AD2B00D035E701222399DD
:100F30000A70249A13702FE7B221972226ABC900BA
:100F4000D2005B189B58072B00D1A7E1099A002A11
:100F500000D08DE6002BC0D10B9B0C938DE614992D
:100F6000CB1AB32B00D870E6002A00D070E601231C
:100F7000159A137026AAB2239446DB006344180026
:100F800006F022F826A88446A94B202263440021BB
:100F9000180010F017F905235246514613700A98AD
:100FA0000EF02CFE069B002B97D0B221972226AB89
:100FB000C900D2005B189B58072BCBD126AAB223BD
:100FC0009446DB006344180006F0DCFB26AAB2233B
:100FD0009446DB006344190008980AF0F3FFB2213D
:100FE000944B26AAC9005218D4580EF035FD00299A
:100FF00000D11CE3FA22002392000FF0DDFB26A9AA
:10100000A9228C462100089C12015B466244009094
:1010100020000BF029F820000BF0A0F820000AF0C7
:10102000CFFF34AB0C90210018000AF0F3FF200032
:101030000BF014F81E2800D88EE11E2426AB198F61
:101040007D4A0B1C914200D87DE1131C099226AA0F
:1010500013877949528F131C8A4200D86DE10B1C0B
:1010600026AA53877449928F131C8A4200D85EE1E6
:101070000B1C26AA93877049D28F131C8A4200D872
:1010800015E10B1C26AAD3872C9B0693A04200D106
:1010900019E1210006980AF0D3FF069834A90AF056
:1010A00091FF21220021504610F08CF853460C9AF3
:1010B00051460A985A700EF0A1FD26A884465C4B52
:1010C000002163442022180010F07CF852460223CD
:1010D000069813700AF0B0FF5346514658700A98AC
:1010E0000EF08CFD26A88446514B0021634420223B
:1010F000180010F067F852460323069813700AF0A0
:101100009DFF5346514658700A980EF077FD26AA67
:10111000B2239446DB0063442100180005F074FEFE
:1011200026AAB2239446DB006344180034A905F0D4
:101130006DFE96E5FA2189000FF000FB002C00D02F
:10114000E4E5189B42461C70199B1C601B9B1C709D
:101150002E23D45C0EF080FC002900D0EEE5FA21AD
:1011600089000FF0EBFA002C00D0EFE51F9B5FA881
:101170001C70209B1C60229B1C7009F0F3FB002854
:1011800000D0FBE52F234246D45C0EF065FC00291D
:1011900000D1ECE0FA22002392000FF00DFB002CAE
:1011A00000D1DFE01C9B0133DBB21C93022B00D883
:1011B00042E21D9B002B00D043E200231D905FA85C
:1011C0001E9309F0CFFB002800D1DDE55BA95FA8E5
:1011D00009F014F95FA809F0DFFB041E00D009E252
:1011E0005FA809F0BFFB002800D1C5E050465FA909
:1011F00009F0BCFB169C002120000EF0C5FC5146F6
:1012000020000EF089FC2422002140460FF0DAFF76
:101210000E2200215BA80FF0D5FF069B002B00D10A
:10122000B6E55FA809F09EFBB2E5C0469F680600E0
:1012300011030000FC040000DC05000026AAB22314
:101240009446DB006344180005F02CFEEFE4002A0E
:1012500000D16BE51B990B78002B00D066E5801A56
:10126000D54A904200D861E501220A70189A13709D
:10127000199A13605FA808F04BFF26A88446CF4B4D
:1012800020226344002118000FF09CFF04235246E3
:1012900051460A9813700EF0B1FC69E5099B002BCA
:1012A00000D18BE60B9B0C93012309930AE592B2C4
:1012B0000A2A00D3E6E60A2326AAD3872C9B0693A4
:1012C000A04200D0E5E6504608990AF0A3FE534636
:1012D000099A1B88934200D0DBE626AB5B8F089906
:1012E000059809930AF096FE0599099A4B8893424E
:1012F00000D0CEE626AB9B8F0899219809930AF07F
:1013000089FE2199099A8B88934200D0C1E626ABC9
:10131000DB8F089936A809930AF07CFE462026A99F
:1013200009180B88099A934200D0B2E6B9E692B246
:101330000A2A00D39DE60A239BE692B20A2A00D32A
:101340008EE60A238CE68AB209920A2A00D37EE648
:101350000A220A2309927AE684B2002C00D06DE6B4
:1013600001346BE600231E931C931D9306E5FA21BE
:1013700089000FF0E3F912E708980AF0EFFE26A8BB
:101380008446692363442022002118000FF01AFFCD
:101390000523219A0A98110013700EF02FFC2C9C43
:1013A00020000AF00DFE2100119030A80AF032FE54
:1013B00020000AF053FE1E2800D880E01E230B9365
:1013C00026AB198D7E4A0B1C914200D885E0131C78
:1013D000109226AA13857A49528D131C8A4200D88E
:1013E0008BE00B1C26AA53857549928D131C8A42EB
:1013F00000D88FE00B1C26AA93857149D28D131C4F
:101400008A4200D893E00B1C26AAD3850B9B9842F6
:1014100000D197E020000B990AF012FE200030A9BD
:101420000AF0D0FD2122002150460FF0CBFE53469A
:10143000119A51465A700A980EF0E0FB26A884468D
:101440005E4B00216344202218000FF0BBFE524681
:101450000223200013700AF0EFFD534651465870E6
:101460000A980EF0CBFB26A88446544B0021634417
:10147000202218000FF0A6FE52460323200013700E
:101480000AF0DCFD5346514658700A980EF0B6FB40
:1014900026AAB2239446DB00634418000B9905F09A
:1014A000B3FC26AAB2239446DB006344180030A99B
:1014B00005F0ACFC00231E931C931D93A3E683B29E
:1014C0000B93002B00D07BE701330B9326AB198DD8
:1014D0003B4A0B1C914200D979E78AB210920A2A42
:1014E00000D376E70A220A23109226AA13853449EC
:1014F000528D131C8A4200D973E792B20A2A00D394
:1015000070E70A2326AA53852D49928D131C8A421F
:1015100000D96FE792B20A2A00D36CE70A2326AA01
:1015200093852749D28D131C8A4200D96BE792B26A
:101530000A2A00D368E70A2326AAD3850B9B984280
:1015400000D067E7210050460AF064FD5346109A28
:101550001B88934200D05DE726AB5B8D210036A847
:1015600010930AF057FD422026A909180B88109AFB
:10157000934200D04EE726AB9B8D210034A81093F8
:101580000AF048FD26A98B8F109A934200D041E7BC
:10159000CB8D32A8210010930AF03CFD26A9CB8EFA
:1015A000109A934200D035E73CE7FA2189000FF00A
:1015B000C5F8040076E4C04687130000110300005C
:1015C000DC050000002A01D1FFF7D2FB22990B783D
:1015D000002B01D0FFF7CCFB801AFA22D2009042F8
:1015E00001D2FFF7C5FB01220A701F9A1370209ADF
:1015F00013603FE626AAB2239446DB00634418003A
:1016000005F00AFC5FA808F0A7FB26A88446C24B99
:1016100020226344002118000FF0D4FD0523524618
:1016200051460A9813700EF0E9FA0C94D8E5FA21A5
:1016300089000FF083F8E2E41D9B002B01D1FFF736
:101640009DFB1E9B002B01D0FFF798FB1D9BC01A32
:10165000FA239B00984201D2FFF790FB5FA808F0A5
:1016600051FB26A88446AC4B20226344002118007D
:101670000FF0A8FD04235246514613700A980EF04D
:10168000BDFA00231E941C931D93FFF777FB002ADD
:1016900047D02398249C511CC9B20170A3540A2935
:1016A00001D0FFF779FB00230370637A552B01D03B
:1016B000FFF772FBA37862781B02134352465BBAB2
:1016C00013802379E2781B02134352465BBA93805E
:1016D000A37962791B02134352465BBA5380237A83
:1016E000E2791B02134352465BBAD38026AAB22387
:1016F0009446DB0063441800514605F087FB2378CD
:10170000AA2B00D1F6E0AD2B01D0FFF745FB052257
:10171000299900200CF008F800200BF0CBFFFFF710
:101720003BFBB2227D49D20026AB9B1826AA521859
:1017300012887B491B88029226AA5218128879497E
:10174000019226AA52181288202100925046259A0A
:1017500011F0C2F950465CF041FC514602000020F5
:101760000BF0E2FF00200BF0A5FFFFF715FB002AAE
:101770008FD108980AF0F0FC03780400002B44D1C4
:10178000B221A02326AAC900DB005218D35C002B8B
:1017900035D15346279A03CA03C31188198092781A
:1017A0009A70D7E70D9C0D94FFF79CFA8AB20A2A2B
:1017B00001D3FFF716F90A23FFF713F98AB20A2AB1
:1017C00001D3FFF7FFF80A23FFF7FCF88AB20A2AD1
:1017D00001D3FFF7E8F80A23FFF7E5F88CB20A2CEB
:1017E00001D3FFF7D1F80A230A24FFF7CDF886B218
:1017F000002E01D0FFF7BDF80136FFF7BAF8A92394
:1018000026AA94461B0163441C0008980AF08AFC2F
:10181000069008980AF09EFC0B9008980AF08EFC3F
:10182000A0210B9B02900193069B50460093269AA1
:101830002300890011F050F98CE7236820009B6891
:101840009847A368013BA3604B4501D0FFF753F8CD
:1018500023682000DB689847FFF74DF88C21324C55
:101860004900415800948A246400304B304A0059A2
:10187000013106F01BFBFFF74AF8504608990AF0C1
:10188000C9FB53461B88A34201D0FFF7DBF8422275
:1018900026AB9B181C8849AB9946180008990593FC
:1018A0000AF0B8FB4B465B88A34201D0FFF7CCF8A7
:1018B000442226AB9B181B880899994640AB1C0014
:1018C000180021930AF0A6FBA3883CAC4B4501D03D
:1018D000FFF7BDF8462226AB9B181B8820009946CF
:1018E00008990AF097FBE3884B4501D0FFF7AFF862
:1018F000FFF7B7F8089C514620000AF063FB200070
:101900000AF02CFC0322289900200BF00DFF002088
:101910000BF0D0FEFFF740FA11030000960500001F
:10192000920500009405000011030010B121002071
:10193000A1210020D0231B065868C0437047C04631
:101940007047C0467047C04610B504301AF00CF915
:1019500010BDC04610B504000C210FF04FFC200054
:1019600010BDC04610B5040004210FF047FC200054
:1019700010BDC046F8B54E464546DE465746E0B572
:101980000700806B3D0003680E009B68984720238A
:10199000FC6A243581469846AC4213D128E0FA22ED
:1019A000002392000EF008FFE3695B44834203D8F2
:1019B00043465246E254E06120001AF045FD04001F
:1019C000A84215D04A46A36913405A1E9341DAB281
:1019D00092464246A25C9A42EED0BB7B9B460EF0FA
:1019E0003BF80029DBD1FA2189000EF0A7FEDBE7E6
:1019F000BB6A1A1E00D16FE111009268002AFBD168
:101A00008D4200D168E10A7C002A00D064E12032D6
:101A10008A5C2800914624224946B1541A0003E00A
:101A200010009268002A05D0117C0029F8D1D268F4
:101A3000002AF9D1854200D14EE1027C012A00D969
:101A40004AE12022815C0532B1542C001A0003E0E7
:101A500014009268002A05D0107C0128F8D8D268BA
:101A6000002AF9D1A54200D136E1227C022A00D910
:101A700032E12022A25C904626224046B054280043
:101A80001A0003E010009268002A05D0147C022C92
:101A9000F8D8D268002AF9D1854200D11CE1027C35
:101AA000032A00D918E12022825C9446272260464E
:101AB000B05428001A0003E010009268002A05D0F4
:101AC000147C032CF8D8D268002AF9D1854200D1C1
:101AD00002E1027C042A00D9FEE02022805C083268
:101AE000B05428001A0003E010009268002A05D0C4
:101AF000147C042CF8D8D268002AF9D1854200D190
:101B0000EAE0027C052A00D9E6E02022805C093266
:101B1000B05428001A0003E010009268002A05D093
:101B2000147C052CF8D8D268002AF9D1854200D15E
:101B3000D2E0027C062A00D9CEE02022805C0A3264
:101B4000B05428001A0003E010009268002A05D063
:101B5000147C062CF8D8D268002AF9D1854200D12D
:101B6000BAE0027C072A00D9B6E02022805C0B3262
:101B7000B05428001A0003E010009268002A05D033
:101B8000147C072CF8D8D268002AF9D1854200D1FC
:101B9000A2E0027C082A00D99EE02022805C0C3260
:101BA000B05428001A0003E010009268002A05D003
:101BB000147C082CF8D8D268002AF9D1854200D1CB
:101BC0008AE0027C092A00D986E02022805C0D325E
:101BD000B05428001A0003E010009268002A05D0D3
:101BE000147C092CF8D8D268002AF9D1854200D19A
:101BF00072E0027C0A2A6FD82022805C0E32B05438
:101C000028001A0003E010009268002A05D0147C16
:101C10000A2CF8D8D268002AF9D185425CD0027C1F
:101C20000B2A59D82022805C0F32B05428001A00A9
:101C300003E010009268002A05D0147C0B2CF8D821
:101C4000D268002AF9D1854246D0027C0C2A43D8BA
:101C50002022805C1032B054280003E018009B68FA
:101C6000002B05D01A7C0C2AF8D8DB68002BF9D1A0
:101C7000854231D0027C0D2A2ED82022855C11327B
:101C8000B5544A46002A18D101233B774346002B1E
:101C900007D103237B77F0BCBB46B246A946A046DA
:101CA000F8BD6346002B14D07B7F032B01D0022BA1
:101CB000F1D100222433F254EDE7002907D03A7F16
:101CC000012A01D0002AE1D12432B354DEE739776A
:101CD000DCE702237B77DEE7014827F0FBFAC0460A
:101CE00068940610F0B5D6464F464646C0B51E006D
:101CF0000700242015008A460FF070FA012332787D
:101D00002D78934002758361202200230574C361FE
:101D100083543B1D040056469946534547D0337CB7
:101D20009D4228D2FB689A46B34268D030001AF030
:101D3000BBFB037CAB425FD3BB689846002B05D14D
:101D40008DE09B680121002B08D0984643461A7C01
:101D50009542F6D3DB680021002BF6D146460029D8
:101D600000D075E0954217D9B14548D0337C9D42EB
:101D7000AD41684244E09D420FD93B695345F3D0E1
:101D800030001AF061FB037CAB4248D9F368002BAA
:101D9000ECD00600012033E04646242120000FF05D
:101DA0002DFA3000E0BCBA46B146A846F0BD7B69CA
:101DB000002B2FD1BB689846002B05D14DE09B68C6
:101DC0000121002B08D0984643461A7C9542F6D351
:101DD000DB680021002BF6D146460029C2D0FB6803
:101DE00046464345C0D040461AF05EFB027C46465C
:101DF00080469542B8D8CFE7C368002B2BD001208E
:101E00004B46320021001AF06BFB7B692600013340
:101E10007B61C6E73E69337CAB42A5D3CAE7BB68AA
:101E20009846002B05D120E001219B68002B07D0AC
:101E3000984643461A7C9542F6D30021DB68F5E7C5
:101E40004646002900D18DE7FB689E42CBD18BE747
:101E5000C245C8D188E7060086E7D046BFE7C84636
:101E6000D145C0D14E460120CAE7FB68C846994516
:101E7000B9D1F7E7F0B5CE46474603000C0080B570
:101E8000060083B00F0007CC07C32200A14613CA87
:101E900013C3126835001A609C4B2422B3830023BD
:101EA000B3546A46B362D3717363B3632033984605
:101EB0002435B0443B00290007324046F5623563C3
:101EC000FFF710FF6A460123D371B26A2900002A86
:101ED00011D0130003E019009B68002B05D0187C7B
:101EE0000028F8D1DB68002BF9D18D4203D00B7CA0
:101EF000012B00D852E16A467B1C07324046FFF7AF
:101F0000F1FE02236946B26ACB71002A00D1E4E1F6
:101F10001400290003E011009268002A05D0137C08
:101F2000012BF8D8D268002AF9D18D4200D1D5E131
:101F30000B7C022B00D9D1E16A460323D371220026
:101F4000290003E02100A468002C05D0237C022B8B
:101F5000F8D8E468002CF9D18D4200D1AFE10B7CB8
:101F6000032B00D9ABE104236946CB711300290090
:101F700003E011009268002A05D0107C0328F8D8ED
:101F8000D268002AF9D18D4200D189E10A7C042A65
:101F900000D985E105226946CA711A00290003E0CB
:101FA00019009B68002B05D0187C0428F8D8DB6842
:101FB000002BF9D18D4200D163E10B7C052B00D9B8
:101FC0005FE106236946CB711300290003E011008D
:101FD0009268002A05D0107C0528F8D8D268002A1B
:101FE000F9D18D4200D13DE10A7C062A00D939E1C0
:101FF00007226946CA711A00290003E019009B688C
:10200000002B05D0187C0628F8D8DB68002BF9D106
:102010008D4200D117E10B7C072B00D913E1082377
:102020006946CB711300290003E011009268002A71
:1020300005D0107C0728F8D8D268002AF9D18D4243
:1020400000D1F0E00A7C082A00D9ECE009226946B8
:10205000CA711A00290003E019009B68002B05D003
:10206000187C0828F8D8DB68002BF9D18D4200D104
:10207000C9E00B7C092B00D9C5E00A236946CB7166
:102080001300290003E011009268002A05D0107C9B
:102090000928F8D8D268002AF9D18D4200D1A2E0EF
:1020A0000A7C0A2A00D99EE00B226946CA711A00EE
:1020B000290003E019009B68002B05D0187C0A2832
:1020C000F8D8DB68002BF9D18D4200D17BE00B7C86
:1020D0000B2B00D977E00C236946CB711300290044
:1020E00003E011009268002A05D0107C0B28F8D874
:1020F000D268002AF9D18D4256D00A7C0C2A53D8D6
:102100000D226946CA71290006E0C046010300009D
:1021100019009B68002B05D01A7C0C2AF8D8DB68C4
:10212000002BF9D18D4202D00B7C0D2B06D93B0040
:102130006A4640460D330732FFF7D4FD337E002B4D
:1021400000D0D9E004200FF049F87A4BF46A8146B8
:102150000360A54214D00123D02798463F06207D76
:102160000DF002FE4346207D002283400121BB6228
:102170000DF0D2FD20001AF07FF904008542EED167
:102180004B46B06BB363002802D003685B68984786
:10219000300003B0C0BCB946B046F0BD022369466A
:1021A0001400CB71B5E629006A464B46073240461B
:1021B000FFF798FD0D226946B36ACA71002BA2D1C0
:1021C0002900B4E729003B006A460B33073240463A
:1021D000FFF788FD0C236946B26ACB71002AE2D072
:1021E00013007CE729003B006A460A330732404669
:1021F000FFF778FD0B226946B36ACA71002BE1D064
:102200001A0055E729003B006A4609330732404669
:10221000FFF768FD0A236946B26ACB71002AE1D054
:1022200013002EE729003B006A4608330732404678
:10223000FFF758FD09226946B36ACA71002BE1D045
:102240001A0007E729006A46FB1D07324046FFF7E0
:1022500049FD08236946B26ACB71002AE2D0130017
:10226000E1E629006A46BB1D07324046FFF73AFD0A
:1022700007226946B36ACA71002BE3D01A00BBE695
:1022800029006A467B1D07324046FFF72BFD0623D7
:102290006946B26ACB71002AE3D0130095E62900A3
:1022A0006A463B1D07324046FFF71CFD0522694682
:1022B000B36ACA71002BE3D01A006FE629006A46A0
:1022C000FB1C07324046FFF70DFD04236946B26A46
:1022D000CB71002AE3D0130049E629006A46BB1CF3
:1022E00007324046FFF7FEFC03236A46B46AD37107
:1022F000002CE3D0220023E60C200EF06FFF040038
:1023000005000D4B326908C4317D200019F0E6FB51
:1023100020000A4919F0F4FB2000084919F000FCDC
:102320002000064919F00EFCB06BB563002800D000
:102330002BE72DE7D8C40610ECC40610FFFF000001
:10234000F0B5D6464F464646C0B50E0015000F1DE7
:102350003900040019F0A8FAF31C98466B1C994642
:102360001A004146200019F09FFA39004A46200021
:1023700019F09AFAB31C9A46AB1C99461A005146BA
:10238000200019F091FA41464A46200019F08CFAD3
:1023900039004A46200019F087FAEB1C99461A00CA
:1023A0002000711C19F080FA4A465146200019F0AD
:1023B0007BFA4A46414620002E1D19F075FA4A461E
:1023C0003900200019F070FA51463200200019F04F
:1023D0006BFA41463200200019F066FA39003200EB
:1023E00020006E1D19F060FA32004146200019F0FD
:1023F0005BFA32003900200019F056FA3900AA1DA4
:10240000200019F051FAE0BCBA46B146A846F0BD2A
:10241000F8B5CE464746160080B504000D0019F009
:1024200043FA731C98466F1C1A002900200019F00B
:102430003BFA39004246200019F036FAB31C9846A0
:102440001A002900200019F02FFA39004246200016
:1024500019F02AFAAB1C424619002000994619F0DF
:1024600023FAF31C98461A002900200019F01CFAE0
:1024700039004246200019F017FA4946424620002A
:1024800019F012FAE91C4246200019F00DFA331D2A
:1024900098461A002900200019F006FA3900424631
:1024A000200019F001FA49464246200019F0FCF9D3
:1024B000731D98461A002900200019F0F5F94246CC
:1024C0003900200019F0F0F92900B21D200019F0A0
:1024D000EBF9C0BCB946B046F8BDC04670B50300C4
:1024E000040082B0002505C905C320002422002174
:1024F00025720C300EF066FE20000E2200213030D6
:102500000EF060FE260040230D222000E252002142
:10251000053A42304C360EF055FE1C2200213000A8
:102520000EF050FEA5660DF097FA002935D0FA227C
:10253000002392000EF040F90025E06620000822FA
:10254000002125676567A5677C300EF03BFE84237C
:102550000022E552303BE254226823798021009228
:102560003000402219F0F6F8300019F095F9862372
:10257000E5520233E5500433E5500433094AE5508F
:102580000433E5522300A1180022A9331A70143332
:102590008B42FBD1200002B070BDFA2189000EF001
:1025A000CDF8C9E7C903000010B532220C300EF097
:1025B0000FFE10BD4023C1547047C0464123C15493
:1025C0007047C04610B5072242300EF001FE10BD24
:1025D0008167704710B508227C300EF0F9FD10BD00
:1025E00010B5022284300EF0F3FD10BD01230372FA
:1025F0007047C046022303727047C046032303722C
:102600007047C046042303727047C0460523037217
:102610007047C046062303727047C0460723037203
:102620007047C046082303727047C04609230372EF
:102630007047C046F0B5C64600B582B004000DF044
:102640000BFA002933D0FA22002392000EF0B4F8DE
:10265000E36EC01A624B984209D8FA210EF06EF868
:10266000C00700D4A7E002B080BCB846F0BD5D4B07
:10267000984221D95C4B9842F5D85C4B4C342000F1
:1026800000930C220123252119F08CF9584B2000CE
:1026900000931A220223042119F084F9554B3022A9
:1026A00000932B210123200019F07CF9DBE7FA21AC
:1026B00089000EF043F8CBE74F4B4C349C46604406
:1026C0000EF079FC4D490EF012FC011C051C0EF0B9
:1026D0000BFC011C4A480EF004FC291C061C281C9B
:1026E0000EF019FC011C301C0EF015FC45490EF0D3
:1026F00012FC0EF087FC80263C4B311A0093200020
:1027000001230C2219F04EF93F49281C0EF042FC1F
:1027100000285BD03C49281C0EF0E3FB3B490EF03F
:10272000E6FB011C071C0EF0DFFB011C34480EF019
:10273000D8FB391C8046381C0EF0EDFB011C4046CE
:102740000EF0E9FB32490EF0E6FB0EF05BFC284B85
:10275000311A0093200002231A2219F023F92D497F
:10276000281C0EF017FC002838D02A49281C0EF02F
:10277000B8FB29490EF0BBFB011C051C0EF0B4FB95
:10278000011C1F480EF0ADFB291C071C281C0EF075
:10279000C2FB011C381C0EF0BEFB20490EF0BBFB37
:1027A0000EF030FC311A134B30220093200001232D
:1027B00019F0F8F857E720000221194B1C2200936A
:1027C0004C300223494219F0EDF84CE7084B1A222D
:1027D000009380210223200019F0E4F88021E2E731
:1027E000B70B000093110000571B00007C940610EB
:1027F000889406109494061048F4FFFF0080BB44B0
:10280000000040400000B642CDCC4C3ECDCC4C3F09
:102810000000F842CDCCCC3E9A99193F0000AA4264
:1028200070940610F0B5DE4657464E4645463623B0
:10283000E0B5A7B00C00362200214C30009349339C
:10284000039019F045F808AB9B460AAB0893D64BAA
:1028500006A91A680A926A469B8893855A460623F7
:1028600053600023937310AA0E92D04A0A85022265
:102870000F920A002A21521813702378062B01D9CF
:1028800000F057FCCA4A9B00D3589F4616AB0293F0
:102890001493012304930023089A14AD1AAC2B72ED
:1028A000069223721CAA6B6002330626100098461B
:1028B0001A9205920222BF490EF08AFC1A9B994691
:1028C00043464A4663604146002353546368984632
:1028D0004246B94B9B1AB34201D200F044FC1A980D
:1028E000059B9719984200D173E3A3689F4200D9D2
:1028F00056E24044012E01D100F0F6FB3200069969
:102900000EF066FC1A9B99464A4600236760D35531
:102910001A9B9A46636899466B6898464246A64B4E
:102920009B1A994501D900F01EFC4E46149F029B4C
:1029300046449F4200D159E3AB689E4200D9FBE276
:102940004B46002B09D038004044012B00D1D2E384
:102950004A4651460EF03CFC149F00236E60BB5566
:102960001A98059B984203D0A16801310EF046FCED
:102970006C68914B9C4201D100F0F5FB149B029ACC
:10298000661C934200D18AE3AA68964200D900E30C
:1029900020221A55149F00236E60BB5519E0874B07
:1029A00010AA934200D3D3E1854B10AA10930423BD
:1029B0000F93002313715B465E680123049316ABEB
:1029C00002931493002314AD2B726B60002E00D081
:1029D0001AE20E9B0F9E059322AB2093002320AC9E
:1029E00023726360B31C9A460F2B00D8BEE0002B05
:1029F00000DAA5E31D2B00D8C4E1F01C00D54FE19F
:102A00000EF0ECFB209B6768814698467A1C002FED
:102A100000D14DE2002A00D0ACE1A168404601316E
:102A20000EF0ECFB4B46209353466768A360624B65
:102A3000DB1B012B00D896E3BB1C9846534500D9FD
:102A4000C4E03800484402225E490EF0C1FB209BDE
:102A5000994643464A46636041460023535463689F
:102A600099464A46544B9B1A9E4200D97BE3B04696
:102A7000209F22ABC8449F4200D1FEE1A368984545
:102A800000D9CDE0002E09D038004844012E00D1F5
:102A90007CE1320005990EF09BFB209F43464246A5
:102AA00063600023BB54209B9A46636898466B681A
:102AB00099464A46404B9B1A984500D953E34746EE
:102AC000149E029B4F449E4200D1E4E1AB689F42BA
:102AD00000D9DBE04346002B09D030004844012BED
:102AE00000D158E1424651460EF072FB149E00237D
:102AF0006F60F355209822AB984203D0A168013152
:102B00000EF07CFB6A6853009B18049A5B00002A55
:102B100030D16E240021E41A6410149B12340398FF
:102B2000009338220123611818F03CFF1498029B8F
:102B3000984203D0A96801310EF060FB0E9810ABEB
:102B4000984203D0109901310EF058FB08980AAB57
:102B5000984204D05B46996801310EF04FFB27B0D4
:102B6000F0BCBB46B246A946A046F0BD022322A84F
:102B7000984668E75024039EE41A64102100382226
:102B80003000FFF7DDFBE11D38223000FFF740FC8D
:102B900021000D4B0F31009338220123300018F033
:102BA00001FF0C341221B8E79C9406104F4B000033
:102BB000F8C40610DC940610FFFFFF7FEC990610A6
:102BC00053617665E0940610E49406104346002BAA
:102BD00000DAB5E253465B000693984500D311E254
:102BE000002B5DDB581C0EF0F9FA209B81469A46BB
:102BF0003A00514648460EF0EBFA38000222C94925
:102C000048440EF0E5FA22AB9A4504D0A16850463C
:102C100001310EF0F3FA4B462093069BA36018E7B0
:102C20004246002A00DA8BE25B000693984500D208
:102C300001E24346581C33D406930EF0CFFA209B92
:102C400007009A464B46002B06D0012B00D143E2E9
:102C50004A4651460EF0BCFA059B002B0AD0002EC6
:102C600008D04B46F818012E00D149E232000599F0
:102C70000EF0AEFA22AB9A4504D0A168504601315D
:102C80000EF0BCFA069B2097A36007E7002F00DA3E
:102C900056E25B0006939F4204D2581C002B04DAD4
:102CA00026F0B8FA781CFBD406970EF097FA149B1E
:102CB000060005934B46002B06D0012B00D10FE2F6
:102CC0004A4605990EF084FA5346002B0CD0434631
:102CD000002B09D04B46F0184346012B00D113E2DC
:102CE000424651460EF074FA0598029B984203D072
:102CF000A96801310EF082FA069B1496AB60F6E6E5
:102D0000894B10AA934206D306A92A228C46624414
:102D1000934200D817E21A682E2110929B8806AAC7
:102D2000938506230F930023521813705B465A684D
:102D30000AA97E4B994203D88818834200D815E22D
:102D400000235A4653600B7000235668049336E6FE
:102D500006A92A228C466244934200D924E6002226
:102D600001920432009210A9023A0EA834F052F8EF
:102D70000E9A1CE619000EF02BFA22AB984500D0F3
:102D80004BE69CE01E231F209A4639E6059B1B78E4
:102D90000370209F82E653461B780370149EA6E6BC
:102DA000002F00DACCE15B0007939F4200D264E180
:102DB000781C00D574E707970EF010FA1A9B81462D
:102DC0009A464346002B06D0012B00D1A0E1424693
:102DD00051460EF0FDF9069B002B08D040464844B2
:102DE000012E00D158E1190032000EF0F1F9059BD7
:102DF0009A4504D0A168504601310EF0FFF94B46C8
:102E00001A93079BA3607FE5089A1AAC0692237277
:102E10001CAA6360B31C9A4605921A920F2B00D825
:102E200082E1002B00DA8BE11D2B00D808E1F01CB9
:102E300000D535E70EF0D2F91A9B676881469846AF
:102E40007A1C002F00D13BE1002A00D0E5E0A16808
:102E5000404601310EF0D2F94B461A93534667684B
:102E6000A360334BDB1B012B00D87CE1BB1C9846D5
:102E70009A452BD3380048441CE543460F2B00D815
:102E800000E6002B00DA5BE11D2B00D9D1E61E2302
:102E90001F200693D1E60F2F00D81BE6002F00DA83
:102EA0004EE11D2F00D9FDE61E231F200693FCE6F0
:102EB0001B78037022AB984500D0AEE500274B4647
:102EC00020935346A360BB1C9846BAE54346002BAB
:102ED00000DA35E153465B000793984500D2C2E023
:102EE000F81C00D5DCE60EF079F91A9B81469A466B
:102EF000434607933A00514648460EF069F93800B8
:102F000002220C4948440EF063F9059B9A4504D00F
:102F1000A168504601310EF071F94B461A93079B98
:102F2000A360CDE4E0940610A49406106CA30610F0
:102F3000FFFFFF7FDC940610002E00DA00E15B004B
:102F400007939E4200D29DE0701C00D5A8E607962C
:102F50000EF044F9149B070006934346002B06D05D
:102F6000012B00D1D8E0424606990EF031F95346C4
:102F7000002B02D04B46002B66D10698029B98424C
:102F800003D0A96801310EF039F9079B1497AB60A3
:102F9000E3E4002E00DAD3E0530098469E4276D355
:102FA000A01C00D57CE6B0460EF018F9149B070073
:102FB0009946002C52D120233B55029B994504D0C1
:102FC000A968484601310EF019F943461497AB60E1
:102FD000E1E40F2F00D88CE4002F00DAB0E01D2FC1
:102FE00000D9E5E61E231F200793E5E60F2E00D843
:102FF000A6E4002E00DAA3E01D2EA5D81E231F2074
:103000000793A5E7F81C00D54AE60EF0E7F8209BE9
:1030100081469A4643460693EAE519000EF0D8F831
:10302000059B984500D012E74B461A935346A36080
:10303000BB1C98461EE7581C002B00DA30E6FCE566
:103040001E231F209A46F5E64346F8184B46012BEF
:1030500066D04A4651460EF0BBF88EE7012C29D1C6
:103060001B780370A7E7002B00DA19E6581C0EF056
:10307000B5F81A9B81469A463CE7581C002B00DAAB
:103080000EE699E6581C002B00DA09E660E7581CAA
:10309000002B00DA04E687E71B780370A7E6102E02
:1030A00000D075E41F200EF099F8149B0700994694
:1030B0001E2398462200494638000EF089F87AE728
:1030C0001B780370059B984500D0C0E65346A3606B
:1030D00002231A909846CDE653461B780370BBE551
:1030E000059B1B780370EFE5069B1B7803701A9B0A
:1030F0009946FFF709FC53461B780370149F2CE494
:10310000059B1B780370B5E553461B780370EBE510
:1031100053461B7803705EE6069B1B78037026E718
:1031200053461B78037028E7022305989846FFF75B
:10313000C1FB16AB0293149300230493FFF7ABFB80
:103140000E4826F0AFF800240625022210A90194AB
:1031500000950EA833F05EFE0E9B0F959C715B46AA
:1031600008995A68E5E5064826F09CF80020019089
:103170000090584633F04EFE0899E1E5AC940610F5
:10318000C4940610F0B5DE4657464E464546E0B5B7
:10319000C94BE3B09C680390002C14D04222191D47
:1031A000825C03E02100A468002C05D0237C9342BC
:1031B000F8D2E468002CF9D1C04B0291994202D0B8
:1031C0000B7C934206D963B0F0BCBB46B246A9461D
:1031D000A046F0BD0B7D062B60D1039B4C330493BE
:1031E0000A230A22009300217533049818F070FB1B
:1031F000029B1B7D062B00D166E1022B00D18DE1E5
:1032000017AA100017000892002219A90691179119
:1032100042600272042B00D120E300D988E0012B28
:1032200000D81BE3422344220399CB5C8A5A991F9E
:10323000012900D838E10D2B00D135E1002A01D059
:1032400000F043FF9E4B069A03CB03C208237B602A
:103250000023069C08220A2120003B745AF080FEBD
:10326000002801D100F08EFF041B631C01D100F087
:10327000B6FF2BABA14609932993082C01D908234B
:103280009946069E4B46012B01D100F01EFE29AD4A
:10329000002B01D000F026FC099AAFE00D008B69ED
:1032A000039800934C30012300220021049018F071
:1032B00079FB2B7D032B13D00FD9052B90D10CF06C
:1032C000CBFB00292FD0FA22002392000DF074FAD4
:1032D0000A23039A1067137275E7022B00D17FE768
:1032E000029B5D6B1B6BED1A1C2D00D878E7442602
:1032F000039B9A5B002A01D000F0AAFDAD10EB0001
:103300005B1999015B18DB005B19D9035B18DB00C3
:103310005B19DB439A4200D362E7022279210498C9
:10332000FFF776F85CE7FA2189000DF007FACFE79E
:10333000052B01D000F086FD4423039AD15A029B4D
:103340001D6B586B401B8010C3001B189A019B1803
:10335000DB001B18DA039A18D2001218524291426D
:1033600001D300F075FFCB005B1A9B00ED18089BA2
:103370009D4201D100F066FD6E680F2E01D900F06C
:1033800070FD002E00D080E3069A00237E609355E6
:10339000029B189A1B7D9146179E042B00D1A3E334
:1033A000002A01D100F04FFD0A2130005AF0D8FD6B
:1033B000002801D100F0B4FD841B631C01D100F092
:1033C000AFFD2BAB09932993A14500D9A1464B46EC
:1033D0000F2B00D856E7002B01DA00F044FF581CF1
:1033E00001D500F033FD0DF0F9FE4B4629AD2990D3
:1033F000AB604A4631000DF0EBFE299A4B46494638
:103400006B60002353547B6801349C4201D900F067
:1034100025FF179F2FAA31AE3F1993462F961C1BED
:103420000F2C01D900F05BFD012C01D100F053FD00
:10343000002C00D04FE332005B465C600023135544
:103440005B466A685F685100299B89180A2A03D87D
:103450000A2F01D800F09FFD80240498490080467F
:10346000611A182249080093012318F09BFA7B0087
:10347000DB195B00E11A2F9B2022009340460123B9
:10348000490818F08FFA2F98B04204D05B4699682B
:1034900001310DF0B3FE2998099B984229D0A96803
:1034A00001310DF0ABFE24E0002A00D0F6E2054B1E
:1034B000069A03CB03C2C9E6143C0020183C002046
:1034C000A49506108C950610039B9B6F002B00D0D3
:1034D00033E217AA1100089219AA4B600B7216006A
:1034E00040211792069202231C220498009618F09D
:1034F00059FA1798069B984204D0089B99680131A5
:103500000DF07CFE029A137D043B012B00D85AE695
:10351000143211000398FFF785F954E64423039A07
:10352000D45A092C01D800F070FE632C00D8BDE2FB
:10353000FA239B009C4201D200F06EFDC34B9C42DB
:1035400001D800F09EFD0DAB99460B9300230C9320
:1035500005339A4604260BAD2D232B722FAB180092
:10356000C922BB499B460DF033FEB84BAE199846B5
:1035700053463700AA460593200064210DF0DEF87B
:1035800020004E0064210DF0D9F85B469B195B7852
:1035900025003B725B469B5D0400FB71023F454585
:1035A000EAD8059B2F0055469A46FA239B009F4276
:1035B00000D388E23034E4B25346002251466B60B7
:1035C0000B9B2C725A546C68A24B9C4201D100F0A8
:1035D00050FE0B9F661C4F4501D100F090FDAB687B
:1035E0009E4201D900F0F0FC9B4B9F4204D83A194F
:1035F000934201D800F040FE002C08D0012C01D1EC
:1036000000F0CCFD22003900781C57F043FA282343
:103610003B700B9F00236E609A46BB5513AB9846D8
:1036200011930B9B6E6811AC4B4501D100F053FD1B
:1036300049460B915146AA686960297285491193E0
:10364000A26066608E4201D100F010FE771C4345F7
:1036500001D100F04DFD974201D900F0E8FC29228C
:103660009A55119B9B4600235A466760D355119A81
:103670001DAB05931FAB66681D93424501D100F059
:103680006AFD0599A3680C001D928B600B9866601B
:10369000484505D0A96801310DF0B0FD66681D9A56
:1036A000802173009B195B00C91A0092012311222B
:1036B0000498490818F076F9029B9F8F23AB99462E
:1036C00025AB23934A460793012353602F333C00D5
:1036D0001381092F01D800F090FD632F00D8DFE39C
:1036E000FA239B009F4201D200F0E1FC574B9F421E
:1036F00001D800F0D1FC2BAB2993099300230426B9
:103700002A93053329AD06932D232B722FAB180076
:10371000C9224F499B460DF05BFD4C4BA8469A468B
:10372000AE190897200064210DF008F820004F0022
:1037300064210DF003F85B46DB195B7825003372DA
:103740005B46DB5D0400F371023E5545EAD8434613
:10375000A8461D00FA23089F9B00984500D3ACE3C0
:103760003034E4B200222C720699299B69605A54C5
:10377000049E239B0221300000931D32012318F088
:1037800011F980216A68300053009B185B00C91A48
:10379000299B1D220093012318F004F927232F24CD
:1037A0002722022130000093573318F091F87E232E
:1037B0002F2202213000009418F08AF802232722D9
:1037C00002213000009418F083F87E2327227E2106
:1037D0003000009418F07CF8002F1BD04423039A8B
:1037E0003900D35A1801C01AC0000CF07FFF00281E
:1037F00010D02926A846049D071D0424210032006C
:103800002800013418F050F8BC42F7D101362D2EB3
:10381000F3D145462998099B984203D0A968013104
:103820000DF0ECFC2398079B984204D04B46996816
:1038300001310DF0E3FC1D981FAB984200D161E609
:10384000059B996801310DF0D9FC5BE60F2700005C
:1038500028960610FFFFFF7F3C950610442203992F
:10386000895A029A156B506B401B8010C2001218C7
:1038700096019219D2001218D6039219D20012188A
:103880005242914201D300F0E3FCCA00521A920066
:10389000AD18BD4200D06FE5042B00D0D2E223ABBF
:1038A000994625AB23934A460793002300259A4661
:1038B00053601372059301335A00D318DB001800CC
:1038C00098460DF08BFC83465D442800239B079AA5
:1038D00008302860934201D100F087FC2B604B46F2
:1038E0009B68AB604B465E68079B4A462393002368
:1038F0006E6053601372A24501D100F074FC434620
:10390000270026005D46A0460837099309E02B6092
:10391000B368AB6018366C6018371835B24500D103
:1039200012E328003368083074682860BB42EED187
:103930003900621C0DF04CFCECE77C23039A049CDC
:10394000D35A200099467E23D75A0233D3580021F8
:103950009A464423D35C00229846E04B29AD00935D
:10396000012318F01FF809232000092200210093E9
:10397000763317F0ADFFDA4B2A00190051C951C256
:103980000968103311602FAA934613CB13C21B682A
:10399000002413604A461DAB1F805A80059353468E
:1039A0001E9323AB99467F239A46CE4F5A46A300D7
:1039B0002E68D35804980E22B11F0093012317F0EC
:1039C000F1FF059A6300D35A08213A0048460FF0E8
:1039D00083F848465AF002FB8100411A8919CA430C
:1039E0004300D2171B185B0011405A187F2A01DDD3
:1039F0005246D11A4B46182200930498012317F01F
:103A0000D1FFA0452ED001340435042CCED125237E
:103A1000049C00932000252200215A3317F058FF00
:103A2000B14B200000932A220123042117F0BAFF92
:103A3000AE4B200000932A220123482117F0B2FF49
:103A4000AB4B2000009336220123042117F0AAFF7C
:103A5000A84B362200934C210123200017F0A2FF2F
:103A6000FFF7B1FB33000B337F2B1DDC31000B392B
:103A7000CA43D2171140212204980092013417F052
:103A800027FF0435042C91D1C1E7069B296898468D
:103A9000012E00D0FDE10B783B7275E4964B069A3F
:103AA00003CB03C2FFF7D2FB7F23DFE70DAB0B9302
:103AB00099462FAB1800C92290499B460DF088FB10
:103AC00002239A460BAD5B4664001B195B786B7250
:103AD0005B461C5D70E53000220039000DF078FB7C
:103AE0002F9AA9E4099884E4002A00D1D7E600239C
:103AF00000259B46B24605934B465E1B53465F1915
:103B000032000A2138005AF02BFA002800D113E1C4
:103B10005346C31A9A46013300D10DE11DAB9946B5
:103B20001FAB1D9353465D1BB54200D935000F2DC9
:103B300000D9B6E0012D00D1BFE0002D21D14B46C8
:103B40005D6000231FAA5355059B9C4226D04A4620
:103B500020001D9B556808301FAA2060934200D1A9
:103B60006BE123604B469B68A36065605546189BDC
:103B70000135994618349D4200D389E0179B9A4637
:103B8000BAE71FA82A0039000DF022FB4B461D9A08
:103B90005D6000235355059B9C42D8D15B46E51AD6
:103BA000EA1093009B1819015B1819025B1819049D
:103BB0005B185B009B18524A934200D14BE30122F1
:103BC000002B00D0A4E04E4B9A4200D91A005300BB
:103BD0009B18DB00180007930DF000FB804645445E
:103BE00028001D9B08301FAA2860934200D190E155
:103BF0002B604B469B68AB604B465E681FAB1D93CA
:103C00004A4600236E60536013725C4500D199E10F
:103C10005F465E464546083728000830286033680E
:103C20007268BB424DD02B60B3681836AB606A60D7
:103C300018371835B442EFD15B46183CE21A314BC5
:103C4000D2085343DB00DB0801335C00E418E400D6
:103C500044445B461834002B00D1F4E25A46059BDD
:103C60005846991A0DF0CAFA079B1D9843440593CC
:103C70001FAB984204D04B46996801310DF0BEFA53
:103C8000C3465546189B013599469D4200D275E7BB
:103C90009D4200D8CCE24B462A001B491B4825F028
:103CA00031FB002D00DADEE2681C00D5CEE00DF01D
:103CB00095FA4B461D909D6064E74A463B78137227
:103CC0003DE7390001320DF083FA736818366B60F6
:103CD00018371835B4429FD1AEE7C046E8940610B5
:103CE000E8C50610F8940610FC940610049506101A
:103CF0000C95061018950610989506102896061033
:103D000055555505ABAAAA0AD8950610F095061088
:103D10005A00934200D856E7DC480DF05FFA80461F
:103D2000454428001D9B08301FAA2860934200D1FB
:103D30001AE2D64A07925BE7B046A945ABD323AB5C
:103D4000994625AB3500079323930F2E00D8D1E079
:103D5000002E00DA87E2701C78D40DF03FFA4B4653
:103D600023909E60424639000DF032FA239B434473
:103D70004A46556000221A70059BA34200D1CDE14E
:103D80004A4620005568239B079A083020609342DA
:103D900000D1EEE123604B469B68A3606560183458
:103DA00027005B46FA1AD21093009B1819015B1882
:103DB00019025B1819045B185B00994691444B4645
:103DC0003625DB00ED1A6D100A35BB452DD080235A
:103DD0009846049BBA465C464F460026994663685F
:103DE0002A005900C91843464900591A2368484611
:103DF000009349080123013617F0D4FD1834083523
:103E0000BE42ECD357465C462300206808339842F4
:103E100003D0A16801310DF0F1F91834A742F3D1B4
:103E20005B46002B01D1FFF764FB5A46059B5846C1
:103E3000991A0DF0E3F9FFF75CFB6A1C1FA90DF05E
:103E4000C7F992E6069E4021FFF74DFB25F0E2F907
:103E500002226E210498FEF773FA039B9A5BFFF728
:103E60004DFA002E00DAFEE11D2E4ED81E231F2033
:103E700099460DF0B3F9069B80461798984203D0F7
:103E8000B96801310DF0BAF9434617934B46BB6050
:103E90002968320040460DF09BF9179AFFF775FA32
:103EA0002BAB099329932FAB1800C92278499B4665
:103EB0000DF08EF9022329AD06935B4664001B19B1
:103EC0005B786B725B461C5D4CE4337829AD099AD4
:103ED0002B72FFF793FA3B781372FFF7ACFA002CC2
:103EE00000DAC0E1601CB1D40DF078F95B462F9088
:103EF0009C60F1E5012E00D040E14A463B78137208
:103F000008AA75239446634432E7701C9ED4B146D8
:103F1000AFE74B465E68721C1FA90DF059F96DE6BC
:103F20004B460A2B00D830E180215B004B445B00FC
:103F3000C91A1C22012304984908009617F032FD83
:103F4000FFF7D7FA444684E652464446099B183A9E
:103F50009846121B4F4BD2085343DB00DB0801335A
:103F60005F00FF18FF005F441837002C00D166E1A6
:103F7000059B2000191B0DF041F943465B44059356
:103F80002398079B984200D10BE74B469968013173
:103F90000DF034F905E78024049889008046611A01
:103FA000009314220223490817F0FCFC7B00DB1964
:103FB0009B00E11A2F9B24220093404602234908CC
:103FC00017F0F0FCFFF75FFA002E00DA4BE15B0020
:103FD00098469E426FD2581C002B00DA36E70DF04F
:103FE000FDF8282303700B9B07009A46002C07D08E
:103FF000012C00D1F0E022005146781C0DF0E8F8C9
:10400000CA4504D0A968504601310DF0F7F843467F
:104010000B97AB60FFF7FEFA032302269A460DAB1F
:1040200099460B9300230BAD0C93FFF795FA002FE5
:1040300000DA18E15200974242D2002A00DA05E77E
:10404000501C059717000DF0C9F8119B83469A463E
:10405000002E06D0012E00D1BBE0320019000DF079
:10406000B7F829235A469355C24504D0A168504653
:1040700001310DF0C3F85B46A7601193059FFFF770
:10408000F2FA042303269A46C9E7C046F8FFFF7FE9
:1040900028960610ABAAAA0A0423032606932BAB84
:1040A00009932993002329AD2A93FFF72DFB0323BE
:1040B00002260693F3E7A01C00D5C7E6B0468EE7BC
:1040C000B01C00D5C2E60597BDE7714B069A03CB3D
:1040D00003C2FFF7BBF8771C3A00494640460DF093
:1040E00077F84B460B9353466B602B7243466660E2
:1040F000102F01D0FFF7B3FA1F201E22A1E7102EC8
:1041000001D0FFF771FA1F200DF068F82823037023
:104110000B9B07009A461E2398466CE75A469D1A49
:10412000EA1093009B1819015B1819025B18190417
:104130005B185B009B18574A934200D18BE0012229
:10414000002B2FD11300534A934200D91300A246EB
:104150005C46FFF7B1FB721C414618000DF038F8C1
:10416000059C1FAAFFF792FA4B465E684A4B0793DD
:10417000D1E611006A1C0DF02BF80FE6002E55D089
:104180000798EFE50823260099464B4680215B00FF
:104190004B449B00C91A4908FFF7A5F93B787B708F
:1041A000FFF735FA5A009342CCD93B480DF016F888
:1041B000451902002800239B0799083028608B428C
:1041C0002BD05C4605999346334A8A469046FFF7C2
:1041D00085FB1B78037044E71B78437010E70823C6
:1041E000069E9946D1E75F46BEE64B4611005E68E3
:1041F000721C0CF0EDFFFFF777FB2BAB09932993B3
:10420000012329AD0693FFF7ABFA0DAB99460B934B
:1042100001230BAD9A46FFF7CDF94B465E68059B2F
:104220005C469A461C4B93469846E1E7079B9FE500
:1042300025AB23AA002591462393079398E543468F
:104240005B440593ADE5079BC3464344059318E5DE
:10425000124825F057F8124825F024F82200114999
:10426000114825F04FF8114825F01CF8104825F0AA
:1042700019F8104825F016F801223900009228009C
:104280000022019432F0C6FD0B9FFFF7C3F9C04630
:10429000B095061055555505F8FFFF7F409506105F
:1042A000BC950610D8950610F0950610AC94061033
:1042B000C494061020950610F0B505002E4B89B069
:1042C0004C3504000022002128000093012317F040
:1042D00069FB0A23852600930A22763300212800F1
:1042E00017F0F6FAA35D112B2DD8244B0A211222C8
:1042F00028000093012317F055FBA25D204B92008C
:10430000D758380059F06AFE802143001B189B00E3
:10431000C91A1E22022328004910009717F042FBF9
:104320001221A35D03AC174A013300912000023132
:104330000EF0D2FB0123382200212800009417F050
:1043400031FB09B0F0BD104B28000093122202236C
:10435000282117F027FB0D4B280000932A22012368
:104360000E2117F01FFB0A4B382200930A2101236C
:10437000280017F017FBE4E7F496061038970610AC
:1043800078C5061050970610049706100C97061073
:1043900024970610F0B5DE4657464E464546E0B532
:1043A00095B004000BF058FB002900D1A4E0FA22DC
:1043B000002392000CF000FA236FC01A4223E35C42
:1043C000132B00D1A3E0E04B3027984200D842E104
:1043D000DE4B4C340822009307210123200017F004
:1043E000E1FA0023012208AE0AAD089598467372DF
:1043F000D74B37727260AB4200D334E12A00B774F6
:1044000003CB03C21B8813800023F37410AB9A46BE
:104410000E930EAB99460C22290050460CF0D8FEA4
:104420000B234A46536000230895736033721E23A2
:104430001F209B460CF0D2FE07000E9B0B2219009A
:1044400098460CF0C5FE38000822C2490B300CF02B
:10445000BFFED04505D04B469968404601310CF06F
:10446000CDFE4B465A460E979A6013234A46536038
:104470000023FB740E9A04AB984602AF0293524598
:1044800000D150E14B469B680292BB601323089811
:104490007B60A84200D144E1B16801310CF0AEFE6E
:1044A0007968029A4B005B1880215B00C91A2000D2
:1044B000012349080092182217F074FAA64B28220B
:1044C000042120000093012317F06CFAA34B200075
:1044D000009334220123012117F064FA0298404529
:1044E00003D0B96801310CF089FE15B0F0BCBB46B1
:1044F000B246A946A046F0BDFA2189000CF01EF98B
:10450000236FC01A4223E35C132B00D05BE78E4B72
:104510003027984206D8FA2189000CF00FF9352788
:104520003F1AFFB28E4B4C34042200930721012323
:10453000200017F037FA0023012208AE0AAD0895D3
:1045400098467372874B37727260AB4200D3B9E002
:104550002A00377583CB83C20023737510AB9A464C
:104560000E930EAB99460E22290050460CF030FEF9
:104570000D234A46536000230895736033721E234F
:104580001F209B460CF02AFE07000E9B0D221900EF
:1045900098460CF01DFE3800032273490D300CF0D4
:1045A00017FED04505D04B469968404601310CF0C6
:1045B00025FE4B465A460E979A6010234A46536092
:1045C00000233B740E9A04AB984602AF0293524507
:1045D00000D1B1E04B469B680292BB601023089863
:1045E0007B60A84200D1A5E0B16801310CF006FE65
:1045F0007968029A4B005B1880215B00C91A200081
:10460000012349080092102217F0CCF91A231A222C
:104610000A21200000935B3317F05AF9534B2022F4
:10462000072120000093012317F0BCF9504B2A22E8
:104630000A2120000093012317F0B4F94D4B20000C
:10464000009334220123072117F0ACF9029840456A
:1046500000D046E749E7FA2189000CF06FF83527CA
:104660003F1AFFB2B4E6292169448B4200D9C5E65E
:1046700001920932300000922900424632F0CAFB12
:1046800043460B2208987260C3720EAB994610AB7A
:104690009A460E93A84200D1BDE649460E904A6064
:1046A0004246B36808958B6072603272504500D103
:1046B000BDE6122B6AD9082226490B300CF088FD82
:1046C0000E9FD2E6292169448B4200D940E701922E
:1046D0000B32300000922900424632F09BFB4346E9
:1046E0000D220898726043730EAB994610AB9A4640
:1046F0000E93A84200D136E749460E904A604246E2
:10470000B36808958B6072603272504500D136E70D
:104710000F2B31D9032214490D300CF059FD0E9F97
:104720004BE71321BEE61422514618000CF050FD51
:104730004246ABE610215DE71122514618000CF00D
:1047400047FD42464AE7C04687130000B897061067
:10475000CC970610D8970610E4970610FC97061021
:10476000589706106C970610C89706107C9706108D
:1047700090970610A49706105B009B46581C102BC0
:1047800000D9FFE6102311209B46FBE65B009B4609
:10479000581C132B00D94DE6132314209B4649E6E1
:1047A00030B5836F8BB0002B53D09722D2009B582B
:1047B0004C300400092B00D181E00A2B00D1AAE083
:1047C000022B48D0644B002222210093012317F0D2
:1047D000E9F80A230A22002120000093753317F01C
:1047E00077F85E4B14220A2120000093012317F072
:1047F000D9F85B4B1D22222120000093012317F0E2
:10480000D1F8584B2922042120000093012317F0EE
:10481000C9F8342334220021009320004B3317F0D1
:1048200057F8514B514A524902AD009128002021BE
:104830000EF052F9280059F0D1FB802143001B18DB
:104840005B00C91A3722012320004910009517F098
:10485000A9F80BB030BD474B00221C210093012367
:1048600017F0A0F80A230A220021200000937533D4
:1048700017F02EF8404B102219212000009301233D
:1048800017F090F83D4B1B220A21200000930123D2
:1048900017F088F83A4B26220D21200000930123BF
:1048A00017F080F8342334220021009320004B338A
:1048B00017F00EF802AD2C4B2C4A3249B5E7324BBB
:1048C00000221F210093012317F06CF80A230A220B
:1048D000002120000093753316F0FAFF2B4B1422B1
:1048E000102120000093012317F05CF8284B1D22B3
:1048F000252120000093012317F054F8342334229B
:104900000021009320004B3316F0E2FF02AD164B5E
:10491000164A204989E7204B062200930A210223E8
:1049200017F040F81A23200000931A220021653363
:1049300016F0CEFF194B20000093232201230421FF
:1049400017F030F8164B2C2200930D210123200084
:1049500017F028F87DE7C046E8980610F49806108E
:1049600008990610149906104098061048980610E9
:104970002C99061094980610A4980610B498061066
:10498000C8980610DC980610149806102098061097
:1049900034980610509806105C9806106898061017
:1049A00080980610F0B5C64600B5856F04008CB03F
:1049B000002D63D09723DB009C46EF58654429798E
:1049C000374B8A0006AE0131D3580091354A182181
:1049D00030000EF081F8300059F000FB80234100D8
:1049E000091849004C34591A0022200049109846F1
:1049F00000967F3B16F0D6FF092309220093002181
:104A00002000763316F064FF042F3BD0264B0D2296
:104A1000192120000093012316F0C4FF05212B7DEE
:104A200002AD224A009128000B310EF055F8280003
:104A300059F0D4FA424643001B185B00D11A4910C2
:104A400001231D222000009516F0ACFF184B2A22EE
:104A5000009322210123200016F0A4FF34233422E6
:104A60000021200000934B3316F032FF114B372208
:104A7000009328210123200016F094FF0CB080BC85
:104A8000B846F0BD0C4B10221921009320000123E1
:104A900016F088FF094B1E2200932E210223DAE72D
:104AA000D8C5061034990610609906107099061042
:104AB00080990610549906104099061050990610D6
:104AC000F0B5C64600B5856F92B0002D6ED0394B5B
:104AD0004C3000220D2100930123040016F062FFE8
:104AE00009230922002120000093763316F0F0FEFE
:104AF0009723DB009C4602A9884665442B890E213A
:104B00002D4A06AF40460DF0E7FF0AAEEB880E21B6
:104B10002A4A38000DF0E0FF6B890E21284A300048
:104B20000DF0DAFFAB890EAD0E21264A28000DF0FC
:104B3000D3FF43460C22022120000093012316F0EC
:104B400031FF01230C2242212000009716F02AFF9A
:104B50000123152202212000009616F023FF0123D5
:104B6000152242212000009516F01CFF1F231F2252
:104B7000002120000093603316F0AAFE124B212280
:104B8000192120000093012316F00CFF3423342256
:104B90000021200000934B3316F09AFE0B4B372276
:104BA000009310210123200016F0FCFE12B080BCFF
:104BB000B846F0BD8C990610A0990610AC99061065
:104BC000B8990610C4990610D0990610E0990610FD
:104BD0004C3010B504000D4B82B00093122202231A
:104BE000222116F0DFFE0A4B200000932A22012327
:104BF0001C2116F0D7FE074B332200931921012305
:104C0000200016F0CFFE02B010BDC046149A061068
:104C10001C9A06102C9A061030B5856F89B0002DAD
:104C200058D03B4B4C300122162100930123040045
:104C300016F0B8FE0A230A220021200000937533E3
:104C400016F046FE334B9C46012365442A781D002E
:104C500051089008154019401840D20813404218D6
:104C6000AA18D218012A37D1002D46D1002949D1DE
:104C7000002849D1002B49D1274B02AD1821274AE2
:104C800028000DF029FF280059F0A8F980214300E1
:104C90001B185B00C91A1722012320004910009538
:104CA00016F080FE1E4B2B220A21200000930123C8
:104CB00016F078FE342334220021200000934B3379
:104CC00016F006FE174B3722009304210123200023
:104CD00016F068FE09B030BD134B2000009313227C
:104CE0000123132116F05EFE104B1C2200931621A7
:104CF0000123200016F056FED4E700230C4A9B0047
:104D00009B58BAE70123F9E70223F7E70323F5E706
:104D1000449A0610EA0400003C9A0610549A0610C1
:104D2000849A0610989A0610649A0610749A0610CF
:104D3000C8C50610F0B5DE4657464E464546E0B5B6
:104D40000C0087B0002B51D01D004C239C46002640
:104D500084446346B0460027160005930490BB19AF
:104D60009A462B1999467F2B09D853463F2B06D8D4
:104D7000049B52464C334946180016F095FDAB197A
:104D80009B46621B3B19E11B0293019200917F2B12
:104D900033D85B46002B6CDB3F2B00DCA2E07F2985
:104DA0004AD97F2A00D8CAE0731B3F2B06D8059B3F
:104DB000180003930299721B16F076FD4B467F2B69
:104DC00009D8F31B3F2B06D8059B0393494603984C
:104DD000F21B16F069FD4346002B1FDD4246013DE4
:104DE0006B000133D31A9846AF42B8DD07B0F0BC70
:104DF000BB46B246A946A046F0BD7F2916D97F2AF8
:104E0000DCD85346002B00DA88E03F2B00DCD8E0EA
:104E1000F31B00D49BE04346002BDFDC01377B0013
:104E2000013398444346002BD8DCDDE75B46002B7A
:104E300000DACFE03F2B2CDD7F2A35D85346002BFC
:104E400000DAA7E03F2B00DCBBE0F31B00D4EEE070
:104E5000731BC0D43F2BBEDC049B00994C3318005D
:104E6000721B039316F020FD029B7F2BA6D803989C
:104E7000A0E77F2A20DD7F2996D8731B3F2B9DDC7E
:104E8000049B721B4C331800039316F00DFD03981E
:104E900090E7049B4C3303935A460099039816F00D
:104EA00003FD019B7F2B64D9731B00D586E7731B21
:104EB0003F2B00DD82E7CFE75346002B64DB3F2B1F
:104EC00000DC7EE0F31B73D4F31B3F2B41DD009B22
:104ED0007F2B71D8731B00D57DE7731B3F2B00DD43
:104EE00079E7B9E7049B5A464C33180002990393BB
:104EF00016F0DAFC009B7F2BCED9019B7F2B00D9CB
:104F000052E75346002B00DA9AE03F2B5CDDF31B9F
:104F100000D549E73F2B4FDC03981EE0F31B3F2BE6
:104F200000DD58E7049B01994C331800F21B0393F2
:104F300016F0BAFC4B467F2B00D94CE746E75346A8
:104F4000002B5EDB3F2B3CDDF31B00D52CE73F2B1A
:104F500032DC049B4C33180003930199F21B16F0CA
:104F6000A3FC009B7F2B9FD9029B7F2B00D81BE7C4
:104F7000E0E75346002B50DB3F2B25DDF31B00D52C
:104F800066E73F2BA6DCC7E7F31B3F2BE1DD7F295C
:104F90008DD909E7F31B3F2B9CDC049B01994C3313
:104FA0001800F21B039316F07FFC731BC2D47EE73C
:104FB000009B7F2B00D84BE7029B7F2B00D8F3E6AA
:104FC00009E7049B4C33039352460199039816F06A
:104FD0006BFC77E77F2A08DC5346002B2BDB3F2B4B
:104FE000EFDDF31B00D533E76EE7731B3F2B00DDCE
:104FF000E4E6049B00994C331800721B16F054FC35
:10500000DCE6F31B3F2B00DDCEE6049B01994C331D
:105010001800F21B16F048FCC6E6F31B3F2B00DD20
:1050200058E701990398F21B16F03EFC3CE73F2B32
:1050300000DD4FE78DE7F31B3F2B00DD4DE788E7F1
:10504000F31B3F2B00DDAFE601990398F21B16F02E
:105050002BFCA9E6F0B5DE4657464E4645464023B2
:10506000E0B5C35C04008DB00D2B01D900F02FFC1E
:10507000D34A9B00D3589F4608AB99460693D14B21
:10508000092608930023042006AF3B730522CE496E
:1050900048440CF09DF8069D00237E60AB5525002A
:1050A000069B4C350022002128000093012316F0B6
:1050B00079FC0A230A22002128000093763316F097
:1050C00007FC0AF0C9FC002900D19DE2FA22002366
:1050D00092000BF071FB82460023A07C98460028CA
:1050E00004D07433E25C733B5A4090460022237B29
:1050F00002920393002B04D07532A65C743A56409A
:105100000296217EA27F002900D044E2002A00D12D
:1051100036E37722A25C4346002A00D160E3002BED
:1051200001D000F0E5FB029B002B01D000F0E7FB73
:10513000039B09041B02034312060B4313436367DB
:10514000A24B04979846082343449B465346029338
:105150004B464746039405933E787C78731E9946E8
:10516000631E9A461A004946280016F09DFB5246D7
:105170003100280016F098FB731C9846190052461F
:10518000280016F091FB22004946280016F08CFBFF
:1051900022003100280016F087FB2200414601342E
:1051A000280016F081FB22004946280016F07CFBFF
:1051B00022003100280016F077FB0237220041461A
:1051C000280016F071FB5F45C6D1029B039C9A46EE
:1051D000059B049F99468723E25C002A06D086211E
:1051E000625C0D2A00D9E3E2013262548923E25C59
:1051F000002A06D08821625C0D2A00D9DBE2013248
:1052000062548B23E25C002A06D08A21625C0D2A5C
:1052100000D9D3E2013262548D23E25C002A06D029
:105220008C21625C0D2A00D9CBE2013262548F23BB
:10523000E25C002A06D08E21625C0D2A00D9C3E20E
:10524000013262549123E25C002A06D09021625C14
:105250000D2A00D9BBE2013262549323E25C002A9A
:1052600006D09221625C0D2A00D84AE20022E25464
:105270009523E25C002A06D09421625C0D2A00D8B6
:1052800042E20022E2548723E35C002B00D024E2B8
:105290008923E35C002B00D017E28B23E35C002B17
:1052A00000D00AE28D23E35C002B00D0FDE18F23C8
:1052B000E35C002B00D0F0E19123E35C002B00D0F5
:1052C000E3E19323E35C002B00D0D6E19523E35C7C
:1052D000002B00D0C9E13B23E25C013BE35C002AE8
:1052E00000D197E13A4E3178002900D1FDE13949EA
:1052F00009688846002B00D1FEE1374884460078D3
:10530000002802D1514635480160012041463070E5
:1053100060460370002905D05046411A962040008F
:10532000814267D82D480168002905D05046411AAE
:105330009620400081425DD83021615C002900D078
:10534000F0E13131615C00294CD13231615C0029DE
:1053500000D094E23331615C002900D0C1E23431E5
:10536000615C002900D0F4E23631615C002900D094
:1053700005E33531615C002900D00DE33731615C14
:10538000002900D034E33831615C002900D057E3B4
:105390003931615C002900D055E3002B00D055E382
:1053A000002A00D058E33C33E35C002B00D050E3EC
:1053B0003D33E35C002B1DD0094B313114E0C04676
:1053C00014C506104D494449989B0610C0C50610E7
:1053D00095620020584A002094620020544A002020
:1053E000F89A06103421D14B009310220123280093
:1053F00016F0D8FA362336220021280000934A33CB
:1054000016F066FACA4B28000093382201230021C7
:1054100016F0C8FA0698484503D0B96801310BF078
:10542000EDFE0DB0F0BCBB46B246A946A046F0BDAD
:1054300008AB99464A460693BE4B03CB03C21B8872
:105440001380002306AF0F260A20BB741EE608ABAC
:1054500099460693B84B4A4603CB03C2198806AF58
:1054600011809B78102693700B237B600023FB74C4
:105470000B3398461F200BF0B1FE069B42461900E5
:105480009A4605000BF0A4FE43460522AB49E818F6
:105490000BF09EFECA4504D0B968504601310BF0AE
:1054A000ADFE1E230695BB60F6E508AB9946069354
:1054B000A34BD0E708AB99460693A24BCBE708ABCA
:1054C00099464A460693A04B06AF03CB03C200237E
:1054D0000D2608203B74D9E508AB9946494606934A
:1054E0009A4B06AF1A680C2608929A8807208A8081
:1054F0009B798B710023FB73C8E508AB994649463D
:105500000693934B06AF1A8808260A809B780320DF
:105510008B700023FB72B9E508AB99464A460693A7
:105520008C4B03CB03C21B781370002306AF0E26EF
:1055300009207B74AAE508AB99464A460693864B38
:1055400003CB03C21B781370EFE708AB99464A46BA
:105550000693824B06AF23CB23C21B8813261380EE
:105560000E237B600023BB750E33984682E708ABA1
:1055700099464A4606937A4B03CB03C21B88138095
:105580005FE708AB99460693764B64E708AB99460C
:105590000693754B5FE77626A65DB4460126B346B3
:1055A00066465B465E4004964346002A43D0772217
:1055B000A25C002A3FD1002B00D09EE1029B002B71
:1055C00000D0AEE1002E0CD08F22A25C002A00D1C8
:1055D00011E29122A25C002A03D18026903276004B
:1055E000A65201229326A65D002E00D1C2E1952687
:1055F000A65D002E00D09BE5012680237600A6192B
:1056000092365B00338093E5FA2189000BF096F81F
:10561000824661E555490A60002B78D054490878E4
:10562000002800D0D6E0564652480660524E3270EE
:1056300001260E7077E6002B00D0F8E0029B002BCD
:1056400000D01FE1049B002B00D171E58F26A65DE1
:10565000002E00D196E19126A65D002E00D067E5D0
:10566000802390365B00A35362E5942326226D21AC
:105670002000E35CFFF75EFB2DE6922326226D21DE
:105680002000E35CFFF756FB20E6902326224E2104
:105690002000E35CFFF74EFB13E68E2326224E210B
:1056A0002000E35CFFF746FB06E68C2326222F2131
:1056B0002000E35CFFF73EFBF9E58A2326222F2139
:1056C0002000E35CFFF736FBECE58823262210215F
:1056D0002000E35CFFF72EFBDFE586232622102166
:1056E0002000E35CFFF726FBD2E550461F49D04679
:1056F0000860002B00D000E61E4803601C4884466A
:1057000003E601326254B3E501326254BBE5194944
:105710000B6019490B7016490B703021615C002930
:1057200000D10EE63A21154B5EE6C046B09A06104F
:10573000A09B06108C9B0610389B0610989B0610A9
:10574000449B0610509B06105C9B0610689B06103D
:10575000709B0610749B0610809B0610049B06101D
:10576000149B0610209B06102C9B0610584A002004
:1057700094620020544A002095620020009B06108D
:105780004346002B00D09EE0029B002B01D100225B
:10579000CEE48B22A25C002A00D123E18D22A25C00
:1057A000002AF4D180268C327600A6520022BFE473
:1057B0000022E2541AE50022E25422E50022E254DB
:1057C0002AE50022E25432E50022E2543AE50022C2
:1057D000E25442E5A648027001200870A548A2E5FF
:1057E000002B00D080E0029B002B00D1F9E68B2239
:1057F000A25C002A00D117E18D22A35C0493002B48
:1058000000D0EEE680268C22049B7600A652002B68
:1058100000D1E6E6049A90468F26A65D002E00D1C0
:10582000B6E09126A65D002E13D1013644E0002398
:1058300098468723E35C002B00D18DE08923E35C4D
:10584000002B00D198E0029B002B07D1049B002B7A
:10585000E2D14346002B00D16AE4C3E68B26A65D65
:10586000002E00D196E08D26A65D002EEED10136E9
:1058700080237600A6198A365B003380E6E7342160
:105880007D4BB1E58B26A65D002E00D191E08D26E3
:10589000A35D9846002B00D181E0049B002B00D132
:1058A00046E48F26A65D002E6CD09126A35D903E27
:1058B0009846002B00D03BE480237600A6198E3654
:1058C0005B003380C5E7002398460493B1E708AB3B
:1058D000994606933F2306AF062601203B81FFF73A
:1058E000D5FB3121654B7FE5002342460493A0E7B9
:1058F00000234246049398469BE7424699E78B2251
:10590000A35C002B00D194E00232A25C002A01D0FB
:10591000FFF70EFC80268C327600A6521A00FFF7A5
:1059200007FC8B22A25C002A6AD08D22A25C002A8E
:1059300000D167E7002E00D153E68F22A25C002A37
:1059400059D09126A65D002E00D04AE69046013639
:10595000B2E731214A4B47E500239B465B465B009B
:105960009B4686239C46A3448026E3445B46760000
:105970001E8068E7002640E601339B46EEE73121B2
:10598000404B31E580238E265B00A353FFF7D0FB0D
:10599000002691E700266BE734213B4B24E50133D9
:1059A000FF33013EA353049B002B01D1FFF7C0FB43
:1059B00032E780238A265B009846A353049B002B82
:1059C00001D1FFF7B5FB0536A65D002E47D0912625
:1059D000A65D002E01D0FFF7ABFB43469036A353E4
:1059E000FFF7A6FB80238A265B00A353FFF7A0FBEB
:1059F0003421264BF8E480268E227600A652F0E56C
:105A0000330080268A227600A652002B00D1E8E5DA
:105A10000532A25C002A27D09122A25C002A00D085
:105A2000DFE59032A652DCE580268A227600A65277
:105A3000D7E580238A225B00A352029AFFF778FB06
:105A40003D21134BD0E43D21124BCDE43121124BCB
:105A5000CAE43421114BC7E42E21114BC4E48E2635
:105A60004346A353FFF764FB8E22A652B9E5C04616
:105A700095620020544A0020309C0610449C061079
:105A8000B89A0610C09A0610C89A0610D09A061046
:105A9000D89A0610DC9A0610E09A0610F09A0610C2
:105AA000E89A061030B583B0040009F0D5FF00294C
:105AB00021D0FA22002392000AF07EFEA36EC01AC3
:105AC0000F2816D91033A366237A002B18D025008F
:105AD0004C35280015F0E0FE237A0A2B06D8324A0E
