:020000041000EA
:1000000000B5324B212058609868022188439860DF
:10001000D860186158612E4B002199600221596106
:100020000121F02299502B49196001219960352056
:1000300000F044F80222904214D00621196600F024
:1000400034F8196E01211966002018661A6600F04E
:100050002CF8196E196E196E052000F02FF8012189
:100060000842F9D1002199601B49196000215960AB
:100070001A491B48016001219960EB211966A021F2
:10008000196600F012F800219960164914480160C1
:100090000121996001BC002800D000471248134993
:1000A000086003C880F30888084703B5996A0420EC
:1000B0000142FBD001200142F8D103BD02B5186610
:1000C0001866FFF7F2FF186E186E02BD00000240BE
:1000D000000000180000070000035F00212200005C
:1000E000F4000018222000A00001001008ED00E03C
:1000F00000000000000000000000000074B24E7A12
:1001000000200420F7010010CB010010CD010010E9
:10011000C9010010C9010010C9010010C901001077
:10012000C9010010C9010010C9010010CF01001061
:10013000C9010010C9010010D1010010D301001045
:10014000C1010010C1010010C1010010C101001067
:10015000C1010010C1010010C1010010C101001057
:10016000C1010010C1010010C1010010C101001047
:10017000C1010010C1010010C1010010C101001037
:10018000C1010010C1010010C1010010C101001027
:10019000C1010010C1010010C1010010C101001017
:1001A000C1010010C1010010C1010010C101001007
:1001B000C1010010C1010010C1010010C1010010F7
:1001C000EFF30580103800BE00BE00BE00BE00BECA
:1001D00000BE00BEF2EB8871FCEC071020ED0710AA
:1001E0003802001090A31AE71E481F49086006C88D
:1001F00081F3088810471D480068002801D019487D
:10020000F3E70DA40ECC002902D000F012F8F9E7B4
:100210001749184A002000E001C19142FCD116495B
:100220008847164988471649884700BEFDE701C937
:1002300001C29A42FBD3704720ED0710C000002096
:100240002036002080220810000004200000042036
:10025000802208100010042000100420000000007C
:10026000704700000000000008ED00E0000000D032
:10027000203600209C6200201D3001102506001051
:10028000DD2F0110F8B5C04606480749091A8B1042
:10029000C90FC91810B5491003D0044B002B00D06A
:1002A000984710BD203600202036002000000000B6
:1002B000054B10B5002B03D00449054800E000BFF2
:1002C000FFF7E2FF10BDC04600000000805F002085
:1002D000509706107047C0467047C04600B58DB0B5
:1002E000029011201C220021684411F029F90123F9
:1002F0006A460D20137302A90422684411F026F9FE
:1003000003A902480FF0C6FD0DB000BD043D00205A
:1003100010B5034B010018000FF0BCFD10BDC04626
:10032000643F0020F0B5DE4657464E464546E0B5F0
:100330009A4CA54413F030FD032106200FF090FEE7
:10034000032107200FF08CFE0022012106200FF070
:10035000A1FE0022012107200FF09CFE9049914848
:1003600013F02AFB904923A801F0D0FC8F4932A852
:1003700007F084FC8E49C4A801F0FCFF0CA80BF028
:1003800087FE80220021520043A811F0D9F82A22CA
:10039000002118A811F0D4F80FAE0822002108A8F7
:1003A00011F0CEF821220021300011F0C9F800230D
:1003B000804807A907930FF017FE0799C4A802F019
:1003C0004FF8082200210AA811F0BAF87A4B7B4DA9
:1003D0009B467B4B7B4F9A467B4B01937B4B049315
:1003E00083AB99467A4B02937A4B98467A4B0593A6
:1003F0007A4B039318A923A801F00CFA00212800D6
:100400000FF080FD28001FA90FF0B6FD18A958466F
:100410000FF078FD50460AA90FF074FD002800D0B7
:10042000B1E0310001980FF06DFD002809D033785C
:10043000052B06D8049A9B00D3589F46C4A802F007
:100440001BF8029808A90FF05DFD00281AD1079C3F
:10045000002C1ED0624BE358002B1AD04246126883
:100460009A423ED00A2B3AD805999A008A58974664
:100470007178C4A801F0E6FF029808A90FF042FDC8
:100480000028E4D008A9C4A801F0E4FF079C002CD0
:10049000E0D100234246136023E0C4A801F0E8FF46
:1004A000CFE7717832A807F013FCCAE77378002B06
:1004B0006ED0012BC5D14A467388494613803379E3
:1004C00032A8937007F00EFCBBE7717832A807F0F2
:1004D00001FCB6E7C4A801F0D7FF414BE358424600
:1004E0001360039843A90FF00DFD00280CD0484677
:1004F00043AA0CA90BF008FE002138000FF002FD02
:10050000494638000FF0C6FC18A932A807F0E4FBF2
:1005100018A9C4A801F090FF32A807F0F3FBC4A803
:1005200006F028F966E7C4A801F0CAFF2C4BE3588F
:10053000D5E7C4A801F0A4FF294BE358CFE7C4A82E
:1005400001F0A6FF264BE358C9E7C4A801F0A4FFB9
:10055000234BE358C3E7C4A801F0AEFF204BE35898
:10056000BDE7C4A801F0A4FF1D4BE358B7E7C4A83A
:1005700001F09AFF1A4BE358B1E7C4A801F090FFCD
:10058000174BE358ABE70AA9C4A801F06BFF48E793
:10059000B178C4A801F05AFF53E7C0463CF9FFFF09
:1005A00040420F0068250020C4C60610B0C60610E1
:1005B000A8C60610743F0020643D0020843F002040
:1005C000DC3D0020943F0020043D002050970610A1
:1005D000EC3D0020544A002068970610643F00203C
:1005E0006C04000010B50400064B08000C3499425E
:1005F00005D035F0B3FD431E984140420440200031
:1006000010BDC0460CC70610882110B50400490073
:1006100010F0B2FF200010BD882110B5490010F085
:10062000ABFF10BDF0B5DE4657464E464546E0B539
:10063000EF4C0127A5440EF019FFEE4A03002121DB
:100640001000059201220FF013FC0EF00FFFEA4A92
:10065000030008211000159201220FF009FC0EF092
:1006600005FFE64A03001C2110000B9201220FF047
:10067000FFFB0EF0FBFEE24A03000E2110000C927D
:1006800001220FF0F5FB0EF0F1FE8021DD4C03009E
:100690000122200049000FF0EBFB0EF0E7FE802165
:1006A000D94A0300490010000D9201220FF0E0FB2F
:1006B0000EF0DCFED54A030090460421012240469C
:1006C0000FF0D6FB0EF0D2FED14A03000821100035
:1006D0001C92D4AE01220FF0CBFB12F033FECD49B9
:1006E000300006F0F7F9002399468A244A46640050
:1006F0001AAB1B191A8008239A461732FF321AAB1D
:100700009B1852461A7018221AABFF32943C9B1861
:100710001C7001321AAB9B181A221C70FF321AABE4
:100720009B181C7001321AAB9B180021EA3A61A891
:100730001C8010F005FF8E221AAB52009B181F7010
:1007400006321AAB9B1824221C70FF321AAB9B187E
:100750001C7001321AAB9B1826221C70FF321AAB98
:100760009B181C7025239434243A1AA90919FF3ABE
:10077000CA541AA909190133ED32CA541AA9091920
:100780000133DD3ACA54A021A34B49001AAA5218DA
:1007900013802E2377221AA90919CA541AA90919F4
:1007A0000233373ACA5446211AAAFF31313B521854
:1007B000137001311AAA521848211770FF311AAA72
:1007C0005218137001311AAA52184A211770FF31BA
:1007D0001AAA52181370A5221AAB52009B181F7048
:1007E00054201AAB9C46113AFF300021FF3A604476
:1007F00010F0A6FEA821894B49006D931AAA884BD8
:100800005218138051463E231AAA1219D1541B22A2
:100810001AA909191933CA540133CF548E201AABBF
:100820009C46FF3020220021604410F089FE1AAB64
:10083000AE209C46FF3014220021604410F080FE60
:100840009A23784A1AA90919CA52C2201AAB9C469F
:10085000FF3060440822002110F072FEB8231AA96C
:1008600009198FAACA500A00494600250433D150FD
:100870001AAA12190433D5541AAA103312193CAC0F
:10088000D55420002A2210F05BFE8820400010F092
:1008900063FE654B476003600C239C4684446346BB
:1008A00087601F000500180019930BF083FC3800C7
:1008B0001F970BF0BFFD6B68069001336B6094A926
:1008C00047A89595949709F05FFA959D002D05D05E
:1008D0006B68013B6B60002B00D1BDE380220021DF
:1008E000520094A810F02CFE50480378002B00D042
:1008F000C1E31EA940461E960FF03EFB4C4813F084
:100900001FFA069F33AD380008F098FA494808F0FE
:1009100049FB21220021280010F012FE059B29002E
:1009200018006F7099460FF027FB1AA884466523BC
:10093000634420220021180010F002FE02232B70D5
:10094000199B180098460BF0B1FD290068704846C5
:100950000FF012FB1AA8844665236344202200216D
:10096000180010F0EDFD032340462B700BF0A0FDA6
:100970002900687048460FF0FFFA40460BF0A8FDCA
:100980000100300006F052FD414628000BF07CFDCE
:100990002900300006F04CFDFB1EDBB21093002353
:1009A0000D2F00D175E3984613931A93179309936B
:1009B0000E9343AB08932AAB14931F4B1AAA1293BE
:1009C0001E4B9446119323AB04931D4B18931D4B60
:1009D00016931D4B1B931D4B0A931D4B9B461D4BA2
:1009E0000F93412363441D9321AB994690E0C04689
:1009F000ECF7FFFF043D0020EC3D0020643D0020AB
:100A0000843F0020643F0020943F0020743F00207A
:100A1000DC3D0020E0C6061012F8FFFF02018080D6
:100A20008080FFFF1408000094C60610A02100205B
:100A300025030010DD0200108C6200208E62002071
:100A4000946200205C4A002095620020926200209F
:100A5000584A002093620020FA21890010F02CF8F7
:100A60005346002B00D1BDE00A9A13780133DBB264
:100A700013705A461268022B00D8E8E1002A00D011
:100A8000E8E15B4618600F9B1A702623E35C9A46E8
:100A90000FF0A0F9002900D1B3E0FA220023920060
:100AA00010F048F85346002B00D0B2E05246189B95
:100AB0001A70169B1A601B9B1A7047A80AF0DAF985
:100AC000002800D1BCE047A80AF0D4F9002800D0E3
:100AD000FAE04346002B00D060E122004846069B26
:100AE0005FA908F0DFFE4B4603CB08F029FA08F0B7
:100AF00019FA04990B980FF0CDF90D9894A90FF0FD
:100B000001FA002802D094A807F014FE079B98462B
:100B100021003000069A06F061FE08990C980FF04B
:100B2000F1F947A80AF0A6F9002800D069E1E54BE1
:100B3000F3581F007A1E9741FAB20792002B00D19A
:100B400030E121232222E35CA25C002B00D14CE1A6
:100B500011980178002900D047E1002A00D112E263
:100B6000129A1378002B00D005E201330370300095
:100B7000137007F01BF8300006F088FC1AA88446B2
:100B80006523634400211800202210F0D9FC0523BE
:100B9000290005982B700FF0EFF90023099322002C
:100BA000049B83CA83C383CA83C312681A60109BE1
:100BB000012B00D833E100230E9347A80AF05AF91D
:100BC0002823E35C80469A460FF004F9002900D1FF
:100BD00042E7FA22002392000FF0ACFF5346002BAD
:100BE00000D041E752460A9B1A705B461A600F9B81
:100BF0001A702623E35C9A460FF0ECF8002900D027
:100C00004BE7FA2189000FF057FF5346002B00D124
:100C10004CE7189A13780133DBB21370169A1268F6
:100C2000022B00D86FE1002A00D06FE1169B1860FC
:100C30001B9B47A81A700AF01DF9002800D042E754
:100C40002723E35C9A460FF0C5F8002900D144E160
:100C5000FA22002392000FF06DFF5346002B00D1C3
:100C600043E1139B0133DBB21393022B00D97AE1EA
:100C7000179B002B00D126E71A9B002B00D022E700
:100C8000179BC01AFA239B00984200D21BE747A883
:100C900009F05CF91AA884466523634420220021E8
:100CA000180010F04DFC042305982B7029000FF05C
:100CB00063F953461A93002347A8139317930AF036
:100CC000D9F8002800D104E747A8089909F0C2FC28
:100CD00047A80AF0E9F8002800D028E147A80AF060
:100CE000C9F8002800D005E1199F38000BF0F6FB89
:100CF000202200211D9810F023FC0523149A137064
:100D0000059B11009A4618000FF036F921220021A8
:100D1000280010F015FC069B290050466B700FF060
:100D20002BF91AA884466523634420220021180069
:100D300010F006FC022338002B700BF0B7FB2900E3
:100D4000687050460FF018F91AA88446652363446A
:100D500020220021180010F0F3FB032338002B7031
:100D60000BF0A6FB2900687050460FF005F938001B
:100D70000BF0AEFB0100300006F058FB39002800F4
:100D80000BF082FB2900300006F052FB00231A937F
:100D9000139317934346002B00D19EE647A80AF011
:100DA00069F89AE6099B002B00D1F6E647A809F0FE
:100DB000CDF847A809F080F91AA884466523634452
:100DC00020220021180010F0BBFB04232900059805
:100DD0002B700FF0D1F8149F47A938000AF04EF895
:100DE000390015980FF0C8F8D7E6002A55D01299A7
:100DF0000A78002A00D0B0E0119A137001230B701A
:100E0000B9E6280019990BF03FFB1C9F0021380020
:100E10000FF078F8290038000FF03CF887E647A873
:100E20000AF028F8002800D0C5E60EF0D3FF00290C
:100E300000D10BE1FA22002392000FF07BFE8046E6
:100E40000E9B002B00D0F7E043460E93B5E6002A38
:100E500000D11AE60F9F3B78002B00D015E61A4907
:100E6000821A8A4200D810E601223A700A9A137058
:100E70005A46136047A809F071FA1AA884466523F8
:100E8000634420220021180010F05AFB042329009B
:100E900005982B700FF070F80FE611990B70129BEC
:100EA0001A704346002B11D0064BF358082B72D012
:100EB000099A002A00D170E6002B00D176E70123C1
:100EC00009936CE66C04000087130000099B002B5B
:100ED00000D162E6844BF358EEE7FA2189000FF067
:100EE000EBFD5346002B00D0BBE600231A9313936F
:100EF0001793E8E5280047A909F0C0FF29001598D5
:100F00000FF03AF8E5E5002A00D1D6E51B9F3B78C3
:100F1000002B00D0D1E57549821A8A4200D8CCE571
:100F200001223A70189A1370169A1360A2E73000E3
:100F300006F084FA47A809F035F81AA88446652314
:100F4000634420220021180010F0FAFA052329003A
:100F500005982B700FF010F8C0E6119A137001235A
:100F6000129A13709DE7179B002B00D084E6002394
:100F700017901A93A7E50123129A0370300013709B
:100F800006F014FE8DE701230370129B30001A70E7
:100F900006F00CFE85E7099B002B90D1300006F08F
:100FA0004BFE199F310038000BF046FA38000BF069
:100FB00095FA21220021280010F0C2FA069B290090
:100FC0006B70059B180098460EF0D6FF1AA8844651
:100FD0006523634420220021180010F0B1FA022397
:100FE00038002B700BF062FA2900687040460EF052
:100FF000C3FF1AA8844665236344202200211800F9
:1010000010F09EFA032338002B700BF051FA2900E0
:10101000687040460EF0B0FF38000BF059FA01003E
:10102000300006F003FA390028000BF02DFA2900F1
:10103000300006F0FDF94DE71A0043469B1A2C4A92
:10104000934200D8B9E507F07DF9FDE6FA21890061
:101050000FF032FD8046F3E62B6828009B68984726
:10106000AB68013BAB604B4500D037E42B682800F0
:10107000DB68984732E48C211E4D490041580095A9
:101080008A256D001C4B1D4A4059013107F0F0F8CC
:101090002FE49846099310930E93079343AB08935C
:1010A0002AAB1493164B1AAA1293164B944611931B
:1010B00023AB0493144B1893144B1693144B1B93AC
:1010C000144B0A93144B9B46144B0F9341236344D8
:1010D0001D9321AB9946124B1393124B1993124B4C
:1010E0001793124B1A938FE06C04000087130000D3
:1010F0009F68060011030010B1210020A1210020EB
:101100008C6200208E620020946200205C4A0020E5
:101110009562002092620020584A002093620020CD
:101120008D620020949706103C4A0020A897061074
:10113000FA22002392000FF0FDFC5346002B00D151
:10114000DCE00A9A13780133DBB213705A46126856
:10115000022B00D87DE1002A00D07DE15B461860BB
:101160000F9B1A702623E35C9A460EF033FE00298B
:1011700000D1D2E0FA22002392000FF0DBFC5346AC
:10118000002B00D1D1E0189A169913780133DBB205
:1011900013700A68022B00D8ECE1002A00D0ECE1C1
:1011A0001B9B08601A7047A809F064FE002800D154
:1011B000C8E047A809F05EFE002800D0E7E04346FB
:1011C000002B00D0FFE000200CF0E4FB002800D052
:1011D00002E122000D2348465FA908F063FB4B465D
:1011E00003CB07F0ADFE07F09DFE04990B980EF0BF
:1011F00051FE0D9894A90EF085FE002802D094A807
:1012000007F098FA069B98460D222100300006F060
:10121000E5FA08990C980EF075FE47A809F02AFE29
:10122000002800D007E1DD4BF3581F007A1E9741DC
:10123000FAB20692002B00D1E7E021232222E35CE0
:10124000A25C002B00D1E5E011980178002900D0C4
:10125000E0E0002A00D0FAE101230370129B300085
:101260001A7006F0A3FC4346002B00D1DCE0CB4B08
:10127000F358082B00D1FEE1079A002A20D0002B5A
:1012800000D0FBE147A808F061FE47A808F014FF72
:101290001AA884466523634420220021180010F018
:1012A0004FF90423290005982B700EF065FE149F5A
:1012B00047A9380009F0E2FD390015980EF05CFEF0
:1012C000002307932200049B83CA83C383CA83C37A
:1012D000126847A81A6009F0CDFD2823E35C804618
:1012E0009A460EF077FD002900D021E7FA21890007
:1012F0000FF0E2FB5346002B00D022E752460A9B38
:101300001A705B461A600F9B1A702623E35C9A469C
:101310000EF060FD002900D02CE7FA2189000FF0C3
:10132000CBFB5346002B00D02DE75246189B47A815
:101330001A70169B1A601B9B1A7009F09BFD0028FF
:1013400000D036E72723E35C9A460EF043FD0029E0
:1013500000D10AE1FA22002392000FF0EBFB534682
:10136000002B00D1FCE0099B0133DBB20993022B77
:1013700000D845E10E9B002B00D045E100230E90E4
:1013800047A8109309F076FD002800D117E747A879
:10139000089909F05FF947A809F086FD002800D0F8
:1013A00000E147A809F066FD002800D181E028008F
:1013B00047A909F063FD290015980EF0DDFD4346AD
:1013C000002B00D1FFE647A809F054FD00200CF0E7
:1013D000E1FA002800D1FCE6149F01223900002028
:1013E0000CF0E2FA139A3B7812789046BB2B00D1AE
:1013F00095E1002A00D094E1AA2B00D0E9E61399E8
:1014000001320A70179A1370E3E6079B002B00D194
:1014100056E737E7002A42D111990B70129B1A70D8
:101420004346002B00D022E7079B002B00D147E763
:101430005A4BF35823E728001F990BF025F81C9FFF
:10144000002138000EF05EFD290038000EF022FD6C
:10145000E9E6002A00D185E60F990B78002B00D031
:1014600080E6801A4E4A904200D87BE601220A703C
:101470000A9A13705A46136047A808F06FFF1AA81B
:1014800084466523634420220021180010F058F898
:101490000423290005982B700EF06EFD83E6129947
:1014A0000A78002A00D193E0119A137001230B707F
:1014B000D9E61F9B18009A460BF010F82022002155
:1014C0001D9810F03DF80523059F149A38001370FD
:1014D00011000EF051FD21220021280010F030F8FB
:1014E0000D23290038006B700EF046FD1AA88446C3
:1014F0006523634420220021180010F021F8022304
:1015000050462B700AF0D2FF2900687038000EF0A8
:1015100033FD1AA884466523634420220021180065
:1015200010F00EF8032350462B700AF0C1FF29007B
:10153000687038000EF020FD50460AF0C9FF010027
:10154000300005F073FF514628000AF09DFF290086
:10155000300005F06DFF0023109309930E932EE6E3
:101560000023109309930E9323E6FA2189000FF0CC
:10157000A3FAF4E6002A00D115E61B990B78002B9C
:1015800000D010E6801A064A904200D80BE60122ED
:101590000A70189A1370169A13606DE76C040000B5
:1015A00087130000300005F049FF47A808F0FAFC57
:1015B0001AA88446652363442022002118000FF0F6
:1015C000BFFF0523290005982B700EF0D5FCE8E637
:1015D000119A13700123129A1370300005F056FF10
:1015E0001AA88446652363442022002118000FF0C6
:1015F000A7FF0523290005982B700EF0BDFC5FE6C0
:101600000E9B002B00D1D4E5109B002B00D0D0E521
:101610000E9BC01AFA239B00984200D2C9E547A846
:1016200008F094FC1AA88446652363442022002114
:1016300018000FF085FF042329002B7005980EF089
:101640009BFC53461093002309930E93B1E5129A25
:101650001378002B08D10123119A30001370129ACD
:10166000137006F0A3FAB8E701230370300013707B
:1016700006F09CFAF7E5079B002B02D001230793A5
:1016800020E6300006F0D8FA1F9B3100984618007B
:101690000AF0D2FE40460AF021FF21220021280054
:1016A0000FF04EFF0D23059F290038006B700EF0E0
:1016B00063FC1AA884466523634420220021180095
:1016C0000FF03EFF022340462B700AF0EFFE290088
:1016D000687038000EF050FC1AA8844665236344F5
:1016E0002022002118000FF02BFF032340462B700F
:1016F0000AF0DEFE2900687038000EF03DFC40461E
:101700000AF0E6FE0100300005F090FE4146280098
:101710000AF0BAFE2900300005F08AFE88E6002AA9
:101720003FD042464746139917980132D2B20A7009
:10173000C3550A2A00D04CE500230B709A46437A21
:10174000552B00D045E5837842781B0213435BBAE2
:101750002B800379C2781B0213435BBAAB80837979
:1017600042791B0213435BBA6B80037AC2791B0276
:1017700013435BBA29003000EB8005F059FE1F9B34
:101780002900984618000AF057FE40460AF0A6FEC7
:10179000032250461A990CF085F950460CF048F98E
:1017A00017E5F28833880292728820210192B2886C
:1017B00028000092199A11F04DFB28005CF09EFD64
:1017C0002900020040460CF06DF940460CF030F95B
:1017D000FFE4C046D0231B065868C0437047C0468C
:1017E0007047C0467047C04610B504301AF07AFB07
:1017F00010BDC04610B504000C210FF0BDFE200046
:1018000010BDC04610B5040004210FF0B5FE200045
:1018100010BDC046F8B54E464546DE465746E0B5D3
:101820000700806B3D0003680E009B6898472023EB
:10183000FC6A243581469846AC4213D128E0FA224E
:10184000002392000FF076F9E3695B44834203D8EA
:1018500043465246E254E06120001AF0B3FF040010
:10186000A84215D04A46A36913405A1E9341DAB2E2
:1018700092464246A25C9A42EED0BB7B9B460EF05B
:10188000A9FA0029DBD1FA2189000FF015F9DBE76D
:10189000BB6A1A1E00D16BE111009268002AFBD1CD
:1018A0008D4200D164E10A7C002A00D060E1203240
:1018B0008A5C2800914632771A0003E01000926893
:1018C000002A05D0117C0029F8D1D268002AF9D16C
:1018D000854200D14CE1027C012A00D948E1202256
:1018E000815C2C001A00717703E014009268002AD2
:1018F00005D0107C0128F8D8D268002AF9D1A54279
:1019000000D135E1227C022A00D931E12022A25CFB
:1019100028009046B2771A0003E010009268002A6F
:1019200005D0147C022CF8D8D268002AF9D185425F
:1019300000D11DE1027C032A00D919E12022825C3A
:1019400028009446F2771A0003E010009268002AFB
:1019500005D0147C032CF8D8D268002AF9D185422E
:1019600000D105E1027C042A00D901E12022805C3B
:10197000B05428001A0003E010009268002A05D035
:10198000147C042CF8D8D268002AF9D1854200D101
:10199000EEE0027C052A00D9EAE02022805C0132D8
:1019A000B05428001A0003E010009268002A05D005
:1019B000147C052CF8D8D268002AF9D1854200D1D0
:1019C000D6E0027C062A00D9D2E02022805C0232D6
:1019D000B05428001A0003E010009268002A05D0D5
:1019E000147C062CF8D8D268002AF9D1854200D19F
:1019F000BEE0027C072A00D9BAE02022805C0332D4
:101A0000B05428001A0003E010009268002A05D0A4
:101A1000147C072CF8D8D268002AF9D1854200D16D
:101A2000A6E0027C082A00D9A2E02022805C0432D1
:101A3000B05428001A0003E010009268002A05D074
:101A4000147C082CF8D8D268002AF9D1854200D13C
:101A50008EE0027C092A00D98AE02022805C0532CF
:101A6000B05428001A0003E010009268002A05D044
:101A7000147C092CF8D8D268002AF9D1854200D10B
:101A800076E0027C0A2A00D972E02022805C0632CD
:101A9000B05428001A0003E010009268002A05D014
:101AA000147C0A2CF8D8D268002AF9D185425FD07C
:101AB000027C0B2A5CD82022805C0732B0542800BC
:101AC0001A0003E010009268002A05D0147C0B2C49
:101AD000F8D8D268002AF9D1854249D0027C0C2A74
:101AE00046D82022805C0832B054280003E0180059
:101AF0009B68002B05D01A7C0C2AF8D8DB68002BD9
:101B0000F9D1854234D0027C0D2A31D82022855C5F
:101B10000932B5544A46002A17D101233B77434680
:101B2000002B07D103237B77F0BCBB46B246A94606
:101B3000A046F8BD6346002B12D07B7F032B12D04A
:101B4000022BF1D10023B377EEE7002906D03A7FCC
:101B5000012A0BD0002AE2D13377E0E73977DEE7BC
:101B600002237B77E0E70023F377DDE77377D6E79F
:101B7000014827F06DFDC046AC970610F0B5D6467B
:101B80004F464646C0B51E000700242015008A4671
:101B90000FF0E2FC012332782D78934002758361C7
:101BA000202200230574C36183543B1D0400564664
:101BB0009946534547D0337C9D4228D2FB689A46CC
:101BC000B34268D030001AF02DFE037CAB425FD3E5
:101BD000BB689846002B05D18DE09B680121002B46
:101BE00008D0984643461A7C9542F6D3DB6800211C
:101BF000002BF6D14646002900D075E0954217D952
:101C0000B14548D0337C9D42AD41684244E09D429D
:101C10000FD93B695345F3D030001AF0D3FD037C54
:101C2000AB4248D9F368002BECD00600012033E02A
:101C30004646242120000FF09FFC3000E0BCBA464D
:101C4000B146A846F0BD7B69002B2FD1BB689846F2
:101C5000002B05D14DE09B680121002B08D0984650
:101C600043461A7C9542F6D3DB680021002BF6D15F
:101C700046460029C2D0FB6846464345C0D0404690
:101C80001AF0D0FD027C464680469542B8D8CFE790
:101C9000C368002B2BD001204B46320021001AF0E4
:101CA000DDFD7B69260001337B61C6E73E69337C3D
:101CB000AB42A5D3CAE7BB689846002B05D120E00C
:101CC00001219B68002B07D0984643461A7C954219
:101CD000F6D30021DB68F5E74646002900D18DE701
:101CE000FB689E42CBD18BE7C245C8D188E706008E
:101CF00086E7D046BFE7C846D145C0D14E46012051
:101D0000CAE7FB68C8469945B9D1F7E7F0B5CE46B2
:101D1000474603000C0080B5060083B00F0007CCD7
:101D200007C32200A14613CA13C3126835001A6004
:101D30009C4B2422B3830023B3546A46B362D3710D
:101D40007363B363203398462435B0443B002900C5
:101D500007324046F5623563FFF710FF6A460123FC
:101D6000D371B26A2900002A11D0130003E01900D0
:101D70009B68002B05D0187C0028F8D1DB68002B6D
:101D8000F9D18D4203D00B7C012B00D852E16A4679
:101D90007B1C07324046FFF7F1FE02236946B26A18
:101DA000CB71002A00D1E4E11400290003E0110006
:101DB0009268002A05D0137C012BF8D8D268002A3B
:101DC000F9D18D4200D1D5E10B7C022B00D9D1E1B4
:101DD0006A460323D3712200290003E02100A4688E
:101DE000002C05D0237C022BF8D8E468002CF9D114
:101DF0008D4200D1AFE10B7C032B00D9ABE1042372
:101E00006946CB711300290003E011009268002A93
:101E100005D0107C0328F8D8D268002AF9D18D4269
:101E200000D189E10A7C042A00D985E105226946AE
:101E3000CA711A00290003E019009B68002B05D025
:101E4000187C0428F8D8DB68002BF9D18D4200D12A
:101E500063E10B7C052B00D95FE106236946CB715A
:101E60001300290003E011009268002A05D0107CBD
:101E70000528F8D8D268002AF9D18D4200D13DE179
:101E80000A7C062A00D939E107226946CA711A007C
:101E9000290003E019009B68002B05D0187C062858
:101EA000F8D8DB68002BF9D18D4200D117E10B7C0B
:101EB000072B00D913E108236946CB7113002900D1
:101EC00003E011009268002A05D0107C0728F8D89A
:101ED000D268002AF9D18D4200D1F0E00A7C082AAC
:101EE00000D9ECE009226946CA711A00290003E012
:101EF00019009B68002B05D0187C0828F8D8DB68EF
:101F0000002BF9D18D4200D1C9E00B7C092B00D9FF
:101F1000C5E00A236946CB711300290003E01100D4
:101F20009268002A05D0107C0928F8D8D268002AC7
:101F3000F9D18D4200D1A2E00A7C0A2A00D99EE0A4
:101F40000B226946CA711A00290003E019009B6838
:101F5000002B05D0187C0A28F8D8DB68002BF9D1B3
:101F60008D4200D17BE00B7C0B2B00D977E00C235A
:101F70006946CB711300290003E011009268002A22
:101F800005D0107C0B28F8D8D268002AF9D18D42F0
:101F900056D00A7C0C2A53D80D226946CA712900F2
:101FA00006E0C0460103000019009B68002B05D025
:101FB0001A7C0C2AF8D8DB68002BF9D18D4202D0AC
:101FC0000B7C0D2B06D93B006A4640460D33073289
:101FD000FFF7D4FD337E002B00D0D9E004200FF0B2
:101FE000BBFA7A4BF46A81460360A54214D0012300
:101FF000D02798463F06207D0EF074F84346207D9A
:10200000002283400121BB620EF044F820001AF048
:10201000F1FB04008542EED14B46B06BB363002860
:1020200002D003685B689847300003B0C0BCB94673
:10203000B046F0BD022369461400CB71B5E6290015
:102040006A464B4607324046FFF798FD0D22694627
:10205000B36ACA71002BA2D12900B4E729003B0062
:102060006A460B3307324046FFF788FD0C2369466A
:10207000B26ACB71002AE2D013007CE729003B0052
:102080006A460A3307324046FFF778FD0B2269465D
:10209000B36ACA71002BE1D01A0055E729003B0052
:1020A0006A46093307324046FFF768FD0A2369464E
:1020B000B26ACB71002AE1D013002EE729003B0061
:1020C0006A46083307324046FFF758FD0922694641
:1020D000B36ACA71002BE1D01A0007E729006A46EB
:1020E000FB1D07324046FFF749FD08236946B26AE7
:1020F000CB71002AE2D01300E1E629006A46BB1D3D
:1021000007324046FFF73AFD07226946B36ACA71B3
:10211000002BE3D01A00BBE629006A467B1D07327C
:102120004046FFF72BFD06236946B26ACB71002AB1
:10213000E3D0130095E629006A463B1D073240466E
:10214000FFF71CFD05226946B36ACA71002BE3D074
:102150001A006FE629006A46FB1C07324046FFF76B
:102160000DFD04236946B26ACB71002AE3D0130047
:1021700049E629006A46BB1C07324046FFF7FEFCD1
:1021800003236A46B46AD371002CE3D0220023E60D
:102190000C200FF0E1F9040005000D4B326908C472
:1021A000317D200019F058FE20000A4919F066FE22
:1021B0002000084919F072FE2000064919F080FE3F
:1021C000B06BB563002800D02BE72DE71CC70610C5
:1021D00030C70610FFFF0000F0B5D6464F46464612
:1021E000C0B50E0015000F1D3900040019F01AFDCE
:1021F000F31C98466B1C99461A004146200019F0C2
:1022000011FD39004A46200019F00CFDB31C9A4616
:10221000AB1C99461A005146200019F003FD4146B7
:102220004A46200019F0FEFC39004A46200019F009
:10223000F9FCEB1C99461A002000711C19F0F2FC05
:102240004A465146200019F0EDFC4A46414620001E
:102250002E1D19F0E7FC4A463900200019F0E2FC77
:1022600051463200200019F0DDFC414632002000CA
:1022700019F0D8FC3900320020006E1D19F0D2FC94
:1022800032004146200019F0CDFC32003900200018
:1022900019F0C8FC3900AA1D200019F0C3FCE0BCED
:1022A000BA46B146A846F0BDF8B5CE464746160038
:1022B00080B504000D0019F0B5FC731C98466F1C26
:1022C0001A002900200019F0ADFC39004246200018
:1022D00019F0A8FCB31C98461A002900200019F038
:1022E000A1FC39004246200019F09CFCAB1C424680
:1022F00019002000994619F095FCF31C98461A0025
:102300002900200019F08EFC39004246200019F007
:1023100089FC49464246200019F084FCE91C4246EB
:10232000200019F07FFC331D98461A002900200078
:1023300019F078FC39004246200019F073FC494638
:102340004246200019F06EFC731D98461A002900C1
:10235000200019F067FC42463900200019F062FCA9
:102360002900B21D200019F05DFCC0BCB946B04682
:10237000F8BDC04670B50300040082B0002505C951
:1023800005C320001C22002125720A300FF0D8F866
:1023900020000E22002126300FF0D2F826000D2357
:1023A000200008220021A386363040360FF0C8F8FE
:1023B0001C22002130000FF0C3F8E5650DF00AFD86
:1023C000002932D0FA22002392000EF0B3FB002540
:1023D00020662000082200216566A566E56670304B
:1023E0000FF0AEF848232268A567E567E554237926
:1023F000802100923000402219F06AFB300019F071
:1024000009FC8023E5500433E5500433094AE550C4
:102410000433E5502300A1180022A1331A701433AD
:102420008B42FBD1200002B070BDFA2189000EF072
:1024300043FBCCE7C103000010B52A220A300FF09D
:1024400085F810BD3423C1547047C0463523C154AC
:102450007047C04610B5072236300FF077F810BD30
:10246000C166704710B5082270300FF06FF810BDCC
:10247000012303727047C046022303727047C046AF
:10248000032303727047C046042303727047C0469B
:10249000052303727047C046062303727047C04687
:1024A000072303727047C046082303727047C04673
:1024B000092303727047C0460A2303727047C0465F
:1024C0000B2303727047C046F0B5C64600B582B014
:1024D00004000DF07FFC002933D0FA220023920083
:1024E0000EF028FB236EC01A624B984209D8FA21DD
:1024F0000EF0E2FAC00700D4A7E002B080BCB846F4
:10250000F0BD5D4B984221D95C4B9842F5D85C4BAD
:102510004034200000930C220123252119F000FCF7
:10252000584B200000931A220223042119F0F8FBD3
:10253000554B302200932B210123200019F0F0FB92
:10254000DBE7FA2189000EF0B7FACBE74F4B4034B6
:102550009C4660440EF0EDFE4D490EF086FE011CD7
:10256000051C0EF07FFE011C4A480EF078FE291C67
:10257000061C281C0EF08DFE011C301C0EF089FE7E
:1025800045490EF086FE0EF0FBFE80263C4B311ACC
:102590000093200001230C2219F0C2FB3F49281CA4
:1025A0000EF0B6FE00285BD03C49281C0EF057FE0A
:1025B0003B490EF05AFE011C071C0EF053FE011C95
:1025C00034480EF04CFE391C8046381C0EF061FE7B
:1025D000011C40460EF05DFE32490EF05AFE0EF030
:1025E000CFFE284B311A0093200002231A2219F043
:1025F00097FB2D49281C0EF08BFE002838D02A4965
:10260000281C0EF02CFE29490EF02FFE011C051C83
:102610000EF028FE011C1F480EF021FE291C071C8D
:10262000281C0EF036FE011C381C0EF032FE20492C
:102630000EF02FFE0EF0A4FE311A134B3022009341
:102640002000012319F06CFB57E720000221194BF1
:102650001C22009340300223494219F061FB4CE7F1
:10266000084B1A22009380210223200019F058FB06
:102670008021E2E7B70B000093110000571B000018
:10268000C0970610CC970610D897061048F4FFFFA5
:102690000080BB44000040400000B642CDCC4C3E20
:1026A000CDCC4C3F0000F842CDCCCC3E9A99193F9E
:1026B0000000AA42B4970610F0B5DE4657464E46D3
:1026C00045463623E0B5A7B00C0036220021403045
:1026D00000934933039019F0B9FA08AB9B460AAB53
:1026E0000893D44B5A460A93042353600023137370
:1026F00010AA0E92D04A06A90A8502220F920A0059
:102700002A21521813702378062B01D900F057FCA8
:10271000CA4A9B00D3589F4616AB029314930123D9
:1027200004930023089A14AD1AAC2B7206922372FC
:102730001CAA6B6002330426100098461A92059278
:102740000222BF490EF002FF1A9B994643464A46B1
:102750006360414600235354636898464246B94B30
:102760009B1AB34201D200F044FC1A98059B9719BA
:10277000984200D173E3A3689F4200D956E24044D7
:10278000012E01D100F0F6FB320006990EF0DEFEBC
:102790001A9B99464A4600236760D3551A9B9A466E
:1027A000636899466B6898464246A64B9B1A9945C2
:1027B00001D900F01EFC4E46149F029B46449F42E6
:1027C00000D159E3AB689E4200D9FBE24B46002B97
:1027D00009D038004044012B00D1D2E34A4651468B
:1027E0000EF0B4FE149F00236E60BB551A98059B33
:1027F000984203D0A16801310EF0BEFE6C68914B87
:102800009C4201D100F0F5FB149B029A661C934296
:1028100000D18AE3AA68964200D900E320221A5523
:10282000149F00236E60BB5519E0874B10AA93429A
:1028300000D3D3E1854B10AA109304230F930023F8
:1028400013715B465E680123049316AB02931493E5
:10285000002314AD2B726B60002E00D01AE20E9B89
:102860000F9E059322AB2093002320AC237263605C
:10287000B31C9A460F2B00D8BEE0002B00DAA5E36C
:102880001D2B00D8C4E1F01C00D54FE10EF064FE12
:10289000209B6768814698467A1C002F00D14DE244
:1028A000002A00D0ACE1A168404601310EF064FE80
:1028B0004B46209353466768A360624BDB1B012B9A
:1028C00000D896E3BB1C9846534500D9C4E03800B5
:1028D000484402225E490EF039FE209B9946434649
:1028E0004A466360414600235354636899464A460A
:1028F000544B9B1A9E4200D97BE3B046209F22ABEB
:10290000C8449F4200D1FEE1A368984500D9CDE0BC
:10291000002E09D038004844012E00D17CE132005D
:1029200005990EF013FE209F434642466360002344
:10293000BB54209B9A46636898466B6899464A4602
:10294000404B9B1A984500D953E34746149E029B7F
:102950004F449E4200D1E4E1AB689F4200D9DBE0E6
:102960004346002B09D030004844012B00D158E1E8
:10297000424651460EF0EAFD149E00236F60F35567
:10298000209822AB984203D0A16801310EF0F4FDEB
:102990006A6853009B18049A5B00002A30D16E24A9
:1029A0000021E41A6410149B123403980093382217
:1029B0000123611819F0B4F91498029B984203D0CE
:1029C000A96801310EF0D8FD0E9810AB984203D0E3
:1029D000109901310EF0D0FD08980AAB984204D04E
:1029E0005B46996801310EF0C7FD27B0F0BCBB46CD
:1029F000B246A946A046F0BD022322A8984668E741
:102A00005024039EE41A6410210038223000FFF79E
:102A1000E3FBE11D38223000FFF746FC21000D4B9F
:102A20000F31009338220123300019F079F90C346A
:102A30001221B8E74261636B4F4B00003CC70610A0
:102A400020980610FFFFFF7FE09706105361766520
:102A500024980610289806104346002B00DAB5E2A9
:102A600053465B000693984500D311E2002B5DDBD3
:102A7000581C0EF071FD209B81469A463A00514643
:102A800048460EF063FD38000222C94948440EF062
:102A90005DFD22AB9A4504D0A168504601310EF08D
:102AA0006BFD4B462093069BA36018E74246002A25
:102AB00000DA8BE25B000693984500D201E24346C0
:102AC000581C33D406930EF047FD209B07009A460E
:102AD0004B46002B06D0012B00D143E24A4651461B
:102AE0000EF034FD059B002B0AD0002E08D04B467B
:102AF000F818012E00D149E2320005990EF026FDAA
:102B000022AB9A4504D0A168504601310EF034FD45
:102B1000069B2097A36007E7002F00DA56E25B00D0
:102B200006939F4204D2581C002B04DA26F030FD95
:102B3000781CFBD406970EF00FFD149B060005933E
:102B40004B46002B06D0012B00D10FE24A460599D7
:102B50000EF0FCFC5346002B0CD04346002B09D052
:102B60004B46F0184346012B00D113E24246514632
:102B70000EF0ECFC0598029B984203D0A968013145
:102B80000EF0FAFC069B1496AB60F6E6894B10AA91
:102B9000934206D306A92A228C466244934200D867
:102BA00017E21A682E2110929B8806AA93850623A5
:102BB0000F930023521813705B465A680AA97E4B84
:102BC000994203D88818834200D815E200235A4658
:102BD00053600B7000235668049336E606A92A2238
:102BE0008C466244934200D924E6002201920432CA
:102BF000009210A9023A0EA834F0CAFA0E9A1CE606
:102C000019000EF0A3FC22AB984500D04BE69CE0E7
:102C10001E231F209A4639E6059B1B780370209FD0
:102C200082E653461B780370149EA6E6002F00DA56
:102C3000CCE15B0007939F4200D264E1781C00D591
:102C400074E707970EF088FC1A9B81469A46434624
:102C5000002B06D0012B00D1A0E1424651460EF0D8
:102C600075FC069B002B08D040464844012E00D13D
:102C700058E1190032000EF069FC059B9A4504D01A
:102C8000A168504601310EF077FC4B461A93079B22
:102C9000A3607FE5089A1AAC069223721CAA6360AF
:102CA000B31C9A4605921A920F2B00D882E1002B92
:102CB00000DA8BE11D2B00D808E1F01C00D535E7C8
:102CC0000EF04AFC1A9B6768814698467A1C002FD2
:102CD00000D13BE1002A00D0E5E0A1684046013187
:102CE0000EF04AFC4B461A9353466768A360334B79
:102CF000DB1B012B00D87CE1BB1C98469A452BD3EB
:102D0000380048441CE543460F2B00D800E6002B52
:102D100000DA5BE11D2B00D9D1E61E231F200693AC
:102D2000D1E60F2F00D81BE6002F00DA4EE11D2F51
:102D300000D9FDE61E231F200693FCE61B780370D6
:102D400022AB984500D0AEE500274B462093534672
:102D5000A360BB1C9846BAE54346002B00DA35E178
:102D600053465B000793984500D2C2E0F81C00D59B
:102D7000DCE60EF0F1FB1A9B81469A464346079328
:102D80003A00514648460EF0E1FB380002220C4959
:102D900048440EF0DBFB059B9A4504D0A1685046E1
:102DA00001310EF0E9FB4B461A93079BA360CDE47B
:102DB00024980610E8970610A4A50610FFFFFF7FD1
:102DC00020980610002E00DA00E15B0007939E4277
:102DD00000D29DE0701C00D5A8E607960EF0BCFB63
:102DE000149B070006934346002B06D0012B00D10D
:102DF000D8E0424606990EF0A9FB5346002B02D0BC
:102E00004B46002B66D10698029B984203D0A968D6
:102E100001310EF0B1FB079B1497AB60E3E4002E89
:102E200000DAD3E0530098469E4276D3A01C00D52A
:102E30007CE6B0460EF090FB149B07009946002CF0
:102E400052D120233B55029B994504D0A96848469E
:102E500001310EF091FB43461497AB60E1E40F2F74
:102E600000D88CE4002F00DAB0E01D2F00D9E5E691
:102E70001E231F200793E5E60F2E00D8A6E4002EA0
:102E800000DAA3E01D2EA5D81E231F200793A5E777
:102E9000F81C00D54AE60EF05FFB209B81469A465F
:102EA00043460693EAE519000EF050FB059B984552
:102EB00000D012E74B461A935346A360BB1C9846BA
:102EC0001EE7581C002B00DA30E6FCE51E231F200D
:102ED0009A46F5E64346F8184B46012B66D04A461B
:102EE00051460EF033FB8EE7012C29D11B7803707D
:102EF000A7E7002B00DA19E6581C0EF02DFB1A9BF1
:102F000081469A463CE7581C002B00DA0EE699E60B
:102F1000581C002B00DA09E660E7581C002B00DA89
:102F200004E687E71B780370A7E6102E00D075E44F
:102F30001F200EF011FB149B070099461E23984694
:102F40002200494638000EF001FB7AE71B78037037
:102F5000059B984500D0C0E65346A36002231A9013
:102F60009846CDE653461B780370BBE5059B1B785E
:102F70000370EFE5069B1B7803701A9B9946FFF7D9
:102F800009FC53461B780370149F2CE4059B1B78A7
:102F90000370B5E553461B780370EBE553461B7889
:102FA00003705EE6069B1B78037026E753461B788A
:102FB000037028E7022305989846FFF7C1FB16AB7C
:102FC0000293149300230493FFF7ABFB0E4826F003
:102FD00027FB00240625022210A9019400950EA8C3
:102FE00034F0D6F80E9B0F959C715B4608995A6891
:102FF000E5E5064826F014FB0020019000905846B5
:1030000034F0C6F80899E1E5F09706100898061024
:10301000F0B5DE4657464E464546E0B595B004004D
:103020000CF0D8FE002900D1A4E0FA22002392007F
:103030000DF080FD636EC01A3623E35C142B00D1C3
:10304000A3E0E04B3027984200D842E1DE4B403409
:103050000822009307210123200018F061FE0023BD
:10306000012208AE0AAD089598467372D74B3772A5
:103070007260AB4200D334E12A00B77403CB03C2C1
:103080001B8813800023F37410AB9A460E930EAB8B
:1030900099460C22290050460EF058FA0B234A4656
:1030A000536000230895736033721E231F209B46D4
:1030B0000EF052FA07000E9B0B22190098460EF0F4
:1030C00045FA38000822C2490B300EF03FFAD045CD
:1030D00005D04B469968404601310EF04DFA4B46FB
:1030E0005A460E979A6013234A4653600023FB7496
:1030F0000E9A04AB984602AF0293524500D150E1BC
:103100004B469B680292BB60132308987B60A842E1
:1031100000D144E1B16801310EF02EFA7968029ACB
:103120004B005B1880215B00C91A2000012349086D
:103130000092182218F0F4FDA64B2822042120004A
:103140000093012318F0ECFDA34B200000933422E0
:103150000123012118F0E4FD0298404503D0B9682D
:1031600001310EF009FA15B0F0BCBB46B246A946D3
:10317000A046F0BDFA2189000DF09EFC636EC01AD6
:103180003623E35C142B00D05BE78E4B302798424C
:1031900006D8FA2189000DF08FFC35273F1AFFB2BF
:1031A0008E4B40340422009307210123200018F0A5
:1031B000B7FD0023012208AE0AAD08959846737248
:1031C000874B37727260AB4200D3B9E02A00377583
:1031D00083CB83C20023737510AB9A460E930EAB5C
:1031E00099460E22290050460EF0B0F90D234A46AA
:1031F000536000230895736033721E231F209B4683
:103200000EF0AAF907000E9B0D22190098460EF049
:103210009DF93800032273490D300EF097F9D0451F
:1032200005D04B469968404601310EF0A5F94B4652
:103230005A460E979A6010234A46536000233B7407
:103240000E9A04AB984602AF0293524500D1B1E00A
:103250004B469B680292BB60102308987B60A84293
:1032600000D1A5E0B16801310EF086F97968029AC3
:103270004B005B1880215B00C91A2000012349081C
:103280000092102218F04CFD1A231A220A21200065
:1032900000935B3318F0DAFC534B20220721200007
:1032A0000093012318F03CFD504B2A220A212000F4
:1032B0000093012318F034FD4D4B2000009334227D
:1032C0000123072118F02CFD0298404500D046E765
:1032D00049E7FA2189000DF0EFFB35273F1AFFB2CD
:1032E000B4E6292169448B4200D9C5E6019209322E
:1032F000300000922900424633F04AFF43460B2239
:1033000008987260C3720EAB994610AB9A460E9342
:10331000A84200D1BDE649460E904A604246B368D5
:1033200008958B6072603272504500D1BDE6122B59
:103330006AD9082226490B300EF008F90E9FD2E612
:10334000292169448B4200D940E701920B323000B9
:1033500000922900424633F01BFF43460D22089895
:10336000726043730EAB994610AB9A460E93A84217
:1033700000D136E749460E904A604246B368089548
:103380008B6072603272504500D136E70F2B31D915
:10339000032214490D300EF0D9F80E9F4BE713218C
:1033A000BEE61422514618000EF0D0F84246ABE6B5
:1033B00010215DE71122514618000EF0C7F8424671
:1033C0004AE7C046871300008C980610A0980610A4
:1033D000AC980610B8980610D09806102C980610D5
:1033E000409806109C980610509806106498061095
:1033F000789806105B009B46581C102B00D9FFE6FE
:10340000102311209B46FBE65B009B46581C132BA8
:1034100000D94DE6132314209B4649E610B5224BF4
:1034200082B040300093002201231621040018F0DE
:1034300077FC0A23200000930A220021753318F03C
:1034400005FC1A4B200000930E220123042118F0E2
:1034500067FC174B2000009317220123042118F06A
:103460005FFC222320000093222200215D3318F00C
:10347000EDFB104B2000009325220123042118F0BE
:103480004FFC0D4B200000932E220123042118F045
:1034900047FC0A4B3822009307210123200018F033
:1034A0003FFC02B010BDC046E8980610F898061020
:1034B0000C99061024990610389906105099061098
:1034C000F0B5C56E04008BB0002D64D04E4B04AE39
:1034D0009C46EF58654429794C4B8A000131D358FA
:1034E00000914B4A182130000FF0B4FC30005AF024
:1034F00005FF802143001B185B004034C91A0022DD
:10350000012320004910009618F00AFC0923092223
:10351000009300212000763318F098FB032F3CD055
:103520003C4B0C221C2120000093022318F0F8FBD6
:103530001E231E22009300216133200018F086FB19
:103540002A7C131C032A00D9032302AD0821324A26
:10355000DBB228000FF07EFC28005AF0CFFE80215D
:1035600043001B189B00C91A222202232000491085
:10357000009518F0D5FB36230021009336224933FD
:10358000200018F063FB1C21244B009339220123F7
:10359000200018F0C5FB0BB0F0BD214B0C221C2104
:1035A00020000093022318F0BBFB1E231E22009371
:1035B00000216133200018F049FB2A7C131C032AE8
:1035C00020D802AD0821144ADBB228000FF042FCDB
:1035D00028005AF093FE802143001B189B00C91A53
:1035E0002222022320004910009518F099FB36236F
:1035F0000021009336224933200018F027FB1021C8
:10360000084BC2E70323DCE76C040000CCC70610BC
:1036100088990610A49906109C99061078990610AE
:103620009499061064990610F0B5C64600B5C36EAD
:1036300005008CB0002B00D192E0964A06AC904673
:10364000984443461979944B8A000131D35800912C
:10365000924A182120000FF0FDFB20005AF04EFE88
:10366000802143001B185B004035C91A002201234A
:1036700028004910009418F053FB09230922002167
:1036800028000093763318F0E1FA854B0C222221B2
:1036900028000093022318F043FB1E231E220093F0
:1036A00000216133280018F0D1FA43461B7F002B1C
:1036B0005AD126232F24262206212800009348339E
:1036C00018F0C4FA6E232F2206212800009418F067
:1036D000BDFA0623262206212800009418F0B6FA27
:1036E0006E2326226E212800009418F0AFFA43467C
:1036F0001B7F002B00D18EE00CF06CFB002900D169
:10370000BAE0FA22002392000DF014FA4346654A0B
:103710009B69C11A914200D9B9E0634AFA219446E3
:103720006344181A89000DF0C7F9030003AC0C219B
:103730005E4A20000FF08EFB012327227221280011
:10374000009418F0EDFA43461B7F002B00D18FE068
:103750001F21574B009338220123280018F0E0FA6C
:103760000CB080BCB846F0BD0CF034FB002954D03E
:10377000FA22002392000DF0DDF94346494A9B6985
:10378000C31A934253D85801C01A8000C01849493F
:10379000C0000DF091F90DF0CCFD47490DF079FD19
:1037A00026232F2626220621041C009328004833B6
:1037B00018F04CFA6E232F2206212800009618F0EC
:1037C00045FA0623262206212800009618F03EFA24
:1037D0006E2326226E212800009618F037FA37490A
:1037E000201C0DF056FD0DF0CBFDC71D002800DCA0
:1037F0007DE728260824210032002800013418F033
:1038000011FAA742F7DA01362E2EF3D143461B7F79
:10381000002B00D070E7032388E7FA2189000DF020
:103820004BF943461F4A9B69C31A9342ABD92623DF
:103830002F242622062128000093483318F006FA88
:103840006E232F2206212800009418F0FFF906238A
:10385000262206212800009418F0F8F96E2326226B
:103860006E212800009418F0F1F96B272826C1E793
:103870000B21134B49426DE7FA2189000DF01CF929
:103880004346084A9B69C11A914200D845E7002384
:103890004CE7C0466C040000CCC70610889906109F
:1038A000D4990610B70B00009F0F0000DC9906109A
:1038B000AC990610B80B00006F12833A0000C842A2
:1038C000B899061070B5C56E86B0002D63D0374B21
:1038D000403008221F2100930123040018F020FA31
:1038E000122312220021200000936D3318F0AEF94C
:1038F0002F4B1822009316210123200018F010FAF4
:103900002C4B9C466544AE6C002E46D030005AF0DD
:10391000F5FC802143001B189B00C91A49100223A3
:1039200021222000009618F0FBF9362336220021D0
:1039300020000093493318F089F90CF04BFA002964
:103940002ED0FA22002392000DF0F4F8FA212A6D0D
:103950000023851AC9008D4208D2174BFA219C46D4
:103960006244101A89000DF0A7F8030002AD10217F
:10397000124A28000FF06EFA28005AF0BFFC80218E
:1039800043001B185B00C91A39220123200049108B
:10399000009518F0C5F906B070BD4021084EBEE78D
:1039A000FA2189000DF088F8D0E7C046E0990610AA
:1039B000EC9906106C040000B70B0000FC9906108F
:1039C000A4A50610F0B5C64600B5C56E040084B0C7
:1039D000002D56D02E4B40349C4665442A792D4B01
:1039E0009B5C920018335B00EB18DF882A4BD6589B
:1039F00030005AF083FC8023410009188900591ACD
:103A0000984602222000491000967E3B18F088F963
:103A1000132313220021200000936C3318F016F9B1
:103A20001E4B02AE18221F2120000093012318F024
:103A300077F93B0008211A4A30000FF00BFA3000EA
:103A40005AF05CFC424643001B189B00D11A200030
:103A5000022349105F3A009618F062F934233422A9
:103A6000009300214B33200018F0F0F82B79022B43
:103A70000BD90C4B0093372201232221200018F090
:103A80004FF904B080BCB846F0BD074BF2E7C04622
:103A90006C040000DCC70610CCC70610209A061084
:103AA000DC990610149A0610089A061030B5C56EF7
:103AB00083B0002D36D002211D4B403004220093EC
:103AC00049420223040018F02BF916231622009312
:103AD00000216933200018F0B9F8164B9C46654464
:103AE0006D6C002D20D028005AF008FC8021430086
:103AF0001B185B00C91A491001231E2220000095E3
:103B000018F00EF9362336220021200000934933A5
:103B100018F09CF8084B382200930D210123200057
:103B200018F0FEF803B030BD2521044DE4E7C0468F
:103B3000589A06106C040000649A06104C9A0610FD
:103B4000F0B5DE4657464E464546E0B50C0087B018
:103B5000002B51D01D0040239C4600268444634620
:103B6000B0460027160005930490BB199A462B19FE
:103B700099467F2B09D853463F2B06D8049B5246C3
:103B800040334946180018F04DF8AB199B46621BAC
:103B90003B19E11B0293019200917F2B33D85B46C6
:103BA000002B6CDB3F2B00DCA2E07F294AD97F2A67
:103BB00000D8CAE0731B3F2B06D8059B180003935F
:103BC0000299721B18F02EF84B467F2B09D8F31B75
:103BD0003F2B06D8059B039349460398F21B18F028
:103BE00021F84346002B1FDD4246013D6B000133A7
:103BF000D31A9846AF42B8DD07B0F0BCBB46B24618
:103C0000A946A046F0BD7F2916D97F2ADCD85346A5
:103C1000002B00DA88E03F2B00DCD8E0F31B00D457
:103C20009BE04346002BDFDC01377B0001339844E7
:103C30004346002BD8DCDDE75B46002B00DACFE003
:103C40003F2B2CDD7F2A35D85346002B00DAA7E026
:103C50003F2B00DCBBE0F31B00D4EEE0731BC0D4B1
:103C60003F2BBEDC049B009940331800721B03936A
:103C700017F0D8FF029B7F2BA6D80398A0E77F2AD6
:103C800020DD7F2996D8731B3F2B9DDC049B721B84
:103C900040331800039317F0C5FF039890E7049B87
:103CA000403303935A460099039817F0BBFF019BDA
:103CB0007F2B64D9731B00D586E7731B3F2B00DD78
:103CC00082E7CFE75346002B64DB3F2B00DC7EE02E
:103CD000F31B73D4F31B3F2B41DD009B7F2B71D86B
:103CE000731B00D57DE7731B3F2B00DD79E7B9E738
:103CF000049B5A46403318000299039317F092FF31
:103D0000009B7F2BCED9019B7F2B00D952E75346D6
:103D1000002B00DA9AE03F2B5CDDF31B00D549E76E
:103D20003F2B4FDC03981EE0F31B3F2B00DD58E7D1
:103D3000049B019940331800F21B039317F072FFA4
:103D40004B467F2B00D94CE746E75346002B5EDB02
:103D50003F2B3CDDF31B00D52CE73F2B32DC049BD3
:103D60004033180003930199F21B17F05BFF009B8F
:103D70007F2B9FD9029B7F2B00D81BE7E0E75346A0
:103D8000002B50DB3F2B25DDF31B00D566E73F2BD7
:103D9000A6DCC7E7F31B3F2BE1DD7F298DD909E7BF
:103DA000F31B3F2B9CDC049B019940331800F21B52
:103DB000039317F037FF731BC2D47EE7009B7F2B62
:103DC00000D84BE7029B7F2B00D8F3E609E7049B62
:103DD0004033039352460199039817F023FF77E786
:103DE0007F2A08DC5346002B2BDB3F2BEFDDF31B38
:103DF00000D533E76EE7731B3F2B00DDE4E6049B41
:103E0000009940331800721B17F00CFFDCE6F31B1F
:103E10003F2B00DDCEE6049B019940331800F21BD6
:103E200017F000FFC6E6F31B3F2B00DD58E70199B2
:103E30000398F21B17F0F6FE3CE73F2B00DD4FE73F
:103E40008DE7F31B3F2B00DD4DE788E7F31B3F2B8E
:103E500000DDAFE601990398F21B17F0E3FEA9E637
:103E6000F0B54023DE4683464E46574645465B4402
:103E70001C00E0B585B002932C4B042222212000C7
:103E80000093022317F04CFF162316220021200076
:103E90000093693317F0DAFE254B1B220D21200019
:103EA0000093012317F03CFF224B242200930A21A8
:103EB0000123200017F034FF26231F4D9A46163B9E
:103EC00099462E004B4603259F1C0223B0462E0028
:103ED000534403930324039B9D1B391B2A00029820
:103EE000013C17F09FFE002CF7D1013E002EF1D1CE
:103EF00046460523524649465846FFF721FE092308
:103F0000524649465846FFF71BFE0C4B02369E426E
:103F100004D03378994673789A46D3E705B0F0BC5D
:103F2000BB46B246A946A046F0BDC046789A0610E8
:103F3000809A0610949A0610C4C70610CCC70610C3
:103F4000F0B54546DE4657464E46E0B5C56E040020
:103F500093B0002D00D141E140239846C04B8044EE
:103F60000022162140460093012317F0D9FE0923B1
:103F70000922002140460093763317F067FE02A91C
:103F80008A46B84B0E21EE18F38EB74A50460EF013
:103F900061FF06A98946738F0E21B44A0AAF4846CD
:103FA0000EF058FF338F0E21B14A38000EF052FF49
:103FB000B38F0EAE0E21AF4A30000EF04BFF5346CA
:103FC0000C22022140460093012317F0A9FE4B4624
:103FD0000C22422140460093012317F0A1FE012349
:103FE000152202214046009717F09AFE0123152260
:103FF00042214046009617F093FE1F231F22009394
:1040000000216033404617F021FE9B4B9C466544DF
:104010002B78002B00D0E8E00A21984B2122009356
:104020004046012317F07CFE277C0022002F03D09E
:104030006823E25C673B5A400021A37A8A46002B42
:1040400004D06931655C68394D40AA46A17D207F66
:10405000002900D0CDE0002800D017E1002A00D0D0
:10406000E4E15046002800D027E21B0209043B434C
:1040700012060B431343A3668123E25C002A06D099
:104080008021625C0D2A00D999E1013262548323B8
:10409000E25C002A06D08221625C0D2A00D98BE105
:1040A000013262548523E25C002A06D08421625CDE
:1040B0000D2A00D974E1013262548723E25C002AA0
:1040C00006D08621625C0D2A00D96CE1013262546F
:1040D0008923E25C002A06D08821625C0D2A00D97F
:1040E00064E1013262548B23E25C002A06D08A210B
:1040F000625C0D2A00D95CE1013262548D23E25CDE
:10410000002A06D08C21625C0D2A00D842E10022F0
:10411000E2548F23E25C002A06D08E21625C0D2AD5
:1041200000D83AE10022E2548123E35C002B00D066
:1041300028E18323E35C002B00D01BE18523E35CB3
:10414000002B00D00EE18723E35C002B00D001E1BF
:104150008923E35C002B00D0F4E08B23E35C002B8D
:1041600000D0E7E08D23E35C002B00D0DAE08F2362
:10417000E35C002B00D0CDE0414B10279A4608238A
:1041800053449B46262302330325994602374B4668
:1041900003245E1B391B32004046013C17F042FDF0
:1041A000002CF7D1013D002DF1D102239C46E244C1
:1041B000D34503D053461F785B78E4E73623362295
:1041C000002140460093493317F040FD2D4B382223
:1041D000009313210123404617F0A2FD13B0F0BC59
:1041E000BB46B246A946A046F0BD0821264B49422F
:1041F00014E76A26A65DB446012665466E40B346BE
:10420000002818D06B20205C002814D1002A00D090
:104210002EE15246002A00D032E1002E09D0892238
:10422000A25C002A00D18DE18B22A25C002A00D181
:10423000B2E101225CE0002A43D15246002A00D0BC
:10424000F7E05A46002A09D08922A25C002A00D150
:1042500058E18B22A25C002A00D128E1020004E789
:10426000D89A06106C040000E89A0610F49A06101A
:10427000009B06100C9B0610AE040000C49A0610AA
:10428000C4C70610189B0610A89A06106B20205C65
:104290008346002800D095E0002A00D0E8E052468E
:1042A000002AC6D08522A05C002800D17EE102321F
:1042B000A25C002ABDD1802586326D00A552020085
:1042C00013E0020000208125655D002D00D116E17C
:1042D0008325655D002D00D102E15546002D00D0FB
:1042E00093E05D46002D00D083E0002800D1BCE6BD
:1042F0008D20205C002800D1F0E08F20205C002879
:1043000000D0B2E601208025400020188C306D00DE
:104310000580AAE68E2326226D212000E35CFFF7AC
:104320000FFC29E78C2326226D212000E35CFFF798
:1043300007FC1CE78A2326224E212000E35CFFF7BE
:10434000FFFB0FE7882326224E212000E35CFFF7C6
:10435000F7FB02E7862326222F212000E35CFFF7EC
:10436000EFFBF5E6842326222F212000E35CFFF7F4
:10437000E7FBE8E68223262210212000E35CFFF71A
:10438000DFFBDBE68023262210212000E35CFFF721
:10439000D7FBCEE601326254BBE601326254C3E67B
:1043A0000022E25489E60022E25491E60022E2541F
:1043B00099E60022E254A1E60022E25472E60022CD
:1043C000E25464E6002A00D085E05246002A55D027
:1043D0008522A25C002A4DD08720205C002800D0D6
:1043E0003CE78026862576006653002800D13CE60F
:1043F00000208925655D002D00D1AEE08B25655D2F
:10440000002D00D071E701252BE08525655D002D8D
:104410007ED08725655D002D00D062E701358026BE
:104420006D006519843576002E805AE70022934688
:1044300049E78522A25C002A6FD08722A25C002A6D
:1044400068D05A46002A00D108E78922A25C002AD7
:1044500058D08B22A25C002A00D0FFE60200012582
:10446000002080266D006519883576002E803CE797
:10447000100028E7802084224000A0525A46F4E52C
:104480008522A25C002A73D08722A25C002A66D013
:10449000002E00D1CDE68922A25C002A52D08B20CA
:1044A000205C002800D0C4E610000125D9E7802553
:1044B0008A326D00A5520200D7E58520205C0028D5
:1044C00046D08720205C002800D0CEE580258630AD
:1044D0006D002552C9E500208346F4E6002012E76E
:1044E0000135AC4665466D00AC468025A946A4441E
:1044F0008035CC44A94665464E462E80EDE6002523
:10450000AC46EFE7802588226D00A5520200ACE59D
:10451000002584E70200584663E7802584226D0069
:10452000A5525A46002A00D198E68922A25C002AA8
:1045300038D08B22A25C002A00D08FE68A32A552A6
:10454000020092E5802088224000A0520122CFE69E
:10455000802584206D00255287E5002581E7013004
:104560008632FF30A052321E00D162E6300040E7B2
:104570008022842052002252002E00D159E6892048
:10458000205C002818D08B20205C002800D050E64A
:104590008A3022520122ABE680208A324000A052AB
:1045A0000122A5E68822A55202005EE58020842231
:1045B0004000A05201229BE688202252012297E669
:1045C000F0B5DE4657464E4645463423E0B5C35C5B
:1045D00004008DB00D2B01D900F033FCD34A9B00B1
:1045E000D3589F4608AB99460693D14B09260893AA
:1045F0000023042006AF3B730522CE4948440CF04B
:10460000A5FF069D00237E60AB552500069B403527
:104610000022002128000093012317F081FB0A23C8
:104620000A22002128000093763317F00FFB0BF0CD
:10463000D1FB002900D1A2E2FA22002392000CF063
:1046400079FA82460023207C9846002804D06833FB
:10465000E25C673B5A4090460022A37A02920393A1
:10466000002B04D06932A65C683A56400296A17DC0
:10467000227F002900D049E2002A00D13AE36B22D0
:10468000A25C4346002A00D164E3002B01D000F075
:10469000E9FB029B002B01D000F0EBFB039B09041C
:1046A0001B02034312060B431343A366A24B04975A
:1046B0009846082343449B46534602934B4647463D
:1046C000039405933E787C78731E9946631E9A4640
:1046D0001A004946280017F0A5FA52463100280072
:1046E00017F0A0FA731C984619005246280017F0DC
:1046F00099FA22004946280017F094FA2200310066
:10470000280017F08FFA220041460134280017F0E4
:1047100089FA22004946280017F084FA2200310065
:10472000280017F07FFA023722004146280017F0D0
:1047300079FA5F45C6D1029B039C9A46059B049F6C
:1047400099468123E25C002A06D08021625C0D2A12
:1047500000D9E7E2013262548323E25C002A06D0EA
:104760008221625C0D2A00D9DFE201326254852386
:10477000E25C002A06D08421625C0D2A00D9D7E2CF
:10478000013262548723E25C002A06D08621625CF3
:104790000D2A00D9CFE2013262548923E25C002A5B
:1047A00006D08821625C0D2A00D9C7E2013262542A
:1047B0008B23E25C002A06D08A21625C0D2A00D994
:1047C000BFE2013262548D23E25C002A06D08C21C4
:1047D000625C0D2A00D84FE20022E2548F23E25C93
:1047E000002A06D08E21625C0D2A00D847E2002202
:1047F000E2548123E35C002B00D029E28323E35CB5
:10480000002B00D01CE28523E35C002B00D00FE2DC
:104810008723E35C002B00D002E28923E35C002BBA
:1048200000D0F5E18B23E35C002B00D0E8E18D2381
:10483000E35C002B00D0DBE18F23E35C002B00D096
:10484000CEE13123E25C013BE35C002A00D19CE134
:104850003A4E3178002900D102E239490968884688
:10486000002B00D103E2374884460078002802D1AB
:104870005146354801600120414630706046037062
:10488000002905D05046411A96204000814267D841
:104890002D480168002905D05046411A9620400055
:1048A00081425DD82621615C002900D0F5E12731E5
:1048B000615C00294CD12831615C002900D098E26C
:1048C0002931615C002900D0C5E22A31615C0029F0
:1048D00000D0F8E22C31615C002900D009E32B31D3
:1048E000615C002900D011E32D31615C002900D00A
:1048F00038E32E31615C002900D05BE32F31615C2D
:10490000002900D059E3002B00D059E3002A00D041
:104910005CE33233E35C002B00D054E33333E35CDD
:10492000002B1DD0094B313114E0C04658C706108A
:104930004D4944490C9C0610C4C7061090620020E3
:104940004C4A00208F620020484A0020709B0610CD
:104950003421D34B009310220123280017F0E0F9F3
:10496000362336220021280000934A3317F06EF9CF
:10497000CC4B2800009338220123002117F0D0F9F6
:104980000698484503D0B96801310CF0F5FD0DB02B
:10499000F0BCBB46B246A946A046F0BD08AB99465E
:1049A0000693C14B06AF1A680A2608924A461B793D
:1049B0000520137100237B731EE608AB994606930E
:1049C000BA4B4A4603CB03C2198806AF11809B78C5
:1049D000102693700B237B600023FB740B339846E7
:1049E0001F200CF0B9FD069B424619009A460500AF
:1049F0000CF0ACFD43460522AD49E8180CF0A6FDCD
:104A0000CA4504D0B968504601310CF0B5FD1E23EB
:104A10000695BB60F6E508AB99460693A54BD0E733
:104A200008AB99460693A44BCBE708AB99464A4698
:104A30000693A24B06AF03CB03C200230D2608202A
:104A40003B74D9E508AB9946494606939C4B06AFA3
:104A50001A680C2608929A8807208A809B798B71A5
:104A60000023FB73C8E508AB994649460693954B6E
:104A700006AF1A8808260A809B7803208B700023D3
:104A8000FB72B9E508AB99464A4606938E4B03CBB9
:104A900003C21B781370002306AF0E2609207B7417
:104AA000AAE508AB99464A460693884B03CB03C256
:104AB0001B781370EFE708AB99464A460693844B80
:104AC00006AF23CB23C21B88132613800E237B60E3
:104AD0000023BB750E33984682E708AB99464A46D9
:104AE00006937C4B06AF03CB03C21B880F261380B3
:104AF00000230A20BB747FE508AB99460693764BEA
:104B00005FE708AB99460693744B5AE76A26A65DA1
:104B1000B4460126B34666465B465E40049643466D
:104B2000002A43D06B22A25C002A3FD1002B00D088
:104B30009DE1029B002B00D0ADE1002E0CD089221C
:104B4000A25C002A00D110E28B22A25C002A03D1D1
:104B500080268A327600A65201228D26A65D002E7E
:104B600000D1C1E18F26A65D002E00D096E501267A
:104B700080237600A6198C365B0033808EE5FA21FF
:104B800089000BF099FF82465CE555490A60002BCD
:104B900078D054490878002800D0D5E056465248CD
:104BA0000660524E327001260E7072E6002B00D065
:104BB000F7E0029B002B00D01EE1049B002B00D1EC
:104BC0006CE58926A65D002E00D195E18B26A65DB9
:104BD000002E00D062E580238A365B00A3535DE59A
:104BE0008E2326226D212000E35CFEF7A9FF28E634
:104BF0008C2326226D212000E35CFEF7A1FF1BE63B
:104C00008A2326224E212000E35CFEF799FF0EE660
:104C1000882326224E212000E35CFEF791FF01E667
:104C2000862326222F212000E35CFEF789FFF4E58E
:104C3000842326222F212000E35CFEF781FFE7E595
:104C40008223262210212000E35CFEF779FFDAE5BB
:104C50008023262210212000E35CFEF771FFCDE5C2
:104C600050461F49D0460860002B00D0FBE51E4887
:104C700003601C488446FEE501326254AEE5013211
:104C80006254B6E518490B6018490B7015490B7052
:104C90002621615C002900D109E63A21144B59E62E
:104CA000289B0610149C0610049C0610B09B06104E
:104CB0000C9C0610BC9B0610C89B0610D49B0610CB
:104CC000E09B0610E89B0610EC9B0610F89B061074
:104CD0007C9B06108C9B0610989B0610A49B0610CC
:104CE0004C4A00208F620020484A00209062002039
:104CF000789B06104346002B00D09EE0029B002BC1
:104D000001D10022CAE48522A25C002A00D123E15D
:104D10008722A25C002AF4D1802686327600A65231
:104D20000022BBE40022E25416E50022E2541EE514
:104D30000022E25426E50022E2542EE50022E2544D
:104D400036E50022E2543EE5A648027001200870D4
:104D5000A5489EE5002B00D080E0029B002B00D1EF
:104D6000FAE68522A25C002A00D117E18722A35C23
:104D70000493002B00D0EFE680268622049B760069
:104D8000A652002B00D1E7E6049A90468926A65D3C
:104D9000002E00D1B6E08B26A65D002E13D1013681
:104DA00044E0002398468123E35C002B00D18DE092
:104DB0008323E35C002B00D198E0029B002B07D1FA
:104DC000049B002BE2D14346002B00D166E4C4E6ED
:104DD0008526A65D002E00D196E08726A65D002ED2
:104DE000EED1013680237600A61984365B0033802D
:104DF000E6E734217D4BADE58526A65D002E00D18A
:104E000091E08726A35D9846002B00D181E0049BAA
:104E1000002B00D142E48926A65D002E6CD08B26A3
:104E2000A35D8A3E9846002B00D037E480237600AD
:104E3000A61988365B003380C5E7002398460493A3
:104E4000B1E708AB994606933F2306AF062601203B
:104E50003B81FFF7D1FB3121654B7BE500234246C7
:104E60000493A0E700234246049398469BE74246FA
:104E700099E78522A35C002B00D194E00232A25C6A
:104E8000002A01D0FFF70AFC802686327600A6525F
:104E90001A00FFF703FC8522A25C002A6AD0872251
:104EA000A25C002A00D167E7002E00D154E68922D7
:104EB000A25C002A59D08B26A65D002E00D04BE6BE
:104EC00090460136B2E731214A4B43E500239B4629
:104ED0005B465B009B4680239C46A3448026E344BC
:104EE0005B4676001E8068E7002641E601339B465C
:104EF000EEE73121404B2DE5802388265B00A3534C
:104F0000FFF7CCFB002691E700266BE734213B4BF3
:104F100020E50133FF33013EA353049B002B01D155
:104F2000FFF7BCFB32E7802384265B009846A3533F
:104F3000049B002B01D1FFF7B1FB0536A65D002EC7
:104F400047D08B26A65D002E01D0FFF7A7FB434676
:104F50008A36A353FFF7A2FB802384265B00A3536A
:104F6000FFF79CFB3421264BF4E480268822760050
:104F7000A652F1E53300802684227600A652002B4B
:104F800000D1E9E50532A25C002A27D08B22A25C81
:104F9000002A00D0E0E58A32A652DDE58026842290
:104FA0007600A652D8E5802384225B00A352029AA1
:104FB000FFF774FB3D21134BCCE43D21124BC9E4B8
:104FC0003121124BC6E43421114BC3E42E21114B85
:104FD000C0E488264346A353FFF760FB8822A6520D
:104FE000BAE5C04690620020484A00206C9E061038
:104FF000789E0610309B0610389B0610409B0610CA
:10500000489B0610509B0610549B0610589B061098
:10501000689B0610609B0610F0B5DE4657464E466C
:105020004546E0B5C84BE3B09C680290002C15D013
:10503000362204331900825C03E02100A468002CAE
:1050400005D0237C9342F8D2E468002CF9D1BF4B01
:105050008A46994202D00B7C934206D963B0F0BCD9
:10506000BB46B246A946A046F0BD0B7D062B5DD1DE
:10507000029B403303930A230A22009300217533D5
:10508000039816F0E3FD53461B7D062B00D163E128
:10509000022B00D191E119AA05921792002217AEB6
:1050A000079632727260042B00D129E300D987E0A1
:1050B000012B00D824E33623029AD35C128F991F68
:1050C000012900D837E10D2B00D134E1002A01D0AD
:1050D00001F001F99E4B059A03CB03C208237360CC
:1050E0000023059C08220A212000337459F0C8F8D7
:1050F000002801D101F072F9041B631C01D101F0F9
:10510000FBF92BABA04604932993082C01D9082363
:105110009846059F4346012B01D100F048FF29AD79
:10512000002B01D000F014FD049AADE05346029824
:105130009B6940300093002201230021039016F068
:10514000EFFD53461B7D032B13D00FD9052B92D1B6
:105150000AF040FE00292ED0FA22002392000BF024
:10516000E9FC0C23029A5066137277E7022B00D1F8
:1051700081E753465D6B1B6BED1A1C2D00D87AE757
:10518000029B1A8F002A01D000F029FDAD10EB0020
:105190005B1999015B18DB005B19D9035B18DB0015
:1051A0005B19DB439A4200D365E702227921039819
:1051B000FDF77AF85FE7FA2189000BF07DFCD0E774
:1051C000052B00D0D4E0029B198F53461D6B586B02
:1051D000401B8010C3001B189A019B18DB001B1892
:1051E000DA039A18D20012185242914201D301F008
:1051F00097FACB005B1A9B00ED18B54200D1B7E0DF
:105200006F680F2F01D900F09DFE002F01D000F034
:1052100060FC059A00237760D3555346189A1B7D8E
:105220009146179F042B01D100F0E2FC002A00D127
:10523000A1E00A21380059F023F8002801D100F03C
:1052400014FFC41B631C01D100F00FFF2BABC84639
:1052500004932993A14500D9A04643460F2B00D8BB
:1052600058E7002B01DA01F04AFA581C01D500F08A
:10527000B4FC0CF071F9434629AD2990AB6042466D
:1052800039000CF063F9299A434641466B600023CC
:105290005354736801349C4201D901F02BFA179FD3
:1052A0002FAA31AE3F1993462F961C1B0F2C01D904
:1052B00000F087FE012C01D100F07FFE002C01D010
:1052C00000F049FC32005B465C60002313555B46EE
:1052D0006A685F685100299B89180A2A03D80A2F37
:1052E00001D800F046FF8024039849008046611AE7
:1052F000182249080093012316F012FD7B00DB19E8
:105300005B00E11A2F9B20220093404601234908AD
:1053100016F006FD2F98B04204D05B469968013123
:105320000CF02AF92998049B984231D0A9680131E0
:105330000CF022F92CE0002A00D0D4E3054B059AAA
:1053400003CB03C2CAE6C0461C3C0020203C002020
:10535000189D0610009D0610029BDB6E002B00D0EE
:105360003AE217AA19A90792059117911893137297
:1053700000239946059F4B4680215B004B449B00D0
:10538000C91A1C22022303984908009716F0C8FC8A
:105390001798059B984204D0079B996801310CF03F
:1053A000EBF853461B7D043B012B00D856E65146D3
:1053B00002981431FDF780F950E6029B1C8F092CEE
:1053C00001D801F0ABF8632C00D8ACE3FA239B00C2
:1053D0009C4201D200F0E6FEC54B9C4201D800F091
:1053E0005DFF0DAB04930B9300230C93053399469B
:1053F00004260BAD2D232B722FAB1800C922BD49FB
:105400009B460CF0A3F8BA4BAE1998464B463700B2
:10541000A9460593200064210BF04EFB20004E00AE
:1054200064210BF049FB5B469B195B7825003B72BE
:105430005B469B5D0400FB71023F4545EAD8059B36
:105440002F004D469946FA239B009F4200D377E3F5
:105450003034E4B24B46002249466B600B9B2C7201
:105460005A546C68A44B9C4201D101F04BF90B9F3C
:10547000049B661C9F4201D100F073FFAB689E4203
:1054800001D900F04CFE9D4B9F4204D83A1993423B
:1054900001D801F03AF9002C08D0012C01D100F01C
:1054A000B1FF22003900781C55F0B2FC28233B7074
:1054B0000B9F00236E609846BB5513AB9B46119320
:1054C000049A0B9B6E6811AC934201D100F058FF17
:1054D00011000B914146AA686960297286491193AF
:1054E000A26066608E4201D101F039F9771C5B45FC
:1054F00001D100F054FFBA4201D200F05EFE292231
:105500009A55119B9846002342466760D355119ADD
:105510001DAB05931FAB66681D935A4501D100F082
:1055200045FF0599A3680C001D928B600B98049BA6
:105530006660984205D0A96801310CF01DF86668D4
:105540001D9A802173009B195B00C91A00920123E8
:1055500011220398490816F0E3FB53469F8F25ABB1
:1055600023930893012323AA24932F333C0006920C
:105570001381092F01D800F0DEFF632F01D800F05E
:1055800000FDFA239B009F4201D200F096FE584B8B
:105590009F4201D800F086FE2BAB29930493002391
:1055A00004262A93053329AD07932D232B722FABA5
:1055B0001800C9224F499B460BF0C8FF4C4BA84628
:1055C0009946AE190997200064210BF075FA200066
:1055D0004F0064210BF070FA5B46DB195B78250005
:1055E00033725B46DB5D0400F371023E4D45EAD841
:1055F0004346A8461D00FA23099F9B00984501D306
:1056000000F0CCFC3034E4B200222C720799299BC4
:1056100069605A54039E239B0221300000931D327F
:10562000012316F07DFB80216A68300053009B182F
:105630005B00C91A299B1D220093012316F070FB01
:1056400027232F242722022130000093573316F0FE
:10565000FDFA7E232F2202213000009416F0F6FA84
:105660000223272202213000009416F0EFFA7E2355
:1056700027227E213000009416F0E8FA002F1BD07C
:10568000029B39001B8F1801C01AC0000BF0ECF907
:10569000002811D02926071DA8463D00039F042499
:1056A000210032003800013416F0BCFAAC42F7D1C8
:1056B00001362D2EF3D145462998049B984203D0FC
:1056C000A96801310BF058FF2398089B984204D039
:1056D000069B996801310BF04FFF1D981FAB984254
:1056E00000D15EE6059B996801310BF045FF58E655
:1056F0000F2700009C9D0610FFFFFF7FB09C061047
:10570000029A118F5246156B506B401B8010C200DD
:1057100012189701D219D2001218D703D219D20049
:1057200012185242914201D300F0FAFFCA00521AF5
:105730009200AD18B54200D062E5042B00D017E608
:1057400025AB239308930023002523AA249399468D
:1057500013720493069201335A00D318DB00180029
:1057600098460BF0F9FE83465D442800239B089A77
:1057700008302860934201D100F0C7FE069A2B60E2
:1057800093685668AB60089B6E6023930023536058
:105790001372A14501D100F0B6FE43464F464E4676
:1057A0005D46A046083709930AE02B60B368AB60FA
:1057B00018366C6018371835464501D100F068FC82
:1057C00028003368083074682860BB42EDD1390086
:1057D000621C0BF0BBFEEBE77023029A0398D65ACB
:1057E0000233D75A0233D45A0233D55AE74B002238
:1057F000002100930123804616F092FA0923092222
:10580000002140460093763316F020FAE04B0B223D
:10581000002140460093012316F082FA142314223B
:105820000021404600936B3316F010FA3B000C2128
:10583000D84A1DA805900DF00DFB2B000C21D64A6F
:1058400023A829AD06900DF005FB33000C21D34AA7
:1058500028000DF0FFFA2FAB9B46D14A23000C2104
:1058600058460DF0F7FA029A148FE4B2002C00D1DA
:105870003FE1032C01D100F0A7FD059B039E1622FA
:10588000082130000093012316F04AFA069B1622E5
:10589000009348210123300016F042FA012C01D177
:1058A00000F0A1FD022C07D1BE4B1F220093402126
:1058B0000123039816F034FA039C01231F220821C8
:1058C0002000009516F02CFA5B461F22482120008C
:1058D0000093012316F024FA2923292200210093A2
:1058E0002000563316F0B2F9029A0021167C002EE1
:1058F00003D06823D15C673B59400022029891464F
:10590000837A002B04D06932855C683A5540A946F9
:10591000029CA07D227F002800D05EE3002A01D1F6
:1059200000F0EBFC6B22A25C9046002A01D100F053
:105930006DFD002901D000F0F9FD4A46002A00D093
:1059400011E142461B02000433431206034302984E
:10595000134383668123C25C002A07D08021425C06
:105960000D2A01D900F0C5FC01324254832302986C
:10597000C25C002A07D08221425C0D2A01D900F0C6
:10598000B0FC0132425485230298C25C002A07D041
:105990008421425C0D2A01D900F0A7FC0132425457
:1059A00087230298C25C002A07D08621425C0D2A18
:1059B00001D900F0C6FC0132425489230298C25C2E
:1059C000002A07D08821425C0D2A01D900F0BDFCD5
:1059D000013242548B230298C25C002A07D08A21EC
:1059E000425C0D2A01D900F0B4FC013242548D23EF
:1059F0000298C25C002A07D08C21425C0D2A01D893
:105A000000F0ABFC0022C2548F230298C25C002A33
:105A100007D08E21425C0D2A01D800F08EFC0022B6
:105A2000C2548123029AD35C002B01D000F001FC08
:105A30008323029AD35C002B00D0F1E38523029AE2
:105A4000D35C002B00D0E3E38723029AD35C002BC6
:105A500001D000F011FC8923029AD35C002B01D005
:105A600000F001FC8B23029AD35C002B00D0F1E301
:105A70008D23029AD35C002B00D0E3E38F23029A9C
:105A8000D35C002B01D000F000FC474B039A9946F1
:105A900008234B449A4610272623904602330325B9
:105AA0009B4602375B4603245E1B391B320040468F
:105AB000013C16F0B7F8002CF7D1013D002DF1D1D3
:105AC00002239C46E144CA4574D04B461F785B785C
:105AD000E4E7059B29689846012F00D04AE20B783D
