:020000041000EA
:1000000000B5324B212058609868022188439860DF
:10001000D860186158612E4B002199600221596106
:100020000121F02299502B49196001219960352056
:1000300000F044F80222904214D00621196600F024
:1000400034F8196E01211966002018661A6600F04E
:100050002CF8196E196E196E052000F02FF8012189
:100060000842F9D1002199601B49196000215960AB
:100070001A491B48016001219960EB211966A021F2
:10008000196600F012F800219960164914480160C1
:100090000121996001BC002800D000471248134993
:1000A000086003C880F30888084703B5996A0420EC
:1000B0000142FBD001200142F8D103BD02B5186610
:1000C0001866FFF7F2FF186E186E02BD00000240BE
:1000D000000000180000070000035F00212200005C
:1000E000F4000018222000A00001001008ED00E03C
:1000F00000000000000000000000000074B24E7A12
:1001000000200420F7010010CB010010CD010010E9
:10011000C9010010C9010010C9010010C901001077
:10012000C9010010C9010010C9010010CF01001061
:10013000C9010010C9010010D1010010D301001045
:10014000C1010010C1010010C1010010C101001067
:10015000C1010010C1010010C1010010C101001057
:10016000C1010010C1010010C1010010C101001047
:10017000C1010010C1010010C1010010C101001037
:10018000C1010010C1010010C1010010C101001027
:10019000C1010010C1010010C1010010C101001017
:1001A000C1010010C1010010C1010010C101001007
:1001B000C1010010C1010010C1010010C1010010F7
:1001C000EFF30580103800BE00BE00BE00BE00BECA
:1001D00000BE00BEF2EB88713CE2071060E207103F
:1001E0003802001090A31AE71E481F49086006C88D
:1001F00081F3088810471D480068002801D019487D
:10020000F3E70DA40ECC002902D000F012F8F9E7B4
:100210001749184A002000E001C19142FCD116495B
:100220008847164988471649884700BEFDE701C937
:1002300001C29A42FBD3704760E20710C000002061
:1002400020360020C0170810000004200000042001
:10025000C017081000100420001004200000000047
:10026000704700000000000008ED00E0000000D032
:10027000203600209462002095240110F50500101E
:1002800055240110F8B5C04606480749091A8B10D5
:10029000C90FC91810B5491003D0044B002B00D06A
:1002A000984710BD203600202036002000000000B6
:1002B000054B10B5002B03D00449054800E000BFF2
:1002C000FFF7E2FF10BDC04600000000785F00208D
:1002D000C88B06107047C0467047C04600B58DB049
:1002E000029011201C220021684410F065FB0123BC
:1002F0006A460D20137302A90422684410F062FBC1
:1003000003A902480FF002F80DB000BD043D002023
:1003100010B5034B010018000EF0F8FF10BDC046E9
:10032000643F0020F0B5DE4657464E464546E0B5F0
:100330008F4CA54412F06CFF032106200FF0CCF87F
:10034000032107200FF0C8F80022012106200FF03A
:10035000DDF80022012107200FF0D8F885498648F2
:1003600012F066FD854921A801F098FA844930A869
:1003700006F0BCFF8349C2A801F0C4FD0AA80BF037
:1003800081F880220021520041A810F015FB2A229A
:10039000002116A810F010FB0DAD0822002106A8C0
:1003A00010F00AFB21220021280010F005FB002399
:1003B000754805A905930FF053F80599C2A801F0F7
:1003C00017FE0822002108A810F0F6FA6F4B704EB5
:1003D0009B46704B704F9A46704B81AC9946704B60
:1003E0000293704B9846704B0393704B019316A980
:1003F00021A800F0D7FF30001DA90EF087FF0028CC
:1004000000D1A2E016A958460EF0B8FF504608A940
:100410000EF0B4FF002800D092E0290048460EF00C
:10042000ADFF002809D02B78052B06D8029A9B0037
:10043000D3589F46C2A801F0E7FD404606A90EF03A
:100440009DFF002816D1059B002B37D0584A9B589A
:10045000002B33D00A2B31D8039A9B00D3589F46E8
:10046000697830A806F06EFF404606A90EF086FFB8
:100470000028E8D006A9C2A801F0B4FDE3E7C2A8AD
:1004800001F0BEFDD9E7697830A806F059FFD4E73E
:100490006B78002B67D0012BCFD16B882100238094
:1004A0002B7930A8A37006F055FFC6E76978C2A87B
:1004B00001F090FDC1E7C2A801F0AEFD019841A98D
:1004C0000EF05CFF00280CD0200041AA0AA90BF016
:1004D00015F8002138000EF051FF210038000EF011
:1004E00015FF16A930A806F02FFF16A9C2A801F023
:1004F0006BFD30A806F03EFFC2A805F0EDFB76E7E5
:10050000C2A801F085FDD9E7C2A801F09DFDD5E79D
:10051000C2A801F095FDD1E7C2A801F099FDCDE791
:10052000C2A801F089FDC9E7C2A801F081FDC5E7B5
:10053000C2A801F075FDC1E7C2A801F075FDBDE7D5
:1005400008A9C2A801F056FD67E70E22002120008D
:1005500010F032FA210030000EF010FF30001DA91B
:100560000EF0D4FE4EE7A978C2A801F037FD64E78B
:1005700044F9FFFF40420F0068250020D4BB06105D
:10058000C0BB0610B8BB0610743F0020643D0020BD
:10059000843F0020DC3D0020943F0020043D0020EB
:1005A000C88B0610EC3D0020E08B0610643F002055
:1005B0006C04000010B50400064B08000C3499428E
:1005C00005D035F007F8431E984140420440200012
:1005D00010BDC0461CBC0610882110B5040049009F
:1005E00010F006FA200010BD882110B5490010F067
:1005F000FFF910BDF0B5DE4657464E464546E0B51C
:10060000FC4C0026A5440EF06DF9FB4A03002121A5
:100610001000069201220EF067FE0EF063F9F74A11
:10062000030008211000179201220EF05DFE0EF06B
:1006300059F9F34A03001C2110000D9201220EF01B
:1006400053FE0EF04FF9EF4F030008220E21380041
:100650000EF04AFE0EF046F98021EB4C0300012219
:10066000200049000EF040FE0EF03CF98021E74AE0
:100670000300490010000E9201220EF035FE0EF02C
:1006800031F9E34A030092460421012250460EF05C
:100690002BFE0EF027F9DF4A030008211000199203
:1006A00001220EF021FE12F089F81CAA9446DA4BC2
:1006B000DA496344180005F0EBFC88240023892202
:1006C000994664001CAB1B191E8052001CAB082508
:1006D0009B1814221D70FF321CAB903C9B181C70A1
:1006E00001321CAB9B1816221C70FF321CAB9B18EE
:1006F0001C7001321CAB9B180021E63A62A81C80DA
:1007000010F05AF901238C22984652001CAB9B181A
:1007100042461A701E32FF321CAB9B1820221C70FE
:10072000FF321CAB9B181C7001321CAB9B182222A1
:100730001C70FF321CAB9B181C7025239034203A90
:100740001CA90919FF3ACA541CA909190133ED3231
:10075000CA541CA909190133DD3ACA549E21B04B71
:1007600049001CAA521813802E2377221CA90919AC
:10077000CA541CA909190233373ACA5442211CAA87
:10078000FF31313B5218137001311CAA52184146F7
:10079000117044211CAAFF315218137001311CAA98
:1007A00052184146117046211CAAFF31521813708D
:1007B000A3221CAB52009B18424650201A701CAB5F
:1007C0009C46FF3000213932604410F0F5F8A62134
:1007D000944B49006E931CAA934B521813803E23EE
:1007E0001CAA1219D5541B221CA909191933CA5461
:1007F0000A0041460133D1548A201CAB9C46FF308D
:1008000020220021604410F0D7F81CABAA209C469F
:10081000FF3014220021604410F0CEF89A23834A5E
:100820001CA90919CA52BE201CAB9C46FF3060446B
:100830000822002110F0C0F8B8231CA9091990AAB9
:10084000CA5004330A00CE5049460433D1541CAA7E
:1008500010331219D1543DA82A22002125AD10F0E1
:10086000ABF80E220021280010F0A6F8200010F0AE
:10087000AFF84346436083606D4B040003600C2374
:100880009946814448460AF08FFE4B4648462193DC
:100890000AF0CAFFD5AB98464B46D59343465C60F9
:1008A0006368049001336360414648A808F0BEFDC8
:1008B00043465C68002C06D06368013B6360002BF4
:1008C00001D100F00EFD80220021520095A810F009
:1008D00073F858480378002B01D000F023FD1CAAC0
:1008E00094464D4B20A96344504620930EF080FD62
:1008F000514812F061FC049C200007F0D7FD4F48DE
:1009000007F088FE21220021404610F055F84346AA
:10091000069E5C70414630000EF06AFD1CA88446BD
:10092000474B002163442022180010F045F842464E
:100930000223484613700AF0B3FF434641465870FD
:1009400030000EF055FD1CA884463D4B0021634449
:100950002022180010F030F8424603234846137056
:100960000AF0A0FF43464146587030000EF040FDAB
:1009700048460AF0A7FF1CAA9446274B010063448F
:10098000180006F03DF8494640460AF077FF1CAAD9
:100990009446214B41466344180006F033F8E31EA9
:1009A000DBB20C93002310931493119308930793D5
:1009B0000B939A46234B29AC1393234B1293234B4F
:1009C0000993234B0A93234B0F93234B1593234BEC
:1009D0001693234B1893234B1A93234B1C93234BAF
:1009E0001D93234B1E93234B1B93234B1F9323AB2E
:1009F000994643E064F3FFFF043D0020EC3D0020F6
:100A0000643D0020843F0020643F0020943F00208C
:100A1000743F0020DC3D002064050000F0BB0610A0
:100A200012F8FFFF020180808080FFFF14080000A1
:100A3000A4BB0610A021002025030010DD02001039
:100A4000E502000086620020846200208A620020A5
:100A5000504A00208B6200208C620020544A002003
:100A60008D620020856200200C8C0610208C061000
:100A7000288C06103C4A0020348C06101CA88446A2
:100A8000D04B049A634418003DA906F071FB0E2276
:100A9000002120000FF090FF05E02B00220043CA48
:100AA00043C312881A80210038000EF067FC00282A
:100AB000F3D12B0044AA43CB43C21B8848A8138020
:100AC00009F0D2FB002800D044E1BE49BE4A1CAB6D
:100AD0005B189B581A00511E8A41D2B20592002B16
:100AE00000D1FBE0842121231CAA5218D35C2222CE
:100AF0001CA841188A5C002B00D101E113980178F1
:100B0000002900D0FCE0002A00D0CCE001310170C7
:100B100012990A70089A002A00D0D0E01CAA9446C4
:100B2000A84B6344180005F09BFF0023089353462D
:100B3000002B00D1C8E0A349A34A1CAB5B189B580B
:100B4000082B00D1B0E2079A002A22D0002B00D057
:100B5000ADE248A808F04EFD48A808F0FDFD1CA82D
:100B600084469A4B20226344002118000FF024FF92
:100B7000042342464146137006980EF039FC48A9FA
:100B800034A809F075FB179834A90EF031FC002346
:100B900007932DAB3DAA43CA43C343CA43C312685C
:100BA0001A600C9B012B00D858E100230B9348A836
:100BB00009F05AFB842128231CAA5218D35C8246D0
:100BC0009B460EF043FB002900D194E0FA2200235B
:100BD00092000FF0EBF95B46002B00D183E0099AFD
:100BE0000A9913780133DBB213700A68022B00D81C
:100BF00053E1002A00D053E10F9B08601A70842152
:100C000026231CAA5218D35C9B460EF01FFB00291A
:100C100000D171E1FA22002392000FF0C7F95B4680
:100C2000002B00D160E1159A169913780133DBB2DD
:100C300013700A68022B00D8DCE1002A00D0DCE146
:100C4000189B08601A7048A809F00EFB002800D114
:100C5000E3E048A809F008FB002800D0B8E05346BC
:100C6000002B00D084E0049B0D2B00D187E03DAA2F
:100C70004846049B60A908F04DF94B4603CB07F0AA
:100C800097FC07F087FC2DA90D980EF03FFB0E98FE
:100C900095A90EF073FB002802D095A807F082F802
:100CA000059B9A46EAE612990A78002A00D17DE26D
:100CB000012202700A70089A002A00D12EE70893D8
:100CC0005346002B00D036E7079B002B00D160E78E
:100CD0003C493D4A1CAB5B189B5837E7079B002BF0
:100CE00000D036E755E75A46099B1A700A9B1A60EE
:100CF0000F9B1A7083E7FA2189000FF019F96AE750
:100D0000089919400891002A00D1FAE0129A127845
:100D1000002A00D0F5E0139A13700123129A137081
:100D20001CAA9446274B6344180005F0C3FE1CA878
:100D30008446264B20226344002118000FF03CFE1D
:100D4000052342464146137006980EF051FB0023DE
:100D500007931EE7404621990AF090FD199E002155
:100D600030000EF00BFB414630000EF0CFFAACE63F
:100D700048A809F079FA049B0D2B00D077E70020F2
:100D80000CF044F8002800D171E70122002034A9BA
:100D90000CF046F860221CAB9B181B781A9A12784C
:100DA000BB2B00D11EE2BC2B00D186E2002A00D072
:100DB0001AE2AA2B00D05AE71A9901320A701B9A3C
:100DC000137054E7640500006C040000E5020000A5
:100DD00044A948A808F08AFF48A809F05FFA8346AA
:100DE000002800D01BE148A809F03EFA002800D1F5
:100DF00096E0404648A909F03BFA414617980EF0A4
:100E0000F7FA1C2200213DA80FF0D6FD2B0044AAC2
:100E100043CB43C21B88138021E7842127231CAACC
:100E20005218D35C9B460EF011FA002973D0FA22B7
:100E3000002392000FF0BAF85B46002B66D0109B9F
:100E40000133DBB21093022B00D805E1119B002B7C
:100E500000D005E1002311901493FAE648A809F0A8
:100E600003FA002800D0A0E60EF0F0F9002900D126
:100E700096E1FA22002392000FF098F882460B9B2D
:100E8000002B07D05246D31AD04A934200D88EE6A0
:100E900006F090FD53460B9389E6002A00D1AEE69A
:100EA0000F990B78002B00D0A9E6801AC84A90420F
:100EB00000D8A4E601220A70099A13700A9A1360F6
:100EC00048A808F09DFD1CA88446C24B202263441C
:100ED000002118000FF070FD042342464146069899
:100EE00013700EF085FAAEE65A46159B1A70169BE3
:100EF0001A60189B1A70A6E6FA2189000FF018F8FC
:100F00008DE613990B70129B1A7010E60023149350
:100F1000109311939DE6FA2189000FF009F88BE7F1
:100F2000219B18009B460AF015FD1CA884466123EE
:100F300063442022002118000FF03EFD60210523AC
:100F4000069E1CAA52181370300034A90EF050FAF5
:100F50002122002140460FF02FFD4346049A4146CE
:100F60005A7030000EF044FA1CA88446994B0021B8
:100F70006344202218000FF01FFD4246022358460A
:100F800013700AF08DFC43464146587030000EF055
:100F90002FFA1CA884468F4B00216344202218009E
:100FA0000FF00AFD42460323584613700AF07AFCFC
:100FB00043464146587030000EF01AFA58460AF07F
:100FC00081FC1CAA9446844B01006344180005F080
:100FD00017FD594640460AF051FC1CAA94467E4B28
:100FE00041466344180005F00DFD0023149310934F
:100FF000119306E7002A00D125E618990B78002BFB
:1010000000D020E6801AFA22D200904200D21AE6DE
:1010100001220A70159A1370169A136050E71CAAE1
:1010200094466D4B6344180005F0F2FC48A808F0A4
:101030000BFB1CA88446674B202263440021180048
:101040000FF0BAFC052342464146137006980EF095
:10105000CFF95B460893C6E6119B002B00D1F8E55B
:10106000149B002B00D0F4E5119BC01AFA239B00BF
:10107000984200D2EDE548A808F0BCFA1CA88446C6
:10108000544B20226344002118000FF095FC0423E8
:1010900042464146137006980EF0AAF95B46149337
:1010A000002310931193D4E5079B002B02D001235A
:1010B00007936EE51CAA9446474B474E63441800BD
:1010C00006F09CF8219B1CAA94469A46424B504637
:1010D000634419000AF0AAFB98231CAADB009219AA
:1010E000D1581CAA94463D4B504663441A000AF05E
:1010F000EFFB50460AF02EFC2122002140460FF063
:101100005BFC4346049A41465A70069B18009B4676
:101110000EF06EF91CA884462E4B00216344202259
:1011200018000FF049FC42460223504613700AF0A3
:10113000B7FB43464146587058460EF059F91CA873
:101140008446244B00216344202218000FF034FC15
:1011500042460323504613700AF0A4FB434641461F
:10116000587058460EF044F950460AF0ABFB1CAAE2
:101170009446330063440100180005F041FC5146D9
:1011800040460AF07BFB1CAA9446330063441800D7
:10119000414605F037FC124A1CAB9B199B58D5E41D
:1011A000FA2189000EF0C4FE824668E60123129AF5
:1011B00003701370089B002B00D0B1E51CAA944665
:1011C000054B6344180005F04BFCA9E59F68060039
:1011D00087130000E502000064050000280A0000F3
:1011E0006C040000002A44D01A981B9E511CC9B2FE
:1011F0000170B3540A2900D039E500230370737AD3
:10120000552B00D033E5B37872781B021343424666
:101210005BBA13803379F2781B02134342465BBA00
:101220009380B37972791B02134342465BBA5380B1
:10123000337AF2791B02134342465BBAD3801CAA6D
:101240009446404B41466344180005F0DBFB219B6C
:1012500041469A4618000AF0E9FA50460AF07AFB2D
:1012600003221F9900200BF059FE00200BF01CFEFA
:10127000FDE4344A34491CAB9B181CAA521812884E
:1012800032491B8802921CAA52181288023101921C
:101290001CAA521812882021009240461C9A11F074
:1012A00015F840465CF094FA4146020000200BF02D
:1012B00035FE00200BF0F8FDD9E4002A94D1214935
:1012C0001CAA52181CA98C46214BD25C214B6344AA
:1012D000002A17D0A02140461D9A890010F0F6FF81
:1012E000DFE7236820009B689847A368013BA36061
:1012F000B34201D0FFF7E7FA23682000DB68984784
:10130000FFF7E1FA21980AF023FB02780300002A94
:10131000E0D143461E9A03CA03C31188198092780C
:101320009A70BEE78C210C4C4900415800948A24E5
:1013300064000A4B0A4A0059013106F0D1FAFFF75E
:10134000CEFAC046640500006A050000660500008C
:10135000C4040000280A000011030010B12100207D
:10136000A1210020D0231B065868C0437047C04607
:101370007047C0467047C04610B5043019F0EEFF04
:1013800010BDC04610B504000C210FF031FB200049
:1013900010BDC04610B5040004210FF029FB200049
:1013A00010BDC046F8B54E464546DE465746E0B548
:1013B0000700806B3D0003680E009B689847202360
:1013C000FC6A243581469846AC4213D128E0FA22C3
:1013D000002392000EF0EAFDE3695B44834203D8E8
:1013E00043465246E254E06120001AF027FC040014
:1013F000A84215D04A46A36913405A1E9341DAB257
:1014000092464246A25C9A42EED0BB7B9B460DF0D0
:101410001DFF0029DBD1FA2189000EF089FDDBE7F1
:10142000BB6A1A1E00D16BE111009268002AFBD141
:101430008D4200D164E10A7C002A00D060E12032B4
:101440008A5C2800914632771A0003E01000926807
:10145000002A05D0117C0029F8D1D268002AF9D1E0
:10146000854200D14CE1027C012A00D948E12022CA
:10147000815C2C001A00717703E014009268002A46
:1014800005D0107C0128F8D8D268002AF9D1A542ED
:1014900000D135E1227C022A00D931E12022A25C70
:1014A00028009046B2771A0003E010009268002AE4
:1014B00005D0147C022CF8D8D268002AF9D18542D4
:1014C00000D11DE1027C032A00D919E12022825CAF
:1014D00028009446F2771A0003E010009268002A70
:1014E00005D0147C032CF8D8D268002AF9D18542A3
:1014F00000D105E1027C042A00D901E12022805CB0
:10150000B05428001A0003E010009268002A05D0A9
:10151000147C042CF8D8D268002AF9D1854200D175
:10152000EEE0027C052A00D9EAE02022805C01324C
:10153000B05428001A0003E010009268002A05D079
:10154000147C052CF8D8D268002AF9D1854200D144
:10155000D6E0027C062A00D9D2E02022805C02324A
:10156000B05428001A0003E010009268002A05D049
:10157000147C062CF8D8D268002AF9D1854200D113
:10158000BEE0027C072A00D9BAE02022805C033248
:10159000B05428001A0003E010009268002A05D019
:1015A000147C072CF8D8D268002AF9D1854200D1E2
:1015B000A6E0027C082A00D9A2E02022805C043246
:1015C000B05428001A0003E010009268002A05D0E9
:1015D000147C082CF8D8D268002AF9D1854200D1B1
:1015E0008EE0027C092A00D98AE02022805C053244
:1015F000B05428001A0003E010009268002A05D0B9
:10160000147C092CF8D8D268002AF9D1854200D17F
:1016100076E0027C0A2A00D972E02022805C063241
:10162000B05428001A0003E010009268002A05D088
:10163000147C0A2CF8D8D268002AF9D185425FD0F0
:10164000027C0B2A5CD82022805C0732B054280030
:101650001A0003E010009268002A05D0147C0B2CBD
:10166000F8D8D268002AF9D1854249D0027C0C2AE8
:1016700046D82022805C0832B054280003E01800CD
:101680009B68002B05D01A7C0C2AF8D8DB68002B4D
:10169000F9D1854234D0027C0D2A31D82022855CD4
:1016A0000932B5544A46002A17D101233B774346F5
:1016B000002B07D103237B77F0BCBB46B246A9467B
:1016C000A046F8BD6346002B12D07B7F032B12D0BF
:1016D000022BF1D10023B377EEE7002906D03A7F41
:1016E000012A0BD0002AE2D13377E0E73977DEE731
:1016F00002237B77E0E70023F377DDE77377D6E714
:10170000014827F0E1F9C046388C0610F0B5D646FE
:101710004F464646C0B51E000700242015008A46E5
:101720000FF056F9012332782D78934002758361CA
:10173000202200230574C36183543B1D04005646D8
:101740009946534547D0337C9D4228D2FB689A4640
:10175000B34268D030001AF0A1FA037CAB425FD3E9
:10176000BB689846002B05D18DE09B680121002BBA
:1017700008D0984643461A7C9542F6D3DB68002190
:10178000002BF6D14646002900D075E0954217D9C6
:10179000B14548D0337C9D42AD41684244E09D4212
:1017A0000FD93B695345F3D030001AF047FA037C58
:1017B000AB4248D9F368002BECD00600012033E09F
:1017C0004646242120000FF013F93000E0BCBA4651
:1017D000B146A846F0BD7B69002B2FD1BB68984667
:1017E000002B05D14DE09B680121002B08D09846C5
:1017F00043461A7C9542F6D3DB680021002BF6D1D4
:1018000046460029C2D0FB6846464345C0D0404604
:101810001AF044FA027C464680469542B8D8CFE793
:10182000C368002B2BD001204B46320021001AF058
:1018300051FA7B69260001337B61C6E73E69337C40
:10184000AB42A5D3CAE7BB689846002B05D120E080
:1018500001219B68002B07D0984643461A7C95428D
:10186000F6D30021DB68F5E74646002900D18DE775
:10187000FB689E42CBD18BE7C245C8D188E7060002
:1018800086E7D046BFE7C846D145C0D14E460120C5
:10189000CAE7FB68C8469945B9D1F7E7F0B5CE4627
:1018A000474603000C0080B5060083B00F0007CC4C
:1018B00007C32200A14613CA13C3126835001A6079
:1018C0009C4B2422B3830023B3546A46B362D37182
:1018D0007363B363203398462435B0443B0029003A
:1018E00007324046F5623563FFF710FF6A46012371
:1018F000D371B26A2900002A11D0130003E0190045
:101900009B68002B05D0187C0028F8D1DB68002BE1
:10191000F9D18D4203D00B7C012B00D852E16A46ED
:101920007B1C07324046FFF7F1FE02236946B26A8C
:10193000CB71002A00D1E4E11400290003E011007A
:101940009268002A05D0137C012BF8D8D268002AAF
:10195000F9D18D4200D1D5E10B7C022B00D9D1E128
:101960006A460323D3712200290003E02100A46802
:10197000002C05D0237C022BF8D8E468002CF9D188
:101980008D4200D1AFE10B7C032B00D9ABE10423E6
:101990006946CB711300290003E011009268002A08
:1019A00005D0107C0328F8D8D268002AF9D18D42DE
:1019B00000D189E10A7C042A00D985E10522694623
:1019C000CA711A00290003E019009B68002B05D09A
:1019D000187C0428F8D8DB68002BF9D18D4200D19F
:1019E00063E10B7C052B00D95FE106236946CB71CF
:1019F0001300290003E011009268002A05D0107C32
:101A00000528F8D8D268002AF9D18D4200D13DE1ED
:101A10000A7C062A00D939E107226946CA711A00F0
:101A2000290003E019009B68002B05D0187C0628CC
:101A3000F8D8DB68002BF9D18D4200D117E10B7C7F
:101A4000072B00D913E108236946CB711300290045
:101A500003E011009268002A05D0107C0728F8D80E
:101A6000D268002AF9D18D4200D1F0E00A7C082A20
:101A700000D9ECE009226946CA711A00290003E086
:101A800019009B68002B05D0187C0828F8D8DB6863
:101A9000002BF9D18D4200D1C9E00B7C092B00D974
:101AA000C5E00A236946CB711300290003E0110049
:101AB0009268002A05D0107C0928F8D8D268002A3C
:101AC000F9D18D4200D1A2E00A7C0A2A00D99EE019
:101AD0000B226946CA711A00290003E019009B68AD
:101AE000002B05D0187C0A28F8D8DB68002BF9D128
:101AF0008D4200D17BE00B7C0B2B00D977E00C23CF
:101B00006946CB711300290003E011009268002A96
:101B100005D0107C0B28F8D8D268002AF9D18D4264
:101B200056D00A7C0C2A53D80D226946CA71290066
:101B300006E0C0460103000019009B68002B05D099
:101B40001A7C0C2AF8D8DB68002BF9D18D4202D020
:101B50000B7C0D2B06D93B006A4640460D330732FD
:101B6000FFF7D4FD337E002B00D0D9E004200EF027
:101B70002FFF7A4BF46A81460360A54214D00123FB
:101B8000D02798463F06207D0DF0E8FC4346207D97
:101B9000002283400121BB620DF0B8FC20001AF046
:101BA00065F804008542EED14B46B06BB363002864
:101BB00002D003685B689847300003B0C0BCB946E8
:101BC000B046F0BD022369461400CB71B5E629008A
:101BD0006A464B4607324046FFF798FD0D2269469C
:101BE000B36ACA71002BA2D12900B4E729003B00D7
:101BF0006A460B3307324046FFF788FD0C236946DF
:101C0000B26ACB71002AE2D013007CE729003B00C6
:101C10006A460A3307324046FFF778FD0B226946D1
:101C2000B36ACA71002BE1D01A0055E729003B00C6
:101C30006A46093307324046FFF768FD0A236946C2
:101C4000B26ACB71002AE1D013002EE729003B00D5
:101C50006A46083307324046FFF758FD09226946B5
:101C6000B36ACA71002BE1D01A0007E729006A465F
:101C7000FB1D07324046FFF749FD08236946B26A5B
:101C8000CB71002AE2D01300E1E629006A46BB1DB1
:101C900007324046FFF73AFD07226946B36ACA7128
:101CA000002BE3D01A00BBE629006A467B1D0732F1
:101CB0004046FFF72BFD06236946B26ACB71002A26
:101CC000E3D0130095E629006A463B1D07324046E3
:101CD000FFF71CFD05226946B36ACA71002BE3D0E9
:101CE0001A006FE629006A46FB1C07324046FFF7E0
:101CF0000DFD04236946B26ACB71002AE3D01300BC
:101D000049E629006A46BB1C07324046FFF7FEFC45
:101D100003236A46B46AD371002CE3D0220023E681
:101D20000C200EF055FE040005000D4B326908C46E
:101D3000317D200019F0CCFA20000A4919F0DAFAB6
:101D40002000084919F0E6FA2000064919F0F4FAD3
:101D5000B06BB563002800D02BE72DE72CBC061034
:101D600040BC0610FFFF0000F0B5D6464F46464681
:101D7000C0B50E0015000F1D3900040019F08EF9D2
:101D8000F31C98466B1C99461A004146200019F036
:101D900085F939004A46200019F080F9B31C9A46AB
:101DA000AB1C99461A005146200019F077F94146BC
:101DB0004A46200019F072F939004A46200019F00D
:101DC0006DF9EB1C99461A002000711C19F066F998
:101DD0004A465146200019F061F94A464146200022
:101DE0002E1D19F05BF94A463900200019F056F90A
:101DF00051463200200019F051F9414632002000CE
:101E000019F04CF93900320020006E1D19F046F926
:101E100032004146200019F041F93200390020001B
:101E200019F03CF93900AA1D200019F037F9E0BC7F
:101E3000BA46B146A846F0BDF8B5CE4647461600AC
:101E400080B504000D0019F029F9731C98466F1C29
:101E50001A002900200019F021F93900424620001B
:101E600019F01CF9B31C98461A002900200019F03B
:101E700015F939004246200019F010F9AB1C424612
:101E800019002000994619F009F9F31C98461A0028
:101E90002900200019F002F939004246200019F00B
:101EA000FDF849464246200019F0F8F8E91C424680
:101EB000200019F0F3F8331D98461A00290020007D
:101EC00019F0ECF839004246200019F0E7F84946CD
:101ED0004246200019F0E2F8731D98461A002900C6
:101EE000200019F0DBF842463900200019F0D6F83E
:101EF0002900B21D200019F0D1F8C0BCB946B04687
:101F0000F8BDC04670B50300040082B0002505C9C5
:101F100005C320001C22002125720A300EF04CFD62
:101F200020000E22002126300EF046FD26000D2353
:101F3000200008220021A386363040360EF03CFDFA
:101F40001C22002130000EF037FDE5650DF07EF912
:101F5000002932D0FA22002392000EF027F8002543
:101F600020662000082200216566A566E5667030BF
:101F70000EF022FD48232268A567E567E554237922
:101F8000802100923000402218F0DEFF300019F06E
:101F90007DF88023E5500433E5500433094AE550C9
:101FA0000433E5502300A1180022A1331A70143322
:101FB0008B42FBD1200002B070BDFA2189000DF0E8
:101FC000B7FFCCE7C103000010B52A220A300EF09B
:101FD000F9FC10BD3423C1547047C0463523C154A9
:101FE0007047C04610B5072236300EF0EBFC10BD2E
:101FF000C166704710B5082270300EF0E3FC10BDCA
:10200000012303727047C046022303727047C04623
:10201000032303727047C046042303727047C0460F
:10202000052303727047C046062303727047C046FB
:10203000072303727047C046082303727047C046E7
:10204000092303727047C0460A2303727047C046D3
:102050000B2303727047C046F0B5C64600B582B088
:1020600004000DF0F3F8002933D0FA220023920087
:102070000DF09CFF236EC01A624B984209D8FA21DA
:102080000DF056FFC00700D4A7E002B080BCB846F0
:10209000F0BD5D4B984221D95C4B9842F5D85C4B22
:1020A0004034200000930C220123252119F074F8FC
:1020B000584B200000931A220223042119F06CF8D7
:1020C000554B302200932B210123200019F064F896
:1020D000DBE7FA2189000DF02BFFCBE74F4B4034B3
:1020E0009C4660440EF061FB4D490EF0FAFA011C6B
:1020F000051C0EF0F3FA011C4A480EF0ECFA291CFC
:10210000061C281C0EF001FB011C301C0EF0FDFA11
:1021100045490EF0FAFA0EF06FFB80263C4B311A5F
:102120000093200001230C2219F036F83F49281CA7
:102130000EF02AFB00285BD03C49281C0EF0CBFA9D
:102140003B490EF0CEFA011C071C0EF0C7FA011C29
:1021500034480EF0C0FA391C8046381C0EF0D5FA0F
:10216000011C40460EF0D1FA32490EF0CEFA0EF0C4
:1021700043FB284B311A0093200002231A2219F046
:102180000BF82D49281C0EF0FFFA002838D02A49F8
:10219000281C0EF0A0FA29490EF0A3FA011C051C18
:1021A0000EF09CFA011C1F480EF095FA291C071C22
:1021B000281C0EF0AAFA011C381C0EF0A6FA2049C1
:1021C0000EF0A3FA0EF018FB311A134B30220093D5
:1021D0002000012318F0E0FF57E720000221194BEF
:1021E0001C22009340300223494218F0D5FF4CE7EF
:1021F000084B1A22009380210223200018F0CCFF04
:102200008021E2E7B70B000093110000571B00008C
:102210004C8C0610588C0610648C061048F4FFFF96
:102220000080BB44000040400000B642CDCC4C3E94
:10223000CDCC4C3F0000F842CDCCCC3E9A99193F12
:102240000000AA42408C0610F0B5DE4657464E46C6
:1022500045463623E0B5A7B00C00362200214030B9
:1022600000934933039018F02DFF08AB9B460AAB4F
:102270000893D64B06A91A680A926A469B889385EA
:102280005A46062353600023937310AA0E92D04A35
:102290000A8502220F920A002A215218137023780D
:1022A000062B01D900F057FCCA4A9B00D3589F4621
:1022B00016AB02931493012304930023089A14ADE0
:1022C0001AAC2B72069223721CAA6B60023306268C
:1022D000100098461A9205920222BF490EF072FB36
:1022E0001A9B994643464A4663604146002353542D
:1022F000636898464246B94B9B1AB34201D200F03C
:1023000044FC1A98059B9719984200D173E3A3687F
:102310009F4200D956E24044012E01D100F0F6FB65
:10232000320006990EF04EFB1A9B99464A4600234E
:102330006760D3551A9B9A46636899466B689846BE
:102340004246A64B9B1A994501D900F01EFC4E4609
:10235000149F029B46449F4200D159E3AB689E42C2
:1023600000D9FBE24B46002B09D038004044012B3A
:1023700000D1D2E34A4651460EF024FB149F0023BD
:102380006E60BB551A98059B984203D0A168013135
:102390000EF02EFB6C68914B9C4201D100F0F5FBD6
:1023A000149B029A661C934200D18AE3AA68964263
:1023B00000D900E320221A55149F00236E60BB55FC
:1023C00019E0874B10AA934200D3D3E1854B10AAA2
:1023D000109304230F93002313715B465E6801235F
:1023E000049316AB02931493002314AD2B726B600D
:1023F000002E00D01AE20E9B0F9E059322AB209375
:10240000002320AC23726360B31C9A460F2B00D8C4
:10241000BEE0002B00DAA5E31D2B00D8C4E1F01CC0
:1024200000D54FE10EF0D4FA209B676881469846AC
:102430007A1C002F00D14DE2002A00D0ACE1A16847
:10244000404601310EF0D4FA4B462093534667685C
:10245000A360624BDB1B012B00D896E3BB1C9846A4
:10246000534500D9C4E03800484402225E490EF0CA
:10247000A9FA209B994643464A4663604146002399
:102480005354636899464A46544B9B1A9E4200D95E
:102490007BE3B046209F22ABC8449F4200D1FEE1BF
:1024A000A368984500D9CDE0002E09D038004844F3
:1024B000012E00D17CE1320005990EF083FA209FB5
:1024C0004346424663600023BB54209B9A466368A0
:1024D00098466B6899464A46404B9B1A984500D9E6
:1024E00053E34746149E029B4F449E4200D1E4E1D1
:1024F000AB689F4200D9DBE04346002B09D0300097
:102500004844012B00D158E1424651460EF05AFA98
:10251000149E00236F60F355209822AB984203D09D
:10252000A16801310EF064FA6A6853009B18049A9E
:102530005B00002A30D16E240021E41A6410149B41
:1025400012340398009338220123611818F024FEF6
:102550001498029B984203D0A96801310EF048FA02
:102560000E9810AB984203D0109901310EF040FA4A
:1025700008980AAB984204D05B46996801310EF086
:1025800037FA27B0F0BCBB46B246A946A046F0BD1C
:10259000022322A8984668E75024039EE41A641098
:1025A000210038223000FFF7DFFBE11D3822300028
:1025B000FFF742FC21000D4B0F310093382201231D
:1025C000300018F0E9FD0C341221B8E76C8C0610CD
:1025D0004F4B00004CBC0610AC8C0610FFFFFF7F79
:1025E0005091061053617665B08C0610B48C0610BD
:1025F0004346002B00DAB5E253465B00069398454C
:1026000000D311E2002B5DDB581C0EF0E1F9209B9A
:1026100081469A463A00514648460EF0D3F93800B2
:102620000222C94948440EF0CDF922AB9A4504D0A4
:10263000A168504601310EF0DBF94B462093069B12
:10264000A36018E74246002A00DA8BE25B0006939B
:10265000984500D201E24346581C33D406930EF04D
:10266000B7F9209B07009A464B46002B06D0012B5A
:1026700000D143E24A4651460EF0A4F9059B002BD7
:102680000AD0002E08D04B46F818012E00D149E29E
:10269000320005990EF096F922AB9A4504D0A16854
:1026A000504601310EF0A4F9069B2097A36007E77E
:1026B000002F00DA56E25B0006939F4204D2581CBA
:1026C000002B04DA26F0A0F9781CFBD406970EF054
:1026D0007FF9149B060005934B46002B06D0012B77
:1026E00000D10FE24A4605990EF06CF95346002BD3
:1026F0000CD04346002B09D04B46F0184346012B23
:1027000000D113E2424651460EF05CF90598029B57
:10271000984203D0A96801310EF06AF9069B14961D
:10272000AB60F6E6894B10AA934206D306A92A228B
:102730008C466244934200D817E21A682E21109208
:102740009B8806AA938506230F93002352181370C3
:102750005B465A680AA97E4B994203D8881883427F
:1027600000D815E200235A4653600B7000235668C8
:10277000049336E606A92A228C466244934200D985
:1027800024E6002201920432009210A9023A0EA817
:1027900033F03AFF0E9A1CE619000EF013F922AB43
:1027A000984500D04BE69CE01E231F209A4639E650
:1027B000059B1B780370209F82E653461B780370AD
:1027C000149EA6E6002F00DACCE15B0007939F423F
:1027D00000D264E1781C00D574E707970EF0F8F892
:1027E0001A9B81469A464346002B06D0012B00D106
:1027F000A0E1424651460EF0E5F8069B002B08D0BA
:1028000040464844012E00D158E1190032000EF034
:10281000D9F8059B9A4504D0A168504601310EF0C5
:10282000E7F84B461A93079BA3607FE5089A1AAC1A
:10283000069223721CAA6360B31C9A4605921A92F0
:102840000F2B00D882E1002B00DA8BE11D2B00D882
:1028500008E1F01C00D535E70EF0BAF81A9B67685E
:10286000814698467A1C002F00D13BE1002A00D017
:10287000E5E0A168404601310EF0BAF84B461A93E4
:1028800053466768A360334BDB1B012B00D87CE108
:10289000BB1C98469A452BD3380048441CE5434658
:1028A0000F2B00D800E6002B00DA5BE11D2B00D9CE
:1028B000D1E61E231F200693D1E60F2F00D81BE67A
:1028C000002F00DA4EE11D2F00D9FDE61E231F2048
:1028D0000693FCE61B78037022AB984500D0AEE56A
:1028E00000274B4620935346A360BB1C9846BAE58D
:1028F0004346002B00DA35E153465B0007939845C9
:1029000000D2C2E0F81C00D5DCE60EF061F81A9B9C
:1029100081469A46434607933A00514648460EF090
:1029200051F8380002220C4948440EF04BF8059B40
:102930009A4504D0A168504601310EF059F84B4633
:102940001A93079BA360CDE4B08C0610748C06101C
:10295000B09A0610FFFFFF7FAC8C0610002E00DA45
:1029600000E15B0007939E4200D29DE0701C00D501
:10297000A8E607960EF02CF8149B07000693434632
:10298000002B06D0012B00D1D8E0424606990EF06C
:1029900019F85346002B02D04B46002B66D10698FF
:1029A000029B984203D0A96801310EF021F8079BE1
:1029B0001497AB60E3E4002E00DAD3E053009846AE
:1029C0009E4276D3A01C00D57CE6B0460EF000F8FF
:1029D000149B07009946002C52D120233B55029BA3
:1029E000994504D0A968484601310EF001F84346E4
:1029F0001497AB60E1E40F2F00D88CE4002F00DACD
:102A0000B0E01D2F00D9E5E61E231F200793E5E661
:102A10000F2E00D8A6E4002E00DAA3E01D2EA5D8C4
:102A20001E231F200793A5E7F81C00D54AE60DF0EA
:102A3000CFFF209B81469A4643460693EAE519005C
:102A40000DF0C0FF059B984500D012E74B461A9346
:102A50005346A360BB1C98461EE7581C002B00DAA7
:102A600030E6FCE51E231F209A46F5E64346F8189B
:102A70004B46012B66D04A4651460DF0A3FF8EE728
:102A8000012C29D11B780370A7E7002B00DA19E687
:102A9000581C0DF09DFF1A9B81469A463CE7581C36
:102AA000002B00DA0EE699E6581C002B00DA09E646
:102AB00060E7581C002B00DA04E687E71B780370F8
:102AC000A7E6102E00D075E41F200DF081FF149BA7
:102AD000070099461E2398462200494638000DF00B
:102AE00071FF7AE71B780370059B984500D0C0E61C
:102AF0005346A36002231A909846CDE653461B78AE
:102B00000370BBE5059B1B780370EFE5069B1B7804
:102B100003701A9B9946FFF709FC53461B78037014
:102B2000149F2CE4059B1B780370B5E553461B7876
:102B30000370EBE553461B7803705EE6069B1B783B
:102B4000037026E753461B78037028E70223059895
:102B50009846FFF7C1FB16AB02931493002304932E
:102B6000FFF7ABFB0E4825F097FF00240625022255
:102B700010A9019400950EA833F046FD0E9B0F9509
:102B80009C715B4608995A68E5E5064825F084FF84
:102B9000002001900090584633F036FD0899E1E599
:102BA0007C8C0610948C0610F0B5DE4657464E46D7
:102BB0004546E0B595B004000CF048FB002900D173
:102BC000A4E0FA22002392000DF0F0F9636EC01A1F
:102BD0003623E35C142B00D1A3E0E04B302798426E
:102BE00000D842E1DE4B4034082200930721012344
:102BF000200018F0D1FA0023012208AE0AAD089592
:102C000098467372D74B37727260AB4200D334E18F
:102C10002A00B77403CB03C21B8813800023F3740C
:102C200010AB9A460E930EAB99460C2229005046E3
:102C30000DF0C8FE0B234A465360002308957360CD
:102C400033721E231F209B460DF0C2FE07000E9B11
:102C50000B22190098460DF0B5FE38000822C24933
:102C60000B300DF0AFFED04505D04B46996840467D
:102C700001310DF0BDFE4B465A460E979A60132364
:102C80004A4653600023FB740E9A04AB984602AF89
:102C90000293524500D150E14B469B680292BB60C3
:102CA000132308987B60A84200D144E1B168013148
:102CB0000DF09EFE7968029A4B005B1880215B0044
:102CC000C91A2000012349080092182218F064FA5A
:102CD000A64B2822042120000093012318F05CFA5F
:102CE000A34B2000009334220123012118F054FA51
:102CF0000298404503D0B96801310DF079FE15B056
:102D0000F0BCBB46B246A946A046F0BDFA218900F8
:102D10000DF00EF9636EC01A3623E35C142B00D05D
:102D20005BE78E4B3027984206D8FA2189000DF0D8
:102D3000FFF835273F1AFFB28E4B40340422009330
:102D400007210123200018F027FA0023012208AEF2
:102D50000AAD089598467372874B37727260AB4222
:102D600000D3B9E02A00377583CB83C20023737583
:102D700010AB9A460E930EAB99460E222900504690
:102D80000DF020FE0D234A46536000230895736022
:102D900033721E231F209B460DF01AFE07000E9B68
:102DA0000D22190098460DF00DFE380003227349DC
:102DB0000D300DF007FED04505D04B4699684046D2
:102DC00001310DF015FE4B465A460E979A601023BE
:102DD0004A46536000233B740E9A04AB984602AFF8
:102DE0000293524500D1B1E04B469B680292BB6012
:102DF000102308987B60A84200D1A5E0B16801319A
:102E00000DF0F6FD7968029A4B005B1880215B009B
:102E1000C91A2000012349080092102218F0BCF9B9
:102E20001A231A220A21200000935B3318F04AF972
:102E3000534B2022072120000093012318F0ACF906
:102E4000504B2A220A2120000093012318F0A4F9F4
:102E50004D4B2000009334220123072118F09CF9E8
:102E60000298404500D046E749E7FA2189000DF075
:102E70005FF835273F1AFFB2B4E6292169448B4237
:102E800000D9C5E60192093230000092290042467D
:102E900033F0BAFB43460B2208987260C3720EAB44
:102EA000994610AB9A460E93A84200D1BDE649461A
:102EB0000E904A604246B36808958B607260327229
:102EC000504500D1BDE6122B6AD9082226490B30A5
:102ED0000DF078FD0E9FD2E6292169448B4200D97E
:102EE00040E701920B32300000922900424633F055
:102EF0008BFB43460D220898726043730EAB9946D4
:102F000010AB9A460E93A84200D136E749460E9080
:102F10004A604246B36808958B60726032725045D1
:102F200000D136E70F2B31D9032214490D300DF0B3
:102F300049FD0E9F4BE71321BEE6142251461800AF
:102F40000DF040FD4246ABE610215DE711225146EF
:102F500018000DF037FD42464AE7C04687130000CF
:102F6000188D06102C8D0610388D0610448D061015
:102F70005C8D0610B88C0610CC8C0610AC8E06103A
:102F8000DC8C0610F08C0610048D06105B009B464E
:102F9000581C102B00D9FFE6102311209B46FBE69E
:102FA0005B009B46581C132B00D94DE613231420BD
:102FB0009B4649E610B5224B82B040300093002278
:102FC00001231621040018F0E7F80A2320000093DB
:102FD0000A220021753318F075F81A4B200000936F
:102FE0000E220123042118F0D7F8174B200000937C
:102FF00017220123042118F0CFF822232000009388
:10300000222200215D3318F05DF8104B2000009360
:1030100025220123042118F0BFF80D4B2000009356
:103020002E220123042118F0B7F80A4B382200930E
:1030300007210123200018F0AFF802B010BDC046F0
:10304000748D0610848D0610988D0610B08D0610B4
:10305000C48D0610D88D0610F0B5C56E04008BB077
:10306000002D64D04E4B04AE9C46EF586544297940
:103070004C4B8A000131D35800914B4A1821300043
:103080000FF024F930005AF0A3FB802143001B18F5
:103090005B004034C91A0022012320004910009629
:1030A00018F07AF8092309220093002120007633D2
:1030B00018F008F8032F3CD03C4B0C221C212000B8
:1030C0000093022318F068F81E231E2200930021AB
:1030D0006133200017F0F6FF2A7C131C032A00D965
:1030E000032302AD0821324ADBB228000FF0EEF8CC
:1030F00028005AF06DFB802143001B189B00C91A61
:103100002222022320004910009518F045F83623AA
:103110000021009336224933200017F0D3FF072106
:10312000244B009339220123200018F035F80BB00E
:10313000F0BD214B0C221C2120000093022318F02B
:103140002BF81E231E22009300216133200017F06C
:10315000B9FF2A7C131C032A20D802AD0821144A87
:10316000DBB228000FF0B2F828005AF031FB8021C2
:1031700043001B189B00C91A222202232000491079
:10318000009518F009F836230021009336224933C0
:10319000200017F097FF0421084BC2E70323DCE768
:1031A0006C040000DCBC0610188E0610348E06106D
:1031B0002C8E0610048E0610248E0610EC8D061040
:1031C000F0B5C64600B5C36E05008CB0002B00D12B
:1031D00092E0954A06AC9046984443461979934B41
:1031E0008A000131D3580091914A182120000FF034
:1031F0006DF820005AF0ECFA802143001B185B00A8
:103200004035C91A0022012328004910009417F004
:10321000C3FF09230922002128000093763317F009
:1032200051FF844B0C22222128000093022317F027
:10323000B3FF1E231E22009300216133280017F0E4
:1032400041FF43461B7F002B5AD126232F242622E1
:10325000062128000093483317F034FF6E232F22F5
:1032600006212800009417F02DFF062326220621B0
:103270002800009417F026FF6E2326226E212800D6
:10328000009417F01FFF43461B7F002B00D18EE0F8
:103290000BF0DCFF002900D1B9E0FA2200239200F4
:1032A0000CF084FE4346644A9B69C11A914200D9DE
:1032B000B8E0624AFA2194466344181A89000CF077
:1032C00037FE030003AC0C215D4A20000EF0FEFF28
:1032D0000123272272212800009417F05DFF434646
:1032E0001B7F002B00D18FE00721564B0093382223
:1032F0000123280017F050FF0CB080BCB846F0BD89
:103300000BF0A4FF002954D0FA22002392000CF005
:103310004DFE4346484A9B69C31A934253D858010D
:10332000C01A8000C0184849C0000CF001FE0DF022
:103330003CFA46490DF0E9F926232F2626220621DC
:10334000041C00932800483317F0BCFE6E232F2284
:1033500006212800009617F0B5FE06232622062136
:103360002800009617F0AEFE6E2326226E2128005C
:10337000009617F0A7FE3649201C0DF0C6F90DF097
:103380003BFAC71D002800DC7DE728260824210021
:1033900032002800013417F081FEA742F7DA013627
:1033A0002E2EF3D143461B7F002B00D070E7032362
:1033B00088E7FA2189000CF0BBFD43461E4A9B6951
:1033C000C31A9342ABD926232F2426220621280094
:1033D0000093483317F076FE6E232F220621280033
:1033E000009417F06FFE0623262206212800009481
:1033F00017F068FE6E2326226E212800009417F035
:1034000061FE6B272826C1E70421124B6EE7FA21E3
:1034100089000CF08DFD4346074A9B69C11A914211
:1034200000D846E700234DE76C040000DCBC061022
:10343000188E0610688E0610B70B00009F0F000054
:10344000708E06103C8E0610B80B00006F12833A87
:103450000000C842508E061070B5C56E86B0002DB3
:1034600063D0374B403008221F2100930123040012
:1034700017F092FE122312220021200000936D33D8
:1034800017F020FE2F4B1822009316210123200055
:1034900017F082FE2C4B9C466544AE6C002E46D045
:1034A00030005AF095F9802143001B189B00C91A7F
:1034B0004910022321222000009617F06DFE3623CA
:1034C0003622002120000093493317F0FBFD0BF05A
:1034D000BDFE00292ED0FA22002392000CF066FDDA
:1034E000FA212A6D0023851AC9008D4208D2174B94
:1034F000FA219C466244101A89000CF019FD030061
:1035000002AD1021124A28000EF0E0FE28005AF009
:103510005FF9802143001B185B00C91A392201237F
:1035200020004910009517F037FE06B070BD40210D
:10353000084EBEE7FA2189000CF0FAFCD0E7C0463D
:10354000748E0610808E06106C040000B70B00000D
:10355000908E0610B09A0610F0B5C64600B5C56E3E
:10356000040084B0002D56D02E4B40349C46654458
:103570002A792D4B9B5C920018335B00EB18DF8897
:103580002A4BD65830005AF023F9802341000918FD
:103590008900591A984602222000491000967E3B65
:1035A00017F0FAFD132313220021200000936C333F
:1035B00017F088FD1E4B02AE18221F212000009339
:1035C000012317F0E9FD3B0008211A4A30000EF0F4
:1035D0007DFE30005AF0FCF8424643001B189B0069
:1035E000D11A2000022349105F3A009617F0D4FD4B
:1035F00034233422009300214B33200017F062FD66
:103600002B79022B0BD901210B4B0093372201237D
:10361000200017F0C1FD04B080BCB846F0BD072102
:10362000064BF2E76C040000ECBC0610DCBC061094
:10363000C88E0610708E0610B08E06109C8E061076
:10364000F0B5CE46474680B5C56E93B0002D74D018
:103650003E4B40300022162100930123040017F056
:103660009BFD09230922002120000093763317F0E7
:1036700029FD02A98946364B0E21EE18F38E354AF4
:1036800048460EF023FE06A98846738F0E21324A63
:103690000AAF40460EF01AFE338F0E212F4A380033
:1036A0000EF014FEB38F0EAE0E212D4A30000EF038
:1036B0000DFE4B460C22022120000093012317F03F
:1036C0006BFD43460C22422120000093012317F09A
:1036D00063FD0123152202212000009717F05CFDF5
:1036E0000123152242212000009617F055FD1F23CB
:1036F0001F22009300216033200017F0E3FC194BD8
:103700009C4665442B78002B1CD10721164B2122A7
:1037100020000093012317F03FFD362336220021BD
:1037200020000093493317F0CDFC104B3822009352
:1037300004210123200017F02FFD13B0C0BCB946AF
:10374000B046F0BD08210A4B4942E0E7048F06105D
:103750006C040000148F0610208F06102C8F0610AA
:10376000388F0610AE040000F08E0610448F06104D
:10377000D48E061030B5C56E83B0002D35D01D4BEC
:1037800040300422282100930223040017F004FD96
:1037900016231622009300216933200017F092FCB3
:1037A000154B9C4665446D6C002D20D028005AF0C6
:1037B0000FF8802143001B185B00C91A4910012330
:1037C0001E222000009517F0E7FC36233622002148
:1037D00020000093493317F075FC084B3822009302
:1037E0000D210123200017F0D7FC03B030BD2521A7
:1037F000034DE4E7D08F06106C040000D88F06104C
:10380000C48F0610F0B5DE4657464E464546E0B535
:103810000C0087B0002B51D01D0040239C46002691
:1038200084446346B0460027160005930490BB19F4
:103830009A462B1999467F2B09D853463F2B06D819
:10384000049B524640334946180017F027FCAB1939
:103850009B46621B3B19E11B0293019200917F2B57
:1038600033D85B46002B6CDB3F2B00DCA2E07F29CA
:103870004AD97F2A00D8CAE0731B3F2B06D8059B84
:10388000180003930299721B17F008FC4B467F2B1C
:1038900009D8F31B3F2B06D8059B03934946039891
:1038A000F21B17F0FBFB4346002B1FDD4246013D98
:1038B0006B000133D31A9846AF42B8DD07B0F0BCB5
:1038C000BB46B246A946A046F0BD7F2916D97F2A3D
:1038D000DCD85346002B00DA88E03F2B00DCD8E030
:1038E000F31B00D49BE04346002BDFDC01377B0059
:1038F000013398444346002BD8DCDDE75B46002BC0
:1039000000DACFE03F2B2CDD7F2A35D85346002B41
:1039100000DAA7E03F2B00DCBBE0F31B00D4EEE0B5
:10392000731BC0D43F2BBEDC049B009940331800AE
:10393000721B039317F0B2FB029B7F2BA6D8039850
:10394000A0E77F2A20DD7F2996D8731B3F2B9DDCC3
:10395000049B721B40331800039317F09FFB0398DE
:1039600090E7049B403303935A460099039817F05D
:1039700095FB019B7F2B64D9731B00D586E7731BD6
:103980003F2B00DD82E7CFE75346002B64DB3F2B64
:1039900000DC7EE0F31B73D4F31B3F2B41DD009B67
:1039A0007F2B71D8731B00D57DE7731B3F2B00DD88
:1039B00079E7B9E7049B5A4640331800029903930C
:1039C00017F06CFB009B7F2BCED9019B7F2B00D97E
:1039D00052E75346002B00DA9AE03F2B5CDDF31BE5
:1039E00000D549E73F2B4FDC03981EE0F31B3F2B2C
:1039F00000DD58E7049B019940331800F21B039344
:103A000017F04CFB4B467F2B00D94CE746E753465B
:103A1000002B5EDB3F2B3CDDF31B00D52CE73F2B5F
:103A200032DC049B4033180003930199F21B17F01A
:103A300035FB009B7F2B9FD9029B7F2B00D81BE778
:103A4000E0E75346002B50DB3F2B25DDF31B00D571
:103A500066E73F2BA6DCC7E7F31B3F2BE1DD7F29A1
:103A60008DD909E7F31B3F2B9CDC049B0199403364
:103A70001800F21B039317F011FB731BC2D47EE7EF
:103A8000009B7F2B00D84BE7029B7F2B00D8F3E6EF
:103A900009E7049B4033039352460199039817F0BA
:103AA000FDFA77E77F2A08DC5346002B2BDB3F2B00
:103AB000EFDDF31B00D533E76EE7731B3F2B00DD13
:103AC000E4E6049B009940331800721B17F0E6FAF5
:103AD000DCE6F31B3F2B00DDCEE6049B019940336F
:103AE0001800F21B17F0DAFAC6E6F31B3F2B00DDD5
:103AF00058E701990398F21B17F0D0FA3CE73F2BE7
:103B000000DD4FE78DE7F31B3F2B00DD4DE788E736
:103B1000F31B3F2B00DDAFE601990398F21B17F072
:103B2000BDFAA9E6F0B5DE4657464E464546342373
:103B3000E0B5C35C04008DB00D2B01D900F033FC5F
:103B4000D34A9B00D3589F4608AB99460693D14B66
:103B5000092608930023042006AF3B730522CE49B3
:103B600048440CF02FFF069D00237E60AB552500D6
:103B7000069B40350022002128000093012317F006
:103B80000BFB0A230A22002128000093763317F04A
:103B900099FA0BF05BFB002900D1A2E2FA22002384
:103BA00092000CF003FA82460023207C98460028FD
:103BB00004D06833E25C673B5A4090460022A37A07
:103BC00002920393002B04D06932A65C683A5640F7
:103BD0000296A17D227F002900D049E2002A00D16F
:103BE0003AE36B22A25C4346002A00D164E3002B37
:103BF00001D000F0E9FB029B002B01D000F0EBFBB1
:103C0000039B09041B02034312060B431343A366E1
:103C1000A24B04979846082343449B46534602937D
:103C20004B464746039405933E787C78731E99462D
:103C3000631E9A461A004946280017F02FFA52468A
:103C40003100280017F02AFA731C984619005246D2
:103C5000280017F023FA22004946280017F01EFA20
:103C600022003100280017F019FA220041460134E1
:103C7000280017F013FA22004946280017F00EFA20
:103C800022003100280017F009FA023722004146CD
:103C9000280017F003FA5F45C6D1029B039C9A46A1
:103CA000059B049F99468123E25C002A06D080216F
:103CB000625C0D2A00D9E7E2013262548323E25CA0
:103CC000002A06D08221625C0D2A00D9DFE201328F
:103CD00062548523E25C002A06D08421625C0D2AAE
:103CE00000D9D7E2013262548723E25C002A06D071
:103CF0008621625C0D2A00D9CFE201326254892309
:103D0000E25C002A06D08821625C0D2A00D9C7E255
:103D1000013262548B23E25C002A06D08A21625C65
:103D20000D2A00D9BFE2013262548D23E25C002AE1
:103D300006D08C21625C0D2A00D84FE20022E254AA
:103D40008F23E25C002A06D08E21625C0D2A00D807
:103D500047E20022E2548123E35C002B00D029E2F9
:103D60008323E35C002B00D01CE28523E35C002B63
:103D700000D00FE28723E35C002B00D002E289230E
:103D8000E35C002B00D0F5E18B23E35C002B00D03B
:103D9000E8E18D23E35C002B00D0DBE18F23E35CC3
:103DA000002B00D0CEE13123E25C013BE35C002A32
:103DB00000D19CE13A4E3178002900D102E2394924
:103DC00009688846002B00D103E237488446007812
:103DD000002802D15146354801600120414630702B
:103DE00060460370002905D05046411A96204000D5
:103DF000814267D82D480168002905D05046411AF4
:103E00009620400081425DD82621615C002900D0C7
:103E1000F5E12731615C00294CD12831615C002932
:103E200000D098E22931615C002900D0C5E22A3136
:103E3000615C002900D0F8E22C31615C002900D0DF
:103E400009E32B31615C002900D011E32D31615C65
:103E5000002900D038E32E31615C002900D05BE3FB
:103E60002F31615C002900D059E3002B00D059E3C9
:103E7000002A00D05CE33233E35C002B00D054E333
:103E80003333E35C002B1DD0094B313114E0C046C5
:103E900068BC06104D494449D0900610D4BC0610A9
:103EA000886200204C4A002087620020484A002097
:103EB000349006103421D34B0093102201232800A4
:103EC00017F06AF9362336220021280000934A337E
:103ED00017F0F8F8CC4B280000933822012300217A
:103EE00017F05AF90698484503D0B96801310CF02B
:103EF0007FFD0DB0F0BCBB46B246A946A046F0BD62
:103F000008AB99460693C14B06AF1A680A26089279
:103F10004A461B790520137100237B731EE608AB0C
:103F200099460693BA4B4A4603CB03C2198806AF9B
:103F300011809B78102693700B237B600023FB7409
:103F40000B3398461F200CF043FD069B4246190098
:103F50009A4605000CF036FD43460522AD49E818A7
:103F60000CF030FDCA4504D0B968504601310CF060
:103F70003FFD1E230695BB60F6E508AB9946069308
:103F8000A54BD0E708AB99460693A44BCBE708AB0B
:103F900099464A460693A24B06AF03CB03C20023C1
:103FA0000D2608203B74D9E508AB9946494606938F
:103FB0009C4B06AF1A680C2608929A8807208A80C4
:103FC0009B798B710023FB73C8E508AB9946494682
:103FD0000693954B06AF1A8808260A809B78032023
:103FE0008B700023FB72B9E508AB99464A460693ED
:103FF0008E4B03CB03C21B781370002306AF0E2633
:1040000009207B74AAE508AB99464A460693884B7B
:1040100003CB03C21B781370EFE708AB99464A46FF
:104020000693844B06AF23CB23C21B881326138031
:104030000E237B600023BB750E33984682E708ABE6
:1040400099464A4606937C4B06AF03CB03C21B88B6
:104050000F26138000230A20BB747FE508AB994626
:104060000693764B5FE708AB99460693744B5AE785
:104070006A26A65DB4460126B34666465B465E40A8
:1040800004964346002A43D06B22A25C002A3FD10B
:10409000002B00D09DE1029B002B00D0ADE1002E53
:1040A0000CD08922A25C002A00D110E28B22A25CF3
:1040B000002A03D180268A327600A65201228D265C
:1040C000A65D002E00D1C1E18F26A65D002E00D096
:1040D00096E5012680237600A6198C365B00338096
:1040E0008EE5FA2189000BF023FF82465CE55549F5
:1040F0000A60002B78D054490878002800D0D5E019
:10410000564652480660524E327001260E7072E6D4
:10411000002B00D0F7E0029B002B00D01EE1049B97
:10412000002B00D16CE58926A65D002E00D195E11B
:104130008B26A65D002E00D062E580238A365B00C8
:10414000A3535DE58E2326226D212000E35CFFF75B
:1041500059FB28E68C2326226D212000E35CFFF723
:1041600051FB1BE68A2326224E212000E35CFFF749
:1041700049FB0EE6882326224E212000E35CFFF750
:1041800041FB01E6862326222F212000E35CFFF776
:1041900039FBF4E5842326222F212000E35CFFF77E
:1041A00031FBE7E58223262210212000E35CFFF7A4
:1041B00029FBDAE58023262210212000E35CFFF7AB
:1041C00021FBCDE550461F49D0460860002B00D0AA
:1041D000FBE51E4803601C488446FEE5013262543C
:1041E000AEE501326254B6E518490B6018490B7010
:1041F00015490B702621615C002900D109E63A219E
:10420000144B59E6EC8F0610D8900610C890061093
:1042100074900610D0900610809006108C900610B6
:1042200098900610A4900610AC900610B09006105E
:10423000BC90061040900610509006105C9006103E
:10424000689006104C4A002087620020484A0020EF
:10425000886200203C9006104346002B00D09EE070
:10426000029B002B01D10022CAE48522A25C002A15
:1042700000D123E18722A25C002AF4D18026863275
:104280007600A6520022BBE40022E25416E500228A
:10429000E2541EE50022E25426E50022E2542EE517
:1042A0000022E25436E50022E2543EE5A6480270C0
:1042B00001200870A5489EE5002B00D080E0029BFD
:1042C000002B00D1FAE68522A25C002A00D117E17A
:1042D0008722A35C0493002B00D0EFE68026862281
:1042E000049B7600A652002B00D1E7E6049A904684
:1042F0008926A65D002E00D1B6E08B26A65D002E95
:1043000013D1013644E0002398468123E35C002B5F
:1043100000D18DE08323E35C002B00D198E0029B69
:10432000002B07D1049B002BE2D14346002B00D188
:1043300066E4C4E68526A65D002E00D196E08726B9
:10434000A65D002EEED1013680237600A6198436B4
:104350005B003380E6E734217D4BADE58526A65D25
:10436000002E00D191E08726A35D9846002B00D156
:1043700081E0049B002B00D142E48926A65D002E3B
:104380006CD08B26A35D8A3E9846002B00D037E484
:1043900080237600A61988365B003380C5E70023AA
:1043A00098460493B1E708AB994606933F2306AFBE
:1043B000062601203B81FFF7D1FB3121654B7BE5D0
:1043C000002342460493A0E7002342460493984604
:1043D0009BE7424699E78522A35C002B00D194E03D
:1043E0000232A25C002A01D0FFF70AFC8026863246
:1043F0007600A6521A00FFF703FC8522A25C002A71
:104400006AD08722A25C002A00D167E7002E00D183
:1044100054E68922A25C002A59D08B26A65D002E84
:1044200000D04BE690460136B2E731214A4B43E5D6
:1044300000239B465B465B009B4680239C46A3442F
:104440008026E3445B4676001E8068E7002641E64E
:1044500001339B46EEE73121404B2DE58023882632
:104460005B00A353FFF7CCFB002691E700266BE728
:1044700034213B4B20E50133FF33013EA353049B22
:10448000002B01D1FFF7BCFB32E7802384265B00C1
:104490009846A353049B002B01D1FFF7B1FB0536CF
:1044A000A65D002E47D08B26A65D002E01D0FFF71B
:1044B000A7FB43468A36A353FFF7A2FB802384263B
:1044C0005B00A353FFF79CFB3421264BF4E48026CA
:1044D00088227600A652F1E53300802684227600F9
:1044E000A652002B00D1E9E50532A25C002A27D0B4
:1044F0008B22A25C002A00D0E0E58A32A652DDE5DC
:10450000802684227600A652D8E5802384225B0090
:10451000A352029AFFF774FB3D21134BCCE43D21DB
:10452000124BC9E43121124BC6E43421114BC3E4D0
:104530002E21114BC0E488264346A353FFF760FBAE
:104540008822A652BAE5C04688620020484A002068
:104550003893061044930610F48F0610FC8F061053
:10456000049006100C900610149006101890061077
:104570001C9006102C90061024900610F0B5DE4614
:1045800057464E464546E0B5C84BE3B09C6802909E
:10459000002C15D0362204331900825C03E0210080
:1045A000A468002C05D0237C9342F8D2E468002C48
:1045B000F9D1BF4B8A46994202D00B7C934206D96F
:1045C00063B0F0BCBB46B246A946A046F0BD0B7D29
:1045D000062B5DD1029B403303930A230A220093EA
:1045E00000217533039816F06DFD53461B7D062B95
:1045F00000D163E1022B00D191E119AA0592179233
:10460000002217AE079632727260042B00D129E3A4
:1046100000D987E0012B00D824E33623029AD35C2B
:10462000128F991F012900D837E10D2B00D134E1F9
:10463000002A01D001F001F99E4B059A03CB03C279
:10464000082373600023059C08220A21200033748C
:1046500059F080F8002801D101F072F9041B631CA5
:1046600001D101F0FBF92BABA04604932993082C50
:1046700001D908239846059F4346012B01D100F03C
:1046800048FF29AD002B01D000F014FD049AADE0E5
:10469000534602989B694030009300220123002179
:1046A000039016F079FD53461B7D032B13D00FD9D1
:1046B000052B92D10AF0CAFD00292ED0FA22002340
:1046C00092000BF073FC0C23029A5066137277E78A
:1046D000022B00D181E753465D6B1B6BED1A1C2D3D
:1046E00000D87AE7029B1A8F002A01D000F029FD3A
:1046F000AD10EB005B1999015B18DB005B19D90366
:104700005B18DB005B19DB439A4200D365E70222AA
:1047100079210398FDF790FB5FE7FA2189000BF000
:1047200007FCD0E7052B00D0D4E0029B198F53463D
:104730001D6B586B401B8010C3001B189A019B18FF
:10474000DB001B18DA039A18D20012185242914269
:1047500001D301F097FACB005B1A9B00ED18B5422C
:1047600000D1B7E06F680F2F01D900F09DFE002F38
:1047700001D000F060FC059A00237760D3555346C2
:10478000189A1B7D9146179F042B01D100F0E2FC83
:10479000002A00D1A1E00A21380058F0DBFF0028F0
:1047A00001D100F014FFC41B631C01D100F00FFF06
:1047B0002BABC84604932993A14500D9A046434694
:1047C0000F2B00D858E7002B01DA01F04AFA581CE9
:1047D00001D500F0B4FC0CF0FBF8434629AD29905C
:1047E000AB60424639000CF0EDF8299A4346414649
:1047F0006B6000235354736801349C4201D901F06B
:104800002BFA179F2FAA31AE3F1993462F961C1BE8
:104810000F2C01D900F087FE012C01D100F07FFEA2
:10482000002C01D000F049FC32005B465C600023A4
:1048300013555B466A685F685100299B89180A2AEC
:1048400003D80A2F01D800F046FF802403984900BE
:104850008046611A182249080093012316F09CFC37
:104860007B00DB195B00E11A2F9B2022009340465E
:104870000123490816F090FC2F98B04204D05B4603
:10488000996801310CF0B4F82998049B984231D012
:10489000A96801310CF0ACF82CE0002A00D0D4E378
:1048A000054B059A03CB03C2CAE6C0461C3C002058
:1048B000203C0020DC910610C4910610029BDB6EA8
:1048C000002B00D03AE217AA19A907920591179177
:1048D0001893137200239946059F4B4680215B0075
:1048E0004B449B00C91A1C220223039849080097D5
:1048F00016F052FC1798059B984204D0079B9968C4
:1049000001310CF075F853461B7D043B012B00D898
:1049100056E6514602981431FDF796FC50E6029B8C
:104920001C8F092C01D801F0ABF8632C00D8ACE344
:10493000FA239B009C4201D200F0E6FEC54B9C424C
:1049400001D800F05DFF0DAB04930B9300230C9393
:104950000533994604260BAD2D232B722FAB18007F
:10496000C922BD499B460CF02DF8BA4BAE199846AA
:104970004B463700A9460593200064210BF0D8FA76
:1049800020004E0064210BF0D3FA5B469B195B7844
:1049900025003B725B469B5D0400FB71023F454571
:1049A000EAD8059B2F004D469946FA239B009F426B
:1049B00000D377E33034E4B24B46002249466B60C3
:1049C0000B9B2C725A546C68A44B9C4201D101F091
:1049D0004BF90B9F049B661C9F4201D100F073FFB3
:1049E000AB689E4201D900F04CFE9D4B9F4204D81B
:1049F0003A19934201D801F03AF9002C08D0012C61
:104A000001D100F0B1FF22003900781C55F03CFCC8
:104A100028233B700B9F00236E609846BB5513AB59
:104A20009B461193049A0B9B6E6811AC934201D183
:104A300000F058FF11000B914146AA686960297285
:104A400086491193A26066608E4201D101F039F966
:104A5000771C5B4501D100F054FFBA4201D200F04F
:104A60005EFE29229A55119B9846002342466760B4
:104A7000D355119A1DAB05931FAB66681D935A451C
:104A800001D100F045FF0599A3680C001D928B60D1
:104A90000B98049B6660984205D0A96801310BF021
:104AA000A7FF66681D9A802173009B195B00C91AD5
:104AB0000092012311220398490816F06DFB53461A
:104AC0009F8F25AB23930893012323AA24932F338D
:104AD0003C0006921381092F01D800F0DEFF632FFE
:104AE00001D800F000FDFA239B009F4201D200F0A4
:104AF00096FE584B9F4201D800F086FE2BAB2993BF
:104B00000493002304262A93053329AD07932D230C
:104B10002B722FAB1800C9224F499B460BF052FF56
:104B20004C4BA8469946AE190997200064210BF01A
:104B3000FFF920004F0064210BF0FAF95B46DB1906
:104B40005B78250033725B46DB5D0400F371023E47
:104B50004D45EAD84346A8461D00FA23099F9B000D
:104B6000984501D300F0CCFC3034E4B200222C7222
:104B70000799299B69605A54039E239B02213000A8
:104B800000931D32012316F007FB80216A68300074
:104B900053009B185B00C91A299B1D220093012317
:104BA00016F0FAFA27232F2427220221300000933F
:104BB000573316F087FA7E232F220221300000940B
:104BC00016F080FA0223272202213000009416F00A
:104BD00079FA7E2327227E213000009416F072FAA3
:104BE000002F1BD0029B39001B8F1801C01AC00078
:104BF0000BF076F9002811D02926071DA8463D00A4
:104C0000039F0424210032003800013416F046FAD4
:104C1000AC42F7D101362D2EF3D145462998049B9D
:104C2000984203D0A96801310BF0E2FE2398089B5B
:104C3000984204D0069B996801310BF0D9FE1D986B
:104C40001FAB984200D15EE6059B996801310BF0DD
:104C5000CFFE58E60F27000060920610FFFFFF7F8F
:104C600074910610029A118F5246156B506B401BBF
:104C70008010C20012189701D219D2001218D7035F
:104C8000D219D20012185242914201D300F0FAFF19
:104C9000CA00521A9200AD18B54200D062E5042B4A
:104CA00000D017E625AB239308930023002523AA01
:104CB0002493994613720493069201335A00D31831
:104CC000DB00180098460BF083FE83465D44280005
:104CD000239B089A08302860934201D100F0C7FE58
:104CE000069A2B6093685668AB60089B6E602393AE
:104CF000002353601372A14501D100F0B6FE434674
:104D00004F464E465D46A046083709930AE02B60A1
:104D1000B368AB6018366C6018371835464501D15A
:104D200000F068FC28003368083074682860BB42D3
:104D3000EDD13900621C0BF045FEEBE77023029ABF
:104D40000398D65A0233D75A0233D45A0233D55A6B
:104D5000E74B0022002100930123804616F01CFA45
:104D600009230922002140460093763316F0AAF960
:104D7000E04B0B22002140460093012316F00CFA71
:104D8000142314220021404600936B3316F09AF945
:104D90003B000C21D84A1DA805900DF097FA2B0076
:104DA0000C21D64A23A829AD06900DF08FFA3300C6
:104DB0000C21D34A28000DF089FA2FAB9B46D14A2B
:104DC00023000C2158460DF081FA029A148FE4B2A8
:104DD000002C00D13FE1032C01D100F0A7FD059B81
:104DE000039E1622082130000093012316F0D4F907
:104DF000069B1622009348210123300016F0CCF9BF
:104E0000012C01D100F0A1FD022C07D1BE4B1F22C5
:104E1000009340210123039816F0BEF9039C01235F
:104E20001F2208212000009516F0B6F95B461F22CC
:104E3000482120000093012316F0AEF929232922EE
:104E4000002100932000563316F03CF9029A00210D
:104E5000167C002E03D06823D15C673B59400022AA
:104E600002989146837A002B04D06932855C683AB7
:104E70005540A946029CA07D227F002800D05EE319
:104E8000002A01D100F0EBFC6B22A25C9046002AC4
:104E900001D100F06DFD002901D000F0F9FD4A4676
:104EA000002A00D011E142461B02000433431206DF
:104EB00003430298134383668123C25C002A07D010
:104EC0008021425C0D2A01D900F0C5FC0132425418
:104ED00083230298C25C002A07D08221425C0D2AFB
:104EE00001D900F0B0FC0132425485230298C25C23
:104EF000002A07D08421425C0D2A01D900F0A7FCCA
:104F00000132425487230298C25C002A07D08621CE
:104F1000425C0D2A01D900F0C6FC013242548923BB
:104F20000298C25C002A07D08821425C0D2A01D970
:104F300000F0BDFC013242548B230298C25C002A6F
:104F400007D08A21425C0D2A01D900F0B4FC01325D
:104F500042548D230298C25C002A07D08C21425C07
:104F60000D2A01D800F0ABFC0022C2548F23029816
:104F7000C25C002A07D08E21425C0D2A01D800F0C5
:104F80008EFC0022C2548123029AD35C002B01D0F4
:104F900000F001FC8323029AD35C002B00D0F1E3E4
:104FA0008523029AD35C002B00D0E3E38723029A87
:104FB000D35C002B01D000F011FC8923029AD35C52
:104FC000002B01D000F001FC8B23029AD35C002B54
:104FD00000D0F1E38D23029AD35C002B00D0E3E3F1
:104FE0008F23029AD35C002B01D000F000FC474BCA
:104FF000039A994608234B449A4610272623904645
:10500000023303259B4602375B4603245E1B391B94
:1050100032004046013C16F041F8002CF7D1013D2A
:10502000002DF1D102239C46E144CA4574D04B4681
:105030001F785B78E4E7059B29689846012F00D02C
:105040004AE20B783372FFF796FB314B059A03CB9C
:1050500003C2FFF7F5FA2C4B16220093002101231F
:10506000039816F099F8059B039C009320000123F8
:105070001622082116F090F8069B1622009348216C
:105080000123200016F088F8C8E60DAB04930B93BB
:105090002FAB1800C9221F499B460BF093FC02233B
:1050A00099460BAD5B4664001B195B786B725B46DF
:1050B0001C5D81E40498FFF794FB30002200390066
:1050C0000BF080FC2F9AFFF7B0FB8522A15C250036
:1050D000002901D100F021FD0232A25C002A00D09B
:1050E000E2E6802486326400AC520A00DCE6C04668
:1050F000F0900610049106101491061020910610ED
:105100002C9106103891061084AC0610D4BC061001
:10511000D0910610609206103623039C0093200065
:1051200036220021493315F0CDFFDB4B38220093A6
:105130000E210123200016F02FF8FFF741FA23F08B
:1051400063FC02226E210398FCF70EFE029B1A8F6D
:10515000FFF7CEFA002A00D1A4E500239B46049372
:1051600053460025BA4608934B465E1B53465F19CB
:1051700032000A21380058F0EDFA002800D164E12D
:105180005346C31A9A46013300D15EE11DAB9946DE
:105190001FAB1D9353465D1BB54200D935000F2D43
:1051A00000D922E1012D00D12CE1002D00D09AE0A0
:1051B0004B465D6000231FAA5355049B9C4200D1BF
:1051C0009FE04A4620001D9B556808301FAA2060BA
:1051D000934200D15BE123604B469B68A36065600E
:1051E00018345546179B01359A46189B99469D429F
:1051F000BAD3089B57469A464D4501D900F058FD51
:1052000025AB089323934B467E195D1B23AB069376
:10521000012D00D1CCE1089B002D01D000F023FC32
:10522000002206994D601A70049B9C4201D100F047
:10523000D1FC2000239B089A08304D6820609342DF
:1052400000D18CE32360069B9B68A36065601834E3
:105250005B46E21AD21093009B1819015B181902E1
:105260005B1819045B185B00984690444346362649
:10527000DB00F61A76100A365C452CD0802399465E
:1052800023005D464446002798466B68320059006B
:10529000C9184B464900591A2B68039800934908CE
:1052A0000123013715F078FF18350836A742ECD3F3
:1052B00044465D462B0028680833984203D0A9680D
:1052C00001310BF095FB1835AC42F3D15B46002B56
:1052D00001D1FFF70FFB5A46049B5846991A0BF071
:1052E00087FBFFF707FB1FA82A0039000BF06AFBBA
:1052F0004B461D9A5D6000235355049B9C4200D091
:105300005FE75B46E51AEA1093009B1819015B18EA
:1053100019025B1819045B185B009B185F4A9342E3
:1053200001D100F0CBFC0122002B7BD15B4B9A42D8
:1053300000D91A0053009B18DB00180006930BF0ED
:1053400047FB8046454428001D9B08301FAA286063
:10535000934200D134E12B604B469B68AB604B46D7
:105360005E681FAB1D934A4600236E605360137244
:105370005C4500D183E15F465E464546083728001C
:105380000830286033687268BB423FD02B60B36836
:105390001836AB606A6018371835A642EFD15B4605
:1053A000183CE21A3E4BD2085343DB00DB080133C2
:1053B0005C00E418E40044445B461834002B00D140
:1053C000B2E35A46049B5846991A0BF011FB069B10
:1053D0001D98434404931FAB984204D04B469968F0
:1053E00001310BF005FBC346FBE6002D01DA00F0AE
:1053F00038FC681C00D5A2E60BF0EAFA4B461D907B
:105400009D6071E74A463B781372D1E6390001325C
:105410000BF0D8FA736818366B6018371835A64247
:10542000ADD1BCE75A00934280D91E480BF0D0FAA8
:105430008046454428001D9B08301FAA28609342DF
:1054400000D16EE2174A069285E7089BB0469A465D
:105450003E004D4501D900F02BFC454625AB23AF5E
:105460000697089323930F2D00D8D1E6002D00DA7C
:10547000F7E3681C00D562E60BF0AAFA25952390A5
:105480002A0031000BF09EFA239B5B19C8E66A1CC8
:105490001FA90BF097FAA2E6449106105555550541
:1054A000ABAAAA0AF8FFFF7F002F00DAD9E31D2F6D
:1054B00079D81E231F2099460BF08AFA059B804657
:1054C0001798984203D0B16801310BF091FA434626
:1054D00017934B46B36029683A0040460BF072FAC6
:1054E000179AFFF749F92BAB049329932FAB1800B8
:1054F000C922DF499B460BF065FA022329AD0793C9
:105500005B4664001B195B786B725B461C5DFFF7A2
:105510002DFB3B7829AD049A2B72FFF767F93B7896
:105520001372FFF781F9002C00DA9AE3601C00D5B2
:1055300005E60BF04DFA5B462F909C60BEE525001A
:105540006A2401272C5D7C40A046002A7BD06B2278
:10555000AA5C002A77D1002900D074E24A46002ACA
:1055600000D0A2E2002C09D08922AA5C002A00D136
:105570006CE38B22AA5C002A00D161E301228D2119
:10558000029C615C002900D1C5E28F21615C002989
:1055900000D089E40121A4468024490061448C3173
:1055A00064000C8080E4781C00D5C8E5B94683E728
:1055B0003378069A137208AA7523944663442FE63B
:1055C0004B465E68721C1FA90BF0FCF9C9E64B46FE
:1055D0000A2B01D8FFF781F980215B004B445B0067
:1055E000C91A1C22012303984908009715F0D4FD1D
:1055F000FFF780F9099B444698464B46183CE21A4F
:105600009C4BD2085343DB00DB0801335C00E418F9
:10561000E4005C444B461834002B00D18AE24A4631
:10562000049B4846991A0BF0E3F943465B44049304
:105630002398089B984200D10AE6069B996801319D
:105640000BF0D6F904E6002900D0B9E1494600295B
:1056500000D0DCE14146002900D125E48921029CEB
:10566000615C002900D145E28B21615C002900D0FA
:105670001AE48024029D8A3164006C5214E444468A
:105680009AE6002E00DAECE25B0098469E4200D3D8
:10569000C9E0581C002B00DA51E50BF099F92823DA
:1056A00003700B9B07009946002C07D0012C00D1FA
:1056B000CEE122004946781C0BF084F9049B994501
:1056C00004D0A968484601310BF092F943460B9784
:1056D000AB60FFF7A0F98024039889008046611A27
:1056E000009314220223490815F056FD7B00DB19B4
:1056F0009B00E11A2F9B2422009340460223490875
:1057000015F04AFDFFF7B8F80323022699460DABC2
:1057100004930B9300230BAD0C93FFF71DF9002F9F
:1057200000DA9EE25200BA4200D881E0002A00DA94
:1057300005E5501C059717000BF04AF9119B8046B0
:105740009946002E06D0012E00D184E132001900C6
:105750000BF038F9292342469355D94504D0A16866
:10576000484601310BF044F94346A7601193059F69
:10577000FFF77BF984231000D35C2F212622FEF74C
:1057800041F813E482231000D35C10212622FEF797
:1057900039F8FFF705FC80231000D35C1021262286
:1057A000FEF730F8FFF7F6FB8C231000D35C6D2179
:1057B0002622FEF727F813E48A231000D35C4E213B
:1057C0002622FEF71FF8FFF705FC88231000D35CA4
:1057D0004E212622FEF716F8FFF7F6FB862310006F
:1057E000D35C2F212622FEF70DF8FFF7E6FB8E2370
:1057F0001000D35C6D212622FEF704F8FFF7F7FBBB
:1058000004230326994682E70423032607932BAB40
:1058100004932993002329AD2A93FFF778F90323F2
:1058200002260793F3E7A01C00D588E4B04634E7CE
:10583000B01C00D583E405977EE70F4B059A03CB98
:1058400003C2FEF7FDFE0022C254FFF74EFB00220A
:10585000C254FFF757FB0022C254FFF739FB00295F
:1058600000D0F2E04A46002A08D10022FFF71CFBD4
:1058700060920610ABAAAA0AE89106108522A25CE3
:10588000002A00D1D4E18722A25C002AEDD1802138
:10589000029C86324900A1520022FFF705FB01322B
:1058A0004254FFF770FB0022C254FFF738FB00227E
:1058B000C254FFF741FB0022C254FFF74AFB0132FA
:1058C0004254FFF753FB102E01D0FFF78EF81F2034
:1058D0000BF07EF8282303700B9B070099461E23CC
:1058E0009846E6E613009946771C19003A00584698
:1058F0000BF068F84B460B9343466B602B725B468C
:105900006660102F01D0FFF7ACF81F201E2211E7B0
:10591000721C594618000BF055F8059C1FAAFFF79A
:10592000B7F84B465E68D94B06934BE6D84B162228
:10593000009340210123039815F02EFCFFF793FB01
:10594000082327009946FEF7C8FFD14B1F2200937A
:1059500000210123300015F01FFCFFF75FFA110052
:105960006A1C0BF02FF871E43B787B70FFF750F85E
:10597000002968D14A46002A00D1FFE58522A25CB1
:10598000002A00D1DBE08722A15C002900D0F5E5E8
:1059900080248622029D6400AC52002900D1EDE5EE
:1059A0000A008924029D2C5D002C00D1A9E08B24E3
:1059B0002C5D002C45D0002901D1FFF775FADEE5FA
:1059C00000218127029DEF5D002F00D18FE083270A
:1059D000EF5D002F00D180E04C46002C03D14446FF
:1059E000002CE8D0DDE78525029F7D5D002D00D1EC
:1059F000ABE087257D5D002DF1D10135029C80272C
:105A0000A4466D00654484357F002F80E7E785213B
:105A1000029D695C002900D1A4E08721695C00290E
:105A200000D194E04146002901D1FFF73DFA8921D8
:105A3000695C00295ED08B21695C002901D0FFF7E9
:105A400033FA01245EE00A00BBE700218846B8E78C
:105A50001B78437032E61B7803707BE60823059FB2
:105A60009946FEF73AFF18000AE55C46D2E51100B8
:105A7000069B5E68721C0AF0A5FF069AFFF735F9CF
:105A80000DAB04930B9301230BAD9946FEF792FFE8
:105A9000002290460A00002193E72BAB0493299340
:105AA000012329AD0793FFF75FF88522AA5C002A3E
:105AB00072D08722AA5C002A6CD0002C00D15DE550
:105AC0008922AA5C002A00D1C0E08B21695C0029F0
:105AD00000D053E51100012414E02C000137A44646
