:020000041000EA
:1000000000B5324B212058609868022188439860DF
:10001000D860186158612E4B002199600421596104
:100020000121F02299502B49196001219960352056
:1000300000F044F80222904214D00621196600F024
:1000400034F8196E01211966002018661A6600F04E
:100050002CF8196E196E196E052000F02FF8012189
:100060000842F9D1002199601B49196000215960AB
:100070001A491B48016001219960EB211966A021F2
:10008000196600F012F800219960164914480160C1
:100090000121996001BC002800D000471248134993
:1000A000086003C880F30888084703B5996A0420EC
:1000B0000142FBD001200142F8D103BD02B5186610
:1000C0001866FFF7F2FF186E186E02BD00000240BE
:1000D000000000180000070000035F00212200005C
:1000E000F4000018222000A00001001008ED00E03C
:1000F000000000000000000000000000070B8FD58A
:1001000000200420F7010010CB010010CD010010E9
:10011000C9010010C9010010C9010010C901001077
:10012000C9010010C9010010C9010010CF01001061
:10013000C9010010C9010010D1010010D301001045
:10014000C1010010C1010010C1010010C101001067
:10015000C1010010C1010010C1010010C101001057
:10016000C1010010C1010010C1010010C101001047
:10017000C1010010C1010010C1010010C101001037
:10018000C1010010C1010010C1010010C101001027
:10019000C1010010C1010010C1010010C101001017
:1001A000C1010010C1010010C1010010C101001007
:1001B000C1010010C1010010C1010010C1010010F7
:1001C000EFF30580103800BE00BE00BE00BE00BECA
:1001D00000BE00BEF2EB8871ECEB07100CEC0710D0
:1001E0003802001090A31AE71E481F49086006C88D
:1001F00081F3088810471D480068002801D019487D
:10020000F3E70DA40ECC002902D000F012F8F9E7B4
:100210001749184A002000E001C19142FCD116495B
:100220008847164988471649884700BEFDE701C937
:1002300001C29A42FBD370470CEC0710C0000020AB
:10024000183600206421081000000420000004205B
:100250006421081000100420001004200000000099
:10026000704700000000000008ED00E0000000D032
:1002700018360020A46200202D2D01101906001050
:10028000ED2C0110F8B5C04606480749091A8B1035
:10029000C90FC91810B5491003D0044B002B00D06A
:1002A000984710BD183600201836002000000000C6
:1002B000054B10B5002B03D00449054800E000BFF2
:1002C000FFF7E2FF10BDC04600000000845F002081
:1002D000609406107047C0467047C04600B58DB0A8
:1002E000029011201C220021684410F0B1FF01236C
:1002F0006A460D20137302A90422684410F0AEFF71
:1003000003A902480FF04EFC0DB000BDFC3C0020DC
:1003100010B5034B010018000FF044FC10BDC0469F
:100320006C3F0020F0B5DE4657464E464546E0B5E8
:10033000974CA54413F0B8FB032108200FF018FDDB
:10034000032109200FF014FD0022012108200FF0E5
:1003500029FD0022012109200FF024FD8D498E483E
:1003600013F0B2F98D4925A801F06CFD8C4934A831
:1003700007F05AFA8B49C8A802F098F80CA80BF0BD
:1003800011FC80220021520047A810F061FF3422A6
:10039000002118A810F05CFF0FAD0822002108A86A
:1003A00010F056FF21220021280010F051FF0023F9
:1003B0007D4807A906AE338007930FF09DFC07998F
:1003C000C8A802F0EDF8082200210AA810F040FFAA
:1003D000764B774F9B46774B87AC9A46764B994640
:1003E000764B0493764B0193764B0293764B0593B1
:1003F000764B0393764B984618A925A801F0A2FAEC
:10040000380021A90FF0CEFB002800D1ACE018A9DC
:1004100058460FF0FFFB50460AA90FF0FBFB0028DF
:1004200000D09CE0290048460FF0F4FB002809D0DA
:100430002B78052B06D8049A9B00D3589F46C8A852
:1004400002F0C0F8019808A90FF0E4FB002845D19C
:10045000310002980FF0DEFB002849D1079B002BEA
:100460000CD05C4A9B58002B08D00B2B06D8059A61
:100470009B00D3589F46C8A802F0A8F8039847A944
:100480000FF0C8FB00280CD0200047AA0CA90BF0E5
:10049000C5FB002140460FF0BDFB210040460FF098
:1004A00081FB18A934A807F0EFF918A9C8A802F031
:1004B00063F834A807F0FEF9C8A805F0E1FA9BE755
:1004C000C8A802F087F8D9E7697834A807F0DAF904
:1004D000019808A90FF09EFB0028B9D008A9C8A868
:1004E00002F058F8310002980FF094FB0028B5D0C4
:1004F0003100C8A802F05CF83378002BAED0C8A851
:1005000002F07CF8AAE7697834A807F0B9F999E70E
:10051000C8A802F053F895E76B78002B32D0012B76
:1005200090D16B88210023802B7934A8A37007F029
:10053000B1F987E76978C8A802F024F882E7C8A86B
:1005400002F058F89AE7C8A802F050F896E7C8A851
:1005500002F048F892E7C8A802F040F88EE70AA92E
:10056000C8A802F01FF85DE70E220021200010F05D
:100570006FFE210038000FF04DFB380021A90FF06D
:1005800011FB44E7A978C8A802F000F85AE7C04672
:1005900024F9FFFF40420F006825002030C50610F7
:1005A0001CC5061014C506107C3F00205C3D0020D1
:1005B0008C3F0020D43D0020FC3C002060940610BD
:1005C000F43D0020E43D0020789406106C3F0020AC
:1005D0009C3F0020E404000010B50400064B080016
:1005E0000C34994205D035F041FC431E98414042FD
:1005F0000440200010BDC04678C50610882110B503
:100600000400490010F040FE200010BD882110B504
:10061000490010F039FE10BDF0B5DE4657464E4693
:100620004546E0B5EF4C0127A5440EF0A7FDEE4A84
:100630000300212110000A9201220FF0A1FA0EF00E
:100640009DFDEA4A030008211000169201220FF0D6
:1006500097FA0EF093FDE64A0300242110000E9253
:1006600001220FF08DFA0EF089FDE24A0300934655
:100670000E21082258460FF083FA0EF07FFDDE4E61
:1006800003000122022130000FF07AFA0EF076FD0D
:100690008021DA4C03000122200049000FF070FA9B
:1006A0000EF06CFD8021D64A0300490010000F9225
:1006B00001220FF065FA0EF061FDD24A0300042119
:1006C0001000059201220FF05BFA0EF057FDCE4AA2
:1006D0000300082110001A9201220FF051FA12F0C3
:1006E000B9FC26AA9446C94BC9496344180005F0D1
:1006F0006DFB002399469C244A46640026AB1B19D7
:100700001A80082398463B32FF3226AB9B1842469C
:100710001A703C2226ABFF32B83C9B181C70013289
:1007200026AB9B183E221C70FF3226AB9B181C7018
:10073000013226AB9B180F3A0021FF3A76A81C80A5
:1007400010F086FDA02226AB52009B181F700632C7
:1007500026AB9B1848221C70FF3226AB9B181C70DE
:10076000013226AB9B184A221C70FF3226AB9B1825
:100770001C702523B834483A26A90919FF3ACA54EF
:1007800026A909190133ED32CA5426A909190133E2
:10079000DD3ACA54B2219F4B490026AA5218138051
:1007A0002E23772226A90919CA5426A9091902332A
:1007B000373ACA546A2126AAFF31313B52181370C6
:1007C000013126AA52186C211770FF3126AA52183F
:1007D0001370013126AA52186E211770FF3126AA14
:1007E00052181370B72226AB52009B181F70782046
:1007F00026AB9C46353AFF300021FF3A604410F0AA
:1008000027FDBA21844B4900829326AA834B5218B4
:10081000138041463E2326AA1219D1541B2226A931
:1008200009191933CA540133CF54B22026AB9C4660
:10083000FF3020220021604410F00AFD26ABD220B8
:100840009C46FF3014220021604410F001FD9A23E1
:10085000734A26A90919CA52E62026AB9C46FF30E6
:1008600060440822002110F0F3FCB82326A90919DE
:10087000A4AACA500A00494600250433D15026AA2A
:1008800012190433D55426AA12191033D55451AB7A
:100890001800342237AD984610F0DAFC0E22002101
:1008A000280010F0D5FC8820400010F0DDFC5D4BE6
:1008B000040003600C239C468444634647608760C1
:1008C00018001F0008930BF0FFF9E9AA924663682D
:1008D000E99701336360546011005EA82B9709F01B
:1008E0003DF953465C68002C06D06368013B6360A9
:1008F000002B01D100F087FF802200215200A9A81F
:1009000010F0A6FC48480378002B01D000F08CFFC3
:1009100026AA94463D4B2AA9634405982A930FF0D2
:10092000B3F9424813F094F8002352460021138093
:1009300030000FF06FF9514630000FF033F9089C8A
:1009400020000BF085FB08F0A3F8394808F054F9B3
:1009500020000BF07DFB35AB0700210018000BF0E9
:10096000A1FB20000BF0C2FB1E2801D800F026FFDF
:100970001E2626AB998F2F4C0B1CA14201D800F0EC
:1009800014FF231C26AAD18F93872A4A0B1C91425D
:1009900001D800F002FF131C26AAD38713004022BF
:1009A0009B181988234A0B1C914201D800F0EDFED8
:1009B000131C402126AA52181380422226AB9B18F2
:1009C00019881C4A0B1C914201D800F0D6FE131C5A
:1009D000422126AA52181380B04201D100F033FF01
:1009E0002AE0C046ACF2FFFFFC3C0020F43D0020B2
:1009F0005C3D00208C3F0020E43D00206C3F002047
:100A00009C3F00207C3F0020D43D00208C0500004E
:100A10004CC5061012F8FFFF020180808080FFFFA6
:100A20001408000000C50610A021002025030010B6
:100A3000DD020010DC05000048AB05933FAB2193BD
:100A40003BAC089B3100994618000BF041FB48462F
:100A500035A90BF0FFFA21220021504610F0F8FBD7
:100A600053465F700A9F514638000FF00DF926A8D3
:100A70008446E04B002163442022180010F0E8FB7C
:100A8000524602231370089B180099460BF01CFB7A
:100A900053465146587038000FF0F6F826A88446A1
:100AA000D44B002163442022180010F0D1FB5246A1
:100AB0000323484613700BF009FB53465146587008
:100AC00038000FF0E1F826AA9446CB4B310063447E
:100AD000180006F099F926AA9446C74B35A9634435
:100AE000180006F093F900231C931E931D930C939A
:100AF000099306930D93C14B5F461293C04B26009A
:100B00001393C04B1793C04B1593C04B1893C04B16
:100B10001993C04B1B93C04B1F93C04B2093C04BEA
:100B20002293C04B2393C04B2593C04B2693C04BBD
:100B30002793C04B2493C04B2893C04B29932DABD4
:100B4000994608980BF084FA0200834626A884464A
:100B5000A94B41466344180006F0D8FD0E2200213F
:100B6000300010F075FB05E02B00320013CA13C3F0
:100B700012881A80310038000FF04CF80028F3D1A9
:100B80002A005AAB13CA13C312885EA81A8009F050
:100B9000FBFE002800D055E19749A94A26AB5B1817
:100BA0009B581A00511E8A41D2B20792002B00D1E5
:100BB00016E129234246D35C1093002B04D0129BEC
:100BC0001A7801235A4010922A234246D45C00230B
:100BD0001193002C04D0139B1A7801235A401192D0
:100BE0000EF080FF002900D173E1FA220023920069
:100BF0000FF028FE149042462923D35C129A0B93DF
:100C0000137042462A23D35C139A13700C9B002B5B
:100C100005D1109B002B00D001E300230B93002C87
:100C200000D143E11799159A0B681278002B00D078
:100C30008AE1149B0B60002A00D13BE1069B002B4C
:100C400000D070E10B9B0C93099B002B2ED06A49BE
:100C50007B4A26AB5B189B580B9A0C92002B00D05A
:100C600010E35EA809F05AF85EA809F009F926A871
:100C70008446604B202263440021180010F0E8FAFB
:100C800004235246514613700A980EF0FDFF059852
:100C90005EA909F07DFE169C002120000EF0BAFF2F
:100CA000200005990EF07EFF002309934246059B24
:100CB00013CA13C313CA13C313CA13C35B46033B3C
:100CC000DBB2012B00D8D3E000230D935EA809F01E
:100CD0005BFE302342460690D45C0EF003FF0029F1
:100CE00000D121E2FA22002392000FF0ABFD002C8C
:100CF00000D120E2189A199913780133DBB21370EE
:100D00000A68022B00D892E2002A00D092E21B9BD4
:100D100008601A702E234246D45C0EF0E3FE0029D0
:100D200000D116E2FA22002392000FF08BFD002C76
:100D300000D115E21F9A209913780133DBB21370AA
:100D40000A68022B01D800F029FC002A01D000F02B
:100D500029FC229B08601A705EA809F015FE002885
:100D600000D109E25EA809F00FFE002800D027E2BA
:100D7000069B002B00D04EE25B460D2B00D1AEE06F
:100D800034224146504610F069FA5EA809F0FCFD95
:100D9000002809D024220021504610F059FA0E22D2
:100DA0000021F2A810F054FA52465B46484674A956
:100DB00008F0ECFB4B4603CB07F0ECFE07F0DCFE43
:100DC00005990E980EF0EEFE0F98A9A90EF022FFDD
:100DD000002802D0A9A807F0D7FA079B0693B0E62F
:100DE000069B002B00D03CE7099B002B00D038E786
:100DF0005CE7C0460D0300008C05000093620020F4
:100E000090620020444A00209162002097620020F6
:100E10005C4A00209862002099620020604A00200D
:100E20009A62002092620020A8940610BC940610DA
:100E3000DC940610484A0020E8940610EC94061052
:100E4000E4040000504608990BF02CF926AA9446B9
:100E5000AF4B51466344180005F0D8FF1A9C00219F
:100E600020000EF0D7FE514620000EF09BFE93E6C8
:100E70005EA809F089FD002800D025E70EF032FEBB
:100E8000002900D17CE3FA22002392000FF0DAFC63
:100E900004000D9B002B07D09E4AE31A934201D811
:100EA00000F067FC07F078F80D940FE7179B1C60C3
:100EB000159B1C70119B002B4ED1069B002B32D131
:100EC000099B002B00D0C2E60B9B0C9300230993D7
:100ED000ECE6FA2189000FF077FC14908BE60020F5
:100EE0000CF0E0FB002800D14AE7219C0122210000
:100EF00000200CF0E1FB239A23781278BB2B00D161
:100F0000B0E3BC2B01D100F01BFC002A00D0ABE306
:100F1000AA2B02D0AD2B00D032E7012223990A7010
:100F2000249A13702CE77A497B4A26AB5B189B58AE
:100F3000082B00D1A2E1099A002A00D08CE6002BF0
:100F4000C2D10B9B0C938CE61499CB1AB32B00D80F
:100F500071E6002A00D071E60123159A137026AAC3
:100F600094466B4B6344180006F046F826A8844666
:100F70006A4B202263440021180010F069F9052310
:100F80005246514613700A980EF07EFE069B002BC7
:100F90009AD05F49604A26AB5B189B58082BCED18C
:100FA00026AA94465A4B6344180006F0F7FB26AA7B
:100FB0009446574B0898634419000BF04BF8A5234F
:100FC000534926AADB005218D4580EF08BFD002995
:100FD00000D117E3FA22002392000FF033FC26A978
:100FE0008C464F4A2100089C5B46624400902000DA
:100FF0000BF082F820000BF0F9F820000BF028F835
:1010000033AB0C90210018000BF04CF820000BF0D3
:101010006DF81E2800D88FE11E2426AB998E414A18
:101020000B1C914200D87EE1131C099226AA9386DC
:101030003C49D28E131C8A4200D86EE10B1C26AAB2
:10104000D3863849128F131C8A4200D85FE10B1CEB
:1010500026AA13873349528F131C8A4200D816E1FF
:101060000B1C26AA53872B9B0693A04200D11AE1A2
:10107000210006980BF02CF8069833A90AF0EAFF35
:1010800021220021504610F0E3F853460C9A5146B5
:101090000A985A700EF0F8FD26A884461F4B0021CE
:1010A00063442022180010F0D3F852460223069819
:1010B00013700BF009F85346514658700A980EF019
:1010C000E3FD26A88446154B002163442022180026
:1010D00010F0BEF852460323069813700AF0F6FF8C
:1010E0005346514658700A980EF0CEFD26AA9446F3
:1010F000074B21006344180005F086FE26AA94469B
:10110000034B33A96344180005F080FE9FE5C046F9
:101110008C0500009F680600E40400000D03000039
:10112000B80A0000DC050000FA2189000FF04CFB32
:10113000002C00D0DEE5189B42461C70199B1C60F9
:101140001B9B1C702E23D45C0EF0CCFC002900D01D
:10115000E8E5FA2189000FF037FB002C00D0E9E523
:101160001F9B5EA81C70209B1C60229B1C7009F0BA
:101170000BFC002800D0F5E52F234246D45C0EF08E
:10118000B1FC002900D1E2E0FA22002392000FF026
:1011900059FB002C00D1D5E01C9B0133DBB21C9322
:1011A000022B00D833E21D9B002B00D034E2002339
:1011B0001D905EA81E9309F0E7FB002800D1D7E53B
:1011C0005AA95EA809F026F95EA809F0F7FB041EEB
:1011D00000D0FBE15EA809F0D7FB002800D1BBE0FE
:1011E00050465EA909F0D4FB169C002120000EF0A9
:1011F00011FD514620000EF0D5FC2422002140466E
:1012000010F026F80E2200215AA810F021F8069BB3
:10121000002B00D1B0E55EA809F0B6FBACE526AA2C
:101220009446DA4B6344180005F042FEF5E4002AC8
:1012300000D16FE51B990B78002B00D06AE5801A6E
:10124000D34A904200D865E501220A70189A1370BB
:10125000199A13605EA808F067FF26A88446CD4B54
:1012600020226344002118000FF0F2FF04235246AD
:1012700051460A9813700EF007FD6DE5099B002B8F
:1012800000D18DE60B9B0C93012309930EE592B2DE
:101290000A2A00D3E5E60A2326AA53872B9B069346
:1012A000A04200D0E4E6504608990AF0FBFE5346FF
:1012B000099A1B88934200D0DAE626ABDB8E0899A8
:1012C000059809930AF0EEFE0599099A4B88934216
:1012D00000D0CDE626AB1B8F0899219809930AF020
:1012E000E1FE2199099A8B88934200D0C0E626AB93
:1012F0005B8F089935A809930AF0D4FE422026A9ED
:1013000009180B88099A934200D0B1E6B8E692B268
:101310000A2A00D39CE60A239AE692B20A2A00D34C
:101320008DE60A238BE68AB209920A2A00D37DE66B
:101330000A220A23099279E684B2002C00D06CE6D6
:1013400001346AE600231E931C931D930AE5FA21DB
:1013500089000FF039FA1CE708980AF047FF26A821
:101360008446652363442022002118000FF070FF9B
:101370000523219A0A98110013700EF085FC2B9C0E
:1013800020000AF065FE210011902FA80AF08AFEC5
:1013900020000AF0ABFE1E2800D87EE01E230B932F
:1013A00026AB998C7C4A0B1C914200D883E0131C1D
:1013B000109226AA93847849D28C131C8A4200D8B2
:1013C00089E00B1C26AAD3847349128D131C8A4210
:1013D00000D88DE00B1C26AA13856F49528D131C73
:1013E0008A4200D891E00B1C26AA53850B9B984299
:1013F00000D195E020000B990AF06AFE20002FA989
:101400000AF028FE2122002150460FF021FF53460A
:10141000119A51465A700A980EF036FC26A8844656
:101420005C4B00216344202218000FF011FF52464C
:101430000223200013700AF047FE534651465870AD
:101440000A980EF021FC26A88446524B00216344E2
:10145000202218000FF0FCFE5246032320001370D8
:101460000AF034FE5346514658700A980EF00CFCB0
:1014700026AA9446454B0B996344180005F0C4FC1A
:1014800026AA9446414B2FA96344180005F0BEFCE0
:1014900000231E931C931D93AFE683B20B93002B86
:1014A00000D07DE701330B9326AB998C3A4A0B1C95
:1014B000914200D97BE78AB210920A2A00D378E7DA
:1014C0000A220A23109226AA93843349D28C131C31
:1014D0008A4200D975E792B20A2A00D372E70A233A
:1014E00026AAD3842C49128D131C8A4200D971E795
:1014F00092B20A2A00D36EE70A2326AA1385264948
:10150000528D131C8A4200D96DE792B20A2A00D389
:101510006AE70A2326AA53850B9B984200D069E705
:10152000210050460AF0BEFD5346109A1B88934294
:1015300000D05FE726ABDB8C210035A810930AF0C2
:10154000B1FD26A9CB8F109A934200D052E70B8DA4
:1015500033A8210010930AF0A5FD26A90B8F109A3D
:10156000934200D046E74B8D31A8210010930AF03A
:1015700099FD26A94B8E109A934200D03AE741E795
:10158000FA2189000FF020F9040082E48C050000A4
:10159000871300000D030000DC050000002A01D1C4
:1015A000FFF7DAFB22990B78002B01D0FFF7D4FB71
:1015B000801AFA22D200904201D2FFF7CDFB01221D
:1015C0000A701F9A1370209A136043E626AA944665
:1015D000C34B6344180005F01FFC5EA808F0C8FB6D
:1015E00026A88446BF4B20226344002118000FF038
:1015F0002FFE0523524651460A9813700EF044FB05
:101600000C94E7E5FA2189000FF0DEF8E7E41D9B72
:10161000002B01D1FFF7A6FB1E9B002B01D0FFF78B
:10162000A1FB1D9BC01AFA239B00984201D2FFF731
:1016300099FB5EA808F072FB26A88446A94B2022DD
:101640006344002118000FF003FE04235246514664
:1016500013700A980EF018FB00231E941C931D9320
:10166000FFF780FB002A46D02398249C511CC9B266
:101670000170A3540A2901D0FFF782FB00230370F5
:10168000637A552B01D0FFF77BFBA37862781B02AE
:10169000134352465BBA13802379E2781B0213434B
:1016A00052465BBA9380A37962791B021343524678
:1016B0005BBA5380237AE2791B02134352465BBA2A
:1016C000D38026AA9446864B51466344180005F001
:1016D0009DFB2378AA2B00D1F0E0AD2B01D0FFF7C2
:1016E0004FFB0522299900200CF064F800200CF033
:1016F00027F8FFF745FB7A4A7B4926AB9B1826AAB9
:101700005218128879491B88029226AA5218128808
:101710000231019226AA52181288202100925046C6
:10172000259A11F01FFA50465CF09EFC51460200CB
:1017300000200CF03FF800200CF002F8FFF720FB2F
:10174000002A91D108980AF04FFD03780400002B7D
:1017500041D16349664B26AA5218D35C002B35D180
:101760005346279A03CA03C31188198092789A7046
:10177000D9E70D9C0D94FFF7A9FA8AB20A2A01D382
:10178000FFF726F90A23FFF723F98AB20A2A01D3C1
:10179000FFF70FF90A23FFF70CF98AB20A2A01D3DF
:1017A000FFF7FAF80A23FFF7F7F88CB20A2C01D3F7
:1017B000FFF7E8F80A230A24FFF7E4F886B2002EC0
:1017C00001D0FFF7D6F80136FFF7D3F826AA9446E2
:1017D000484B63441C0008980AF0ECFC06900898FB
:1017E0000AF000FD0B9008980AF0F0FCA0210B9B7A
:1017F00002900193069B50460093269A230089008D
:1018000011F0B0F98FE7236820009B689847A36820
:10181000013BA3604B4501D0FFF76EF82368200021
:10182000DB689847FFF768F88C21334C4900415832
:1018300000948A246400314B314A0059013106F08A
:1018400041FBFFF765F8504608990AF02BFC534618
:101850001B88A34201D0FFF7EFF826ABDC8F48AB23
:1018600099461800089905930AF01CFC4B465B88C2
:10187000A34201D0FFF7E2F8402226AB9B181B8859
:10188000089999463FAB1C00180021930AF00AFC06
:10189000A3883BAC4B4501D0FFF7D3F8422226ABDF
:1018A0009B181B882000994608990AF0FBFBE388E7
:1018B0004B4501D0FFF7C5F8FFF7CDF8089C51461E
:1018C00020000AF0C7FB20000AF090FC03222899B0
:1018D00000200BF06FFF00200BF032FFFFF750FAF3
:1018E0008C0500000D030000920500008E0500002D
:1018F0002C050000B80A000011030010B1210020DF
:10190000A1210020D0231B065868C0437047C04661
:101910007047C0467047C04610B504301AF06AF9E7
:1019200010BDC04610B504000C210FF0ADFC200026
:1019300010BDC04610B5040004210FF0A5FC200026
:1019400010BDC046F8B54E464546DE465746E0B5A2
:101950000700806B3D0003680E009B6898472023BA
:10196000FC6A243581469846AC4213D128E0FA221D
:10197000002392000EF066FFE3695B44834203D8C4
:1019800043465246E254E06120001AF0A3FD0400F1
:10199000A84215D04A46A36913405A1E9341DAB2B1
:1019A00092464246A25C9A42EED0BB7B9B460EF02A
:1019B00099F80029DBD1FA2189000EF005FFDBE759
:1019C000BB6A1A1E00D16FE111009268002AFBD198
:1019D0008D4200D168E10A7C002A00D064E1203207
:1019E0008A5C2800914624224946B1541A0003E03B
:1019F00010009268002A05D0117C0029F8D1D26825
:101A0000002AF9D1854200D14EE1027C012A00D999
:101A10004AE12022815C0532B1542C001A0003E017
:101A200014009268002A05D0107C0128F8D8D268EA
:101A3000002AF9D1A54200D136E1227C022A00D940
:101A400032E12022A25C904626224046B054280073
:101A50001A0003E010009268002A05D0147C022CC2
:101A6000F8D8D268002AF9D1854200D11CE1027C65
:101A7000032A00D918E12022825C9446272260467E
:101A8000B05428001A0003E010009268002A05D024
:101A9000147C032CF8D8D268002AF9D1854200D1F1
:101AA00002E1027C042A00D9FEE02022805C083298
:101AB000B05428001A0003E010009268002A05D0F4
:101AC000147C042CF8D8D268002AF9D1854200D1C0
:101AD000EAE0027C052A00D9E6E02022805C093297
:101AE000B05428001A0003E010009268002A05D0C4
:101AF000147C052CF8D8D268002AF9D1854200D18F
:101B0000D2E0027C062A00D9CEE02022805C0A3294
:101B1000B05428001A0003E010009268002A05D093
:101B2000147C062CF8D8D268002AF9D1854200D15D
:101B3000BAE0027C072A00D9B6E02022805C0B3292
:101B4000B05428001A0003E010009268002A05D063
:101B5000147C072CF8D8D268002AF9D1854200D12C
:101B6000A2E0027C082A00D99EE02022805C0C3290
:101B7000B05428001A0003E010009268002A05D033
:101B8000147C082CF8D8D268002AF9D1854200D1FB
:101B90008AE0027C092A00D986E02022805C0D328E
:101BA000B05428001A0003E010009268002A05D003
:101BB000147C092CF8D8D268002AF9D1854200D1CA
:101BC00072E0027C0A2A6FD82022805C0E32B05468
:101BD00028001A0003E010009268002A05D0147C47
:101BE0000A2CF8D8D268002AF9D185425CD0027C50
:101BF0000B2A59D82022805C0F32B05428001A00DA
:101C000003E010009268002A05D0147C0B2CF8D851
:101C1000D268002AF9D1854246D0027C0C2A43D8EA
:101C20002022805C1032B054280003E018009B682A
:101C3000002B05D01A7C0C2AF8D8DB68002BF9D1D0
:101C4000854231D0027C0D2A2ED82022855C1132AB
:101C5000B5544A46002A18D101233B774346002B4E
:101C600007D103237B77F0BCBB46B246A946A0460A
:101C7000F8BD6346002B14D07B7F032B01D0022BD1
:101C8000F1D100222433F254EDE7002907D03A7F46
:101C9000012A01D0002AE1D12432B354DEE739779A
:101CA000DCE702237B77DEE7014827F059FBC046DB
:101CB000F4940610F0B5D6464F464646C0B51E0011
:101CC0000700242015008A460FF0CEFA012332784F
:101CD0002D78934002758361202200230574C3612F
:101CE00083543B1D040056469946534547D0337CE8
:101CF0009D4228D2FB689A46B34268D030001AF061
:101D000019FC037CAB425FD3BB689846002B05D11E
:101D10008DE09B680121002B08D0984643461A7C31
:101D20009542F6D3DB680021002BF6D14646002908
:101D300000D075E0954217D9B14548D0337C9D421B
:101D4000AD41684244E09D420FD93B695345F3D011
:101D500030001AF0BFFB037CAB4248D9F368002B7C
:101D6000ECD00600012033E04646242120000FF08D
:101D70008BFA3000E0BCBA46B146A846F0BD7B699C
:101D8000002B2FD1BB689846002B05D14DE09B68F6
:101D90000121002B08D0984643461A7C9542F6D381
:101DA000DB680021002BF6D146460029C2D0FB6833
:101DB00046464345C0D040461AF0BCFB027C46462E
:101DC00080469542B8D8CFE7C368002B2BD00120BE
:101DD0004B46320021001AF0C9FB7B692600013313
:101DE0007B61C6E73E69337CAB42A5D3CAE7BB68DB
:101DF0009846002B05D120E001219B68002B07D0DD
:101E0000984643461A7C9542F6D30021DB68F5E7F5
:101E10004646002900D18DE7FB689E42CBD18BE777
:101E2000C245C8D188E7060086E7D046BFE7C84666
:101E3000D145C0D14E460120CAE7FB68C846994546
:101E4000B9D1F7E7F0B5CE46474603000C0080B5A0
:101E5000060083B00F0007CC07C32200A14613CAB7
:101E600013C3126835001A609C4B2422B3830023ED
:101E7000B3546A46B362D3717363B3632033984635
:101E80002435B0443B00290007324046F5623563F3
:101E9000FFF710FF6A460123D371B26A2900002AB6
:101EA00011D0130003E019009B68002B05D0187CAB
:101EB0000028F8D1DB68002BF9D18D4203D00B7CD0
:101EC000012B00D852E16A467B1C07324046FFF7DF
:101ED000F1FE02236946B26ACB71002A00D1E4E127
:101EE0001400290003E011009268002A05D0137C39
:101EF000012BF8D8D268002AF9D18D4200D1D5E162
:101F00000B7C022B00D9D1E16A460323D371220056
:101F1000290003E02100A468002C05D0237C022BBB
:101F2000F8D8E468002CF9D18D4200D1AFE10B7CE8
:101F3000032B00D9ABE104236946CB7113002900C0
:101F400003E011009268002A05D0107C0328F8D81D
:101F5000D268002AF9D18D4200D189E10A7C042A95
:101F600000D985E105226946CA711A00290003E0FB
:101F700019009B68002B05D0187C0428F8D8DB6872
:101F8000002BF9D18D4200D163E10B7C052B00D9E8
:101F90005FE106236946CB711300290003E01100BD
:101FA0009268002A05D0107C0528F8D8D268002A4B
:101FB000F9D18D4200D13DE10A7C062A00D939E1F0
:101FC00007226946CA711A00290003E019009B68BC
:101FD000002B05D0187C0628F8D8DB68002BF9D137
:101FE0008D4200D117E10B7C072B00D913E10823A8
:101FF0006946CB711300290003E011009268002AA2
:1020000005D0107C0728F8D8D268002AF9D18D4273
:1020100000D1F0E00A7C082A00D9ECE009226946E8
:10202000CA711A00290003E019009B68002B05D033
:10203000187C0828F8D8DB68002BF9D18D4200D134
:10204000C9E00B7C092B00D9C5E00A236946CB7196
:102050001300290003E011009268002A05D0107CCB
:102060000928F8D8D268002AF9D18D4200D1A2E01F
:102070000A7C0A2A00D99EE00B226946CA711A001E
:10208000290003E019009B68002B05D0187C0A2862
:10209000F8D8DB68002BF9D18D4200D17BE00B7CB6
:1020A0000B2B00D977E00C236946CB711300290074
:1020B00003E011009268002A05D0107C0B28F8D8A4
:1020C000D268002AF9D18D4256D00A7C0C2A53D806
:1020D0000D226946CA71290006E0C04601030000CE
:1020E00019009B68002B05D01A7C0C2AF8D8DB68F5
:1020F000002BF9D18D4202D00B7C0D2B06D93B0071
:102100006A4640460D330732FFF7D4FD337E002B7D
:1021100000D0D9E004200FF0A7F87A4BF46A81468A
:102120000360A54214D00123D02798463F06207DA6
:102130000DF060FE4346207D002283400121BB62FA
:102140000DF030FE20001AF0DDF904008542EED1DA
:102150004B46B06BB363002802D003685B689847B6
:10216000300003B0C0BCB946B046F0BD022369469A
:102170001400CB71B5E629006A464B46073240464B
:10218000FFF798FD0D226946B36ACA71002BA2D1F0
:102190002900B4E729003B006A460B33073240466A
:1021A000FFF788FD0C236946B26ACB71002AE2D0A2
:1021B00013007CE729003B006A460A330732404699
:1021C000FFF778FD0B226946B36ACA71002BE1D094
:1021D0001A0055E729003B006A460933073240469A
:1021E000FFF768FD0A236946B26ACB71002AE1D085
:1021F00013002EE729003B006A46083307324046A9
:10220000FFF758FD09226946B36ACA71002BE1D075
:102210001A0007E729006A46FB1D07324046FFF710
:1022200049FD08236946B26ACB71002AE2D0130047
:10223000E1E629006A46BB1D07324046FFF73AFD3A
:1022400007226946B36ACA71002BE3D01A00BBE6C5
:1022500029006A467B1D07324046FFF72BFD062307
:102260006946B26ACB71002AE3D0130095E62900D3
:102270006A463B1D07324046FFF71CFD05226946B2
:10228000B36ACA71002BE3D01A006FE629006A46D0
:10229000FB1C07324046FFF70DFD04236946B26A76
:1022A000CB71002AE3D0130049E629006A46BB1C23
:1022B00007324046FFF7FEFC03236A46B46AD37137
:1022C000002CE3D0220023E60C200EF0CDFF04000A
:1022D00005000D4B326908C4317D200019F044FC23
:1022E00020000A4919F052FC2000084919F05EFC50
:1022F0002000064919F06CFCB06BB563002800D0D3
:102300002BE72DE788C506109CC50610FFFF0000CF
:10231000F0B5D6464F464646C0B50E0015000F1D17
:102320003900040019F006FBF31C98466B1C994613
:102330001A004146200019F0FDFA39004A462000F3
:1023400019F0F8FAB31C9A46AB1C99461A0051468C
:10235000200019F0EFFA41464A46200019F0EAFA47
:1023600039004A46200019F0E5FAEB1C99461A009C
:102370002000711C19F0DEFA4A465146200019F07F
:10238000D9FA4A46414620002E1D19F0D3FA4A4692
:102390003900200019F0CEFA51463200200019F021
:1023A000C9FA41463200200019F0C4FA390032005F
:1023B00020006E1D19F0BEFA32004146200019F0CF
:1023C000B9FA32003900200019F0B4FA3900AA1D18
:1023D000200019F0AFFAE0BCBA46B146A846F0BDFD
:1023E000F8B5CE464746160080B504000D0019F03A
:1023F000A1FA731C98466F1C1A002900200019F0DE
:1024000099FA39004246200019F094FAB31C984614
:102410001A002900200019F08DFA390042462000E8
:1024200019F088FAAB1C424619002000994619F0B1
:1024300081FAF31C98461A002900200019F07AFA54
:1024400039004246200019F075FA494642462000FC
:1024500019F070FAE91C4246200019F06BFA331D9E
:1024600098461A002900200019F064FA3900424603
:10247000200019F05FFA49464246200019F05AFA46
:10248000731D98461A002900200019F053FA42469D
:102490003900200019F04EFA2900B21D200019F071
:1024A00049FAC0BCB946B046F8BDC04670B5030095
:1024B000040082B0002505C905C3200024220021A4
:1024C00025720C300EF0C4FE20000E2200213030A8
:1024D0000EF0BEFE260040230D222000E252002115
:1024E000053A42304C360EF0B3FE1C22002130007B
:1024F0000EF0AEFEA5660DF0F5FA002935D0FA22F1
:10250000002392000EF09EF90025E06620000822CC
:10251000002125676567A5677C300EF099FE84234E
:102520000022E552303BE254226823798021009258
:102530003000402219F054F9300019F0F3F98623E5
:10254000E5520233E5500433E5500433094AE550BF
:102550000433E5522300A1180022A9331A70143362
:102560008B42FBD1200002B070BDFA2189000EF031
:102570002BF9C9E7C903000010B532220C300EF068
:102580006DFE10BD4023C1547047C0464123C15465
:102590007047C04610B5072242300EF05FFE10BDF6
:1025A0008167704710B508227C300EF057FE10BDD1
:1025B00010B5022284300EF051FE10BD01230372CB
:1025C0007047C046022303727047C046032303725C
:1025D0007047C046042303727047C0460523037248
:1025E0007047C046062303727047C0460723037234
:1025F0007047C046082303727047C0460923037220
:102600007047C046F0B5C64600B582B004000DF074
:1026100069FA002933D0FA22002392000EF012F951
:10262000E36EC01A624B984209D8FA210EF0CCF83A
:10263000C00700D4A7E002B080BCB846F0BD5D4B37
:10264000984221D95C4B9842F5D85C4B4C34200021
:1026500000930C220123252119F0EAF9584B2000A0
:1026600000931A220223042119F0E2F9554B30227B
:1026700000932B210123200019F0DAF9DBE7FA217E
:1026800089000EF0A1F8CBE74F4B4C349C466044D8
:102690000EF0D7FC4D490EF070FC011C051C0EF02D
:1026A00069FC011C4A480EF062FC291C061C281C0F
:1026B0000EF077FC011C301C0EF073FC45490EF047
:1026C00070FC0EF0E5FC80263C4B311A0093200094
:1026D00001230C2219F0ACF93F49281C0EF0A0FC94
:1026E00000285BD03C49281C0EF041FC3B490EF011
:1026F00044FC011C071C0EF03DFC011C34480EF08C
:1027000036FC391C8046381C0EF04BFC011C404640
:102710000EF047FC32490EF044FC0EF0B9FC284B99
:10272000311A0093200002231A2219F081F92D4951
:10273000281C0EF075FC002838D02A49281C0EF001
:1027400016FC29490EF019FC011C051C0EF012FCA8
:10275000011C1F480EF00BFC291C071C281C0EF046
:1027600020FC011C381C0EF01CFC20490EF019FC4A
:102770000EF08EFC311A134B3022009320000123FF
:1027800019F056F957E720000221194B1C2200933B
:102790004C300223494219F04BF94CE7084B1A22FE
:1027A000009380210223200019F042F98021E2E702
:1027B000B70B000093110000571B0000089506108E
:1027C000149506102095061048F4FFFF0080BB44C6
:1027D000000040400000B642CDCC4C3ECDCC4C3F3A
:1027E0000000F842CDCCCC3E9A99193F0000AA4295
:1027F000FC940610F0B5DE4657464E464546362355
:10280000E0B5A7B00C00362200214C3000934933CC
:10281000039019F0A3F808AB9B460AAB0893D64B7C
:1028200006A91A680A926A469B8893855A46062327
:1028300053600023937310AA0E92D04A0A85022295
:102840000F920A002A21521813702378062B01D9FF
:1028500000F057FCCA4A9B00D3589F4616AB029320
:102860001493012304930023089A14AD1AAC2B721D
:10287000069223721CAA6B6002330626100098464B
:102880001A9205920222BF490EF0E8FC1A9B994663
:1028900043464A4663604146002353546368984662
:1028A0004246B94B9B1AB34201D200F044FC1A983D
:1028B000059B9719984200D173E3A3689F4200D902
:1028C00056E24044012E01D100F0F6FB3200069999
:1028D0000EF0C4FC1A9B99464A4600236760D35504
:1028E0001A9B9A46636899466B6898464246A64B7F
:1028F0009B1A994501D900F01EFC4E46149F029B7D
:1029000046449F4200D159E3AB689E4200D9FBE2A6
:102910004B46002B09D038004044012B00D1D2E3B4
:102920004A4651460EF09AFC149F00236E60BB5538
:102930001A98059B984203D0A16801310EF0A4FCBF
:102940006C68914B9C4201D100F0F5FB149B029AFC
:10295000661C934200D18AE3AA68964200D900E33C
:1029600020221A55149F00236E60BB5519E0874B37
:1029700010AA934200D3D3E1854B10AA10930423ED
:102980000F93002313715B465E680123049316AB1B
:1029900002931493002314AD2B726B60002E00D0B1
:1029A0001AE20E9B0F9E059322AB2093002320ACCE
:1029B00023726360B31C9A460F2B00D8BEE0002B35
:1029C00000DAA5E31D2B00D8C4E1F01C00D54FE1CF
:1029D0000EF04AFC209B6768814698467A1C002FBF
:1029E00000D14DE2002A00D0ACE1A168404601319F
:1029F0000EF04AFC4B46209353466768A360624B37
:102A0000DB1B012B00D896E3BB1C9846534500D92D
:102A1000C4E03800484402225E490EF01FFC209BAF
:102A2000994643464A4663604146002353546368CF
:102A300099464A46544B9B1A9E4200D97BE3B046C6
:102A4000209F22ABC8449F4200D1FEE1A368984575
:102A500000D9CDE0002E09D038004844012E00D125
:102A60007CE1320005990EF0F9FB209F4346424677
:102A700063600023BB54209B9A46636898466B684A
:102A800099464A46404B9B1A984500D953E347461E
:102A9000149E029B4F449E4200D1E4E1AB689F42EA
:102AA00000D9DBE04346002B09D030004844012B1D
:102AB00000D158E1424651460EF0D0FB149E00234F
:102AC0006F60F355209822AB984203D0A168013182
:102AD0000EF0DAFB6A6853009B18049A5B00002A28
:102AE00030D16E240021E41A6410149B1234039830
:102AF000009338220123611818F09AFF1498029B62
:102B0000984203D0A96801310EF0BEFB0E9810ABBD
:102B1000984203D0109901310EF0B6FB08980AAB29
:102B2000984204D05B46996801310EF0ADFB27B0A6
:102B3000F0BCBB46B246A946A046F0BD022322A87F
:102B4000984668E75024039EE41A64102100382256
:102B50003000FFF7DDFBE11D38223000FFF740FCBD
:102B600021000D4B0F31009338220123300018F063
:102B70005FFF0C341221B8E7289506104F4B000078
:102B8000A8C5061068950610FFFFFF7F789A06100B
:102B9000536176656C950610709506104346002BC0
:102BA00000DAB5E253465B000693984500D311E284
:102BB000002B5DDB581C0EF057FB209B81469A468C
:102BC0003A00514648460EF049FB38000222C949F6
:102BD00048440EF043FB22AB9A4504D0A16850460E
:102BE00001310EF051FB4B462093069BA36018E782
:102BF0004246002A00DA8BE25B000693984500D239
:102C000001E24346581C33D406930EF02DFB209B63
:102C100007009A464B46002B06D0012B00D143E219
:102C20004A4651460EF01AFB059B002B0AD0002E97
:102C300008D04B46F818012E00D149E23200059920
:102C40000EF00CFB22AB9A4504D0A168504601312E
:102C50000EF01AFB069B2097A36007E7002F00DA0F
:102C600056E25B0006939F4204D2581C002B04DA04
:102C700026F016FB781CFBD406970EF0F5FA149B91
:102C8000060005934B46002B06D0012B00D10FE226
:102C90004A4605990EF0E2FA5346002B0CD0434603
:102CA000002B09D04B46F0184346012B00D113E20C
:102CB000424651460EF0D2FA0598029B984203D044
:102CC000A96801310EF0E0FA069B1496AB60F6E6B7
:102CD000894B10AA934206D306A92A228C46624445
:102CE000934200D817E21A682E2110929B8806AAF8
:102CF000938506230F930023521813705B465A687E
:102D00000AA97E4B994203D88818834200D815E25D
:102D100000235A4653600B7000235668049336E62E
:102D200006A92A228C466244934200D924E6002256
:102D300001920432009210A9023A0EA834F0B0F8C1
:102D40000E9A1CE619000EF089FA22AB984500D0C5
:102D50004BE69CE01E231F209A4639E6059B1B7814
:102D60000370209F82E653461B780370149EA6E6EC
:102D7000002F00DACCE15B0007939F4200D264E1B0
:102D8000781C00D574E707970EF06EFA1A9B8146FF
:102D90009A464346002B06D0012B00D1A0E14246C3
:102DA00051460EF05BFA069B002B08D04046484483
:102DB000012E00D158E1190032000EF04FFA059BA8
:102DC0009A4504D0A168504601310EF05DFA4B4699
:102DD0001A93079BA3607FE5089A1AAC06922372A8
:102DE0001CAA6360B31C9A4605921A920F2B00D856
:102DF00082E1002B00DA8BE11D2B00D808E1F01CEA
:102E000000D535E70EF030FA1A9B67688146984680
:102E10007A1C002F00D13BE1002A00D0E5E0A16838
:102E2000404601310EF030FA4B461A93534667681C
:102E3000A360334BDB1B012B00D87CE1BB1C984605
:102E40009A452BD3380048441CE543460F2B00D845
:102E500000E6002B00DA5BE11D2B00D9D1E61E2332
:102E60001F200693D1E60F2F00D81BE6002F00DAB3
:102E70004EE11D2F00D9FDE61E231F200693FCE620
:102E80001B78037022AB984500D0AEE500274B4677
:102E900020935346A360BB1C9846BAE54346002BDB
:102EA00000DA35E153465B000793984500D2C2E053
:102EB000F81C00D5DCE60EF0D7F91A9B81469A463D
:102EC000434607933A00514648460EF0C7F938008A
:102ED00002220C4948440EF0C1F9059B9A4504D0E2
:102EE000A168504601310EF0CFF94B461A93079B6B
:102EF000A360CDE46C950610309506101CA4061056
:102F0000FFFFFF7F68950610002E00DA00E15B00EE
:102F100007939E4200D29DE0701C00D5A8E607965C
:102F20000EF0A2F9149B070006934346002B06D02F
:102F3000012B00D1D8E0424606990EF08FF9534696
:102F4000002B02D04B46002B66D10698029B98427C
:102F500003D0A96801310EF097F9079B1497AB6075
:102F6000E3E4002E00DAD3E0530098469E4276D385
:102F7000A01C00D57CE6B0460EF076F9149B070045
:102F80009946002C52D120233B55029B994504D0F1
:102F9000A968484601310EF077F943461497AB60B3
:102FA000E1E40F2F00D88CE4002F00DAB0E01D2FF1
:102FB00000D9E5E61E231F200793E5E60F2E00D873
:102FC000A6E4002E00DAA3E01D2EA5D81E231F20A4
:102FD0000793A5E7F81C00D54AE60EF045F9209BBB
:102FE00081469A4643460693EAE519000EF036F903
:102FF000059B984500D012E74B461A935346A360B1
:10300000BB1C98461EE7581C002B00DA30E6FCE596
:103010001E231F209A46F5E64346F8184B46012B1F
:1030200066D04A4651460EF019F98EE7012C29D197
:103030001B780370A7E7002B00DA19E6581C0EF086
:1030400013F91A9B81469A463CE7581C002B00DA7C
:103050000EE699E6581C002B00DA09E660E7581CDA
:10306000002B00DA04E687E71B780370A7E6102E32
:1030700000D075E41F200EF0F7F8149B0700994666
:103080001E2398462200494638000EF0E7F87AE7FA
:103090001B780370059B984500D0C0E65346A3609B
:1030A00002231A909846CDE653461B780370BBE581
:1030B000059B1B780370EFE5069B1B7803701A9B3A
:1030C0009946FFF709FC53461B780370149F2CE4C4
:1030D000059B1B780370B5E553461B780370EBE541
:1030E00053461B7803705EE6069B1B78037026E749
:1030F00053461B78037028E7022305989846FFF78C
:10310000C1FB16AB0293149300230493FFF7ABFBB0
:103110000E4826F00DF900240625022210A901947C
:1031200000950EA833F0BCFE0E9B0F959C715B467C
:1031300008995A68E5E5064826F0FAF8002001905B
:103140000090584633F0ACFE0899E1E5389506103A
:1031500050950610F0B5DE4657464E464546E0B55A
:10316000C94BE3B09C680390002C14D04222191D77
:10317000825C03E02100A468002C05D0237C9342EC
:10318000F8D2E468002CF9D1C04B0291994202D0E8
:103190000B7C934206D963B0F0BCBB46B246A9464D
:1031A000A046F0BD0B7D062B60D1039B4C330493EE
:1031B0000A230A22009300217533049818F0CEFBED
:1031C000029B1B7D062B00D166E1022B00D18DE115
:1031D00017AA100017000892002219A9069117914A
:1031E00042600272042B00D120E300D988E0012B59
:1031F00000D81BE3422344220399CB5C8A5A991FCF
:10320000012900D838E10D2B00D135E1002A01D089
:1032100000F043FF9E4B069A03CB03C208237B605A
:103220000023069C08220A2120003B745AF0DEFE8F
:10323000002801D100F08EFF041B631C01D100F0B7
:10324000B6FF2BABA14609932993082C01D908237B
:103250009946069E4B46012B01D100F01EFE29AD7A
:10326000002B01D000F026FC099AAFE00D008B691D
:10327000039800934C30012300220021049018F0A1
:10328000D7FB2B7D032B13D00FD9052B90D10CF03E
:1032900029FC00292FD0FA22002392000DF0D2FA47
:1032A0000A23039A1067137275E7022B00D17FE798
:1032B000029B5D6B1B6BED1A1C2D00D878E7442632
:1032C000039B9A5B002A01D000F0AAFDAD10EB0031
:1032D0005B1999015B18DB005B19D9035B18DB00F4
:1032E0005B19DB439A4200D362E7022279210498FA
:1032F000FFF776F85CE7FA2189000DF065FACFE771
:10330000052B01D000F086FD4423039AD15A029B7D
:103310001D6B586B401B8010C3001B189A019B1833
:10332000DB001B18DA039A18D2001218524291429D
:1033300001D300F075FFCB005B1A9B00ED18089BD2
:103340009D4201D100F066FD6E680F2E01D900F09C
:1033500070FD002E00D080E3069A00237E60935516
:10336000029B189A1B7D9146179E042B00D1A3E364
:10337000002A01D100F04FFD0A2130005AF036FE3C
:10338000002801D100F0B4FD841B631C01D100F0C2
:10339000AFFD2BAB09932993A14500D9A1464B461C
:1033A0000F2B00D856E7002B01DA00F044FF581C21
:1033B00001D500F033FD0DF057FF4B4629AD2990A4
:1033C000AB604A4631000DF049FF299A4B46494609
:1033D0006B60002353547B6801349C4201D900F098
:1033E00025FF179F2FAA31AE3F1993462F961C1B1E
:1033F0000F2C01D900F05BFD012C01D100F053FD31
:10340000002C00D04FE332005B465C600023135574
:103410005B466A685F685100299B89180A2A03D8AD
:103420000A2F01D800F09FFD8024049849008046AF
:10343000611A182249080093012318F0F9FA7B0059
:10344000DB195B00E11A2F9B2022009340460123E9
:10345000490818F0EDFA2F98B04204D05B469968FD
:1034600001310DF011FF2998099B984229D0A968D4
:1034700001310DF009FF24E0002A00D0F6E2054BEF
:10348000069A03CB03C2C9E6143C0020183C002076
:103490003096061018960610039B9B6F002B00D0E9
:1034A00033E217AA1100089219AA4B600B7216009A
:1034B00040211792069202231C220498009618F0CD
:1034C000B7FA1798069B984204D0089B9968013177
:1034D0000DF0DAFE029A137D043B012B00D85AE668
:1034E000143211000398FFF785F954E64423039A38
:1034F000D45A092C01D800F070FE632C00D8BDE22C
:10350000FA239B009C4201D200F06EFDC34B9C420B
:1035100001D800F09EFD0DAB99460B9300230C9350
:1035200005339A4604260BAD2D232B722FAB1800C2
:10353000C922BB499B460DF091FEB84BAE19984687
:1035400053463700AA460593200064210DF03CF94C
:1035500020004E0064210DF037F95B469B195B7823
:1035600025003B725B469B5D0400FB71023F4545B5
:10357000EAD8059B2F0055469A46FA239B009F42A6
:1035800000D388E23034E4B25346002251466B60E7
:103590000B9B2C725A546C68A24B9C4201D100F0D8
:1035A00050FE0B9F661C4F4501D100F090FDAB68AB
:1035B0009E4201D900F0F0FC9B4B9F4204D83A197F
:1035C000934201D800F040FE002C08D0012C01D11C
:1035D00000F0CCFD22003900781C57F0A1FA282316
:1035E0003B700B9F00236E609A46BB5513AB984609
:1035F00011930B9B6E6811AC4B4501D100F053FD4C
:1036000049460B915146AA68696029728549119310
:10361000A26066608E4201D100F010FE771C434527
:1036200001D100F04DFD974201D900F0E8FC2922BC
:103630009A55119B9B4600235A466760D355119AB1
:103640001DAB05931FAB66681D93424501D100F089
:103650006AFD0599A3680C001D928B600B9866604B
:10366000484505D0A96801310DF00EFE66681D9A27
:10367000802173009B195B00C91A0092012311225B
:103680000498490818F0D4F9029B9F8F23AB994600
:1036900025AB23934A460793012353602F333C0005
:1036A0001381092F01D800F090FD632F00D8DFE3CC
:1036B000FA239B009F4201D200F0E1FC574B9F424E
:1036C00001D800F0D1FC2BAB2993099300230426E9
:1036D0002A93053329AD06932D232B722FAB1800A7
:1036E000C9224F499B460DF0B9FD4C4BA8469A465E
:1036F000AE190897200064210DF066F820004F00F5
:1037000064210DF061F85B46DB195B7825003372AC
:103710005B46DB5D0400F371023E5545EAD8434643
:10372000A8461D00FA23089F9B00984500D3ACE3F0
:103730003034E4B200222C720699299B69605A54F5
:10374000049E239B0221300000931D32012318F0B8
:103750006FF980216A68300053009B185B00C91A1A
:10376000299B1D220093012318F062F927232F249F
:103770002722022130000093573318F0EFF87E2300
:103780002F2202213000009418F0E8F802232722AB
:1037900002213000009418F0E1F87E2327227E21D8
:1037A0003000009418F0DAF8002F1BD04423039A5D
:1037B0003900D35A1801C01AC0000CF0DDFF0028F0
:1037C00010D02926A846049D071D0424210032009C
:1037D0002800013418F0AEF8BC42F7D101362D2E86
:1037E000F3D145462998099B984203D0A968013135
:1037F0000DF04AFD2398079B984204D04B469968E8
:1038000001310DF041FD1D981FAB984200D161E6DA
:10381000059B996801310DF037FD5BE60F2700002D
:10382000B4960610FFFFFF7FC89506104422039947
:10383000895A029A156B506B401B8010C2001218F7
:1038400096019219D2001218D6039219D2001218BA
:103850005242914201D300F0E3FCCA00521A920096
:10386000AD18BD4200D06FE5042B00D0D2E223ABEF
:10387000994625AB23934A460793002300259A4691
:1038800053601372059301335A00D318DB001800FC
:1038900098460DF0E9FC83465D442800239B079A77
:1038A00008302860934201D100F087FC2B604B4622
:1038B0009B68AB604B465E68079B4A462393002398
:1038C0006E6053601372A24501D100F074FC434650
:1038D000270026005D46A0460837099309E02B60C3
:1038E000B368AB6018366C6018371835B24500D134
:1038F00012E328003368083074682860BB42EED1B8
:103900003900621C0DF0AAFCECE77C23039A049CAE
:10391000D35A200099467E23D75A0233D358002128
:103920009A464423D35C00229846E04B29AD00938D
:10393000012318F07DF809232000092200210093BB
:10394000763318F00BF8DA4B2A00190051C951C22E
:103950000968103311602FAA934613CB13C21B685A
:10396000002413604A461DAB1F805A8005935346BE
:103970001E9323AB99467F239A46CE4F5A46A30007
:103980002E68D35804980E22B11F0093012318F01B
:103990004FF8059A6300D35A08213A0048460FF0C1
:1039A000E1F848465AF060FB8100411A8919CA4380
:1039B0004300D2171B185B0011405A187F2A01DD03
:1039C0005246D11A4B46182200930498012318F04E
:1039D0002FF8A0452ED001340435042CCED1252358
:1039E000049C00932000252200215A3317F0B6FFD3
:1039F000B14B200000932A220123042118F018F86B
:103A0000AE4B200000932A220123482118F010F821
:103A1000AB4B2000009336220123042118F008F854
:103A2000A84B362200934C210123200018F000F807
:103A3000FFF7B1FB33000B337F2B1DDC31000B395B
:103A4000CA43D2171140212204980092013417F082
:103A500085FF0435042C91D1C1E7069B296898465F
:103A6000012E00D0FDE10B783B7275E4964B069A6F
:103A700003CB03C2FFF7D2FB7F23DFE70DAB0B9332
:103A800099462FAB1800C92290499B460DF0E6FBE2
:103A900002239A460BAD5B4664001B195B786B7280
:103AA0005B461C5D70E53000220039000DF0D6FB4E
:103AB0002F9AA9E4099884E4002A00D1D7E60023CC
:103AC00000259B46B24605934B465E1B53465F1945
:103AD00032000A2138005AF089FA002800D113E197
:103AE0005346C31A9A46013300D10DE11DAB9946E6
:103AF0001FAB1D9353465D1BB54200D935000F2DFA
:103B000000D9B6E0012D00D1BFE0002D21D14B46F8
:103B10005D6000231FAA5355059B9C4226D04A4650
:103B200020001D9B556808301FAA2060934200D1D9
:103B30006BE123604B469B68A36065605546189B0C
:103B40000135994618349D4200D389E0179B9A4667
:103B5000BAE71FA82A0039000DF080FB4B461D9ADA
:103B60005D6000235355059B9C42D8D15B46E51A06
:103B7000EA1093009B1819015B1819025B181904CD
:103B80005B185B009B18524A934200D14BE3012221
:103B9000002B00D0A4E04E4B9A4200D91A005300EB
:103BA0009B18DB00180007930DF05EFB8046454430
:103BB00028001D9B08301FAA2860934200D190E185
:103BC0002B604B469B68AB604B465E681FAB1D93FA
:103BD0004A4600236E60536013725C4500D199E140
:103BE0005F465E464546083728000830286033683F
:103BF0007268BB424DD02B60B3681836AB606A6008
:103C000018371835B442EFD15B46183CE21A314BF5
:103C1000D2085343DB00DB0801335C00E418E40006
:103C200044445B461834002B00D1F4E25A46059B0D
:103C30005846991A0DF028FB079B1D98434405939D
:103C40001FAB984204D04B46996801310DF01CFB24
:103C5000C3465546189B013599469D4200D275E7EB
:103C60009D4200D8CCE24B462A001B491B4825F058
:103C70008FFB002D00DADEE2681C00D5CEE00DF0EF
:103C8000F3FA4B461D909D6064E74A463B781372F9
:103C90003DE7390001320DF0E1FA736818366B60C8
:103CA00018371835B4429FD1AEE7C0467495061058
:103CB00088C6061084950610889506109095061003
:103CC00098950610A495061024960610B496061032
:103CD00055555505ABAAAA0A649606107C9606109F
:103CE0005A00934200D856E7DC480DF0BDFA8046F2
:103CF000454428001D9B08301FAA2860934200D12C
:103D00001AE2D64A07925BE7B046A945ABD323AB8C
:103D1000994625AB3500079323930F2E00D8D1E0A9
:103D2000002E00DA87E2701C78D40DF09DFA4B4625
:103D300023909E60424639000DF090FA239B434445
:103D40004A46556000221A70059BA34200D1CDE17E
:103D50004A4620005568239B079A0830206093420A
:103D600000D1EEE123604B469B68A3606560183488
:103D700027005B46FA1AD21093009B1819015B18B2
:103D800019025B1819045B185B00994691444B4675
:103D90003625DB00ED1A6D100A35BB452DD080238A
:103DA0009846049BBA465C464F460026994663688F
:103DB0002A005900C91843464900591A2368484641
:103DC000009349080123013617F032FE18340835F4
:103DD000BE42ECD357465C46230020680833984225
:103DE00003D0A16801310DF04FFA1834A742F3D186
:103DF0005B46002B01D1FFF764FB5A46059B5846F2
:103E0000991A0DF041FAFFF75CFB6A1C1FA90DF02F
:103E100025FA92E6069E4021FFF74DFB25F040FA79
:103E200002226E210498FEF773FA039B9A5BFFF758
:103E30004DFA002E00DAFEE11D2E4ED81E231F2063
:103E400099460DF011FA069B80461798984203D0C8
:103E5000B96801310DF018FA434617934B46BB6021
:103E60002968320040460DF0F9F9179AFFF775FA04
:103E70002BAB099329932FAB1800C92278499B4695
:103E80000DF0ECF9022329AD06935B4664001B1983
:103E90005B786B725B461C5D4CE4337829AD099A04
:103EA0002B72FFF793FA3B781372FFF7ACFA002CF2
:103EB00000DAC0E1601CB1D40DF0D6F95B462F905A
:103EC0009C60F1E5012E00D040E14A463B78137238
:103ED00008AA75239446634432E7701C9ED4B14609
:103EE000AFE74B465E68721C1FA90DF0B7F96DE68F
:103EF0004B460A2B00D830E180215B004B445B002D
:103F0000C91A1C22012304984908009617F090FD55
:103F1000FFF7D7FA444684E652464446099B183ACE
:103F20009846121B4F4BD2085343DB00DB0801338A
:103F30005F00FF18FF005F441837002C00D166E1D6
:103F4000059B2000191B0DF09FF943465B44059328
:103F50002398079B984200D10BE74B4699680131A3
:103F60000DF092F905E78024049889008046611AD3
:103F7000009314220223490817F05AFD7B00DB1935
:103F80009B00E11A2F9B24220093404602234908FC
:103F900017F04EFDFFF75FFA002E00DA4BE15B00F1
:103FA00098469E426FD2581C002B00DA36E70DF07F
:103FB0005BF9282303700B9B07009A46002C07D05F
:103FC000012C00D1F0E022005146781C0DF046F99A
:103FD000CA4504D0A968504601310DF055F9434651
:103FE0000B97AB60FFF7FEFA032302269A460DAB50
:103FF00099460B9300230BAD0C93FFF795FA002F16
:1040000000DA18E15200974242D2002A00DA05E7AE
:10401000501C059717000DF027F9119B83469A460F
:10402000002E06D0012E00D1BBE0320019000DF0A9
:1040300015F929235A469355C24504D0A168504624
:1040400001310DF021F95B46A7601193059FFFF741
:10405000F2FA042303269A46C9E7C046F8FFFF7F19
:10406000B4960610ABAAAA0A0423032606932BAB28
:1040700009932993002329AD2A93FFF72DFB0323EE
:1040800002260693F3E7A01C00D5C7E6B0468EE7EC
:10409000B01C00D5C2E60597BDE7714B069A03CB6D
:1040A00003C2FFF7BBF8771C3A00494640460DF0C3
:1040B000D5F84B460B9353466B602B7243466660B4
:1040C000102F01D0FFF7B3FA1F201E22A1E7102EF8
:1040D00001D0FFF771FA1F200DF0C6F828230370F6
:1040E0000B9B07009A461E2398466CE75A469D1A7A
:1040F000EA1093009B1819015B1819025B18190448
:104100005B185B009B18574A934200D18BE0012259
:10411000002B2FD11300534A934200D91300A2461B
:104120005C46FFF7B1FB721C414618000DF096F893
:10413000059C1FAAFFF792FA4B465E684A4B07930D
:10414000D1E611006A1C0DF089F80FE6002E55D05B
:104150000798EFE50823260099464B4680215B002F
:104160004B449B00C91A4908FFF7A5F93B787B70BF
:10417000FFF735FA5A009342CCD93B480DF074F85A
:10418000451902002800239B0799083028608B42BC
:104190002BD05C4605999346334A8A469046FFF7F2
:1041A00085FB1B78037044E71B78437010E70823F6
:1041B000069E9946D1E75F46BEE64B4611005E6813
:1041C000721C0DF04BF8FFF777FB2BAB099329938B
:1041D000012329AD0693FFF7ABFA0DAB99460B937C
:1041E00001230BAD9A46FFF7CDF94B465E68059B60
:1041F0005C469A461C4B93469846E1E7079B9FE531
:1042000025AB23AA002591462393079398E54346BF
:104210005B440593ADE5079BC3464344059318E50E
:10422000124825F0B5F8124825F082F8220011490D
:10423000114825F0ADF8114825F07AF8104825F01E
:1042400077F8104825F074F8012239000092280010
:104250000022019432F024FE0B9FFFF7C3F9C04601
:104260003C96061055555505F8FFFF7FCC95061076
:1042700048960610649606107C960610389506102F
:1042800050950610AC950610F0B505002E4B89B080
:104290004C3504000022002128000093012317F070
:1042A000C7FB0A23852600930A22763300212800C3
:1042B00017F054FBA35D112B2DD8244B0A21122299
:1042C00028000093012317F0B3FBA25D204B92005E
:1042D000D758380059F0C8FE802143001B189B00B6
:1042E000C91A1E22022328004910009717F0A0FBCC
:1042F0001221A35D03AC174A013300912000023163
:104300000EF030FC0123382200212800009417F021
:104310008FFB09B0F0BD104B28000093122202233E
:10432000282117F085FB0D4B280000932A2201233A
:104330000E2117F07DFB0A4B382200930A2101233E
:10434000280017F075FBE4E780970610C497061065
:1043500028C60610DC97061090970610989706104E
:10436000B0970610F0B5DE4657464E464546E0B5D6
:1043700095B004000BF0B6FB002900D1A4E0FA22AE
:10438000002392000CF05EFA236FC01A4223E35C14
:10439000142B00D1A3E0E04B3027984200D842E133
:1043A000DE4B4C340822009307210123200017F034
:1043B0003FFB0023012208AE0AAD089598467372B0
:1043C000D74B37727260AB4200D334E12A00B77426
:1043D00003CB03C21B8813800023F37410AB9A46EF
:1043E0000E930EAB99460C22290050460CF036FF76
:1043F0000B234A46536000230895736033721E23D3
:104400001F209B460CF030FF07000E9B0B2219006B
:1044100098460CF023FF38000822C2490B300CF0FC
:104420001DFFD04505D04B469968404601310CF040
:104430002BFF4B465A460E979A6013234A46536009
:104440000023FB740E9A04AB984602AF02935245C8
:1044500000D150E14B469B680292BB601323089841
:104460007B60A84200D144E1B16801310CF00CFF3F
:104470007968029A4B005B1880215B00C91A200002
:10448000012349080092182217F0D2FAA64B2822DD
:10449000042120000093012317F0CAFAA34B200047
:1044A000009334220123012117F0C2FA02984045FB
:1044B00003D0B96801310CF0E7FE15B0F0BCBB4683
:1044C000B246A946A046F0BDFA2189000CF07CF95D
:1044D000236FC01A4223E35C142B00D05BE78E4BA2
:1044E0003027984206D8FA2189000CF06DF935275B
:1044F0003F1AFFB28E4B4C34042200930721012354
:10450000200017F095FA0023012208AE0AAD0895A5
:1045100098467372874B37727260AB4200D3B9E032
:104520002A00377583CB83C20023737510AB9A467C
:104530000E930EAB99460E22290050460CF08EFECB
:104540000D234A46536000230895736033721E237F
:104550001F209B460CF088FE07000E9B0D221900C1
:1045600098460CF07BFE3800032273490D300CF0A6
:1045700075FED04505D04B469968404601310CF098
:1045800083FE4B465A460E979A6010234A46536064
:1045900000233B740E9A04AB984602AF0293524537
:1045A00000D1B1E04B469B680292BB601023089893
:1045B0007B60A84200D1A5E0B16801310CF064FE37
:1045C0007968029A4B005B1880215B00C91A2000B1
:1045D000012349080092102217F02AFA1A231A22FE
:1045E0000A21200000935B3317F0B8F9534B2022C7
:1045F000072120000093012317F01AFA504B2A22BA
:104600000A2120000093012317F012FA4D4B2000DD
:10461000009334220123072117F00AFA029840453B
:1046200000D046E749E7FA2189000CF0CDF835279C
:104630003F1AFFB2B4E6292169448B4200D9C5E68E
:1046400001920932300000922900424632F028FCE3
:1046500043460B2208987260C3720EAB994610ABAA
:104660009A460E93A84200D1BDE649460E904A6094
:104670004246B36808958B6072603272504500D133
:10468000BDE6122B6AD9082226490B300CF0E6FD54
:104690000E9FD2E6292169448B4200D940E701925E
:1046A0000B32300000922900424632F0F9FB4346BB
:1046B0000D220898726043730EAB994610AB9A4670
:1046C0000E93A84200D136E749460E904A60424612
:1046D000B36808958B6072603272504500D136E73E
:1046E0000F2B31D9032214490D300CF0B7FD0E9F6A
:1046F0004BE71321BEE61422514618000CF0AEFD24
:104700004246ABE610215DE71122514618000CF03D
:10471000A5FD42464AE7C0468713000044980610AC
:10472000589806106498061070980610889806101D
:10473000E4970610F897061054980610089806108B
:104740001C980610309806105B009B46581C102BD6
:1047500000D9FFE6102311209B46FBE65B009B4639
:10476000581C132B00D94DE6132314209B4649E611
:1047700030B5836F8BB0002B52D06A4A4C309D58B5
:1047800004000A2D00D181E00B2D00D1A9E0022DFB
:1047900048D0654B002222210093012317F048F9ED
:1047A0000A230A22002120000093753317F0D6F85F
:1047B0005E4B14220A2120000093012317F038F9E0
:1047C0005B4B1D22222120000093012317F030F9BA
:1047D000584B2922042120000093012317F028F9C7
:1047E000342334220021009320004B3317F0B6F815
:1047F000514B524A524902AD0091280020210EF03F
:10480000B1F9280059F030FC802143001B185B00EF
:10481000C91A3722012320004910009517F008F922
:104820000BB030BD474B00221C210093012317F031
:10483000FFF80A230A22002120000093753317F0A5
:104840008DF8414B1022192120000093012317F00D
:10485000EFF83E4B1B220A2120000093012317F0A2
:10486000E7F83B4B26220D2120000093012317F08F
:10487000DFF8342334220021009320004B3317F05B
:104880006DF802AD2C4B2D4A3249B5E7324B002270
:104890001F210093012317F0CBF87F230A22002168
:1048A0002000009517F05AF82C4B142210212000FC
:1048B0000093012317F0BCF8294B1D22252120006D
:1048C0000093012317F0B4F834233422002100931D
:1048D00020004B3317F042F802AD174B174A21491D
:1048E0008AE7214B062200930A21022317F0A0F841
:1048F0001A23200000931A220021653317F02EF8A6
:104900001A4B2000009323220123042117F090F872
:10491000174B2C2200930D210123200017F088F85B
:104920007EE7C046E40400007499061080990610E2
:1049300094990610A0990610CC980610D4980610E9
:10494000B899061020990610309906104099061063
:104950005499061068990610A0980610AC98061095
:10496000C0980610DC980610E8980610F498061017
:104970000C990610F0B5C64600B5856F04008CB0E2
:10498000002D64D03B4B06AE9C46EF586544297918
:10499000394B8A000131D3580091384A1821300030
:1049A0000EF0E0F8300059F05FFB80234100091859
:1049B00049004C34591A00222000491098460096AC
:1049C0007F3B17F035F809230922009300212000CE
:1049D000763316F0C3FF042F3DD0052F3BD0284B74
:1049E0000D22192120000093012317F021F8052141
:1049F0002B7D02AD234A009128000B310EF0B2F856
:104A0000280059F031FB424643001B185B00D11AC5
:104A1000491001231D222000009517F009F81A4BB8
:104A20002A22009322210123200017F001F83423C9
:104A300034220021200000934B3316F08FFF134BDC
:104A40003722009328210123200016F0F1FF0CB03B
:104A500080BCB846F0BD0E4B1022192100932000F7
:104A6000012316F0E5FF0B4B1E2200932E2102239B
:104A7000DAE7C046E404000078C60610C0990610C4
:104A8000EC990610FC9906100C9A0610E099061095
:104A9000CC990610DC990610F0B5C64600B5856FB6
:104AA00092B0002D6DD0394B4C3000220D21009377
:104AB0000123040016F0BCFF092309220021200075
:104AC0000093763316F04AFF314B02A99C46884684
:104AD0006544EB880E212F4A06AF40460EF042F89F
:104AE0000AAE6B890E212C4A38000EF03BF82B8958
:104AF0000E212A4A30000EF035F8AB890EAD0E219A
:104B0000274A28000EF02EF843460C2202212000EE
:104B10000093012316F08CFF01230C224221200078
:104B2000009716F085FF0123152202212000009630
:104B300016F07EFF0123152242212000009516F079
:104B400077FF1F231F22002120000093603316F0FF
:104B500005FF144B2122192120000093012316F098
:104B600067FF342334220021200000934B3316F0DA
:104B7000F5FE0D4B3722009310210123200016F083
:104B800057FF12B080BCB846F0BDC046189A061058
:104B9000E40400002C9A0610389A0610449A061075
:104BA000509A06105C9A06106C9A06104C3010B59C
:104BB00004000D4B82B0009312220223222116F032
:104BC00037FF0A4B200000932A2201231C2116F0F4
:104BD0002FFF074B3322009319210123200016F0E9
:104BE00027FF02B010BDC046A09A0610A89A061072
:104BF000B89A061030B5856F89B0002D58D03B4B60
:104C00004C300122162100930123040016F010FFFE
:104C10000A230A22002120000093753316F09EFE1D
:104C2000334B9C46012365442A781D0051089008A7
:104C3000154019401840D20813404218AA18D2183B
:104C4000012A37D1002D46D1002949D1002849D168
:104C5000002B49D1274B02AD1821274A28000DF01F
:104C600081FF280059F000FA802143001B185B00E7
:104C7000C91A1722012320004910009516F0D8FE0A
:104C80001E4B2B220D2120000093012316F0D0FE95
:104C9000342334220021200000934B3316F05EFEB3
:104CA000174B372200930D210123200016F0C0FE80
:104CB00009B030BD134B20000093132201231321B0
:104CC00016F0B6FE104B1C22009316210123200083
:104CD00016F0AEFED4E700230C4A9B009B58BAE7BF
:104CE0000123F9E70223F7E70323F5E7D09A06103B
:104CF00016050000C89A0610E09A0610109B0610D0
:104D0000249B0610F09A0610009B061078C6061029
:104D1000F0B5DE4657464E464546E0B50C0087B036
:104D2000002B51D01D004C239C4600268444634632
:104D3000B0460027160005930490BB199A462B191C
:104D400099467F2B09D853463F2B06D8049B5246E1
:104D50004C334946180016F0EDFDAB199B46621B1B
:104D60003B19E11B0293019200917F2B33D85B46E4
:104D7000002B6CDB3F2B00DCA2E07F294AD97F2A85
:104D800000D8CAE0731B3F2B06D8059B180003937D
:104D90000299721B16F0CEFD4B467F2B09D8F31BF0
:104DA0003F2B06D8059B039349460398F21B16F048
:104DB000C1FD4346002B1FDD4246013D6B00013320
:104DC000D31A9846AF42B8DD07B0F0BCBB46B24636
:104DD000A946A046F0BD7F2916D97F2ADCD85346C4
:104DE000002B00DA88E03F2B00DCD8E0F31B00D476
:104DF0009BE04346002BDFDC01377B000133984406
:104E00004346002BD8DCDDE75B46002B00DACFE021
:104E10003F2B2CDD7F2A35D85346002B00DAA7E044
:104E20003F2B00DCBBE0F31B00D4EEE0731BC0D4CF
:104E30003F2BBEDC049B00994C331800721B03937C
:104E400016F078FD029B7F2BA6D80398A0E77F2A57
:104E500020DD7F2996D8731B3F2B9DDC049B721BA2
:104E60004C331800039316F065FD039890E7049BFC
:104E70004C3303935A460099039816F05BFD019B4F
:104E80007F2B64D9731B00D586E7731B3F2B00DD96
:104E900082E7CFE75346002B64DB3F2B00DC7EE04C
:104EA000F31B73D4F31B3F2B41DD009B7F2B71D889
:104EB000731B00D57DE7731B3F2B00DD79E7B9E756
:104EC000049B5A464C3318000299039316F032FDA6
:104ED000009B7F2BCED9019B7F2B00D952E75346F5
:104EE000002B00DA9AE03F2B5CDDF31B00D549E78D
:104EF0003F2B4FDC03981EE0F31B3F2B00DD58E7F0
:104F0000049B01994C331800F21B039316F012FD19
:104F10004B467F2B00D94CE746E75346002B5EDB20
:104F20003F2B3CDDF31B00D52CE73F2B32DC049BF1
:104F30004C33180003930199F21B16F0FBFC009B05
:104F40007F2B9FD9029B7F2B00D81BE7E0E75346BE
:104F5000002B50DB3F2B25DDF31B00D566E73F2BF5
:104F6000A6DCC7E7F31B3F2BE1DD7F298DD909E7DD
:104F7000F31B3F2B9CDC049B01994C331800F21B64
:104F8000039316F0D7FC731BC2D47EE7009B7F2BE4
:104F900000D84BE7029B7F2B00D8F3E609E7049B80
:104FA0004C33039352460199039816F0C3FC77E7FC
:104FB0007F2A08DC5346002B2BDB3F2BEFDDF31B56
:104FC00000D533E76EE7731B3F2B00DDE4E6049B5F
:104FD00000994C331800721B16F0ACFCDCE6F31B96
:104FE0003F2B00DDCEE6049B01994C331800F21BE9
:104FF00016F0A0FCC6E6F31B3F2B00DD58E7019935
:105000000398F21B16F096FC3CE73F2B00DD4FE7C0
:105010008DE7F31B3F2B00DD4DE788E7F31B3F2BAC
:1050200000DDAFE601990398F21B16F083FCA9E6B8
:10503000F0B5DE4657464E4645464023E0B5C35CD4
:1050400004008DB00D2B01D900F02FFCD34A9B003A
:10505000D3589F4608AB99460693D14B092608932F
:105060000023042006AF3B730522CE4948440CF0D0
:10507000F5F8069D00237E60AB552500069B4C3558
:105080000022002128000093012316F0D1FC0A23FE
:105090000A22002128000093763316F05FFC0AF004
:1050A00021FD002900D19DE2FA22002392000BF09D
:1050B000C9FB82460023A07C9846002804D07433A4
:1050C000E25C733B5A4090460022237B029203939A
:1050D000002B04D07532A65C743A56400296217EAD
:1050E000A27F002900D044E2002A00D136E37722D3
:1050F000A25C4346002A00D160E3002B01D000F0FF
:10510000E5FB029B002B01D000F0E7FB039B0904A9
:105110001B02034312060B4313436367A24B04971E
:105120009846082343449B46534602934B464746C2
:10513000039405933E787C78731E9946631E9A46C5
:105140001A004946280016F0F5FB524631002800A7
:1051500016F0F0FB731C984619005246280016F012
:10516000E9FB22004946280016F0E4FB220031004A
:10517000280016F0DFFB220041460134280016F01B
:10518000D9FB22004946280016F0D4FB220031004A
:10519000280016F0CFFB023722004146280016F007
:1051A000C9FB5F45C6D1029B039C9A46059B049FA1
:1051B00099468723E25C002A06D08621625C0D2A8C
:1051C00000D9E3E2013262548923E25C002A06D06E
:1051D0008821625C0D2A00D9DBE2013262548B2304
:1051E000E25C002A06D08A21625C0D2A00D9D3E253
:1051F000013262548D23E25C002A06D08C21625C6D
:105200000D2A00D9CBE2013262548F23E25C002ADE
:1052100006D08E21625C0D2A00D9C3E201326254AD
:105220009123E25C002A06D09021625C0D2A00D90D
:10523000BBE2013262549323E25C002A06D0922141
:10524000625C0D2A00D84AE20022E2549523E25C17
:10525000002A06D09421625C0D2A00D842E2002286
:10526000E2548723E35C002B00D024E28923E35C33
:10527000002B00D017E28B23E35C002B00D00AE266
:105280008D23E35C002B00D0FDE18F23E35C002B3A
:1052900000D0F0E19123E35C002B00D0E3E1932305
:1052A000E35C002B00D0D6E19523E35C002B00D01B
:1052B000C9E13B23E25C013BE35C002A00D197E1BA
:1052C0003A4E3178002900D1FDE139490968884614
:1052D000002B00D1FEE1374884460078002802D137
:1052E00051463548016001204146307060460370E8
:1052F000002905D05046411A96204000814267D8C7
:105300002D480168002905D05046411A96204000DA
:1053100081425DD83021615C002900D0F0E131315B
:10532000615C00294CD13231615C002900D094E2EB
:105330003331615C002900D0C1E23431615C002965
:1053400000D0F4E23631615C002900D005E335314C
:10535000615C002900D00DE33731615C002900D089
:1053600034E33831615C002900D057E33931615CA6
:10537000002900D055E3002B00D055E3002A00D0CF
:1053800058E33C33E35C002B00D050E33D33E35C57
:10539000002B1DD0094B313114E0C046C4C50610A6
:1053A0004D494449209C061070C6061095620020A5
:1053B000584A002094620020544A0020809B061026
:1053C0003421D14B009310220123280016F030FB2A
:1053D000362336220021280000934A3316F0BEFA05
:1053E000CA4B2800009338220123002116F020FB2D
:1053F0000698484503D0B96801310BF045FF0DB060
:10540000F0BCBB46B246A946A046F0BD08AB9946E3
:105410004A460693BE4B03CB03C21B88138000236E
:1054200006AF0F260A20BB741EE608AB994606930A
:10543000B84B4A4603CB03C2198806AF11809B784C
:10544000102693700B237B600023FB740B3398466C
:105450001F200BF009FF069B424619009A460500E3
:105460000BF0FCFE43460522AB49E8180BF0F6FEB4
:10547000CA4504D0B968504601310BF005FF1E2320
:105480000695BB60F6E508AB99460693A34BD0E7BB
:1054900008AB99460693A24BCBE708AB99464A4620
:1054A0000693A04B06AF03CB03C200230D260820B2
:1054B0003B74D9E508AB9946494606939A4B06AF2B
:1054C0001A680C2608929A8807208A809B798B712B
:1054D0000023FB73C8E508AB994649460693934BF6
:1054E00006AF1A8808260A809B7803208B70002359
:1054F000FB72B9E508AB99464A4606938C4B03CB41
:1055000003C21B781370002306AF0E2609207B749C
:10551000AAE508AB99464A460693864B03CB03C2DD
:105520001B781370EFE708AB99464A460693824B07
:1055300006AF23CB23C21B88132613800E237B6068
:105540000023BB750E33984682E708AB99464A465E
:1055500006937A4B03CB03C21B8813805FE708AB2B
:1055600099460693764B64E708AB99460693754BCC
:105570005FE77626A65DB4460126B34666465B46DF
:105580005E4004964346002A43D07722A25C002A5C
:105590003FD1002B00D09EE1029B002B00D0AEE15A
:1055A000002E0CD08F22A25C002A00D111E29122A1
:1055B000A25C002A03D1802690327600A6520122F6
:1055C0009326A65D002E00D1C2E19526A65D002E91
:1055D00000D09BE5012680237600A61992365B0059
:1055E000338093E5FA2189000BF0EEF8824661E5FD
:1055F00055490A60002B78D054490878002800D01B
:10560000D6E0564652480660524E327001260E7061
:1056100077E6002B00D0F8E0029B002B00D01FE1C2
:10562000049B002B00D171E58F26A65D002E00D1D2
:1056300096E19126A65D002E00D067E58023903686
:105640005B00A35362E5942326226D212000E35CD6
:10565000FFF75EFB2DE6922326226D212000E35CFE
:10566000FFF756FB20E6902326224E212000E35C24
:10567000FFF74EFB13E68E2326224E212000E35C2B
:10568000FFF746FB06E68C2326222F212000E35C51
:10569000FFF73EFBF9E58A2326222F212000E35C59
:1056A000FFF736FBECE58823262210212000E35C7F
:1056B000FFF72EFBDFE58623262210212000E35C86
:1056C000FFF726FBD2E550461F49D0460860002B65
:1056D00000D000E61E4803601C48844603E6013201
:1056E0006254B3E501326254BBE519490B601949B4
:1056F0000B7016490B703021615C002900D10EE659
:105700003A21154B5EE6C046389B0610289C0610D1
:10571000149C0610C09B0610209C0610CC9B061003
:10572000D89B0610E49B0610F09B0610F89B061011
:10573000FC9B0610089C06108C9B06109C9B061078
:10574000A89B0610B49B0610584A002094620020C3
:10575000544A002095620020889B06104346002B87
:1057600000D09EE0029B002B01D10022CEE48B22D0
:10577000A25C002A00D123E18D22A25C002AF4D190
:1057800080268C327600A6520022BFE40022E2542A
:105790001AE50022E25422E50022E2542AE5002222
:1057A000E25432E50022E2543AE50022E25442E5B6
:1057B000A648027001200870A548A2E5002B00D081
:1057C00080E0029B002B00D1F9E68B22A25C002A2C
:1057D00000D117E18D22A35C0493002B00D0EEE6EC
:1057E00080268C22049B7600A652002B00D1E6E690
:1057F000049A90468F26A65D002E00D1B6E0912631
:10580000A65D002E13D1013644E00023984687237D
:10581000E35C002B00D18DE08923E35C002B00D1F9
:1058200098E0029B002B07D1049B002BE2D143465A
:10583000002B00D16AE4C3E68B26A65D002E00D1C2
:1058400096E08D26A65D002EEED1013680237600EF
:10585000A6198A365B003380E6E734217D4BB1E53B
:105860008B26A65D002E00D191E08D26A35D984683
:10587000002B00D181E0049B002B00D146E48F2651
:10588000A65D002E6CD09126A35D903E9846002B1D
:1058900000D03BE480237600A6198E365B0033806F
:1058A000C5E7002398460493B1E708AB99460693F1
:1058B0003F2306AF062601203B81FFF7D5FB3121B0
:1058C000654B7FE5002342460493A0E70023424650
:1058D000049398469BE7424699E78B22A35C002BF2
:1058E00000D194E00232A25C002A01D0FFF70EFC46
:1058F00080268C327600A6521A00FFF707FC8B2216
:10590000A25C002A6AD08D22A25C002A00D167E73F
:10591000002E00D153E68F22A25C002A59D0912696
:10592000A65D002E00D04AE690460136B2E731214E
:105930004A4B47E500239B465B465B009B4686231C
:105940009C46A3448026E3445B4676001E8068E7BD
:10595000002640E601339B46EEE73121404B31E51E
:1059600080238E265B00A353FFF7D0FB002691E730
:1059700000266BE734213B4B24E50133FF33013E26
:10598000A353049B002B01D1FFF7C0FB32E7802318
:105990008A265B009846A353049B002B01D1FFF796
:1059A000B5FB0536A65D002E47D09126A65D002EDC
:1059B00001D0FFF7ABFB43469036A353FFF7A6FB9E
:1059C00080238A265B00A353FFF7A0FB3421264BDC
:1059D000F8E480268E227600A652F0E53300802679
:1059E0008A227600A652002B00D1E8E50532A25C9F
:1059F000002A27D09122A25C002A00D0DFE5903255
:105A0000A652DCE580268A227600A652D7E58023BE
:105A10008A225B00A352029AFFF778FB3D21134BC9
:105A2000D0E43D21124BCDE43121124BCAE43421A4
:105A3000114BC7E42E21114BC4E48E264346A353D9
:105A4000FFF764FB8E22A652B9E5C046956200209E
:105A5000544A0020C09C0610CC9C0610409B0610A7
:105A6000489B0610509B0610589B0610609B061022
:105A7000649B0610689B0610789B0610709B0610AE
:105A800030B583B004000AF02DF8002921D0FA22A5
:105A9000002392000AF0D6FEA36EC01A0F2816D972
:105AA0001033A366237A002B18D025004C3528002C
:105AB00015F038FF237A0A2B06D8324A9B00D358B8
:105AC0009F462000FEF74EFC280015F0E5FF03B0CE
:105AD00030BDFA2189000AF077FEDDE70AF002F80E
